{
  "_format": "hh-sol-artifact-1",
  "contractName": "AutoPassport",
  "sourceName": "contracts/AutoPassport.sol",
  "abi": [
    {
      "inputs": [],
      "stateMutability": "nonpayable",
      "type": "constructor"
    },
    {
      "anonymous": false,
      "inputs": [
        {
          "indexed": true,
          "internalType": "address",
          "name": "owner",
          "type": "address"
        },
        {
          "indexed": true,
          "internalType": "address",
          "name": "approved",
          "type": "address"
        },
        {
          "indexed": true,
          "internalType": "uint256",
          "name": "tokenId",
          "type": "uint256"
        }
      ],
      "name": "Approval",
      "type": "event"
    },
    {
      "anonymous": false,
      "inputs": [
        {
          "indexed": true,
          "internalType": "address",
          "name": "owner",
          "type": "address"
        },
        {
          "indexed": true,
          "internalType": "address",
          "name": "operator",
          "type": "address"
        },
        {
          "indexed": false,
          "internalType": "bool",
          "name": "approved",
          "type": "bool"
        }
      ],
      "name": "ApprovalForAll",
      "type": "event"
    },
    {
      "anonymous": false,
      "inputs": [
        {
          "indexed": false,
          "internalType": "uint256",
          "name": "_fromTokenId",
          "type": "uint256"
        },
        {
          "indexed": false,
          "internalType": "uint256",
          "name": "_toTokenId",
          "type": "uint256"
        }
      ],
      "name": "BatchMetadataUpdate",
      "type": "event"
    },
    {
      "anonymous": false,
      "inputs": [
        {
          "indexed": true,
          "internalType": "bytes32",
          "name": "id",
          "type": "bytes32"
        }
      ],
      "name": "ChainlinkCancelled",
      "type": "event"
    },
    {
      "anonymous": false,
      "inputs": [
        {
          "indexed": true,
          "internalType": "bytes32",
          "name": "id",
          "type": "bytes32"
        }
      ],
      "name": "ChainlinkFulfilled",
      "type": "event"
    },
    {
      "anonymous": false,
      "inputs": [
        {
          "indexed": true,
          "internalType": "bytes32",
          "name": "id",
          "type": "bytes32"
        }
      ],
      "name": "ChainlinkRequested",
      "type": "event"
    },
    {
      "anonymous": false,
      "inputs": [
        {
          "indexed": false,
          "internalType": "uint256",
          "name": "_tokenId",
          "type": "uint256"
        }
      ],
      "name": "MetadataUpdate",
      "type": "event"
    },
    {
      "anonymous": false,
      "inputs": [
        {
          "indexed": true,
          "internalType": "address",
          "name": "from",
          "type": "address"
        },
        {
          "indexed": true,
          "internalType": "address",
          "name": "to",
          "type": "address"
        }
      ],
      "name": "OwnershipTransferRequested",
      "type": "event"
    },
    {
      "anonymous": false,
      "inputs": [
        {
          "indexed": true,
          "internalType": "address",
          "name": "from",
          "type": "address"
        },
        {
          "indexed": true,
          "internalType": "address",
          "name": "to",
          "type": "address"
        }
      ],
      "name": "OwnershipTransferred",
      "type": "event"
    },
    {
      "anonymous": false,
      "inputs": [
        {
          "indexed": true,
          "internalType": "address",
          "name": "from",
          "type": "address"
        },
        {
          "indexed": true,
          "internalType": "address",
          "name": "to",
          "type": "address"
        },
        {
          "indexed": true,
          "internalType": "uint256",
          "name": "tokenId",
          "type": "uint256"
        }
      ],
      "name": "Transfer",
      "type": "event"
    },
    {
      "inputs": [],
      "name": "acceptOwnership",
      "outputs": [],
      "stateMutability": "nonpayable",
      "type": "function"
    },
    {
      "inputs": [
        {
          "internalType": "address",
          "name": "to",
          "type": "address"
        },
        {
          "internalType": "uint256",
          "name": "tokenId",
          "type": "uint256"
        }
      ],
      "name": "approve",
      "outputs": [],
      "stateMutability": "nonpayable",
      "type": "function"
    },
    {
      "inputs": [
        {
          "internalType": "address",
          "name": "owner",
          "type": "address"
        }
      ],
      "name": "balanceOf",
      "outputs": [
        {
          "internalType": "uint256",
          "name": "",
          "type": "uint256"
        }
      ],
      "stateMutability": "view",
      "type": "function"
    },
    {
      "inputs": [
        {
          "internalType": "uint256",
          "name": "tokenId",
          "type": "uint256"
        }
      ],
      "name": "burn",
      "outputs": [],
      "stateMutability": "nonpayable",
      "type": "function"
    },
    {
      "inputs": [
        {
          "internalType": "uint256",
          "name": "",
          "type": "uint256"
        }
      ],
      "name": "carPurchasesInflation",
      "outputs": [
        {
          "internalType": "string",
          "name": "",
          "type": "string"
        }
      ],
      "stateMutability": "view",
      "type": "function"
    },
    {
      "inputs": [
        {
          "internalType": "string",
          "name": "vin",
          "type": "string"
        }
      ],
      "name": "checkFines",
      "outputs": [],
      "stateMutability": "nonpayable",
      "type": "function"
    },
    {
      "inputs": [
        {
          "internalType": "string",
          "name": "vin",
          "type": "string"
        }
      ],
      "name": "checkFinesAndReturnCar",
      "outputs": [
        {
          "components": [
            {
              "internalType": "string",
              "name": "brand",
              "type": "string"
            },
            {
              "internalType": "string",
              "name": "model",
              "type": "string"
            },
            {
              "internalType": "string",
              "name": "vin",
              "type": "string"
            },
            {
              "internalType": "string",
              "name": "color_code",
              "type": "string"
            },
            {
              "internalType": "string",
              "name": "date_of_manufacture",
              "type": "string"
            },
            {
              "internalType": "string",
              "name": "warranty_expiration_date",
              "type": "string"
            },
            {
              "internalType": "string",
              "name": "fuel_type",
              "type": "string"
            },
            {
              "internalType": "uint256",
              "name": "mileage",
              "type": "uint256"
            },
            {
              "internalType": "string[]",
              "name": "repair_history",
              "type": "string[]"
            },
            {
              "internalType": "string[]",
              "name": "maintenance_history",
              "type": "string[]"
            },
            {
              "internalType": "string",
              "name": "last_update",
              "type": "string"
            },
            {
              "internalType": "bool",
              "name": "hasFines",
              "type": "bool"
            }
          ],
          "internalType": "struct AutoPassport.Car",
          "name": "objCar",
          "type": "tuple"
        }
      ],
      "stateMutability": "nonpayable",
      "type": "function"
    },
    {
      "inputs": [
        {
          "internalType": "address",
          "name": "to",
          "type": "address"
        },
        {
          "internalType": "string",
          "name": "brand",
          "type": "string"
        },
        {
          "internalType": "string",
          "name": "model",
          "type": "string"
        },
        {
          "internalType": "string",
          "name": "vin",
          "type": "string"
        },
        {
          "internalType": "string",
          "name": "color_code",
          "type": "string"
        },
        {
          "internalType": "string",
          "name": "date_of_manufacture",
          "type": "string"
        },
        {
          "internalType": "string",
          "name": "warranty_expiration_date",
          "type": "string"
        },
        {
          "internalType": "string",
          "name": "fuel_type",
          "type": "string"
        },
        {
          "internalType": "string",
          "name": "last_update",
          "type": "string"
        },
        {
          "internalType": "string",
          "name": "uriIpfsUrl",
          "type": "string"
        }
      ],
      "name": "createAutoPassport",
      "outputs": [],
      "stateMutability": "nonpayable",
      "type": "function"
    },
    {
      "inputs": [
        {
          "internalType": "bytes32",
          "name": "_requestId",
          "type": "bytes32"
        },
        {
          "internalType": "bytes",
          "name": "_inflation",
          "type": "bytes"
        }
      ],
      "name": "fulfillCarPurchasesInflation",
      "outputs": [],
      "stateMutability": "nonpayable",
      "type": "function"
    },
    {
      "inputs": [
        {
          "internalType": "bytes32",
          "name": "_requestId",
          "type": "bytes32"
        },
        {
          "internalType": "bytes",
          "name": "_inflation",
          "type": "bytes"
        }
      ],
      "name": "fulfillGasolineInflation",
      "outputs": [],
      "stateMutability": "nonpayable",
      "type": "function"
    },
    {
      "inputs": [
        {
          "internalType": "bytes32",
          "name": "requestId",
          "type": "bytes32"
        },
        {
          "internalType": "string",
          "name": "hasFinesResponse",
          "type": "string"
        }
      ],
      "name": "fulfillMultipleParameters",
      "outputs": [],
      "stateMutability": "nonpayable",
      "type": "function"
    },
    {
      "inputs": [
        {
          "internalType": "uint256",
          "name": "",
          "type": "uint256"
        }
      ],
      "name": "gasolineInflation",
      "outputs": [
        {
          "internalType": "string",
          "name": "",
          "type": "string"
        }
      ],
      "stateMutability": "view",
      "type": "function"
    },
    {
      "inputs": [
        {
          "internalType": "uint256",
          "name": "tokenId",
          "type": "uint256"
        }
      ],
      "name": "getApproved",
      "outputs": [
        {
          "internalType": "address",
          "name": "",
          "type": "address"
        }
      ],
      "stateMutability": "view",
      "type": "function"
    },
    {
      "inputs": [
        {
          "internalType": "string",
          "name": "vin",
          "type": "string"
        }
      ],
      "name": "getObjCarByVIN",
      "outputs": [
        {
          "internalType": "uint256",
          "name": "tokenId",
          "type": "uint256"
        },
        {
          "components": [
            {
              "internalType": "string",
              "name": "brand",
              "type": "string"
            },
            {
              "internalType": "string",
              "name": "model",
              "type": "string"
            },
            {
              "internalType": "string",
              "name": "vin",
              "type": "string"
            },
            {
              "internalType": "string",
              "name": "color_code",
              "type": "string"
            },
            {
              "internalType": "string",
              "name": "date_of_manufacture",
              "type": "string"
            },
            {
              "internalType": "string",
              "name": "warranty_expiration_date",
              "type": "string"
            },
            {
              "internalType": "string",
              "name": "fuel_type",
              "type": "string"
            },
            {
              "internalType": "uint256",
              "name": "mileage",
              "type": "uint256"
            },
            {
              "internalType": "string[]",
              "name": "repair_history",
              "type": "string[]"
            },
            {
              "internalType": "string[]",
              "name": "maintenance_history",
              "type": "string[]"
            },
            {
              "internalType": "string",
              "name": "last_update",
              "type": "string"
            },
            {
              "internalType": "bool",
              "name": "hasFines",
              "type": "bool"
            }
          ],
          "internalType": "struct AutoPassport.Car",
          "name": "objCar",
          "type": "tuple"
        },
        {
          "internalType": "string",
          "name": "uri",
          "type": "string"
        }
      ],
      "stateMutability": "view",
      "type": "function"
    },
    {
      "inputs": [
        {
          "internalType": "address",
          "name": "owner",
          "type": "address"
        },
        {
          "internalType": "address",
          "name": "operator",
          "type": "address"
        }
      ],
      "name": "isApprovedForAll",
      "outputs": [
        {
          "internalType": "bool",
          "name": "",
          "type": "bool"
        }
      ],
      "stateMutability": "view",
      "type": "function"
    },
    {
      "inputs": [],
      "name": "jobGasId",
      "outputs": [
        {
          "internalType": "string",
          "name": "",
          "type": "string"
        }
      ],
      "stateMutability": "view",
      "type": "function"
    },
    {
      "inputs": [],
      "name": "name",
      "outputs": [
        {
          "internalType": "string",
          "name": "",
          "type": "string"
        }
      ],
      "stateMutability": "view",
      "type": "function"
    },
    {
      "inputs": [],
      "name": "oracleId",
      "outputs": [
        {
          "internalType": "address",
          "name": "",
          "type": "address"
        }
      ],
      "stateMutability": "view",
      "type": "function"
    },
    {
      "inputs": [],
      "name": "owner",
      "outputs": [
        {
          "internalType": "address",
          "name": "",
          "type": "address"
        }
      ],
      "stateMutability": "view",
      "type": "function"
    },
    {
      "inputs": [
        {
          "internalType": "uint256",
          "name": "tokenId",
          "type": "uint256"
        }
      ],
      "name": "ownerOf",
      "outputs": [
        {
          "internalType": "address",
          "name": "",
          "type": "address"
        }
      ],
      "stateMutability": "view",
      "type": "function"
    },
    {
      "inputs": [
        {
          "internalType": "string",
          "name": "data_",
          "type": "string"
        }
      ],
      "name": "requestCarPurchasesInflation",
      "outputs": [
        {
          "internalType": "bytes32",
          "name": "requestId",
          "type": "bytes32"
        }
      ],
      "stateMutability": "nonpayable",
      "type": "function"
    },
    {
      "inputs": [
        {
          "internalType": "string",
          "name": "vin",
          "type": "string"
        }
      ],
      "name": "requestFinesApi",
      "outputs": [],
      "stateMutability": "nonpayable",
      "type": "function"
    },
    {
      "inputs": [
        {
          "internalType": "string",
          "name": "data_",
          "type": "string"
        }
      ],
      "name": "requestGasolineInflation",
      "outputs": [
        {
          "internalType": "bytes32",
          "name": "requestId",
          "type": "bytes32"
        }
      ],
      "stateMutability": "nonpayable",
      "type": "function"
    },
    {
      "inputs": [
        {
          "internalType": "address",
          "name": "from",
          "type": "address"
        },
        {
          "internalType": "address",
          "name": "to",
          "type": "address"
        },
        {
          "internalType": "uint256",
          "name": "tokenId",
          "type": "uint256"
        }
      ],
      "name": "safeTransferFrom",
      "outputs": [],
      "stateMutability": "nonpayable",
      "type": "function"
    },
    {
      "inputs": [
        {
          "internalType": "address",
          "name": "from",
          "type": "address"
        },
        {
          "internalType": "address",
          "name": "to",
          "type": "address"
        },
        {
          "internalType": "uint256",
          "name": "tokenId",
          "type": "uint256"
        },
        {
          "internalType": "bytes",
          "name": "data",
          "type": "bytes"
        }
      ],
      "name": "safeTransferFrom",
      "outputs": [],
      "stateMutability": "nonpayable",
      "type": "function"
    },
    {
      "inputs": [
        {
          "internalType": "address",
          "name": "operator",
          "type": "address"
        },
        {
          "internalType": "bool",
          "name": "approved",
          "type": "bool"
        }
      ],
      "name": "setApprovalForAll",
      "outputs": [],
      "stateMutability": "nonpayable",
      "type": "function"
    },
    {
      "inputs": [
        {
          "internalType": "bytes4",
          "name": "interfaceId",
          "type": "bytes4"
        }
      ],
      "name": "supportsInterface",
      "outputs": [
        {
          "internalType": "bool",
          "name": "",
          "type": "bool"
        }
      ],
      "stateMutability": "view",
      "type": "function"
    },
    {
      "inputs": [],
      "name": "symbol",
      "outputs": [
        {
          "internalType": "string",
          "name": "",
          "type": "string"
        }
      ],
      "stateMutability": "view",
      "type": "function"
    },
    {
      "inputs": [
        {
          "internalType": "uint256",
          "name": "tokenId",
          "type": "uint256"
        }
      ],
      "name": "tokenURI",
      "outputs": [
        {
          "internalType": "string",
          "name": "",
          "type": "string"
        }
      ],
      "stateMutability": "view",
      "type": "function"
    },
    {
      "inputs": [
        {
          "internalType": "address",
          "name": "from",
          "type": "address"
        },
        {
          "internalType": "address",
          "name": "to",
          "type": "address"
        },
        {
          "internalType": "uint256",
          "name": "tokenId",
          "type": "uint256"
        }
      ],
      "name": "transferFrom",
      "outputs": [],
      "stateMutability": "nonpayable",
      "type": "function"
    },
    {
      "inputs": [
        {
          "internalType": "address",
          "name": "to",
          "type": "address"
        }
      ],
      "name": "transferOwnership",
      "outputs": [],
      "stateMutability": "nonpayable",
      "type": "function"
    },
    {
      "inputs": [
        {
          "internalType": "string",
          "name": "vin",
          "type": "string"
        },
        {
          "internalType": "uint256",
          "name": "mileage",
          "type": "uint256"
        },
        {
          "internalType": "string",
          "name": "newRepair",
          "type": "string"
        },
        {
          "internalType": "string",
          "name": "newMaintenance",
          "type": "string"
        },
        {
          "internalType": "string",
          "name": "newURI",
          "type": "string"
        },
        {
          "internalType": "string",
          "name": "last_update",
          "type": "string"
        }
      ],
      "name": "updateAutoPassport",
      "outputs": [],
      "stateMutability": "nonpayable",
      "type": "function"
    },
    {
      "inputs": [
        {
          "internalType": "uint256",
          "name": "",
          "type": "uint256"
        }
      ],
      "name": "vinCreated",
      "outputs": [
        {
          "internalType": "string",
          "name": "",
          "type": "string"
        }
      ],
      "stateMutability": "view",
      "type": "function"
    },
    {
      "inputs": [],
      "name": "vinProcessing",
      "outputs": [
        {
          "internalType": "string",
          "name": "",
          "type": "string"
        }
      ],
      "stateMutability": "view",
      "type": "function"
    },
    {
      "inputs": [],
      "name": "withdrawLink",
      "outputs": [],
      "stateMutability": "nonpayable",
      "type": "function"
    }
  ],
  "bytecode": "0x600160045560a060408190526000608081905262000020916011916200030a565b503480156200002e57600080fd5b50604080518082018252600c81526b105d5d1bdc185cdcdc1bdc9d60a21b602080830191909152825180840190935260048352635061737360e01b90830152903380600081620000c55760405162461bcd60e51b815260206004820152601860248201527f43616e6e6f7420736574206f776e657220746f207a65726f000000000000000060448201526064015b60405180910390fd5b600680546001600160a01b0319166001600160a01b0384811691909117909155811615620000f857620000f8816200023b565b5050825162000110915060089060208501906200030a565b508051620001269060099060208401906200030a565b5050506200014e73326c977e6efc84e512bb9c30f76e30c160ed06fb620002e860201b60201c565b600380546001600160a01b0319167340193c8518bb267228fc409a613bdbd8ec5a97b31790557f3764383061363338366566353433613361626235323831376636373037653362600f55600a620001af670de0b6b3a76400006001620003b0565b620001bb9190620003de565b601055670de0b6b3a76400006017556040805180820190915260208082527f64323230653565363837383834343632393039613033303231333835623761659181019182526200020e916016916200030a565b50601580546001600160a01b031916736d141cf6c43f7eabf94e288f5aa3f233572784991790556200043e565b6001600160a01b038116331415620002965760405162461bcd60e51b815260206004820152601760248201527f43616e6e6f74207472616e7366657220746f2073656c660000000000000000006044820152606401620000bc565b600780546001600160a01b0319166001600160a01b03838116918217909255600654604051919216907fed8889f560326eb138920d842192f0eb3dd22b4f139c87a2c57538e05bae127890600090a350565b600280546001600160a01b0319166001600160a01b0392909216919091179055565b828054620003189062000401565b90600052602060002090601f0160209004810192826200033c576000855562000387565b82601f106200035757805160ff191683800117855562000387565b8280016001018555821562000387579182015b82811115620003875782518255916020019190600101906200036a565b506200039592915062000399565b5090565b5b808211156200039557600081556001016200039a565b6000816000190483118215151615620003d957634e487b7160e01b600052601160045260246000fd5b500290565b600082620003fc57634e487b7160e01b600052601260045260246000fd5b500490565b600181811c908216806200041657607f821691505b602082108114156200043857634e487b7160e01b600052602260045260246000fd5b50919050565b615001806200044e6000396000f3fe608060405234801561001057600080fd5b50600436106102415760003560e01c80638da5cb5b11610145578063b6a9a38a116100bd578063c87b56dd1161008c578063e772124511610071578063e7721245146104a8578063e985e9c5146104c8578063f2fde38b1461050457600080fd5b8063c87b56dd14610482578063d15995d31461049557600080fd5b8063b6a9a38a14610436578063b88d4fde14610449578063bf450d151461045c578063c47795db1461046f57600080fd5b806395d89b4111610114578063a1824d01116100f9578063a1824d01146103ee578063a22cb46514610401578063a79d65651461041457600080fd5b806395d89b41146103d3578063973cacb6146103db57600080fd5b80638da5cb5b1461039f5780638dc654a2146103b05780638de7c7d7146103b857806390d7d418146103cb57600080fd5b806342842e0e116101d85780636352211e116101a757806370a082311161018c57806370a082311461038457806379ba5097146103975780638514ecc7146102f157600080fd5b80636352211e146103505780636ef159251461036357600080fd5b806342842e0e1461030457806342966c681461031757806351dfe0451461032a57806360dcc2871461033d57600080fd5b80631875f756116102145780631875f756146102c35780632121778d146102cb57806323b872dd146102de5780632a49149a146102f157600080fd5b806301ffc9a71461024657806306fdde031461026e578063081812fc14610283578063095ea7b3146102ae575b600080fd5b6102596102543660046143c6565b610517565b60405190151581526020015b60405180910390f35b610276610528565b604051610265919061443b565b61029661029136600461444e565b6105ba565b6040516001600160a01b039091168152602001610265565b6102c16102bc366004614483565b6105e1565b005b610276610736565b601554610296906001600160a01b031681565b6102c16102ec3660046144ad565b6107c4565b6102c16102ff36600461458c565b61083c565b6102c16103123660046144ad565b610946565b6102c161032536600461444e565b610961565b6102c16103383660046145d3565b6109d8565b61027661034b36600461444e565b610af4565b61029661035e36600461444e565b610b1f565b6103766103713660046145d3565b610b84565b604051908152602001610265565b610376610392366004614608565b610d7d565b6102c1610e17565b6006546001600160a01b0316610296565b6102c1610ecc565b6103766103c63660046145d3565b611031565b610276611117565b610276611124565b6102c16103e9366004614623565b611133565b6102766103fc36600461444e565b61153d565b6102c161040f3660046147a8565b61154d565b6104276104223660046145d3565b61155c565b60405161026593929190614965565b6102c161044436600461458c565b611cec565b6102c1610457366004614990565b611f4b565b6102c161046a3660046149f8565b611fc3565b6102c161047d3660046145d3565b61222c565b61027661049036600461444e565b6122a9565b6102766104a336600461444e565b6122b4565b6104bb6104b63660046145d3565b6122c4565b6040516102659190614ad2565b6102596104d6366004614ae5565b6001600160a01b039182166000908152600d6020908152604080832093909416825291909152205460ff1690565b6102c1610512366004614608565b612a52565b600061052282612a63565b92915050565b60606008805461053790614b18565b80601f016020809104026020016040519081016040528092919081815260200182805461056390614b18565b80156105b05780601f10610585576101008083540402835291602001916105b0565b820191906000526020600020905b81548152906001019060200180831161059357829003601f168201915b5050505050905090565b60006105c582612aa1565b506000908152600c60205260409020546001600160a01b031690565b60006105ec82610b1f565b9050806001600160a01b0316836001600160a01b0316141561067b5760405162461bcd60e51b815260206004820152602160248201527f4552433732313a20617070726f76616c20746f2063757272656e74206f776e6560448201527f720000000000000000000000000000000000000000000000000000000000000060648201526084015b60405180910390fd5b336001600160a01b03821614806106b557506001600160a01b0381166000908152600d6020908152604080832033845290915290205460ff165b6107275760405162461bcd60e51b815260206004820152603d60248201527f4552433732313a20617070726f76652063616c6c6572206973206e6f7420746f60448201527f6b656e206f776e6572206f7220617070726f76656420666f7220616c6c0000006064820152608401610672565b6107318383612b05565b505050565b6016805461074390614b18565b80601f016020809104026020016040519081016040528092919081815260200182805461076f90614b18565b80156107bc5780601f10610791576101008083540402835291602001916107bc565b820191906000526020600020905b81548152906001019060200180831161079f57829003601f168201915b505050505081565b6107cf335b82612b73565b6108315760405162461bcd60e51b815260206004820152602d60248201527f4552433732313a2063616c6c6572206973206e6f7420746f6b656e206f776e6560448201526c1c881bdc88185c1c1c9bdd9959609a1b6064820152608401610672565b610731838383612bf2565b60008281526005602052604090205482906001600160a01b031633146108b55760405162461bcd60e51b815260206004820152602860248201527f536f75726365206d75737420626520746865206f7261636c65206f6620746865604482015267081c995c5d595cdd60c21b6064820152608401610672565b60008181526005602052604080822080546001600160a01b03191690555182917f7cc135e0cebb02c3480ae5d74d377283180a2601f8f644edf7987b009316c63a91a2601380546001810182556000919091528251839161093f917f66de8ffda797e3de9c05e8fc57b3bf0ec28a930d40b0d285d93c06501cf6a09090910190602084019061426b565b5050505050565b61073183838360405180602001604052806000815250611f4b565b61096a336107c9565b6109cc5760405162461bcd60e51b815260206004820152602d60248201527f4552433732313a2063616c6c6572206973206e6f7420746f6b656e206f776e6560448201526c1c881bdc88185c1c1c9bdd9959609a1b6064820152608401610672565b6109d581612deb565b50565b60006109ee600f543063b6a9a38a60e01b612df4565b8251909150610a0490601190602085019061426b565b50600082604051602001610a189190614b4d565b60408051601f19818403018152828201909152600382527f676574000000000000000000000000000000000000000000000000000000000060208301529150610a6390839083612e85565b610ae26040518060400160405280600481526020017f70617468000000000000000000000000000000000000000000000000000000008152506040518060400160405280600881526020017f68617346696e657300000000000000000000000000000000000000000000000081525084612e859092919063ffffffff16565b610aee82601054612ea3565b50505050565b60138181548110610b0457600080fd5b90600052602060002001600091509050805461074390614b18565b6000818152600a60205260408120546001600160a01b0316806105225760405162461bcd60e51b815260206004820152601860248201527f4552433732313a20696e76616c696420746f6b656e20494400000000000000006044820152606401610672565b600080610bbb610b946016614bb8565b307f8514ecc700000000000000000000000000000000000000000000000000000000612df4565b9050610c26604051806040016040528060078152602001667365727669636560c81b8152506040518060400160405280601281526020017f747275666c6174696f6e2f61742d64617465000000000000000000000000000081525083612e859092919063ffffffff16565b6040805180820190915260048152636461746160e01b6020820152610c4d90829085612e85565b610c91604051806040016040528060078152602001660d6caf2e0c2e8d60cb1b8152506040518060600160405280602f8152602001614f74602f9139839190612e85565b610d106040518060400160405280600381526020017f61626900000000000000000000000000000000000000000000000000000000008152506040518060400160405280600481526020017f6a736f6e0000000000000000000000000000000000000000000000000000000081525083612e859092919063ffffffff16565b60408051808201909152600881527f726566756e64546f0000000000000000000000000000000000000000000000006020820152610d5b90610d53336014612ebd565b839190612e85565b601554601754610d76916001600160a01b031690839061309e565b9392505050565b60006001600160a01b038216610dfb5760405162461bcd60e51b815260206004820152602960248201527f4552433732313a2061646472657373207a65726f206973206e6f74206120766160448201527f6c6964206f776e657200000000000000000000000000000000000000000000006064820152608401610672565b506001600160a01b03166000908152600b602052604090205490565b6007546001600160a01b03163314610e715760405162461bcd60e51b815260206004820152601660248201527f4d7573742062652070726f706f736564206f776e6572000000000000000000006044820152606401610672565b600680546001600160a01b0319808216339081179093556007805490911690556040516001600160a01b03909116919082907f8be0079c531659141344cd1fd0a4f28419497f9722a3daafe3b4186f6b6457e090600090a350565b610ed461315f565b6000610ee86002546001600160a01b031690565b6040517f70a082310000000000000000000000000000000000000000000000000000000081523060048201529091506001600160a01b0382169063a9059cbb90339083906370a0823190602401602060405180830381865afa158015610f52573d6000803e3d6000fd5b505050506040513d601f19601f82011682018060405250810190610f769190614bf9565b6040516001600160e01b031960e085901b1681526001600160a01b03909216600483015260248201526044016020604051808303816000875af1158015610fc1573d6000803e3d6000fd5b505050506040513d601f19601f82011682018060405250810190610fe59190614c12565b6109d55760405162461bcd60e51b815260206004820152601260248201527f556e61626c6520746f207472616e7366657200000000000000000000000000006044820152606401610672565b600080611041610b946016614bb8565b90506110ac604051806040016040528060078152602001667365727669636560c81b8152506040518060400160405280601281526020017f747275666c6174696f6e2f61742d64617465000000000000000000000000000081525083612e859092919063ffffffff16565b6040805180820190915260048152636461746160e01b60208201526110d390829085612e85565b610c91604051806040016040528060078152602001660d6caf2e0c2e8d60cb1b815250604051806060016040528060298152602001614fa360299139839190612e85565b6011805461074390614b18565b60606009805461053790614b18565b601b876040516111439190614c2f565b9081526040519081900360200190205460ff16156111a35760405162461bcd60e51b815260206004820181905260248201527f436172207769746820746869732056494e20616c7265616479206578697374736044820152606401610672565b60006111ae60185490565b6111b9906001614c61565b6000818152601c602052604090205490915060ff16156112405760405162461bcd60e51b8152602060048201526024808201527f4361722077697468207468697320746f6b656e496420616c726561647920657860448201527f69737473000000000000000000000000000000000000000000000000000000006064820152608401610672565b6040518061018001604052808b81526020018a815260200189815260200188815260200187815260200186815260200185815260200160008152602001600067ffffffffffffffff811115611297576112976144e9565b6040519080825280602002602001820160405280156112ca57816020015b60608152602001906001900390816112b55790505b508152602001600060405190808252806020026020018201604052801561130557816020015b60608152602001906001900390816112f05790505b508152602080820186905260006040928301819052848152601982529190912082518051919261133a9284929091019061426b565b506020828101518051611353926001850192019061426b565b506040820151805161136f91600284019160209091019061426b565b506060820151805161138b91600384019160209091019061426b565b50608082015180516113a791600484019160209091019061426b565b5060a082015180516113c391600584019160209091019061426b565b5060c082015180516113df91600684019160209091019061426b565b5060e0820151600782015561010082015180516114069160088401916020909101906142ef565b5061012082015180516114239160098401916020909101906142ef565b50610140820151805161144091600a84019160209091019061426b565b506101609190910151600b909101805460ff19169115159190911790556040518190601a90611470908b90614c2f565b9081526040519081900360200190205561148e601880546001019055565b6114988b826131bb565b6114a281836131d5565b6001601b896040516114b49190614c2f565b90815260405160209181900382019020805460ff191692151592909217909155601280546001810182556000919091528951611517927fbb8a6a4669ba250d26cd7a459eca9d215f8307e33aebe50379bc5a3617ec3444909201918b019061426b565b506000908152601c60205260409020805460ff1916600117905550505050505050505050565b60148181548110610b0457600080fd5b6115583383836132b6565b5050565b60006115c460405180610180016040528060608152602001606081526020016060815260200160608152602001606081526020016060815260200160608152602001600081526020016060815260200160608152602001606081526020016000151581525090565b6060601b846040516115d69190614c2f565b9081526040519081900360200190205460ff16151560011461163a5760405162461bcd60e51b815260206004820181905260248201527f436172207769746820746869732056494e20646f6573206e6f742065786973746044820152606401610672565b601a8460405161164a9190614c2f565b9081526020016040518091039020549250600060196000858152602001908152602001600020905060405180610180016040528082600001805461168d90614b18565b80601f01602080910402602001604051908101604052809291908181526020018280546116b990614b18565b80156117065780601f106116db57610100808354040283529160200191611706565b820191906000526020600020905b8154815290600101906020018083116116e957829003601f168201915b5050505050815260200182600101805461171f90614b18565b80601f016020809104026020016040519081016040528092919081815260200182805461174b90614b18565b80156117985780601f1061176d57610100808354040283529160200191611798565b820191906000526020600020905b81548152906001019060200180831161177b57829003601f168201915b505050505081526020018260020180546117b190614b18565b80601f01602080910402602001604051908101604052809291908181526020018280546117dd90614b18565b801561182a5780601f106117ff5761010080835404028352916020019161182a565b820191906000526020600020905b81548152906001019060200180831161180d57829003601f168201915b5050505050815260200182600301805461184390614b18565b80601f016020809104026020016040519081016040528092919081815260200182805461186f90614b18565b80156118bc5780601f10611891576101008083540402835291602001916118bc565b820191906000526020600020905b81548152906001019060200180831161189f57829003601f168201915b505050505081526020018260040180546118d590614b18565b80601f016020809104026020016040519081016040528092919081815260200182805461190190614b18565b801561194e5780601f106119235761010080835404028352916020019161194e565b820191906000526020600020905b81548152906001019060200180831161193157829003601f168201915b5050505050815260200182600501805461196790614b18565b80601f016020809104026020016040519081016040528092919081815260200182805461199390614b18565b80156119e05780601f106119b5576101008083540402835291602001916119e0565b820191906000526020600020905b8154815290600101906020018083116119c357829003601f168201915b505050505081526020018260060180546119f990614b18565b80601f0160208091040260200160405190810160405280929190818152602001828054611a2590614b18565b8015611a725780601f10611a4757610100808354040283529160200191611a72565b820191906000526020600020905b815481529060010190602001808311611a5557829003601f168201915b505050505081526020018260070154815260200182600801805480602002602001604051908101604052809291908181526020016000905b82821015611b56578382906000526020600020018054611ac990614b18565b80601f0160208091040260200160405190810160405280929190818152602001828054611af590614b18565b8015611b425780601f10611b1757610100808354040283529160200191611b42565b820191906000526020600020905b815481529060010190602001808311611b2557829003601f168201915b505050505081526020019060010190611aaa565b50505050815260200182600901805480602002602001604051908101604052809291908181526020016000905b82821015611c2f578382906000526020600020018054611ba290614b18565b80601f0160208091040260200160405190810160405280929190818152602001828054611bce90614b18565b8015611c1b5780601f10611bf057610100808354040283529160200191611c1b565b820191906000526020600020905b815481529060010190602001808311611bfe57829003601f168201915b505050505081526020019060010190611b83565b50505050815260200182600a018054611c4790614b18565b80601f0160208091040260200160405190810160405280929190818152602001828054611c7390614b18565b8015611cc05780601f10611c9557610100808354040283529160200191611cc0565b820191906000526020600020905b815481529060010190602001808311611ca357829003601f168201915b5050509183525050600b83015460ff1615156020909101529250611ce384613385565b93959294505050565b60008281526005602052604090205482906001600160a01b03163314611d655760405162461bcd60e51b815260206004820152602860248201527f536f75726365206d75737420626520746865206f7261636c65206f6620746865604482015267081c995c5d595cdd60c21b6064820152608401610672565b60008181526005602052604080822080546001600160a01b03191690555182917f7cc135e0cebb02c3480ae5d74d377283180a2601f8f644edf7987b009316c63a91a26000601a6011604051611dbb9190614ce8565b9081526040805160209281900383019020546000818152601990935291209091505b6040805160208101825260009052517fc5d2460186f7233c927e7db2dcc703c0e500b653ca82273b7bfad8045d85a47090611e1a90601190614ce8565b60405180910390201461093f5760408051808201909152600481527f74727565000000000000000000000000000000000000000000000000000000006020918201528451908501207f6273151f959616268004b58dbb21e5c851b7b8d04498b4aabee12291d22fc0341415611eb857600b8101805460ff19166001179055604080516020810191829052600090819052611eb69160119161426b565b505b60408051808201909152600581527f66616c73650000000000000000000000000000000000000000000000000000006020918201528451908501207fba9154e0baa69c78e0ca563b867df81bae9d177c4ea1452c35c84386a70f0f7a1415611f4657600b8101805460ff19169055604080516020810191829052600090819052611f449160119161426b565b505b611ddd565b611f553383612b73565b611fb75760405162461bcd60e51b815260206004820152602d60248201527f4552433732313a2063616c6c6572206973206e6f7420746f6b656e206f776e6560448201526c1c881bdc88185c1c1c9bdd9959609a1b6064820152608401610672565b610aee8484848461348e565b601b86604051611fd39190614c2f565b9081526040519081900360200190205460ff1615156001146120375760405162461bcd60e51b815260206004820181905260248201527f436172207769746820746869732056494e20646f6573206e6f742065786973746044820152606401610672565b6000601a876040516120499190614c2f565b90815260200160405180910390205490506000601960008381526020019081526020016000209050868160070154106120ea5760405162461bcd60e51b815260206004820152603860248201527f4e6577206d696c656167652076616c7565206d7573742062652067726561746560448201527f72207468616e207468652063757272656e742076616c756500000000000000006064820152608401610672565b6007810187905585511580159061214757506040805180820190915260098152681d5b9919599a5b995960ba1b6020918201528651908701207f019726c6babc1de231f26fd6cbb2df2c912784a2e1ba55295496269a6d3ff65114155b1561217957600881018054600181018255600091825260209182902088516121779391909201919089019061426b565b505b600085511180156121d057506040805180820190915260098152681d5b9919599a5b995960ba1b6020918201528551908601207f019726c6babc1de231f26fd6cbb2df2c912784a2e1ba55295496269a6d3ff65114155b1561220257600981018054600181018255600091825260209182902087516122009391909201919088019061426b565b505b61220c82856131d5565b825161222190600a830190602086019061426b565b505050505050505050565b601b8160405161223c9190614c2f565b9081526040519081900360200190205460ff1615156001146122a05760405162461bcd60e51b815260206004820181905260248201527f436172207769746820746869732056494e20646f6573206e6f742065786973746044820152606401610672565b6109d5816109d8565b606061052282613385565b60128181548110610b0457600080fd5b61232a60405180610180016040528060608152602001606081526020016060815260200160608152602001606081526020016060815260200160608152602001600081526020016060815260200160608152602001606081526020016000151581525090565b601b8260405161233a9190614c2f565b9081526040519081900360200190205460ff16151560011461239e5760405162461bcd60e51b815260206004820181905260248201527f436172207769746820746869732056494e20646f6573206e6f742065786973746044820152606401610672565b6123a7826109d8565b6000601a836040516123b99190614c2f565b908152602001604051809103902054905060006019600083815260200190815260200160002090506040518061018001604052808260000180546123fc90614b18565b80601f016020809104026020016040519081016040528092919081815260200182805461242890614b18565b80156124755780601f1061244a57610100808354040283529160200191612475565b820191906000526020600020905b81548152906001019060200180831161245857829003601f168201915b5050505050815260200182600101805461248e90614b18565b80601f01602080910402602001604051908101604052809291908181526020018280546124ba90614b18565b80156125075780601f106124dc57610100808354040283529160200191612507565b820191906000526020600020905b8154815290600101906020018083116124ea57829003601f168201915b5050505050815260200182600201805461252090614b18565b80601f016020809104026020016040519081016040528092919081815260200182805461254c90614b18565b80156125995780601f1061256e57610100808354040283529160200191612599565b820191906000526020600020905b81548152906001019060200180831161257c57829003601f168201915b505050505081526020018260030180546125b290614b18565b80601f01602080910402602001604051908101604052809291908181526020018280546125de90614b18565b801561262b5780601f106126005761010080835404028352916020019161262b565b820191906000526020600020905b81548152906001019060200180831161260e57829003601f168201915b5050505050815260200182600401805461264490614b18565b80601f016020809104026020016040519081016040528092919081815260200182805461267090614b18565b80156126bd5780601f10612692576101008083540402835291602001916126bd565b820191906000526020600020905b8154815290600101906020018083116126a057829003601f168201915b505050505081526020018260050180546126d690614b18565b80601f016020809104026020016040519081016040528092919081815260200182805461270290614b18565b801561274f5780601f106127245761010080835404028352916020019161274f565b820191906000526020600020905b81548152906001019060200180831161273257829003601f168201915b5050505050815260200182600601805461276890614b18565b80601f016020809104026020016040519081016040528092919081815260200182805461279490614b18565b80156127e15780601f106127b6576101008083540402835291602001916127e1565b820191906000526020600020905b8154815290600101906020018083116127c457829003601f168201915b505050505081526020018260070154815260200182600801805480602002602001604051908101604052809291908181526020016000905b828210156128c557838290600052602060002001805461283890614b18565b80601f016020809104026020016040519081016040528092919081815260200182805461286490614b18565b80156128b15780601f10612886576101008083540402835291602001916128b1565b820191906000526020600020905b81548152906001019060200180831161289457829003601f168201915b505050505081526020019060010190612819565b50505050815260200182600901805480602002602001604051908101604052809291908181526020016000905b8282101561299e57838290600052602060002001805461291190614b18565b80601f016020809104026020016040519081016040528092919081815260200182805461293d90614b18565b801561298a5780601f1061295f5761010080835404028352916020019161298a565b820191906000526020600020905b81548152906001019060200180831161296d57829003601f168201915b5050505050815260200190600101906128f2565b50505050815260200182600a0180546129b690614b18565b80601f01602080910402602001604051908101604052809291908181526020018280546129e290614b18565b8015612a2f5780601f10612a0457610100808354040283529160200191612a2f565b820191906000526020600020905b815481529060010190602001808311612a1257829003601f168201915b5050509183525050600b9092015460ff1615156020909201919091529392505050565b612a5a61315f565b6109d58161350c565b60006001600160e01b031982167f490649060000000000000000000000000000000000000000000000000000000014806105225750610522826135b7565b6000818152600a60205260409020546001600160a01b03166109d55760405162461bcd60e51b815260206004820152601860248201527f4552433732313a20696e76616c696420746f6b656e20494400000000000000006044820152606401610672565b6000818152600c6020526040902080546001600160a01b0319166001600160a01b0384169081179091558190612b3a82610b1f565b6001600160a01b03167f8c5be1e5ebec7d5bd14f71427d1e84f3dd0314c0f7b2291e5b200ac8c7c3b92560405160405180910390a45050565b600080612b7f83610b1f565b9050806001600160a01b0316846001600160a01b03161480612bc657506001600160a01b038082166000908152600d602090815260408083209388168352929052205460ff165b80612bea5750836001600160a01b0316612bdf846105ba565b6001600160a01b0316145b949350505050565b826001600160a01b0316612c0582610b1f565b6001600160a01b031614612c695760405162461bcd60e51b815260206004820152602560248201527f4552433732313a207472616e736665722066726f6d20696e636f72726563742060448201526437bbb732b960d91b6064820152608401610672565b6001600160a01b038216612ce45760405162461bcd60e51b8152602060048201526024808201527f4552433732313a207472616e7366657220746f20746865207a65726f2061646460448201527f72657373000000000000000000000000000000000000000000000000000000006064820152608401610672565b826001600160a01b0316612cf782610b1f565b6001600160a01b031614612d5b5760405162461bcd60e51b815260206004820152602560248201527f4552433732313a207472616e736665722066726f6d20696e636f72726563742060448201526437bbb732b960d91b6064820152608401610672565b6000818152600c6020908152604080832080546001600160a01b03199081169091556001600160a01b03878116808652600b8552838620805460001901905590871680865283862080546001019055868652600a90945282852080549092168417909155905184937fddf252ad1be2c89b69c2b068fc378daa952ba7f163c4a11628f55a4df523b3ef91a4505050565b6109d581613652565b612e326040805160a0810182526000808252602080830182905282840182905260608084018390528451808601909552845283015290608082015290565b612e706040805160a0810182526000808252602080830182905282840182905260608084018390528451808601909552845283015290608082015290565b612e7c81868686613692565b95945050505050565b6080830151612e949083613705565b60808301516107319082613705565b600354600090610d76906001600160a01b0316848461309e565b60606000612ecc836002614cf4565b612ed7906002614c61565b67ffffffffffffffff811115612eef57612eef6144e9565b6040519080825280601f01601f191660200182016040528015612f19576020820181803683370190505b5090507f300000000000000000000000000000000000000000000000000000000000000081600081518110612f5057612f50614d13565b60200101906001600160f81b031916908160001a9053507f780000000000000000000000000000000000000000000000000000000000000081600181518110612f9b57612f9b614d13565b60200101906001600160f81b031916908160001a9053506000612fbf846002614cf4565b612fca906001614c61565b90505b600181111561304f577f303132333435363738396162636465660000000000000000000000000000000085600f166010811061300b5761300b614d13565b1a60f81b82828151811061302157613021614d13565b60200101906001600160f81b031916908160001a90535060049490941c9361304881614d29565b9050612fcd565b508315610d765760405162461bcd60e51b815260206004820181905260248201527f537472696e67733a20686578206c656e67746820696e73756666696369656e746044820152606401610672565b6004546000906130af816001614c61565b600455835160408086015160808701515191516000937f4042994600000000000000000000000000000000000000000000000000000000936131009386938493923092918a91600191602401614d40565b60408051601f198184030181529190526020810180517bffffffffffffffffffffffffffffffffffffffffffffffffffffffff166001600160e01b03199093169290921790915290506131558683868461371c565b9695505050505050565b6006546001600160a01b031633146131b95760405162461bcd60e51b815260206004820152601660248201527f4f6e6c792063616c6c61626c65206279206f776e6572000000000000000000006044820152606401610672565b565b6115588282604051806020016040528060008152506138ad565b6000828152600a60205260409020546001600160a01b031661325f5760405162461bcd60e51b815260206004820152602e60248201527f45524337323155524953746f726167653a2055524920736574206f66206e6f6e60448201527f6578697374656e7420746f6b656e0000000000000000000000000000000000006064820152608401610672565b6000828152600e60209081526040909120825161327e9284019061426b565b506040518281527ff8e1a15aba9398e019f0b49df1a4fde98ee17ae345cb5f6b5e2c27f5033e8ce79060200160405180910390a15050565b816001600160a01b0316836001600160a01b031614156133185760405162461bcd60e51b815260206004820152601960248201527f4552433732313a20617070726f766520746f2063616c6c6572000000000000006044820152606401610672565b6001600160a01b038381166000818152600d6020908152604080832094871680845294825291829020805460ff191686151590811790915591519182527f17307eab39ab6107e8899845ad3d59bd9653f200f220920489ca2b5937696c31910160405180910390a3505050565b606061339082612aa1565b6000828152600e6020526040812080546133a990614b18565b80601f01602080910402602001604051908101604052809291908181526020018280546133d590614b18565b80156134225780601f106133f757610100808354040283529160200191613422565b820191906000526020600020905b81548152906001019060200180831161340557829003601f168201915b50505050509050600061344060408051602081019091526000815290565b9050805160001415613453575092915050565b81511561348557808260405160200161346d929190614da4565b60405160208183030381529060405292505050919050565b612bea8461392b565b613499848484612bf2565b6134a58484848461399e565b610aee5760405162461bcd60e51b815260206004820152603260248201527f4552433732313a207472616e7366657220746f206e6f6e20455243373231526560448201527131b2b4bb32b91034b6b83632b6b2b73a32b960711b6064820152608401610672565b6001600160a01b0381163314156135655760405162461bcd60e51b815260206004820152601760248201527f43616e6e6f74207472616e7366657220746f2073656c660000000000000000006044820152606401610672565b600780546001600160a01b0319166001600160a01b03838116918217909255600654604051919216907fed8889f560326eb138920d842192f0eb3dd22b4f139c87a2c57538e05bae127890600090a350565b60006001600160e01b031982167f80ac58cd00000000000000000000000000000000000000000000000000000000148061361a57506001600160e01b031982167f5b5e139f00000000000000000000000000000000000000000000000000000000145b8061052257507f01ffc9a7000000000000000000000000000000000000000000000000000000006001600160e01b0319831614610522565b61365b81613ae4565b6000818152600e60205260409020805461367490614b18565b1590506109d5576000818152600e602052604081206109d591614348565b6136d06040805160a0810182526000808252602080830182905282840182905260608084018390528451808601909552845283015290608082015290565b6136e08560800151610100613b79565b50509183526001600160a01b031660208301526001600160e01b031916604082015290565b6137128260038351613bde565b6107318282613ced565b6040516bffffffffffffffffffffffff193060601b1660208201526034810184905260009060540160408051808303601f1901815282825280516020918201206000818152600590925291812080546001600160a01b0319166001600160a01b038a1617905590925082917fb5e6e01e79f91267dc17b4e6314d5d4d03593d2ceee0fbb452b750bd70ea5af99190a26002546040517f4000aea00000000000000000000000000000000000000000000000000000000081526001600160a01b0390911690634000aea0906137f890889087908790600401614dd3565b6020604051808303816000875af1158015613817573d6000803e3d6000fd5b505050506040513d601f19601f8201168201806040525081019061383b9190614c12565b612bea5760405162461bcd60e51b815260206004820152602360248201527f756e61626c6520746f207472616e73666572416e6443616c6c20746f206f726160448201527f636c6500000000000000000000000000000000000000000000000000000000006064820152608401610672565b6138b78383613d14565b6138c4600084848461399e565b6107315760405162461bcd60e51b815260206004820152603260248201527f4552433732313a207472616e7366657220746f206e6f6e20455243373231526560448201527131b2b4bb32b91034b6b83632b6b2b73a32b960711b6064820152608401610672565b606061393682612aa1565b600061394d60408051602081019091526000815290565b9050600081511161396d5760405180602001604052806000815250610d76565b8061397784613e9f565b604051602001613988929190614da4565b6040516020818303038152906040529392505050565b60006001600160a01b0384163b15613adc57604051630a85bd0160e11b81526001600160a01b0385169063150b7a02906139e2903390899088908890600401614dfb565b6020604051808303816000875af1925050508015613a1d575060408051601f3d908101601f19168201909252613a1a91810190614e2d565b60015b613ac2573d808015613a4b576040519150601f19603f3d011682016040523d82523d6000602084013e613a50565b606091505b508051613aba5760405162461bcd60e51b815260206004820152603260248201527f4552433732313a207472616e7366657220746f206e6f6e20455243373231526560448201527131b2b4bb32b91034b6b83632b6b2b73a32b960711b6064820152608401610672565b805181602001fd5b6001600160e01b031916630a85bd0160e11b149050612bea565b506001612bea565b6000613aef82610b1f565b9050613afa82610b1f565b6000838152600c6020908152604080832080546001600160a01b03199081169091556001600160a01b038516808552600b84528285208054600019019055878552600a909352818420805490911690555192935084927fddf252ad1be2c89b69c2b068fc378daa952ba7f163c4a11628f55a4df523b3ef908390a45050565b604080518082019091526060815260006020820152613b99602083614e4a565b15613bc157613ba9602083614e4a565b613bb4906020614e6c565b613bbe9083614c61565b91505b506020828101829052604080518085526000815290920101905290565b60178167ffffffffffffffff1611613c0357610aee8360e0600585901b168317613f49565b60ff8167ffffffffffffffff1611613c4157613c2a836018611fe0600586901b1617613f49565b50610aee8367ffffffffffffffff83166001613f6e565b61ffff8167ffffffffffffffff1611613c8057613c69836019611fe0600586901b1617613f49565b50610aee8367ffffffffffffffff83166002613f6e565b63ffffffff8167ffffffffffffffff1611613cc157613caa83601a611fe0600586901b1617613f49565b50610aee8367ffffffffffffffff83166004613f6e565b613cd683601b611fe0600586901b1617613f49565b50610aee8367ffffffffffffffff83166008613f6e565b604080518082019091526060815260006020820152610d7683846000015151848551613f94565b6001600160a01b038216613d6a5760405162461bcd60e51b815260206004820181905260248201527f4552433732313a206d696e7420746f20746865207a65726f20616464726573736044820152606401610672565b6000818152600a60205260409020546001600160a01b031615613dcf5760405162461bcd60e51b815260206004820152601c60248201527f4552433732313a20746f6b656e20616c7265616479206d696e746564000000006044820152606401610672565b6000818152600a60205260409020546001600160a01b031615613e345760405162461bcd60e51b815260206004820152601c60248201527f4552433732313a20746f6b656e20616c7265616479206d696e746564000000006044820152606401610672565b6001600160a01b0382166000818152600b6020908152604080832080546001019055848352600a90915280822080546001600160a01b0319168417905551839291907fddf252ad1be2c89b69c2b068fc378daa952ba7f163c4a11628f55a4df523b3ef908290a45050565b60606000613eac8361407e565b600101905060008167ffffffffffffffff811115613ecc57613ecc6144e9565b6040519080825280601f01601f191660200182016040528015613ef6576020820181803683370190505b5090508181016020015b600019017f3031323334353637383961626364656600000000000000000000000000000000600a86061a8153600a8504945084613f3c57613f41565b613f00565b509392505050565b604080518082019091526060815260006020820152610d768384600001515184614160565b604080518082019091526060815260006020820152612bea8485600001515185856141bc565b6040805180820190915260608152600060208201528251821115613fb757600080fd5b6020850151613fc68386614c61565b1115613ff957613ff985613fe987602001518786613fe49190614c61565b61423d565b613ff4906002614cf4565b614254565b6000808651805187602083010193508088870111156140185787860182525b505050602084015b602084106140585780518252614037602083614c61565b9150614044602082614c61565b9050614051602085614e6c565b9350614020565b51815160001960208690036101000a019081169019919091161790525083949350505050565b6000807a184f03e93ff9f4daa797ed6e38ed64bf6a1f01000000000000000083106140c7577a184f03e93ff9f4daa797ed6e38ed64bf6a1f010000000000000000830492506040015b6d04ee2d6d415b85acef810000000083106140f3576d04ee2d6d415b85acef8100000000830492506020015b662386f26fc10000831061411157662386f26fc10000830492506010015b6305f5e1008310614129576305f5e100830492506008015b612710831061413d57612710830492506004015b6064831061414f576064830492506002015b600a83106105225760010192915050565b60408051808201909152606081526000602082015283602001518310614195576141958485602001516002613ff49190614cf4565b8351805160208583010184815350808514156141b2576001810182525b5093949350505050565b60408051808201909152606081526000602082015260208501516141e08584614c61565b11156141f4576141f485613fe98685614c61565b6000600161420484610100614f67565b61420e9190614e6c565b90508551838682010185831982511617815250805184870111156142325783860181525b509495945050505050565b60008183111561424e575081610522565b50919050565b81516142608383613b79565b50610aee8382613ced565b82805461427790614b18565b90600052602060002090601f01602090048101928261429957600085556142df565b82601f106142b257805160ff19168380011785556142df565b828001600101855582156142df579182015b828111156142df5782518255916020019190600101906142c4565b506142eb92915061437e565b5090565b82805482825590600052602060002090810192821561433c579160200282015b8281111561433c578251805161432c91849160209091019061426b565b509160200191906001019061430f565b506142eb929150614393565b50805461435490614b18565b6000825580601f10614364575050565b601f0160209004906000526020600020908101906109d591905b5b808211156142eb576000815560010161437f565b808211156142eb5760006143a78282614348565b50600101614393565b6001600160e01b0319811681146109d557600080fd5b6000602082840312156143d857600080fd5b8135610d76816143b0565b60005b838110156143fe5781810151838201526020016143e6565b83811115610aee5750506000910152565b600081518084526144278160208601602086016143e3565b601f01601f19169290920160200192915050565b602081526000610d76602083018461440f565b60006020828403121561446057600080fd5b5035919050565b80356001600160a01b038116811461447e57600080fd5b919050565b6000806040838503121561449657600080fd5b61449f83614467565b946020939093013593505050565b6000806000606084860312156144c257600080fd5b6144cb84614467565b92506144d960208501614467565b9150604084013590509250925092565b634e487b7160e01b600052604160045260246000fd5b600082601f83011261451057600080fd5b813567ffffffffffffffff8082111561452b5761452b6144e9565b604051601f8301601f19908116603f01168101908282118183101715614553576145536144e9565b8160405283815286602085880101111561456c57600080fd5b836020870160208301376000602085830101528094505050505092915050565b6000806040838503121561459f57600080fd5b82359150602083013567ffffffffffffffff8111156145bd57600080fd5b6145c9858286016144ff565b9150509250929050565b6000602082840312156145e557600080fd5b813567ffffffffffffffff8111156145fc57600080fd5b612bea848285016144ff565b60006020828403121561461a57600080fd5b610d7682614467565b6000806000806000806000806000806101408b8d03121561464357600080fd5b61464c8b614467565b995060208b013567ffffffffffffffff8082111561466957600080fd5b6146758e838f016144ff565b9a5060408d013591508082111561468b57600080fd5b6146978e838f016144ff565b995060608d01359150808211156146ad57600080fd5b6146b98e838f016144ff565b985060808d01359150808211156146cf57600080fd5b6146db8e838f016144ff565b975060a08d01359150808211156146f157600080fd5b6146fd8e838f016144ff565b965060c08d013591508082111561471357600080fd5b61471f8e838f016144ff565b955060e08d013591508082111561473557600080fd5b6147418e838f016144ff565b94506101008d013591508082111561475857600080fd5b6147648e838f016144ff565b93506101208d013591508082111561477b57600080fd5b506147888d828e016144ff565b9150509295989b9194979a5092959850565b80151581146109d557600080fd5b600080604083850312156147bb57600080fd5b6147c483614467565b915060208301356147d48161479a565b809150509250929050565b600081518084526020808501808196508360051b8101915082860160005b8581101561482757828403895261481584835161440f565b988501989350908401906001016147fd565b5091979650505050505050565b6000610180825181855261484a8286018261440f565b91505060208301518482036020860152614864828261440f565b9150506040830151848203604086015261487e828261440f565b91505060608301518482036060860152614898828261440f565b915050608083015184820360808601526148b2828261440f565b91505060a083015184820360a08601526148cc828261440f565b91505060c083015184820360c08601526148e6828261440f565b91505060e083015160e0850152610100808401518583038287015261490b83826147df565b92505050610120808401518583038287015261492783826147df565b925050506101408084015185830382870152614943838261440f565b925050506101608084015161495b8287018215159052565b5090949350505050565b83815260606020820152600061497e6060830185614834565b8281036040840152613155818561440f565b600080600080608085870312156149a657600080fd5b6149af85614467565b93506149bd60208601614467565b925060408501359150606085013567ffffffffffffffff8111156149e057600080fd5b6149ec878288016144ff565b91505092959194509250565b60008060008060008060c08789031215614a1157600080fd5b863567ffffffffffffffff80821115614a2957600080fd5b614a358a838b016144ff565b9750602089013596506040890135915080821115614a5257600080fd5b614a5e8a838b016144ff565b95506060890135915080821115614a7457600080fd5b614a808a838b016144ff565b94506080890135915080821115614a9657600080fd5b614aa28a838b016144ff565b935060a0890135915080821115614ab857600080fd5b50614ac589828a016144ff565b9150509295509295509295565b602081526000610d766020830184614834565b60008060408385031215614af857600080fd5b614b0183614467565b9150614b0f60208401614467565b90509250929050565b600181811c90821680614b2c57607f821691505b6020821081141561424e57634e487b7160e01b600052602260045260246000fd5b7f68747470733a2f2f66696e65732d6170692e6f6e72656e6465722e636f6d2f6381527f6172732f66696e65732f00000000000000000000000000000000000000000000602082015260008251614bab81602a8501602087016143e3565b91909101602a0192915050565b6000614bc48254614b18565b82601f821115614bda5783600052602060002090505b549150602081101561424e5760001960209190910360031b1b16919050565b600060208284031215614c0b57600080fd5b5051919050565b600060208284031215614c2457600080fd5b8151610d768161479a565b60008251614c418184602087016143e3565b9190910192915050565b634e487b7160e01b600052601160045260246000fd5b60008219821115614c7457614c74614c4b565b500190565b60008154614c8681614b18565b60018281168015614c9e5760018114614caf57614cde565b60ff19841687528287019450614cde565b8560005260208060002060005b85811015614cd55781548a820152908401908201614cbc565b50505082870194505b5050505092915050565b6000610d768284614c79565b6000816000190483118215151615614d0e57614d0e614c4b565b500290565b634e487b7160e01b600052603260045260246000fd5b600081614d3857614d38614c4b565b506000190190565b60006101006001600160a01b03808c1684528a60208501528960408501528089166060850152506001600160e01b0319871660808401528560a08401528460c08401528060e0840152614d958184018561440f565b9b9a5050505050505050505050565b60008351614db68184602088016143e3565b835190830190614dca8183602088016143e3565b01949350505050565b6001600160a01b0384168152826020820152606060408201526000612e7c606083018461440f565b60006001600160a01b03808716835280861660208401525083604083015260806060830152613155608083018461440f565b600060208284031215614e3f57600080fd5b8151610d76816143b0565b600082614e6757634e487b7160e01b600052601260045260246000fd5b500690565b600082821015614e7e57614e7e614c4b565b500390565b600181815b80851115614ebe578160001904821115614ea457614ea4614c4b565b80851615614eb157918102915b93841c9390800290614e88565b509250929050565b600082614ed557506001610522565b81614ee257506000610522565b8160018114614ef85760028114614f0257614f1e565b6001915050610522565b60ff841115614f1357614f13614c4b565b50506001821b610522565b5060208310610133831016604e8410600b8410161715614f41575081810a610522565b614f4b8383614e83565b8060001904821115614f5f57614f5f614c4b565b029392505050565b6000610d768383614ec656fe63617465676f726965732e4761736f6c696e652c206f74686572206675656c732c20616e64206d6f746f72206f696c63617465676f726965732e56656869636c652070757263686173657320286e6574206f75746c617929a2646970667358221220113d07eb67f93b89ff679e442ef894224d4b2748194da33779583a48bd34ec6564736f6c634300080b0033",
  "linkReferences": {},
  "deployedLinkReferences": {}
}