{
  "_format": "hh-sol-artifact-1",
  "contractName": "AutoPassport",
  "sourceName": "contracts/AutoPassport.sol",
  "abi": [
    {
      "inputs": [],
      "stateMutability": "nonpayable",
      "type": "constructor"
    },
    {
      "anonymous": false,
      "inputs": [
        {
          "indexed": true,
          "internalType": "address",
          "name": "owner",
          "type": "address"
        },
        {
          "indexed": true,
          "internalType": "address",
          "name": "approved",
          "type": "address"
        },
        {
          "indexed": true,
          "internalType": "uint256",
          "name": "tokenId",
          "type": "uint256"
        }
      ],
      "name": "Approval",
      "type": "event"
    },
    {
      "anonymous": false,
      "inputs": [
        {
          "indexed": true,
          "internalType": "address",
          "name": "owner",
          "type": "address"
        },
        {
          "indexed": true,
          "internalType": "address",
          "name": "operator",
          "type": "address"
        },
        {
          "indexed": false,
          "internalType": "bool",
          "name": "approved",
          "type": "bool"
        }
      ],
      "name": "ApprovalForAll",
      "type": "event"
    },
    {
      "anonymous": false,
      "inputs": [
        {
          "indexed": false,
          "internalType": "uint256",
          "name": "_fromTokenId",
          "type": "uint256"
        },
        {
          "indexed": false,
          "internalType": "uint256",
          "name": "_toTokenId",
          "type": "uint256"
        }
      ],
      "name": "BatchMetadataUpdate",
      "type": "event"
    },
    {
      "anonymous": false,
      "inputs": [
        {
          "indexed": true,
          "internalType": "address",
          "name": "from",
          "type": "address"
        },
        {
          "indexed": true,
          "internalType": "uint256",
          "name": "tokenId",
          "type": "uint256"
        },
        {
          "indexed": false,
          "internalType": "string",
          "name": "vin",
          "type": "string"
        }
      ],
      "name": "Creation",
      "type": "event"
    },
    {
      "anonymous": false,
      "inputs": [
        {
          "indexed": true,
          "internalType": "string",
          "name": "vin",
          "type": "string"
        },
        {
          "indexed": false,
          "internalType": "string",
          "name": "maintenance",
          "type": "string"
        }
      ],
      "name": "MaintenanceAdded",
      "type": "event"
    },
    {
      "anonymous": false,
      "inputs": [
        {
          "indexed": false,
          "internalType": "uint256",
          "name": "_tokenId",
          "type": "uint256"
        }
      ],
      "name": "MetadataUpdate",
      "type": "event"
    },
    {
      "anonymous": false,
      "inputs": [
        {
          "indexed": true,
          "internalType": "address",
          "name": "previousOwner",
          "type": "address"
        },
        {
          "indexed": true,
          "internalType": "address",
          "name": "newOwner",
          "type": "address"
        }
      ],
      "name": "OwnershipTransferred",
      "type": "event"
    },
    {
      "anonymous": false,
      "inputs": [
        {
          "indexed": true,
          "internalType": "string",
          "name": "vin",
          "type": "string"
        },
        {
          "indexed": false,
          "internalType": "string",
          "name": "repairs",
          "type": "string"
        }
      ],
      "name": "RepairAdded",
      "type": "event"
    },
    {
      "anonymous": false,
      "inputs": [
        {
          "indexed": true,
          "internalType": "address",
          "name": "from",
          "type": "address"
        },
        {
          "indexed": true,
          "internalType": "address",
          "name": "to",
          "type": "address"
        },
        {
          "indexed": true,
          "internalType": "uint256",
          "name": "tokenId",
          "type": "uint256"
        }
      ],
      "name": "Transfer",
      "type": "event"
    },
    {
      "inputs": [
        {
          "internalType": "string",
          "name": "vin",
          "type": "string"
        },
        {
          "internalType": "string",
          "name": "newMaintenance",
          "type": "string"
        }
      ],
      "name": "addMaintenance",
      "outputs": [],
      "stateMutability": "nonpayable",
      "type": "function"
    },
    {
      "inputs": [
        {
          "internalType": "string",
          "name": "vin",
          "type": "string"
        },
        {
          "internalType": "string",
          "name": "newRepair",
          "type": "string"
        }
      ],
      "name": "addRepair",
      "outputs": [],
      "stateMutability": "nonpayable",
      "type": "function"
    },
    {
      "inputs": [
        {
          "internalType": "address",
          "name": "to",
          "type": "address"
        },
        {
          "internalType": "uint256",
          "name": "tokenId",
          "type": "uint256"
        }
      ],
      "name": "approve",
      "outputs": [],
      "stateMutability": "nonpayable",
      "type": "function"
    },
    {
      "inputs": [
        {
          "internalType": "address",
          "name": "owner",
          "type": "address"
        }
      ],
      "name": "balanceOf",
      "outputs": [
        {
          "internalType": "uint256",
          "name": "",
          "type": "uint256"
        }
      ],
      "stateMutability": "view",
      "type": "function"
    },
    {
      "inputs": [
        {
          "internalType": "uint256",
          "name": "tokenId",
          "type": "uint256"
        }
      ],
      "name": "burn",
      "outputs": [],
      "stateMutability": "nonpayable",
      "type": "function"
    },
    {
      "inputs": [
        {
          "internalType": "address",
          "name": "to",
          "type": "address"
        },
        {
          "internalType": "string",
          "name": "brand",
          "type": "string"
        },
        {
          "internalType": "string",
          "name": "model",
          "type": "string"
        },
        {
          "internalType": "string",
          "name": "vin",
          "type": "string"
        },
        {
          "internalType": "string",
          "name": "colorCode",
          "type": "string"
        },
        {
          "internalType": "string",
          "name": "dateOfManufacture",
          "type": "string"
        },
        {
          "internalType": "string",
          "name": "tokenURI",
          "type": "string"
        }
      ],
      "name": "createAutoPassport",
      "outputs": [],
      "stateMutability": "nonpayable",
      "type": "function"
    },
    {
      "inputs": [
        {
          "internalType": "uint256",
          "name": "tokenId",
          "type": "uint256"
        }
      ],
      "name": "getApproved",
      "outputs": [
        {
          "internalType": "address",
          "name": "",
          "type": "address"
        }
      ],
      "stateMutability": "view",
      "type": "function"
    },
    {
      "inputs": [
        {
          "internalType": "uint256",
          "name": "tokenId",
          "type": "uint256"
        }
      ],
      "name": "getCarByTokenId",
      "outputs": [
        {
          "internalType": "string",
          "name": "brand",
          "type": "string"
        },
        {
          "internalType": "string",
          "name": "model",
          "type": "string"
        },
        {
          "internalType": "string",
          "name": "vin",
          "type": "string"
        },
        {
          "internalType": "string",
          "name": "colorCode",
          "type": "string"
        },
        {
          "internalType": "string",
          "name": "dateOfManufacture",
          "type": "string"
        },
        {
          "internalType": "uint256",
          "name": "mileage",
          "type": "uint256"
        },
        {
          "internalType": "string[]",
          "name": "repairHistory",
          "type": "string[]"
        },
        {
          "internalType": "string[]",
          "name": "maintenanceHistory",
          "type": "string[]"
        }
      ],
      "stateMutability": "view",
      "type": "function"
    },
    {
      "inputs": [
        {
          "internalType": "string",
          "name": "vin",
          "type": "string"
        }
      ],
      "name": "getCarByVIN",
      "outputs": [
        {
          "internalType": "uint256",
          "name": "tokenId",
          "type": "uint256"
        },
        {
          "internalType": "string",
          "name": "brand",
          "type": "string"
        },
        {
          "internalType": "string",
          "name": "model",
          "type": "string"
        },
        {
          "internalType": "string",
          "name": "colorCode",
          "type": "string"
        },
        {
          "internalType": "string",
          "name": "dateOfManufacture",
          "type": "string"
        },
        {
          "internalType": "uint256",
          "name": "mileage",
          "type": "uint256"
        },
        {
          "internalType": "string[]",
          "name": "repairHistory",
          "type": "string[]"
        },
        {
          "internalType": "string[]",
          "name": "maintenanceHistory",
          "type": "string[]"
        }
      ],
      "stateMutability": "view",
      "type": "function"
    },
    {
      "inputs": [
        {
          "internalType": "address",
          "name": "owner",
          "type": "address"
        },
        {
          "internalType": "address",
          "name": "operator",
          "type": "address"
        }
      ],
      "name": "isApprovedForAll",
      "outputs": [
        {
          "internalType": "bool",
          "name": "",
          "type": "bool"
        }
      ],
      "stateMutability": "view",
      "type": "function"
    },
    {
      "inputs": [],
      "name": "name",
      "outputs": [
        {
          "internalType": "string",
          "name": "",
          "type": "string"
        }
      ],
      "stateMutability": "view",
      "type": "function"
    },
    {
      "inputs": [],
      "name": "owner",
      "outputs": [
        {
          "internalType": "address",
          "name": "",
          "type": "address"
        }
      ],
      "stateMutability": "view",
      "type": "function"
    },
    {
      "inputs": [
        {
          "internalType": "uint256",
          "name": "tokenId",
          "type": "uint256"
        }
      ],
      "name": "ownerOf",
      "outputs": [
        {
          "internalType": "address",
          "name": "",
          "type": "address"
        }
      ],
      "stateMutability": "view",
      "type": "function"
    },
    {
      "inputs": [],
      "name": "renounceOwnership",
      "outputs": [],
      "stateMutability": "nonpayable",
      "type": "function"
    },
    {
      "inputs": [
        {
          "internalType": "address",
          "name": "from",
          "type": "address"
        },
        {
          "internalType": "address",
          "name": "to",
          "type": "address"
        },
        {
          "internalType": "uint256",
          "name": "tokenId",
          "type": "uint256"
        }
      ],
      "name": "safeTransferFrom",
      "outputs": [],
      "stateMutability": "nonpayable",
      "type": "function"
    },
    {
      "inputs": [
        {
          "internalType": "address",
          "name": "from",
          "type": "address"
        },
        {
          "internalType": "address",
          "name": "to",
          "type": "address"
        },
        {
          "internalType": "uint256",
          "name": "tokenId",
          "type": "uint256"
        },
        {
          "internalType": "bytes",
          "name": "data",
          "type": "bytes"
        }
      ],
      "name": "safeTransferFrom",
      "outputs": [],
      "stateMutability": "nonpayable",
      "type": "function"
    },
    {
      "inputs": [
        {
          "internalType": "address",
          "name": "operator",
          "type": "address"
        },
        {
          "internalType": "bool",
          "name": "approved",
          "type": "bool"
        }
      ],
      "name": "setApprovalForAll",
      "outputs": [],
      "stateMutability": "nonpayable",
      "type": "function"
    },
    {
      "inputs": [
        {
          "internalType": "bytes4",
          "name": "interfaceId",
          "type": "bytes4"
        }
      ],
      "name": "supportsInterface",
      "outputs": [
        {
          "internalType": "bool",
          "name": "",
          "type": "bool"
        }
      ],
      "stateMutability": "view",
      "type": "function"
    },
    {
      "inputs": [],
      "name": "symbol",
      "outputs": [
        {
          "internalType": "string",
          "name": "",
          "type": "string"
        }
      ],
      "stateMutability": "view",
      "type": "function"
    },
    {
      "inputs": [
        {
          "internalType": "uint256",
          "name": "tokenId",
          "type": "uint256"
        }
      ],
      "name": "tokenURI",
      "outputs": [
        {
          "internalType": "string",
          "name": "",
          "type": "string"
        }
      ],
      "stateMutability": "view",
      "type": "function"
    },
    {
      "inputs": [
        {
          "internalType": "address",
          "name": "from",
          "type": "address"
        },
        {
          "internalType": "address",
          "name": "to",
          "type": "address"
        },
        {
          "internalType": "uint256",
          "name": "tokenId",
          "type": "uint256"
        }
      ],
      "name": "transferFrom",
      "outputs": [],
      "stateMutability": "nonpayable",
      "type": "function"
    },
    {
      "inputs": [
        {
          "internalType": "address",
          "name": "newOwner",
          "type": "address"
        }
      ],
      "name": "transferOwnership",
      "outputs": [],
      "stateMutability": "nonpayable",
      "type": "function"
    },
    {
      "inputs": [
        {
          "internalType": "string",
          "name": "vin",
          "type": "string"
        },
        {
          "internalType": "uint256",
          "name": "mileage",
          "type": "uint256"
        }
      ],
      "name": "updateKilometers",
      "outputs": [],
      "stateMutability": "nonpayable",
      "type": "function"
    },
    {
      "inputs": [
        {
          "internalType": "uint256",
          "name": "tokenId",
          "type": "uint256"
        },
        {
          "internalType": "string",
          "name": "newURI",
          "type": "string"
        }
      ],
      "name": "updateTokenURI",
      "outputs": [],
      "stateMutability": "nonpayable",
      "type": "function"
    }
  ],
  "bytecode": "0x60806040523480156200001157600080fd5b50604080518082018252600c81526b105d5d1bdc185cdcdc1bdc9d60a21b6020808301918252835180850190945260048452635061737360e01b9084015281519192916200006291600091620000f1565b50805162000078906001906020840190620000f1565b505050620000956200008f6200009b60201b60201c565b6200009f565b620001d4565b3390565b600780546001600160a01b038381166001600160a01b0319831681179093556040519116919082907f8be0079c531659141344cd1fd0a4f28419497f9722a3daafe3b4186f6b6457e090600090a35050565b828054620000ff9062000197565b90600052602060002090601f0160209004810192826200012357600085556200016e565b82601f106200013e57805160ff19168380011785556200016e565b828001600101855582156200016e579182015b828111156200016e57825182559160200191906001019062000151565b506200017c92915062000180565b5090565b5b808211156200017c576000815560010162000181565b600181811c90821680620001ac57607f821691505b60208210811415620001ce57634e487b7160e01b600052602260045260246000fd5b50919050565b612f6180620001e46000396000f3fe608060405234801561001057600080fd5b50600436106101985760003560e01c806370a08231116100e3578063a22cb4651161008c578063e985e9c511610066578063e985e9c51461037b578063eb67a409146103b7578063f2fde38b146103ca57600080fd5b8063a22cb46514610342578063b88d4fde14610355578063c87b56dd1461036857600080fd5b80637a5a576d116100bd5780637a5a576d146103025780638da5cb5b1461032957806395d89b411461033a57600080fd5b806370a08231146102b2578063715018a6146102d357806376e78ce6146102db57600080fd5b8063180bcd341161014557806342842e0e1161011f57806342842e0e1461027957806342966c681461028c5780636352211e1461029f57600080fd5b8063180bcd341461024057806318e97fd11461025357806323b872dd1461026657600080fd5b8063081812fc11610176578063081812fc146101ef578063095ea7b31461021a57806314df99f41461022d57600080fd5b806301ffc9a71461019d57806306fdde03146101c557806307086024146101da575b600080fd5b6101b06101ab366004612845565b6103dd565b60405190151581526020015b60405180910390f35b6101cd6103ee565b6040516101bc91906128ba565b6101ed6101e8366004612979565b610480565b005b6102026101fd3660046129be565b6105bc565b6040516001600160a01b0390911681526020016101bc565b6101ed6102283660046129f3565b6105e3565b6101ed61023b366004612a1d565b610715565b6101ed61024e366004612a81565b6108c8565b6101ed610261366004612b88565b610b6f565b6101ed610274366004612bc5565b610b7d565b6101ed610287366004612bc5565b610bf3565b6101ed61029a3660046129be565b610c0e565b6102026102ad3660046129be565b610c85565b6102c56102c0366004612c01565b610cea565b6040519081526020016101bc565b6101ed610d84565b6102ee6102e93660046129be565b610d98565b6040516101bc989796959493929190612c71565b610315610310366004612d12565b611246565b6040516101bc989796959493929190612d47565b6007546001600160a01b0316610202565b6101cd61166c565b6101ed610350366004612d61565b61167b565b6101ed610363366004612d9d565b611686565b6101cd6103763660046129be565b611704565b6101b0610389366004612e19565b6001600160a01b03918216600090815260056020908152604080832093909416825291909152205460ff1690565b6101ed6103c5366004612a1d565b61170f565b6101ed6103d8366004612c01565b61188f565b60006103e88261191c565b92915050565b6060600080546103fd90612e4c565b80601f016020809104026020016040519081016040528092919081815260200182805461042990612e4c565b80156104765780601f1061044b57610100808354040283529160200191610476565b820191906000526020600020905b81548152906001019060200180831161045957829003601f168201915b5050505050905090565b60006009836040516104929190612e87565b90815260200160405180910390205490506104b36104ad3390565b8261195a565b61052a5760405162461bcd60e51b815260206004820152603160248201527f4552433732313a207472616e736665722063616c6c6572206973206e6f74206f60448201527f776e6572206e6f7220617070726f76656400000000000000000000000000000060648201526084015b60405180910390fd5b6000818152600a60205260409020600581015483116105b15760405162461bcd60e51b815260206004820152603b60248201527f4e6577206b696c6f6d65746572732076616c7565206d7573742062652067726560448201527f61746572207468616e207468652063757272656e742076616c756500000000006064820152608401610521565b600501919091555050565b60006105c7826119d9565b506000908152600460205260409020546001600160a01b031690565b60006105ee82610c85565b9050806001600160a01b0316836001600160a01b031614156106785760405162461bcd60e51b815260206004820152602160248201527f4552433732313a20617070726f76616c20746f2063757272656e74206f776e6560448201527f72000000000000000000000000000000000000000000000000000000000000006064820152608401610521565b336001600160a01b038216148061069457506106948133610389565b6107065760405162461bcd60e51b815260206004820152603d60248201527f4552433732313a20617070726f76652063616c6c6572206973206e6f7420746f60448201527f6b656e206f776e6572206f7220617070726f76656420666f7220616c6c0000006064820152608401610521565b6107108383611a3d565b505050565b60006009836040516107279190612e87565b908152602001604051809103902054905061074181610c85565b6001600160a01b0316336001600160a01b0316146107c75760405162461bcd60e51b815260206004820152602260248201527f4f6e6c7920746865206f776e65722063616e20616464206d61696e74656e616e60448201527f63650000000000000000000000000000000000000000000000000000000000006064820152608401610521565b6000818152600a6020526040902082516108495760405162461bcd60e51b815260206004820152602860248201527f4e6577206d61696e74656e616e636520737472696e67206d757374206e6f742060448201527f626520656d7074790000000000000000000000000000000000000000000000006064820152608401610521565b60078101805460018101825560009182526020918290208551610874939190920191908601906126ea565b50836040516108839190612e87565b60405180910390207f3bebd393edada2bfbebc3ae33569b456ebc89f694d18a8e5ec35c017117c791d846040516108ba91906128ba565b60405180910390a250505050565b6108d0611aab565b6009846040516108e09190612e87565b90815260200160405180910390205460001461093e5760405162461bcd60e51b815260206004820181905260248201527f436172207769746820746869732056494e20616c7265616479206578697374736044820152606401610521565b600061094960085490565b905060405180610100016040528088815260200187815260200186815260200185815260200184815260200160008152602001600067ffffffffffffffff811115610996576109966128cd565b6040519080825280602002602001820160405280156109c957816020015b60608152602001906001900390816109b45790505b5081526020016000604051908082528060200260200182016040528015610a0457816020015b60608152602001906001900390816109ef5790505b5090526000828152600a60209081526040909120825180519192610a2d928492909101906126ea565b506020828101518051610a4692600185019201906126ea565b5060408201518051610a629160028401916020909101906126ea565b5060608201518051610a7e9160038401916020909101906126ea565b5060808201518051610a9a9160048401916020909101906126ea565b5060a0820151600582015560c08201518051610ac091600684019160209091019061276e565b5060e08201518051610adc91600784019160209091019061276e565b50905050610aea8882611b05565b610af48183611c90565b80600986604051610b059190612e87565b90815260405190819003602001902055610b23600880546001019055565b80886001600160a01b03167fe649b25ea418284e682d98726ce07ccc7a6a926d3cdac495942354deca66274387604051610b5d91906128ba565b60405180910390a35050505050505050565b610b798282611c90565b5050565b610b86336104ad565b610be85760405162461bcd60e51b815260206004820152602d60248201527f4552433732313a2063616c6c6572206973206e6f7420746f6b656e206f776e6560448201526c1c881bdc88185c1c1c9bdd9959609a1b6064820152608401610521565b610710838383611d71565b61071083838360405180602001604052806000815250611686565b610c17336104ad565b610c795760405162461bcd60e51b815260206004820152602d60248201527f4552433732313a2063616c6c6572206973206e6f7420746f6b656e206f776e6560448201526c1c881bdc88185c1c1c9bdd9959609a1b6064820152608401610521565b610c8281611f6a565b50565b6000818152600260205260408120546001600160a01b0316806103e85760405162461bcd60e51b815260206004820152601860248201527f4552433732313a20696e76616c696420746f6b656e20494400000000000000006044820152606401610521565b60006001600160a01b038216610d685760405162461bcd60e51b815260206004820152602960248201527f4552433732313a2061646472657373207a65726f206973206e6f74206120766160448201527f6c6964206f776e657200000000000000000000000000000000000000000000006064820152608401610521565b506001600160a01b031660009081526003602052604090205490565b610d8c611aab565b610d966000611f73565b565b606080606080606060006060806000600a60008b81526020019081526020016000209050806000018054610dcb90612e4c565b80601f0160208091040260200160405190810160405280929190818152602001828054610df790612e4c565b8015610e445780601f10610e1957610100808354040283529160200191610e44565b820191906000526020600020905b815481529060010190602001808311610e2757829003601f168201915b50505050509850806001018054610e5a90612e4c565b80601f0160208091040260200160405190810160405280929190818152602001828054610e8690612e4c565b8015610ed35780601f10610ea857610100808354040283529160200191610ed3565b820191906000526020600020905b815481529060010190602001808311610eb657829003601f168201915b50505050509750806002018054610ee990612e4c565b80601f0160208091040260200160405190810160405280929190818152602001828054610f1590612e4c565b8015610f625780601f10610f3757610100808354040283529160200191610f62565b820191906000526020600020905b815481529060010190602001808311610f4557829003601f168201915b50505050509650806003018054610f7890612e4c565b80601f0160208091040260200160405190810160405280929190818152602001828054610fa490612e4c565b8015610ff15780601f10610fc657610100808354040283529160200191610ff1565b820191906000526020600020905b815481529060010190602001808311610fd457829003601f168201915b5050505050955080600401805461100790612e4c565b80601f016020809104026020016040519081016040528092919081815260200182805461103390612e4c565b80156110805780601f1061105557610100808354040283529160200191611080565b820191906000526020600020905b81548152906001019060200180831161106357829003601f168201915b505050505094508060050154935080600601805480602002602001604051908101604052809291908181526020016000905b8282101561115e5783829060005260206000200180546110d190612e4c565b80601f01602080910402602001604051908101604052809291908181526020018280546110fd90612e4c565b801561114a5780601f1061111f5761010080835404028352916020019161114a565b820191906000526020600020905b81548152906001019060200180831161112d57829003601f168201915b5050505050815260200190600101906110b2565b50505050925080600701805480602002602001604051908101604052809291908181526020016000905b828210156112345783829060005260206000200180546111a790612e4c565b80601f01602080910402602001604051908101604052809291908181526020018280546111d390612e4c565b80156112205780601f106111f557610100808354040283529160200191611220565b820191906000526020600020905b81548152906001019060200180831161120357829003601f168201915b505050505081526020019060010190611188565b50505050915050919395975091939597565b600060608060608060006060806009896040516112639190612e87565b9081526040805160209281900383019020546000818152600a9093529120805491995090819061129290612e4c565b80601f01602080910402602001604051908101604052809291908181526020018280546112be90612e4c565b801561130b5780601f106112e05761010080835404028352916020019161130b565b820191906000526020600020905b8154815290600101906020018083116112ee57829003601f168201915b5050505050975080600101805461132190612e4c565b80601f016020809104026020016040519081016040528092919081815260200182805461134d90612e4c565b801561139a5780601f1061136f5761010080835404028352916020019161139a565b820191906000526020600020905b81548152906001019060200180831161137d57829003601f168201915b505050505096508060030180546113b090612e4c565b80601f01602080910402602001604051908101604052809291908181526020018280546113dc90612e4c565b80156114295780601f106113fe57610100808354040283529160200191611429565b820191906000526020600020905b81548152906001019060200180831161140c57829003601f168201915b5050505050955080600401805461143f90612e4c565b80601f016020809104026020016040519081016040528092919081815260200182805461146b90612e4c565b80156114b85780601f1061148d576101008083540402835291602001916114b8565b820191906000526020600020905b81548152906001019060200180831161149b57829003601f168201915b505050505094508060050154935080600601805480602002602001604051908101604052809291908181526020016000905b8282101561159657838290600052602060002001805461150990612e4c565b80601f016020809104026020016040519081016040528092919081815260200182805461153590612e4c565b80156115825780601f1061155757610100808354040283529160200191611582565b820191906000526020600020905b81548152906001019060200180831161156557829003601f168201915b5050505050815260200190600101906114ea565b50505050925080600701805480602002602001604051908101604052809291908181526020016000905b828210156112345783829060005260206000200180546115df90612e4c565b80601f016020809104026020016040519081016040528092919081815260200182805461160b90612e4c565b80156116585780601f1061162d57610100808354040283529160200191611658565b820191906000526020600020905b81548152906001019060200180831161163b57829003601f168201915b5050505050815260200190600101906115c0565b6060600180546103fd90612e4c565b610b79338383611fc5565b611690338361195a565b6116f25760405162461bcd60e51b815260206004820152602d60248201527f4552433732313a2063616c6c6572206973206e6f7420746f6b656e206f776e6560448201526c1c881bdc88185c1c1c9bdd9959609a1b6064820152608401610521565b6116fe84848484612094565b50505050565b60606103e88261211d565b60006009836040516117219190612e87565b908152602001604051809103902054905061173b81610c85565b6001600160a01b0316336001600160a01b03161461179b5760405162461bcd60e51b815260206004820152601f60248201527f4f6e6c7920746865206f776e65722063616e20616464206120726570616972006044820152606401610521565b6000818152600a60209081526040822060068101805460018101825590845292829020855191936117d293910191908601906126ea565b50600083511161184a5760405162461bcd60e51b815260206004820152602360248201527f4e65772072657061697220737472696e67206d757374206e6f7420626520656d60448201527f70747900000000000000000000000000000000000000000000000000000000006064820152608401610521565b836040516118589190612e87565b60405180910390207ff108e0d5ea815ea472514c7f65bd2bfc03bc7e526ad82404e04fbaf0248820c9846040516108ba91906128ba565b611897611aab565b6001600160a01b0381166119135760405162461bcd60e51b815260206004820152602660248201527f4f776e61626c653a206e6577206f776e657220697320746865207a65726f206160448201527f64647265737300000000000000000000000000000000000000000000000000006064820152608401610521565b610c8281611f73565b60006001600160e01b031982167f490649060000000000000000000000000000000000000000000000000000000014806103e857506103e882612226565b60008061196683610c85565b9050806001600160a01b0316846001600160a01b031614806119ad57506001600160a01b0380821660009081526005602090815260408083209388168352929052205460ff165b806119d15750836001600160a01b03166119c6846105bc565b6001600160a01b0316145b949350505050565b6000818152600260205260409020546001600160a01b0316610c825760405162461bcd60e51b815260206004820152601860248201527f4552433732313a20696e76616c696420746f6b656e20494400000000000000006044820152606401610521565b600081815260046020526040902080546001600160a01b0319166001600160a01b0384169081179091558190611a7282610c85565b6001600160a01b03167f8c5be1e5ebec7d5bd14f71427d1e84f3dd0314c0f7b2291e5b200ac8c7c3b92560405160405180910390a45050565b6007546001600160a01b03163314610d965760405162461bcd60e51b815260206004820181905260248201527f4f776e61626c653a2063616c6c6572206973206e6f7420746865206f776e65726044820152606401610521565b6001600160a01b038216611b5b5760405162461bcd60e51b815260206004820181905260248201527f4552433732313a206d696e7420746f20746865207a65726f20616464726573736044820152606401610521565b6000818152600260205260409020546001600160a01b031615611bc05760405162461bcd60e51b815260206004820152601c60248201527f4552433732313a20746f6b656e20616c7265616479206d696e746564000000006044820152606401610521565b6000818152600260205260409020546001600160a01b031615611c255760405162461bcd60e51b815260206004820152601c60248201527f4552433732313a20746f6b656e20616c7265616479206d696e746564000000006044820152606401610521565b6001600160a01b038216600081815260036020908152604080832080546001019055848352600290915280822080546001600160a01b0319168417905551839291907fddf252ad1be2c89b69c2b068fc378daa952ba7f163c4a11628f55a4df523b3ef908290a45050565b6000828152600260205260409020546001600160a01b0316611d1a5760405162461bcd60e51b815260206004820152602e60248201527f45524337323155524953746f726167653a2055524920736574206f66206e6f6e60448201527f6578697374656e7420746f6b656e0000000000000000000000000000000000006064820152608401610521565b60008281526006602090815260409091208251611d39928401906126ea565b506040518281527ff8e1a15aba9398e019f0b49df1a4fde98ee17ae345cb5f6b5e2c27f5033e8ce79060200160405180910390a15050565b826001600160a01b0316611d8482610c85565b6001600160a01b031614611de85760405162461bcd60e51b815260206004820152602560248201527f4552433732313a207472616e736665722066726f6d20696e636f72726563742060448201526437bbb732b960d91b6064820152608401610521565b6001600160a01b038216611e635760405162461bcd60e51b8152602060048201526024808201527f4552433732313a207472616e7366657220746f20746865207a65726f2061646460448201527f72657373000000000000000000000000000000000000000000000000000000006064820152608401610521565b826001600160a01b0316611e7682610c85565b6001600160a01b031614611eda5760405162461bcd60e51b815260206004820152602560248201527f4552433732313a207472616e736665722066726f6d20696e636f72726563742060448201526437bbb732b960d91b6064820152608401610521565b600081815260046020908152604080832080546001600160a01b03199081169091556001600160a01b0387811680865260038552838620805460001901905590871680865283862080546001019055868652600290945282852080549092168417909155905184937fddf252ad1be2c89b69c2b068fc378daa952ba7f163c4a11628f55a4df523b3ef91a4505050565b610c82816122c1565b600780546001600160a01b038381166001600160a01b0319831681179093556040519116919082907f8be0079c531659141344cd1fd0a4f28419497f9722a3daafe3b4186f6b6457e090600090a35050565b816001600160a01b0316836001600160a01b031614156120275760405162461bcd60e51b815260206004820152601960248201527f4552433732313a20617070726f766520746f2063616c6c6572000000000000006044820152606401610521565b6001600160a01b03838116600081815260056020908152604080832094871680845294825291829020805460ff191686151590811790915591519182527f17307eab39ab6107e8899845ad3d59bd9653f200f220920489ca2b5937696c31910160405180910390a3505050565b61209f848484611d71565b6120ab84848484612301565b6116fe5760405162461bcd60e51b815260206004820152603260248201527f4552433732313a207472616e7366657220746f206e6f6e20455243373231526560448201527f63656976657220696d706c656d656e74657200000000000000000000000000006064820152608401610521565b6060612128826119d9565b6000828152600660205260408120805461214190612e4c565b80601f016020809104026020016040519081016040528092919081815260200182805461216d90612e4c565b80156121ba5780601f1061218f576101008083540402835291602001916121ba565b820191906000526020600020905b81548152906001019060200180831161219d57829003601f168201915b5050505050905060006121d860408051602081019091526000815290565b90508051600014156121eb575092915050565b81511561221d578082604051602001612205929190612ea3565b60405160208183030381529060405292505050919050565b6119d184612455565b60006001600160e01b031982167f80ac58cd00000000000000000000000000000000000000000000000000000000148061228957506001600160e01b031982167f5b5e139f00000000000000000000000000000000000000000000000000000000145b806103e857507f01ffc9a7000000000000000000000000000000000000000000000000000000006001600160e01b03198316146103e8565b6122ca816124c9565b600081815260066020526040902080546122e390612e4c565b159050610c82576000818152600660205260408120610c82916127c7565b60006001600160a01b0384163b1561244a57604051630a85bd0160e11b81526001600160a01b0385169063150b7a0290612345903390899088908890600401612ed2565b6020604051808303816000875af1925050508015612380575060408051601f3d908101601f1916820190925261237d91810190612f0e565b60015b612430573d8080156123ae576040519150601f19603f3d011682016040523d82523d6000602084013e6123b3565b606091505b5080516124285760405162461bcd60e51b815260206004820152603260248201527f4552433732313a207472616e7366657220746f206e6f6e20455243373231526560448201527f63656976657220696d706c656d656e74657200000000000000000000000000006064820152608401610521565b805181602001fd5b6001600160e01b031916630a85bd0160e11b1490506119d1565b506001949350505050565b6060612460826119d9565b600061247760408051602081019091526000815290565b9050600081511161249757604051806020016040528060008152506124c2565b806124a18461255e565b6040516020016124b2929190612ea3565b6040516020818303038152906040525b9392505050565b60006124d482610c85565b90506124df82610c85565b600083815260046020908152604080832080546001600160a01b03199081169091556001600160a01b0385168085526003845282852080546000190190558785526002909352818420805490911690555192935084927fddf252ad1be2c89b69c2b068fc378daa952ba7f163c4a11628f55a4df523b3ef908390a45050565b6060600061256b83612608565b600101905060008167ffffffffffffffff81111561258b5761258b6128cd565b6040519080825280601f01601f1916602001820160405280156125b5576020820181803683370190505b5090508181016020015b600019017f3031323334353637383961626364656600000000000000000000000000000000600a86061a8153600a85049450846125fb57612600565b6125bf565b509392505050565b6000807a184f03e93ff9f4daa797ed6e38ed64bf6a1f0100000000000000008310612651577a184f03e93ff9f4daa797ed6e38ed64bf6a1f010000000000000000830492506040015b6d04ee2d6d415b85acef8100000000831061267d576d04ee2d6d415b85acef8100000000830492506020015b662386f26fc10000831061269b57662386f26fc10000830492506010015b6305f5e10083106126b3576305f5e100830492506008015b61271083106126c757612710830492506004015b606483106126d9576064830492506002015b600a83106103e85760010192915050565b8280546126f690612e4c565b90600052602060002090601f016020900481019282612718576000855561275e565b82601f1061273157805160ff191683800117855561275e565b8280016001018555821561275e579182015b8281111561275e578251825591602001919060010190612743565b5061276a9291506127fd565b5090565b8280548282559060005260206000209081019282156127bb579160200282015b828111156127bb57825180516127ab9184916020909101906126ea565b509160200191906001019061278e565b5061276a929150612812565b5080546127d390612e4c565b6000825580601f106127e3575050565b601f016020900490600052602060002090810190610c8291905b5b8082111561276a57600081556001016127fe565b8082111561276a57600061282682826127c7565b50600101612812565b6001600160e01b031981168114610c8257600080fd5b60006020828403121561285757600080fd5b81356124c28161282f565b60005b8381101561287d578181015183820152602001612865565b838111156116fe5750506000910152565b600081518084526128a6816020860160208601612862565b601f01601f19169290920160200192915050565b6020815260006124c2602083018461288e565b634e487b7160e01b600052604160045260246000fd5b600067ffffffffffffffff808411156128fe576128fe6128cd565b604051601f8501601f19908116603f01168101908282118183101715612926576129266128cd565b8160405280935085815286868601111561293f57600080fd5b858560208301376000602087830101525050509392505050565b600082601f83011261296a57600080fd5b6124c2838335602085016128e3565b6000806040838503121561298c57600080fd5b823567ffffffffffffffff8111156129a357600080fd5b6129af85828601612959565b95602094909401359450505050565b6000602082840312156129d057600080fd5b5035919050565b80356001600160a01b03811681146129ee57600080fd5b919050565b60008060408385031215612a0657600080fd5b612a0f836129d7565b946020939093013593505050565b60008060408385031215612a3057600080fd5b823567ffffffffffffffff80821115612a4857600080fd5b612a5486838701612959565b93506020850135915080821115612a6a57600080fd5b50612a7785828601612959565b9150509250929050565b600080600080600080600060e0888a031215612a9c57600080fd5b612aa5886129d7565b9650602088013567ffffffffffffffff80821115612ac257600080fd5b612ace8b838c01612959565b975060408a0135915080821115612ae457600080fd5b612af08b838c01612959565b965060608a0135915080821115612b0657600080fd5b612b128b838c01612959565b955060808a0135915080821115612b2857600080fd5b612b348b838c01612959565b945060a08a0135915080821115612b4a57600080fd5b612b568b838c01612959565b935060c08a0135915080821115612b6c57600080fd5b50612b798a828b01612959565b91505092959891949750929550565b60008060408385031215612b9b57600080fd5b82359150602083013567ffffffffffffffff811115612bb957600080fd5b612a7785828601612959565b600080600060608486031215612bda57600080fd5b612be3846129d7565b9250612bf1602085016129d7565b9150604084013590509250925092565b600060208284031215612c1357600080fd5b6124c2826129d7565b600081518084526020808501808196508360051b8101915082860160005b85811015612c64578284038952612c5284835161288e565b98850198935090840190600101612c3a565b5091979650505050505050565b6000610100808352612c858184018c61288e565b90508281036020840152612c99818b61288e565b90508281036040840152612cad818a61288e565b90508281036060840152612cc1818961288e565b90508281036080840152612cd5818861288e565b90508560a084015282810360c0840152612cef8186612c1c565b905082810360e0840152612d038185612c1c565b9b9a5050505050505050505050565b600060208284031215612d2457600080fd5b813567ffffffffffffffff811115612d3b57600080fd5b6119d184828501612959565b60006101008a8352806020840152612c998184018b61288e565b60008060408385031215612d7457600080fd5b612d7d836129d7565b915060208301358015158114612d9257600080fd5b809150509250929050565b60008060008060808587031215612db357600080fd5b612dbc856129d7565b9350612dca602086016129d7565b925060408501359150606085013567ffffffffffffffff811115612ded57600080fd5b8501601f81018713612dfe57600080fd5b612e0d878235602084016128e3565b91505092959194509250565b60008060408385031215612e2c57600080fd5b612e35836129d7565b9150612e43602084016129d7565b90509250929050565b600181811c90821680612e6057607f821691505b60208210811415612e8157634e487b7160e01b600052602260045260246000fd5b50919050565b60008251612e99818460208701612862565b9190910192915050565b60008351612eb5818460208801612862565b835190830190612ec9818360208801612862565b01949350505050565b60006001600160a01b03808716835280861660208401525083604083015260806060830152612f04608083018461288e565b9695505050505050565b600060208284031215612f2057600080fd5b81516124c28161282f56fea264697066735822122020fc4584d14d37b96e9cebc20a9c56d599aa18e053a7aea763a9462815c228a464736f6c634300080b0033",
  "linkReferences": {},
  "deployedLinkReferences": {}
}