{
  "_format": "hh-sol-artifact-1",
  "contractName": "AutoPassport",
  "sourceName": "contracts/AutoPassport.sol",
  "abi": [
    {
      "inputs": [],
      "stateMutability": "nonpayable",
      "type": "constructor"
    },
    {
      "anonymous": false,
      "inputs": [
        {
          "indexed": true,
          "internalType": "address",
          "name": "owner",
          "type": "address"
        },
        {
          "indexed": true,
          "internalType": "address",
          "name": "approved",
          "type": "address"
        },
        {
          "indexed": true,
          "internalType": "uint256",
          "name": "tokenId",
          "type": "uint256"
        }
      ],
      "name": "Approval",
      "type": "event"
    },
    {
      "anonymous": false,
      "inputs": [
        {
          "indexed": true,
          "internalType": "address",
          "name": "owner",
          "type": "address"
        },
        {
          "indexed": true,
          "internalType": "address",
          "name": "operator",
          "type": "address"
        },
        {
          "indexed": false,
          "internalType": "bool",
          "name": "approved",
          "type": "bool"
        }
      ],
      "name": "ApprovalForAll",
      "type": "event"
    },
    {
      "anonymous": false,
      "inputs": [
        {
          "indexed": false,
          "internalType": "uint256",
          "name": "_fromTokenId",
          "type": "uint256"
        },
        {
          "indexed": false,
          "internalType": "uint256",
          "name": "_toTokenId",
          "type": "uint256"
        }
      ],
      "name": "BatchMetadataUpdate",
      "type": "event"
    },
    {
      "anonymous": false,
      "inputs": [
        {
          "indexed": true,
          "internalType": "bytes32",
          "name": "id",
          "type": "bytes32"
        }
      ],
      "name": "ChainlinkCancelled",
      "type": "event"
    },
    {
      "anonymous": false,
      "inputs": [
        {
          "indexed": true,
          "internalType": "bytes32",
          "name": "id",
          "type": "bytes32"
        }
      ],
      "name": "ChainlinkFulfilled",
      "type": "event"
    },
    {
      "anonymous": false,
      "inputs": [
        {
          "indexed": true,
          "internalType": "bytes32",
          "name": "id",
          "type": "bytes32"
        }
      ],
      "name": "ChainlinkRequested",
      "type": "event"
    },
    {
      "anonymous": false,
      "inputs": [
        {
          "indexed": false,
          "internalType": "uint256",
          "name": "_tokenId",
          "type": "uint256"
        }
      ],
      "name": "MetadataUpdate",
      "type": "event"
    },
    {
      "anonymous": false,
      "inputs": [
        {
          "indexed": true,
          "internalType": "address",
          "name": "from",
          "type": "address"
        },
        {
          "indexed": true,
          "internalType": "address",
          "name": "to",
          "type": "address"
        }
      ],
      "name": "OwnershipTransferRequested",
      "type": "event"
    },
    {
      "anonymous": false,
      "inputs": [
        {
          "indexed": true,
          "internalType": "address",
          "name": "from",
          "type": "address"
        },
        {
          "indexed": true,
          "internalType": "address",
          "name": "to",
          "type": "address"
        }
      ],
      "name": "OwnershipTransferred",
      "type": "event"
    },
    {
      "anonymous": false,
      "inputs": [
        {
          "indexed": true,
          "internalType": "address",
          "name": "from",
          "type": "address"
        },
        {
          "indexed": true,
          "internalType": "address",
          "name": "to",
          "type": "address"
        },
        {
          "indexed": true,
          "internalType": "uint256",
          "name": "tokenId",
          "type": "uint256"
        }
      ],
      "name": "Transfer",
      "type": "event"
    },
    {
      "inputs": [],
      "name": "acceptOwnership",
      "outputs": [],
      "stateMutability": "nonpayable",
      "type": "function"
    },
    {
      "inputs": [
        {
          "internalType": "address",
          "name": "to",
          "type": "address"
        },
        {
          "internalType": "uint256",
          "name": "tokenId",
          "type": "uint256"
        }
      ],
      "name": "approve",
      "outputs": [],
      "stateMutability": "nonpayable",
      "type": "function"
    },
    {
      "inputs": [
        {
          "internalType": "address",
          "name": "owner",
          "type": "address"
        }
      ],
      "name": "balanceOf",
      "outputs": [
        {
          "internalType": "uint256",
          "name": "",
          "type": "uint256"
        }
      ],
      "stateMutability": "view",
      "type": "function"
    },
    {
      "inputs": [
        {
          "internalType": "uint256",
          "name": "tokenId",
          "type": "uint256"
        }
      ],
      "name": "burn",
      "outputs": [],
      "stateMutability": "nonpayable",
      "type": "function"
    },
    {
      "inputs": [],
      "name": "carPurchasesInflation",
      "outputs": [
        {
          "internalType": "string",
          "name": "",
          "type": "string"
        }
      ],
      "stateMutability": "view",
      "type": "function"
    },
    {
      "inputs": [
        {
          "internalType": "string",
          "name": "vin",
          "type": "string"
        }
      ],
      "name": "checkFines",
      "outputs": [],
      "stateMutability": "nonpayable",
      "type": "function"
    },
    {
      "inputs": [
        {
          "internalType": "string",
          "name": "vin",
          "type": "string"
        }
      ],
      "name": "checkFinesAndReturnCar",
      "outputs": [
        {
          "components": [
            {
              "internalType": "string",
              "name": "brand",
              "type": "string"
            },
            {
              "internalType": "string",
              "name": "model",
              "type": "string"
            },
            {
              "internalType": "string",
              "name": "vin",
              "type": "string"
            },
            {
              "internalType": "string",
              "name": "color_code",
              "type": "string"
            },
            {
              "internalType": "string",
              "name": "date_of_manufacture",
              "type": "string"
            },
            {
              "internalType": "string",
              "name": "warranty_expiration_date",
              "type": "string"
            },
            {
              "internalType": "string",
              "name": "fuel_type",
              "type": "string"
            },
            {
              "internalType": "uint256",
              "name": "mileage",
              "type": "uint256"
            },
            {
              "internalType": "string[]",
              "name": "repair_history",
              "type": "string[]"
            },
            {
              "internalType": "string[]",
              "name": "maintenance_history",
              "type": "string[]"
            },
            {
              "internalType": "string",
              "name": "last_update",
              "type": "string"
            },
            {
              "internalType": "bool",
              "name": "hasFines",
              "type": "bool"
            }
          ],
          "internalType": "struct AutoPassport.Car",
          "name": "objCar",
          "type": "tuple"
        }
      ],
      "stateMutability": "nonpayable",
      "type": "function"
    },
    {
      "inputs": [
        {
          "internalType": "address",
          "name": "to",
          "type": "address"
        },
        {
          "internalType": "string",
          "name": "brand",
          "type": "string"
        },
        {
          "internalType": "string",
          "name": "model",
          "type": "string"
        },
        {
          "internalType": "string",
          "name": "vin",
          "type": "string"
        },
        {
          "internalType": "string",
          "name": "color_code",
          "type": "string"
        },
        {
          "internalType": "string",
          "name": "date_of_manufacture",
          "type": "string"
        },
        {
          "internalType": "string",
          "name": "warranty_expiration_date",
          "type": "string"
        },
        {
          "internalType": "string",
          "name": "fuel_type",
          "type": "string"
        },
        {
          "internalType": "string",
          "name": "last_update",
          "type": "string"
        },
        {
          "internalType": "string",
          "name": "uriIpfsUrl",
          "type": "string"
        }
      ],
      "name": "createAutoPassport",
      "outputs": [],
      "stateMutability": "nonpayable",
      "type": "function"
    },
    {
      "inputs": [
        {
          "internalType": "bytes32",
          "name": "_requestId",
          "type": "bytes32"
        },
        {
          "internalType": "bytes",
          "name": "_inflation",
          "type": "bytes"
        }
      ],
      "name": "fulfillCarPurchasesInflation",
      "outputs": [],
      "stateMutability": "nonpayable",
      "type": "function"
    },
    {
      "inputs": [
        {
          "internalType": "bytes32",
          "name": "_requestId",
          "type": "bytes32"
        },
        {
          "internalType": "bytes",
          "name": "_inflation",
          "type": "bytes"
        }
      ],
      "name": "fulfillGasolineInflation",
      "outputs": [],
      "stateMutability": "nonpayable",
      "type": "function"
    },
    {
      "inputs": [
        {
          "internalType": "bytes32",
          "name": "requestId",
          "type": "bytes32"
        },
        {
          "internalType": "string",
          "name": "hasFinesResponse",
          "type": "string"
        }
      ],
      "name": "fulfillMultipleParameters",
      "outputs": [],
      "stateMutability": "nonpayable",
      "type": "function"
    },
    {
      "inputs": [],
      "name": "gasolineInflation",
      "outputs": [
        {
          "internalType": "string",
          "name": "",
          "type": "string"
        }
      ],
      "stateMutability": "view",
      "type": "function"
    },
    {
      "inputs": [
        {
          "internalType": "uint256",
          "name": "tokenId",
          "type": "uint256"
        }
      ],
      "name": "getApproved",
      "outputs": [
        {
          "internalType": "address",
          "name": "",
          "type": "address"
        }
      ],
      "stateMutability": "view",
      "type": "function"
    },
    {
      "inputs": [
        {
          "internalType": "string",
          "name": "vin",
          "type": "string"
        }
      ],
      "name": "getObjCarByVIN",
      "outputs": [
        {
          "internalType": "uint256",
          "name": "tokenId",
          "type": "uint256"
        },
        {
          "components": [
            {
              "internalType": "string",
              "name": "brand",
              "type": "string"
            },
            {
              "internalType": "string",
              "name": "model",
              "type": "string"
            },
            {
              "internalType": "string",
              "name": "vin",
              "type": "string"
            },
            {
              "internalType": "string",
              "name": "color_code",
              "type": "string"
            },
            {
              "internalType": "string",
              "name": "date_of_manufacture",
              "type": "string"
            },
            {
              "internalType": "string",
              "name": "warranty_expiration_date",
              "type": "string"
            },
            {
              "internalType": "string",
              "name": "fuel_type",
              "type": "string"
            },
            {
              "internalType": "uint256",
              "name": "mileage",
              "type": "uint256"
            },
            {
              "internalType": "string[]",
              "name": "repair_history",
              "type": "string[]"
            },
            {
              "internalType": "string[]",
              "name": "maintenance_history",
              "type": "string[]"
            },
            {
              "internalType": "string",
              "name": "last_update",
              "type": "string"
            },
            {
              "internalType": "bool",
              "name": "hasFines",
              "type": "bool"
            }
          ],
          "internalType": "struct AutoPassport.Car",
          "name": "objCar",
          "type": "tuple"
        },
        {
          "internalType": "string",
          "name": "uri",
          "type": "string"
        }
      ],
      "stateMutability": "view",
      "type": "function"
    },
    {
      "inputs": [
        {
          "internalType": "address",
          "name": "owner",
          "type": "address"
        },
        {
          "internalType": "address",
          "name": "operator",
          "type": "address"
        }
      ],
      "name": "isApprovedForAll",
      "outputs": [
        {
          "internalType": "bool",
          "name": "",
          "type": "bool"
        }
      ],
      "stateMutability": "view",
      "type": "function"
    },
    {
      "inputs": [],
      "name": "jobGasId",
      "outputs": [
        {
          "internalType": "string",
          "name": "",
          "type": "string"
        }
      ],
      "stateMutability": "view",
      "type": "function"
    },
    {
      "inputs": [],
      "name": "name",
      "outputs": [
        {
          "internalType": "string",
          "name": "",
          "type": "string"
        }
      ],
      "stateMutability": "view",
      "type": "function"
    },
    {
      "inputs": [],
      "name": "oracleId",
      "outputs": [
        {
          "internalType": "address",
          "name": "",
          "type": "address"
        }
      ],
      "stateMutability": "view",
      "type": "function"
    },
    {
      "inputs": [],
      "name": "owner",
      "outputs": [
        {
          "internalType": "address",
          "name": "",
          "type": "address"
        }
      ],
      "stateMutability": "view",
      "type": "function"
    },
    {
      "inputs": [
        {
          "internalType": "uint256",
          "name": "tokenId",
          "type": "uint256"
        }
      ],
      "name": "ownerOf",
      "outputs": [
        {
          "internalType": "address",
          "name": "",
          "type": "address"
        }
      ],
      "stateMutability": "view",
      "type": "function"
    },
    {
      "inputs": [
        {
          "internalType": "string",
          "name": "data_",
          "type": "string"
        }
      ],
      "name": "requestCarPurchasesInflation",
      "outputs": [
        {
          "internalType": "bytes32",
          "name": "requestId",
          "type": "bytes32"
        }
      ],
      "stateMutability": "nonpayable",
      "type": "function"
    },
    {
      "inputs": [
        {
          "internalType": "string",
          "name": "vin",
          "type": "string"
        }
      ],
      "name": "requestFinesApi",
      "outputs": [],
      "stateMutability": "nonpayable",
      "type": "function"
    },
    {
      "inputs": [
        {
          "internalType": "string",
          "name": "data_",
          "type": "string"
        }
      ],
      "name": "requestGasolineInflation",
      "outputs": [
        {
          "internalType": "bytes32",
          "name": "requestId",
          "type": "bytes32"
        }
      ],
      "stateMutability": "nonpayable",
      "type": "function"
    },
    {
      "inputs": [
        {
          "internalType": "address",
          "name": "from",
          "type": "address"
        },
        {
          "internalType": "address",
          "name": "to",
          "type": "address"
        },
        {
          "internalType": "uint256",
          "name": "tokenId",
          "type": "uint256"
        }
      ],
      "name": "safeTransferFrom",
      "outputs": [],
      "stateMutability": "nonpayable",
      "type": "function"
    },
    {
      "inputs": [
        {
          "internalType": "address",
          "name": "from",
          "type": "address"
        },
        {
          "internalType": "address",
          "name": "to",
          "type": "address"
        },
        {
          "internalType": "uint256",
          "name": "tokenId",
          "type": "uint256"
        },
        {
          "internalType": "bytes",
          "name": "data",
          "type": "bytes"
        }
      ],
      "name": "safeTransferFrom",
      "outputs": [],
      "stateMutability": "nonpayable",
      "type": "function"
    },
    {
      "inputs": [
        {
          "internalType": "address",
          "name": "operator",
          "type": "address"
        },
        {
          "internalType": "bool",
          "name": "approved",
          "type": "bool"
        }
      ],
      "name": "setApprovalForAll",
      "outputs": [],
      "stateMutability": "nonpayable",
      "type": "function"
    },
    {
      "inputs": [
        {
          "internalType": "bytes4",
          "name": "interfaceId",
          "type": "bytes4"
        }
      ],
      "name": "supportsInterface",
      "outputs": [
        {
          "internalType": "bool",
          "name": "",
          "type": "bool"
        }
      ],
      "stateMutability": "view",
      "type": "function"
    },
    {
      "inputs": [],
      "name": "symbol",
      "outputs": [
        {
          "internalType": "string",
          "name": "",
          "type": "string"
        }
      ],
      "stateMutability": "view",
      "type": "function"
    },
    {
      "inputs": [
        {
          "internalType": "uint256",
          "name": "tokenId",
          "type": "uint256"
        }
      ],
      "name": "tokenURI",
      "outputs": [
        {
          "internalType": "string",
          "name": "",
          "type": "string"
        }
      ],
      "stateMutability": "view",
      "type": "function"
    },
    {
      "inputs": [
        {
          "internalType": "address",
          "name": "from",
          "type": "address"
        },
        {
          "internalType": "address",
          "name": "to",
          "type": "address"
        },
        {
          "internalType": "uint256",
          "name": "tokenId",
          "type": "uint256"
        }
      ],
      "name": "transferFrom",
      "outputs": [],
      "stateMutability": "nonpayable",
      "type": "function"
    },
    {
      "inputs": [
        {
          "internalType": "address",
          "name": "to",
          "type": "address"
        }
      ],
      "name": "transferOwnership",
      "outputs": [],
      "stateMutability": "nonpayable",
      "type": "function"
    },
    {
      "inputs": [
        {
          "internalType": "string",
          "name": "vin",
          "type": "string"
        },
        {
          "internalType": "uint256",
          "name": "mileage",
          "type": "uint256"
        },
        {
          "internalType": "string",
          "name": "newRepair",
          "type": "string"
        },
        {
          "internalType": "string",
          "name": "newMaintenance",
          "type": "string"
        },
        {
          "internalType": "string",
          "name": "newURI",
          "type": "string"
        },
        {
          "internalType": "string",
          "name": "last_update",
          "type": "string"
        }
      ],
      "name": "updateAutoPassport",
      "outputs": [],
      "stateMutability": "nonpayable",
      "type": "function"
    },
    {
      "inputs": [
        {
          "internalType": "uint256",
          "name": "",
          "type": "uint256"
        }
      ],
      "name": "vinCreated",
      "outputs": [
        {
          "internalType": "string",
          "name": "",
          "type": "string"
        }
      ],
      "stateMutability": "view",
      "type": "function"
    },
    {
      "inputs": [],
      "name": "vinProcessing",
      "outputs": [
        {
          "internalType": "string",
          "name": "",
          "type": "string"
        }
      ],
      "stateMutability": "view",
      "type": "function"
    },
    {
      "inputs": [],
      "name": "withdrawLink",
      "outputs": [],
      "stateMutability": "nonpayable",
      "type": "function"
    }
  ],
  "bytecode": "0x600160045560a060408190526000608081905262000020916011916200030a565b503480156200002e57600080fd5b50604080518082018252600c81526b105d5d1bdc185cdcdc1bdc9d60a21b602080830191909152825180840190935260048352635061737360e01b90830152903380600081620000c55760405162461bcd60e51b815260206004820152601860248201527f43616e6e6f7420736574206f776e657220746f207a65726f000000000000000060448201526064015b60405180910390fd5b600680546001600160a01b0319166001600160a01b0384811691909117909155811615620000f857620000f8816200023b565b5050825162000110915060089060208501906200030a565b508051620001269060099060208401906200030a565b5050506200014e73326c977e6efc84e512bb9c30f76e30c160ed06fb620002e860201b60201c565b600380546001600160a01b0319167340193c8518bb267228fc409a613bdbd8ec5a97b31790557f3764383061363338366566353433613361626235323831376636373037653362600f55600a620001af670de0b6b3a76400006001620003b0565b620001bb9190620003de565b601055670de0b6b3a76400006017556040805180820190915260208082527f64323230653565363837383834343632393039613033303231333835623761659181019182526200020e916016916200030a565b50601580546001600160a01b031916736d141cf6c43f7eabf94e288f5aa3f233572784991790556200043e565b6001600160a01b038116331415620002965760405162461bcd60e51b815260206004820152601760248201527f43616e6e6f74207472616e7366657220746f2073656c660000000000000000006044820152606401620000bc565b600780546001600160a01b0319166001600160a01b03838116918217909255600654604051919216907fed8889f560326eb138920d842192f0eb3dd22b4f139c87a2c57538e05bae127890600090a350565b600280546001600160a01b0319166001600160a01b0392909216919091179055565b828054620003189062000401565b90600052602060002090601f0160209004810192826200033c576000855562000387565b82601f106200035757805160ff191683800117855562000387565b8280016001018555821562000387579182015b82811115620003875782518255916020019190600101906200036a565b506200039592915062000399565b5090565b5b808211156200039557600081556001016200039a565b6000816000190483118215151615620003d957634e487b7160e01b600052601160045260246000fd5b500290565b600082620003fc57634e487b7160e01b600052601260045260246000fd5b500490565b600181811c908216806200041657607f821691505b602082108114156200043857634e487b7160e01b600052602260045260246000fd5b50919050565b6150ba806200044e6000396000f3fe608060405234801561001057600080fd5b50600436106102415760003560e01c80638da5cb5b11610145578063b6a9a38a116100bd578063c87b56dd1161008c578063e772124511610071578063e7721245146104a5578063e985e9c5146104c5578063f2fde38b1461050157600080fd5b8063c87b56dd1461047f578063d15995d31461049257600080fd5b8063b6a9a38a14610433578063b88d4fde14610446578063bf450d1514610459578063c47795db1461046c57600080fd5b806395d89b41116101145780639f826676116100f95780639f826676146103f6578063a22cb465146103fe578063a79d65651461041157600080fd5b806395d89b41146103db578063973cacb6146103e357600080fd5b80638da5cb5b146103a75780638dc654a2146103b85780638de7c7d7146103c057806390d7d418146103d357600080fd5b80632a49149a116101d85780636352211e116101a757806370a082311161018c57806370a082311461037957806379ba50971461038c5780638514ecc71461039457600080fd5b80636352211e146103455780636ef159251461035857600080fd5b80632a49149a146102f957806342842e0e1461030c57806342966c681461031f57806351dfe0451461033257600080fd5b80631875f756116102145780631875f756146102c35780631fc0ccfe146102cb5780632121778d146102d357806323b872dd146102e657600080fd5b806301ffc9a71461024657806306fdde031461026e578063081812fc14610283578063095ea7b3146102ae575b600080fd5b61025961025436600461447f565b610514565b60405190151581526020015b60405180910390f35b610276610525565b60405161026591906144f4565b610296610291366004614507565b6105b7565b6040516001600160a01b039091168152602001610265565b6102c16102bc36600461453c565b6105de565b005b610276610733565b6102766107c1565b601554610296906001600160a01b031681565b6102c16102f4366004614566565b6107ce565b6102c1610307366004614645565b610846565b6102c161031a366004614566565b61091b565b6102c161032d366004614507565b610936565b6102c161034036600461468c565b6109ad565b610296610353366004614507565b610ac3565b61036b61036636600461468c565b610b28565b604051908152602001610265565b61036b6103873660046146c1565b610d21565b6102c1610dbb565b6102c16103a2366004614645565b610e70565b6006546001600160a01b0316610296565b6102c1610f3f565b61036b6103ce36600461468c565b6110a4565b6102766111b1565b6102766111be565b6102c16103f13660046146dc565b6111cd565b6102766115d7565b6102c161040c366004614861565b6115e4565b61042461041f36600461468c565b6115f3565b60405161026593929190614a1e565b6102c1610441366004614645565b611d83565b6102c1610454366004614a49565b611fe9565b6102c1610467366004614ab1565b612061565b6102c161047a36600461468c565b6122ca565b61027661048d366004614507565b612347565b6102766104a0366004614507565b612352565b6104b86104b336600461468c565b61237d565b6040516102659190614b8b565b6102596104d3366004614b9e565b6001600160a01b039182166000908152600d6020908152604080832093909416825291909152205460ff1690565b6102c161050f3660046146c1565b612b0b565b600061051f82612b1c565b92915050565b60606008805461053490614bd1565b80601f016020809104026020016040519081016040528092919081815260200182805461056090614bd1565b80156105ad5780601f10610582576101008083540402835291602001916105ad565b820191906000526020600020905b81548152906001019060200180831161059057829003601f168201915b5050505050905090565b60006105c282612b5a565b506000908152600c60205260409020546001600160a01b031690565b60006105e982610ac3565b9050806001600160a01b0316836001600160a01b031614156106785760405162461bcd60e51b815260206004820152602160248201527f4552433732313a20617070726f76616c20746f2063757272656e74206f776e6560448201527f720000000000000000000000000000000000000000000000000000000000000060648201526084015b60405180910390fd5b336001600160a01b03821614806106b257506001600160a01b0381166000908152600d6020908152604080832033845290915290205460ff165b6107245760405162461bcd60e51b815260206004820152603d60248201527f4552433732313a20617070726f76652063616c6c6572206973206e6f7420746f60448201527f6b656e206f776e6572206f7220617070726f76656420666f7220616c6c000000606482015260840161066f565b61072e8383612bbe565b505050565b6016805461074090614bd1565b80601f016020809104026020016040519081016040528092919081815260200182805461076c90614bd1565b80156107b95780601f1061078e576101008083540402835291602001916107b9565b820191906000526020600020905b81548152906001019060200180831161079c57829003601f168201915b505050505081565b6014805461074090614bd1565b6107d9335b82612c2c565b61083b5760405162461bcd60e51b815260206004820152602d60248201527f4552433732313a2063616c6c6572206973206e6f7420746f6b656e206f776e6560448201526c1c881bdc88185c1c1c9bdd9959609a1b606482015260840161066f565b61072e838383612cab565b60008281526005602052604090205482906001600160a01b031633146108bf5760405162461bcd60e51b815260206004820152602860248201527f536f75726365206d75737420626520746865206f7261636c65206f6620746865604482015267081c995c5d595cdd60c21b606482015260840161066f565b60008181526005602052604080822080546001600160a01b03191690555182917f7cc135e0cebb02c3480ae5d74d377283180a2601f8f644edf7987b009316c63a91a28151610915906014906020850190614324565b50505050565b61072e83838360405180602001604052806000815250611fe9565b61093f336107d3565b6109a15760405162461bcd60e51b815260206004820152602d60248201527f4552433732313a2063616c6c6572206973206e6f7420746f6b656e206f776e6560448201526c1c881bdc88185c1c1c9bdd9959609a1b606482015260840161066f565b6109aa81612ea4565b50565b60006109c3600f543063b6a9a38a60e01b612ead565b82519091506109d9906011906020850190614324565b506000826040516020016109ed9190614c06565b60408051601f19818403018152828201909152600382527f676574000000000000000000000000000000000000000000000000000000000060208301529150610a3890839083612f3e565b610ab76040518060400160405280600481526020017f70617468000000000000000000000000000000000000000000000000000000008152506040518060400160405280600881526020017f68617346696e657300000000000000000000000000000000000000000000000081525084612f3e9092919063ffffffff16565b61091582601054612f5c565b6000818152600a60205260408120546001600160a01b03168061051f5760405162461bcd60e51b815260206004820152601860248201527f4552433732313a20696e76616c696420746f6b656e2049440000000000000000604482015260640161066f565b600080610b5f610b386016614c71565b307f8514ecc700000000000000000000000000000000000000000000000000000000612ead565b9050610bca604051806040016040528060078152602001667365727669636560c81b8152506040518060400160405280601281526020017f747275666c6174696f6e2f61742d64617465000000000000000000000000000081525083612f3e9092919063ffffffff16565b6040805180820190915260048152636461746160e01b6020820152610bf190829085612f3e565b610c35604051806040016040528060078152602001660d6caf2e0c2e8d60cb1b8152506040518060600160405280602f815260200161502d602f9139839190612f3e565b610cb46040518060400160405280600381526020017f61626900000000000000000000000000000000000000000000000000000000008152506040518060400160405280600481526020017f6a736f6e0000000000000000000000000000000000000000000000000000000081525083612f3e9092919063ffffffff16565b60408051808201909152600881527f726566756e64546f0000000000000000000000000000000000000000000000006020820152610cff90610cf7336014612f76565b839190612f3e565b601554601754610d1a916001600160a01b0316908390613157565b9392505050565b60006001600160a01b038216610d9f5760405162461bcd60e51b815260206004820152602960248201527f4552433732313a2061646472657373207a65726f206973206e6f74206120766160448201527f6c6964206f776e65720000000000000000000000000000000000000000000000606482015260840161066f565b506001600160a01b03166000908152600b602052604090205490565b6007546001600160a01b03163314610e155760405162461bcd60e51b815260206004820152601660248201527f4d7573742062652070726f706f736564206f776e657200000000000000000000604482015260640161066f565b600680546001600160a01b0319808216339081179093556007805490911690556040516001600160a01b03909116919082907f8be0079c531659141344cd1fd0a4f28419497f9722a3daafe3b4186f6b6457e090600090a350565b60008281526005602052604090205482906001600160a01b03163314610ee95760405162461bcd60e51b815260206004820152602860248201527f536f75726365206d75737420626520746865206f7261636c65206f6620746865604482015267081c995c5d595cdd60c21b606482015260840161066f565b60008181526005602052604080822080546001600160a01b03191690555182917f7cc135e0cebb02c3480ae5d74d377283180a2601f8f644edf7987b009316c63a91a28151610915906013906020850190614324565b610f47613218565b6000610f5b6002546001600160a01b031690565b6040517f70a082310000000000000000000000000000000000000000000000000000000081523060048201529091506001600160a01b0382169063a9059cbb90339083906370a0823190602401602060405180830381865afa158015610fc5573d6000803e3d6000fd5b505050506040513d601f19601f82011682018060405250810190610fe99190614cb2565b6040516001600160e01b031960e085901b1681526001600160a01b03909216600483015260248201526044016020604051808303816000875af1158015611034573d6000803e3d6000fd5b505050506040513d601f19601f820116820180604052508101906110589190614ccb565b6109aa5760405162461bcd60e51b815260206004820152601260248201527f556e61626c6520746f207472616e736665720000000000000000000000000000604482015260640161066f565b6000806110db6110b46016614c71565b307f2a49149a00000000000000000000000000000000000000000000000000000000612ead565b9050611146604051806040016040528060078152602001667365727669636560c81b8152506040518060400160405280601281526020017f747275666c6174696f6e2f61742d64617465000000000000000000000000000081525083612f3e9092919063ffffffff16565b6040805180820190915260048152636461746160e01b602082015261116d90829085612f3e565b610c35604051806040016040528060078152602001660d6caf2e0c2e8d60cb1b81525060405180606001604052806029815260200161505c60299139839190612f3e565b6011805461074090614bd1565b60606009805461053490614bd1565b601b876040516111dd9190614ce8565b9081526040519081900360200190205460ff161561123d5760405162461bcd60e51b815260206004820181905260248201527f436172207769746820746869732056494e20616c726561647920657869737473604482015260640161066f565b600061124860185490565b611253906001614d1a565b6000818152601c602052604090205490915060ff16156112da5760405162461bcd60e51b8152602060048201526024808201527f4361722077697468207468697320746f6b656e496420616c726561647920657860448201527f6973747300000000000000000000000000000000000000000000000000000000606482015260840161066f565b6040518061018001604052808b81526020018a815260200189815260200188815260200187815260200186815260200185815260200160008152602001600067ffffffffffffffff811115611331576113316145a2565b60405190808252806020026020018201604052801561136457816020015b606081526020019060019003908161134f5790505b508152602001600060405190808252806020026020018201604052801561139f57816020015b606081526020019060019003908161138a5790505b50815260208082018690526000604092830181905284815260198252919091208251805191926113d492849290910190614324565b5060208281015180516113ed9260018501920190614324565b5060408201518051611409916002840191602090910190614324565b5060608201518051611425916003840191602090910190614324565b5060808201518051611441916004840191602090910190614324565b5060a0820151805161145d916005840191602090910190614324565b5060c08201518051611479916006840191602090910190614324565b5060e0820151600782015561010082015180516114a09160088401916020909101906143a8565b5061012082015180516114bd9160098401916020909101906143a8565b5061014082015180516114da91600a840191602090910190614324565b506101609190910151600b909101805460ff19169115159190911790556040518190601a9061150a908b90614ce8565b90815260405190819003602001902055611528601880546001019055565b6115328b82613274565b61153c818361328e565b6001601b8960405161154e9190614ce8565b90815260405160209181900382019020805460ff1916921515929092179091556012805460018101825560009190915289516115b1927fbb8a6a4669ba250d26cd7a459eca9d215f8307e33aebe50379bc5a3617ec3444909201918b0190614324565b506000908152601c60205260409020805460ff1916600117905550505050505050505050565b6013805461074090614bd1565b6115ef33838361336f565b5050565b600061165b60405180610180016040528060608152602001606081526020016060815260200160608152602001606081526020016060815260200160608152602001600081526020016060815260200160608152602001606081526020016000151581525090565b6060601b8460405161166d9190614ce8565b9081526040519081900360200190205460ff1615156001146116d15760405162461bcd60e51b815260206004820181905260248201527f436172207769746820746869732056494e20646f6573206e6f74206578697374604482015260640161066f565b601a846040516116e19190614ce8565b9081526020016040518091039020549250600060196000858152602001908152602001600020905060405180610180016040528082600001805461172490614bd1565b80601f016020809104026020016040519081016040528092919081815260200182805461175090614bd1565b801561179d5780601f106117725761010080835404028352916020019161179d565b820191906000526020600020905b81548152906001019060200180831161178057829003601f168201915b505050505081526020018260010180546117b690614bd1565b80601f01602080910402602001604051908101604052809291908181526020018280546117e290614bd1565b801561182f5780601f106118045761010080835404028352916020019161182f565b820191906000526020600020905b81548152906001019060200180831161181257829003601f168201915b5050505050815260200182600201805461184890614bd1565b80601f016020809104026020016040519081016040528092919081815260200182805461187490614bd1565b80156118c15780601f10611896576101008083540402835291602001916118c1565b820191906000526020600020905b8154815290600101906020018083116118a457829003601f168201915b505050505081526020018260030180546118da90614bd1565b80601f016020809104026020016040519081016040528092919081815260200182805461190690614bd1565b80156119535780601f1061192857610100808354040283529160200191611953565b820191906000526020600020905b81548152906001019060200180831161193657829003601f168201915b5050505050815260200182600401805461196c90614bd1565b80601f016020809104026020016040519081016040528092919081815260200182805461199890614bd1565b80156119e55780601f106119ba576101008083540402835291602001916119e5565b820191906000526020600020905b8154815290600101906020018083116119c857829003601f168201915b505050505081526020018260050180546119fe90614bd1565b80601f0160208091040260200160405190810160405280929190818152602001828054611a2a90614bd1565b8015611a775780601f10611a4c57610100808354040283529160200191611a77565b820191906000526020600020905b815481529060010190602001808311611a5a57829003601f168201915b50505050508152602001826006018054611a9090614bd1565b80601f0160208091040260200160405190810160405280929190818152602001828054611abc90614bd1565b8015611b095780601f10611ade57610100808354040283529160200191611b09565b820191906000526020600020905b815481529060010190602001808311611aec57829003601f168201915b505050505081526020018260070154815260200182600801805480602002602001604051908101604052809291908181526020016000905b82821015611bed578382906000526020600020018054611b6090614bd1565b80601f0160208091040260200160405190810160405280929190818152602001828054611b8c90614bd1565b8015611bd95780601f10611bae57610100808354040283529160200191611bd9565b820191906000526020600020905b815481529060010190602001808311611bbc57829003601f168201915b505050505081526020019060010190611b41565b50505050815260200182600901805480602002602001604051908101604052809291908181526020016000905b82821015611cc6578382906000526020600020018054611c3990614bd1565b80601f0160208091040260200160405190810160405280929190818152602001828054611c6590614bd1565b8015611cb25780601f10611c8757610100808354040283529160200191611cb2565b820191906000526020600020905b815481529060010190602001808311611c9557829003601f168201915b505050505081526020019060010190611c1a565b50505050815260200182600a018054611cde90614bd1565b80601f0160208091040260200160405190810160405280929190818152602001828054611d0a90614bd1565b8015611d575780601f10611d2c57610100808354040283529160200191611d57565b820191906000526020600020905b815481529060010190602001808311611d3a57829003601f168201915b5050509183525050600b83015460ff1615156020909101529250611d7a8461343e565b93959294505050565b60008281526005602052604090205482906001600160a01b03163314611dfc5760405162461bcd60e51b815260206004820152602860248201527f536f75726365206d75737420626520746865206f7261636c65206f6620746865604482015267081c995c5d595cdd60c21b606482015260840161066f565b60008181526005602052604080822080546001600160a01b03191690555182917f7cc135e0cebb02c3480ae5d74d377283180a2601f8f644edf7987b009316c63a91a26000601a6011604051611e529190614da1565b9081526040805160209281900383019020546000818152601990935291209091505b6040805160208101825260009052517fc5d2460186f7233c927e7db2dcc703c0e500b653ca82273b7bfad8045d85a47090611eb190601190614da1565b604051809103902014611fe25760408051808201909152600481527f74727565000000000000000000000000000000000000000000000000000000006020918201528451908501207f6273151f959616268004b58dbb21e5c851b7b8d04498b4aabee12291d22fc0341415611f4f57600b8101805460ff19166001179055604080516020810191829052600090819052611f4d91601191614324565b505b60408051808201909152600581527f66616c73650000000000000000000000000000000000000000000000000000006020918201528451908501207fba9154e0baa69c78e0ca563b867df81bae9d177c4ea1452c35c84386a70f0f7a1415611fdd57600b8101805460ff19169055604080516020810191829052600090819052611fdb91601191614324565b505b611e74565b5050505050565b611ff33383612c2c565b6120555760405162461bcd60e51b815260206004820152602d60248201527f4552433732313a2063616c6c6572206973206e6f7420746f6b656e206f776e6560448201526c1c881bdc88185c1c1c9bdd9959609a1b606482015260840161066f565b61091584848484613547565b601b866040516120719190614ce8565b9081526040519081900360200190205460ff1615156001146120d55760405162461bcd60e51b815260206004820181905260248201527f436172207769746820746869732056494e20646f6573206e6f74206578697374604482015260640161066f565b6000601a876040516120e79190614ce8565b90815260200160405180910390205490506000601960008381526020019081526020016000209050868160070154106121885760405162461bcd60e51b815260206004820152603860248201527f4e6577206d696c656167652076616c7565206d7573742062652067726561746560448201527f72207468616e207468652063757272656e742076616c75650000000000000000606482015260840161066f565b600781018790558551158015906121e557506040805180820190915260098152681d5b9919599a5b995960ba1b6020918201528651908701207f019726c6babc1de231f26fd6cbb2df2c912784a2e1ba55295496269a6d3ff65114155b15612217576008810180546001810182556000918252602091829020885161221593919092019190890190614324565b505b6000855111801561226e57506040805180820190915260098152681d5b9919599a5b995960ba1b6020918201528551908601207f019726c6babc1de231f26fd6cbb2df2c912784a2e1ba55295496269a6d3ff65114155b156122a0576009810180546001810182556000918252602091829020875161229e93919092019190880190614324565b505b6122aa828561328e565b82516122bf90600a8301906020860190614324565b505050505050505050565b601b816040516122da9190614ce8565b9081526040519081900360200190205460ff16151560011461233e5760405162461bcd60e51b815260206004820181905260248201527f436172207769746820746869732056494e20646f6573206e6f74206578697374604482015260640161066f565b6109aa816109ad565b606061051f8261343e565b6012818154811061236257600080fd5b90600052602060002001600091509050805461074090614bd1565b6123e360405180610180016040528060608152602001606081526020016060815260200160608152602001606081526020016060815260200160608152602001600081526020016060815260200160608152602001606081526020016000151581525090565b601b826040516123f39190614ce8565b9081526040519081900360200190205460ff1615156001146124575760405162461bcd60e51b815260206004820181905260248201527f436172207769746820746869732056494e20646f6573206e6f74206578697374604482015260640161066f565b612460826109ad565b6000601a836040516124729190614ce8565b908152602001604051809103902054905060006019600083815260200190815260200160002090506040518061018001604052808260000180546124b590614bd1565b80601f01602080910402602001604051908101604052809291908181526020018280546124e190614bd1565b801561252e5780601f106125035761010080835404028352916020019161252e565b820191906000526020600020905b81548152906001019060200180831161251157829003601f168201915b5050505050815260200182600101805461254790614bd1565b80601f016020809104026020016040519081016040528092919081815260200182805461257390614bd1565b80156125c05780601f10612595576101008083540402835291602001916125c0565b820191906000526020600020905b8154815290600101906020018083116125a357829003601f168201915b505050505081526020018260020180546125d990614bd1565b80601f016020809104026020016040519081016040528092919081815260200182805461260590614bd1565b80156126525780601f1061262757610100808354040283529160200191612652565b820191906000526020600020905b81548152906001019060200180831161263557829003601f168201915b5050505050815260200182600301805461266b90614bd1565b80601f016020809104026020016040519081016040528092919081815260200182805461269790614bd1565b80156126e45780601f106126b9576101008083540402835291602001916126e4565b820191906000526020600020905b8154815290600101906020018083116126c757829003601f168201915b505050505081526020018260040180546126fd90614bd1565b80601f016020809104026020016040519081016040528092919081815260200182805461272990614bd1565b80156127765780601f1061274b57610100808354040283529160200191612776565b820191906000526020600020905b81548152906001019060200180831161275957829003601f168201915b5050505050815260200182600501805461278f90614bd1565b80601f01602080910402602001604051908101604052809291908181526020018280546127bb90614bd1565b80156128085780601f106127dd57610100808354040283529160200191612808565b820191906000526020600020905b8154815290600101906020018083116127eb57829003601f168201915b5050505050815260200182600601805461282190614bd1565b80601f016020809104026020016040519081016040528092919081815260200182805461284d90614bd1565b801561289a5780601f1061286f5761010080835404028352916020019161289a565b820191906000526020600020905b81548152906001019060200180831161287d57829003601f168201915b505050505081526020018260070154815260200182600801805480602002602001604051908101604052809291908181526020016000905b8282101561297e5783829060005260206000200180546128f190614bd1565b80601f016020809104026020016040519081016040528092919081815260200182805461291d90614bd1565b801561296a5780601f1061293f5761010080835404028352916020019161296a565b820191906000526020600020905b81548152906001019060200180831161294d57829003601f168201915b5050505050815260200190600101906128d2565b50505050815260200182600901805480602002602001604051908101604052809291908181526020016000905b82821015612a575783829060005260206000200180546129ca90614bd1565b80601f01602080910402602001604051908101604052809291908181526020018280546129f690614bd1565b8015612a435780601f10612a1857610100808354040283529160200191612a43565b820191906000526020600020905b815481529060010190602001808311612a2657829003601f168201915b5050505050815260200190600101906129ab565b50505050815260200182600a018054612a6f90614bd1565b80601f0160208091040260200160405190810160405280929190818152602001828054612a9b90614bd1565b8015612ae85780601f10612abd57610100808354040283529160200191612ae8565b820191906000526020600020905b815481529060010190602001808311612acb57829003601f168201915b5050509183525050600b9092015460ff1615156020909201919091529392505050565b612b13613218565b6109aa816135c5565b60006001600160e01b031982167f4906490600000000000000000000000000000000000000000000000000000000148061051f575061051f82613670565b6000818152600a60205260409020546001600160a01b03166109aa5760405162461bcd60e51b815260206004820152601860248201527f4552433732313a20696e76616c696420746f6b656e2049440000000000000000604482015260640161066f565b6000818152600c6020526040902080546001600160a01b0319166001600160a01b0384169081179091558190612bf382610ac3565b6001600160a01b03167f8c5be1e5ebec7d5bd14f71427d1e84f3dd0314c0f7b2291e5b200ac8c7c3b92560405160405180910390a45050565b600080612c3883610ac3565b9050806001600160a01b0316846001600160a01b03161480612c7f57506001600160a01b038082166000908152600d602090815260408083209388168352929052205460ff165b80612ca35750836001600160a01b0316612c98846105b7565b6001600160a01b0316145b949350505050565b826001600160a01b0316612cbe82610ac3565b6001600160a01b031614612d225760405162461bcd60e51b815260206004820152602560248201527f4552433732313a207472616e736665722066726f6d20696e636f72726563742060448201526437bbb732b960d91b606482015260840161066f565b6001600160a01b038216612d9d5760405162461bcd60e51b8152602060048201526024808201527f4552433732313a207472616e7366657220746f20746865207a65726f2061646460448201527f7265737300000000000000000000000000000000000000000000000000000000606482015260840161066f565b826001600160a01b0316612db082610ac3565b6001600160a01b031614612e145760405162461bcd60e51b815260206004820152602560248201527f4552433732313a207472616e736665722066726f6d20696e636f72726563742060448201526437bbb732b960d91b606482015260840161066f565b6000818152600c6020908152604080832080546001600160a01b03199081169091556001600160a01b03878116808652600b8552838620805460001901905590871680865283862080546001019055868652600a90945282852080549092168417909155905184937fddf252ad1be2c89b69c2b068fc378daa952ba7f163c4a11628f55a4df523b3ef91a4505050565b6109aa8161370b565b612eeb6040805160a0810182526000808252602080830182905282840182905260608084018390528451808601909552845283015290608082015290565b612f296040805160a0810182526000808252602080830182905282840182905260608084018390528451808601909552845283015290608082015290565b612f358186868661374b565b95945050505050565b6080830151612f4d90836137be565b608083015161072e90826137be565b600354600090610d1a906001600160a01b03168484613157565b60606000612f85836002614dad565b612f90906002614d1a565b67ffffffffffffffff811115612fa857612fa86145a2565b6040519080825280601f01601f191660200182016040528015612fd2576020820181803683370190505b5090507f30000000000000000000000000000000000000000000000000000000000000008160008151811061300957613009614dcc565b60200101906001600160f81b031916908160001a9053507f78000000000000000000000000000000000000000000000000000000000000008160018151811061305457613054614dcc565b60200101906001600160f81b031916908160001a9053506000613078846002614dad565b613083906001614d1a565b90505b6001811115613108577f303132333435363738396162636465660000000000000000000000000000000085600f16601081106130c4576130c4614dcc565b1a60f81b8282815181106130da576130da614dcc565b60200101906001600160f81b031916908160001a90535060049490941c9361310181614de2565b9050613086565b508315610d1a5760405162461bcd60e51b815260206004820181905260248201527f537472696e67733a20686578206c656e67746820696e73756666696369656e74604482015260640161066f565b600454600090613168816001614d1a565b600455835160408086015160808701515191516000937f4042994600000000000000000000000000000000000000000000000000000000936131b99386938493923092918a91600191602401614df9565b60408051601f198184030181529190526020810180517bffffffffffffffffffffffffffffffffffffffffffffffffffffffff166001600160e01b031990931692909217909152905061320e868386846137d5565b9695505050505050565b6006546001600160a01b031633146132725760405162461bcd60e51b815260206004820152601660248201527f4f6e6c792063616c6c61626c65206279206f776e657200000000000000000000604482015260640161066f565b565b6115ef828260405180602001604052806000815250613966565b6000828152600a60205260409020546001600160a01b03166133185760405162461bcd60e51b815260206004820152602e60248201527f45524337323155524953746f726167653a2055524920736574206f66206e6f6e60448201527f6578697374656e7420746f6b656e000000000000000000000000000000000000606482015260840161066f565b6000828152600e60209081526040909120825161333792840190614324565b506040518281527ff8e1a15aba9398e019f0b49df1a4fde98ee17ae345cb5f6b5e2c27f5033e8ce79060200160405180910390a15050565b816001600160a01b0316836001600160a01b031614156133d15760405162461bcd60e51b815260206004820152601960248201527f4552433732313a20617070726f766520746f2063616c6c657200000000000000604482015260640161066f565b6001600160a01b038381166000818152600d6020908152604080832094871680845294825291829020805460ff191686151590811790915591519182527f17307eab39ab6107e8899845ad3d59bd9653f200f220920489ca2b5937696c31910160405180910390a3505050565b606061344982612b5a565b6000828152600e60205260408120805461346290614bd1565b80601f016020809104026020016040519081016040528092919081815260200182805461348e90614bd1565b80156134db5780601f106134b0576101008083540402835291602001916134db565b820191906000526020600020905b8154815290600101906020018083116134be57829003601f168201915b5050505050905060006134f960408051602081019091526000815290565b905080516000141561350c575092915050565b81511561353e578082604051602001613526929190614e5d565b60405160208183030381529060405292505050919050565b612ca3846139e4565b613552848484612cab565b61355e84848484613a57565b6109155760405162461bcd60e51b815260206004820152603260248201527f4552433732313a207472616e7366657220746f206e6f6e20455243373231526560448201527131b2b4bb32b91034b6b83632b6b2b73a32b960711b606482015260840161066f565b6001600160a01b03811633141561361e5760405162461bcd60e51b815260206004820152601760248201527f43616e6e6f74207472616e7366657220746f2073656c66000000000000000000604482015260640161066f565b600780546001600160a01b0319166001600160a01b03838116918217909255600654604051919216907fed8889f560326eb138920d842192f0eb3dd22b4f139c87a2c57538e05bae127890600090a350565b60006001600160e01b031982167f80ac58cd0000000000000000000000000000000000000000000000000000000014806136d357506001600160e01b031982167f5b5e139f00000000000000000000000000000000000000000000000000000000145b8061051f57507f01ffc9a7000000000000000000000000000000000000000000000000000000006001600160e01b031983161461051f565b61371481613b9d565b6000818152600e60205260409020805461372d90614bd1565b1590506109aa576000818152600e602052604081206109aa91614401565b6137896040805160a0810182526000808252602080830182905282840182905260608084018390528451808601909552845283015290608082015290565b6137998560800151610100613c32565b50509183526001600160a01b031660208301526001600160e01b031916604082015290565b6137cb8260038351613c97565b61072e8282613da6565b6040516bffffffffffffffffffffffff193060601b1660208201526034810184905260009060540160408051808303601f1901815282825280516020918201206000818152600590925291812080546001600160a01b0319166001600160a01b038a1617905590925082917fb5e6e01e79f91267dc17b4e6314d5d4d03593d2ceee0fbb452b750bd70ea5af99190a26002546040517f4000aea00000000000000000000000000000000000000000000000000000000081526001600160a01b0390911690634000aea0906138b190889087908790600401614e8c565b6020604051808303816000875af11580156138d0573d6000803e3d6000fd5b505050506040513d601f19601f820116820180604052508101906138f49190614ccb565b612ca35760405162461bcd60e51b815260206004820152602360248201527f756e61626c6520746f207472616e73666572416e6443616c6c20746f206f726160448201527f636c650000000000000000000000000000000000000000000000000000000000606482015260840161066f565b6139708383613dcd565b61397d6000848484613a57565b61072e5760405162461bcd60e51b815260206004820152603260248201527f4552433732313a207472616e7366657220746f206e6f6e20455243373231526560448201527131b2b4bb32b91034b6b83632b6b2b73a32b960711b606482015260840161066f565b60606139ef82612b5a565b6000613a0660408051602081019091526000815290565b90506000815111613a265760405180602001604052806000815250610d1a565b80613a3084613f58565b604051602001613a41929190614e5d565b6040516020818303038152906040529392505050565b60006001600160a01b0384163b15613b9557604051630a85bd0160e11b81526001600160a01b0385169063150b7a0290613a9b903390899088908890600401614eb4565b6020604051808303816000875af1925050508015613ad6575060408051601f3d908101601f19168201909252613ad391810190614ee6565b60015b613b7b573d808015613b04576040519150601f19603f3d011682016040523d82523d6000602084013e613b09565b606091505b508051613b735760405162461bcd60e51b815260206004820152603260248201527f4552433732313a207472616e7366657220746f206e6f6e20455243373231526560448201527131b2b4bb32b91034b6b83632b6b2b73a32b960711b606482015260840161066f565b805181602001fd5b6001600160e01b031916630a85bd0160e11b149050612ca3565b506001612ca3565b6000613ba882610ac3565b9050613bb382610ac3565b6000838152600c6020908152604080832080546001600160a01b03199081169091556001600160a01b038516808552600b84528285208054600019019055878552600a909352818420805490911690555192935084927fddf252ad1be2c89b69c2b068fc378daa952ba7f163c4a11628f55a4df523b3ef908390a45050565b604080518082019091526060815260006020820152613c52602083614f03565b15613c7a57613c62602083614f03565b613c6d906020614f25565b613c779083614d1a565b91505b506020828101829052604080518085526000815290920101905290565b60178167ffffffffffffffff1611613cbc576109158360e0600585901b168317614002565b60ff8167ffffffffffffffff1611613cfa57613ce3836018611fe0600586901b1617614002565b506109158367ffffffffffffffff83166001614027565b61ffff8167ffffffffffffffff1611613d3957613d22836019611fe0600586901b1617614002565b506109158367ffffffffffffffff83166002614027565b63ffffffff8167ffffffffffffffff1611613d7a57613d6383601a611fe0600586901b1617614002565b506109158367ffffffffffffffff83166004614027565b613d8f83601b611fe0600586901b1617614002565b506109158367ffffffffffffffff83166008614027565b604080518082019091526060815260006020820152610d1a8384600001515184855161404d565b6001600160a01b038216613e235760405162461bcd60e51b815260206004820181905260248201527f4552433732313a206d696e7420746f20746865207a65726f2061646472657373604482015260640161066f565b6000818152600a60205260409020546001600160a01b031615613e885760405162461bcd60e51b815260206004820152601c60248201527f4552433732313a20746f6b656e20616c7265616479206d696e74656400000000604482015260640161066f565b6000818152600a60205260409020546001600160a01b031615613eed5760405162461bcd60e51b815260206004820152601c60248201527f4552433732313a20746f6b656e20616c7265616479206d696e74656400000000604482015260640161066f565b6001600160a01b0382166000818152600b6020908152604080832080546001019055848352600a90915280822080546001600160a01b0319168417905551839291907fddf252ad1be2c89b69c2b068fc378daa952ba7f163c4a11628f55a4df523b3ef908290a45050565b60606000613f6583614137565b600101905060008167ffffffffffffffff811115613f8557613f856145a2565b6040519080825280601f01601f191660200182016040528015613faf576020820181803683370190505b5090508181016020015b600019017f3031323334353637383961626364656600000000000000000000000000000000600a86061a8153600a8504945084613ff557613ffa565b613fb9565b509392505050565b604080518082019091526060815260006020820152610d1a8384600001515184614219565b604080518082019091526060815260006020820152612ca3848560000151518585614275565b604080518082019091526060815260006020820152825182111561407057600080fd5b602085015161407f8386614d1a565b11156140b2576140b2856140a28760200151878661409d9190614d1a565b6142f6565b6140ad906002614dad565b61430d565b6000808651805187602083010193508088870111156140d15787860182525b505050602084015b6020841061411157805182526140f0602083614d1a565b91506140fd602082614d1a565b905061410a602085614f25565b93506140d9565b51815160001960208690036101000a019081169019919091161790525083949350505050565b6000807a184f03e93ff9f4daa797ed6e38ed64bf6a1f0100000000000000008310614180577a184f03e93ff9f4daa797ed6e38ed64bf6a1f010000000000000000830492506040015b6d04ee2d6d415b85acef810000000083106141ac576d04ee2d6d415b85acef8100000000830492506020015b662386f26fc1000083106141ca57662386f26fc10000830492506010015b6305f5e10083106141e2576305f5e100830492506008015b61271083106141f657612710830492506004015b60648310614208576064830492506002015b600a831061051f5760010192915050565b6040805180820190915260608152600060208201528360200151831061424e5761424e84856020015160026140ad9190614dad565b83518051602085830101848153508085141561426b576001810182525b5093949350505050565b60408051808201909152606081526000602082015260208501516142998584614d1a565b11156142ad576142ad856140a28685614d1a565b600060016142bd84610100615020565b6142c79190614f25565b90508551838682010185831982511617815250805184870111156142eb5783860181525b509495945050505050565b60008183111561430757508161051f565b50919050565b81516143198383613c32565b506109158382613da6565b82805461433090614bd1565b90600052602060002090601f0160209004810192826143525760008555614398565b82601f1061436b57805160ff1916838001178555614398565b82800160010185558215614398579182015b8281111561439857825182559160200191906001019061437d565b506143a4929150614437565b5090565b8280548282559060005260206000209081019282156143f5579160200282015b828111156143f557825180516143e5918491602090910190614324565b50916020019190600101906143c8565b506143a492915061444c565b50805461440d90614bd1565b6000825580601f1061441d575050565b601f0160209004906000526020600020908101906109aa91905b5b808211156143a45760008155600101614438565b808211156143a45760006144608282614401565b5060010161444c565b6001600160e01b0319811681146109aa57600080fd5b60006020828403121561449157600080fd5b8135610d1a81614469565b60005b838110156144b757818101518382015260200161449f565b838111156109155750506000910152565b600081518084526144e081602086016020860161449c565b601f01601f19169290920160200192915050565b602081526000610d1a60208301846144c8565b60006020828403121561451957600080fd5b5035919050565b80356001600160a01b038116811461453757600080fd5b919050565b6000806040838503121561454f57600080fd5b61455883614520565b946020939093013593505050565b60008060006060848603121561457b57600080fd5b61458484614520565b925061459260208501614520565b9150604084013590509250925092565b634e487b7160e01b600052604160045260246000fd5b600082601f8301126145c957600080fd5b813567ffffffffffffffff808211156145e4576145e46145a2565b604051601f8301601f19908116603f0116810190828211818310171561460c5761460c6145a2565b8160405283815286602085880101111561462557600080fd5b836020870160208301376000602085830101528094505050505092915050565b6000806040838503121561465857600080fd5b82359150602083013567ffffffffffffffff81111561467657600080fd5b614682858286016145b8565b9150509250929050565b60006020828403121561469e57600080fd5b813567ffffffffffffffff8111156146b557600080fd5b612ca3848285016145b8565b6000602082840312156146d357600080fd5b610d1a82614520565b6000806000806000806000806000806101408b8d0312156146fc57600080fd5b6147058b614520565b995060208b013567ffffffffffffffff8082111561472257600080fd5b61472e8e838f016145b8565b9a5060408d013591508082111561474457600080fd5b6147508e838f016145b8565b995060608d013591508082111561476657600080fd5b6147728e838f016145b8565b985060808d013591508082111561478857600080fd5b6147948e838f016145b8565b975060a08d01359150808211156147aa57600080fd5b6147b68e838f016145b8565b965060c08d01359150808211156147cc57600080fd5b6147d88e838f016145b8565b955060e08d01359150808211156147ee57600080fd5b6147fa8e838f016145b8565b94506101008d013591508082111561481157600080fd5b61481d8e838f016145b8565b93506101208d013591508082111561483457600080fd5b506148418d828e016145b8565b9150509295989b9194979a5092959850565b80151581146109aa57600080fd5b6000806040838503121561487457600080fd5b61487d83614520565b9150602083013561488d81614853565b809150509250929050565b600081518084526020808501808196508360051b8101915082860160005b858110156148e05782840389526148ce8483516144c8565b988501989350908401906001016148b6565b5091979650505050505050565b60006101808251818552614903828601826144c8565b9150506020830151848203602086015261491d82826144c8565b9150506040830151848203604086015261493782826144c8565b9150506060830151848203606086015261495182826144c8565b9150506080830151848203608086015261496b82826144c8565b91505060a083015184820360a086015261498582826144c8565b91505060c083015184820360c086015261499f82826144c8565b91505060e083015160e085015261010080840151858303828701526149c48382614898565b9250505061012080840151858303828701526149e08382614898565b9250505061014080840151858303828701526149fc83826144c8565b9250505061016080840151614a148287018215159052565b5090949350505050565b838152606060208201526000614a3760608301856148ed565b828103604084015261320e81856144c8565b60008060008060808587031215614a5f57600080fd5b614a6885614520565b9350614a7660208601614520565b925060408501359150606085013567ffffffffffffffff811115614a9957600080fd5b614aa5878288016145b8565b91505092959194509250565b60008060008060008060c08789031215614aca57600080fd5b863567ffffffffffffffff80821115614ae257600080fd5b614aee8a838b016145b8565b9750602089013596506040890135915080821115614b0b57600080fd5b614b178a838b016145b8565b95506060890135915080821115614b2d57600080fd5b614b398a838b016145b8565b94506080890135915080821115614b4f57600080fd5b614b5b8a838b016145b8565b935060a0890135915080821115614b7157600080fd5b50614b7e89828a016145b8565b9150509295509295509295565b602081526000610d1a60208301846148ed565b60008060408385031215614bb157600080fd5b614bba83614520565b9150614bc860208401614520565b90509250929050565b600181811c90821680614be557607f821691505b6020821081141561430757634e487b7160e01b600052602260045260246000fd5b7f68747470733a2f2f66696e65732d6170692e6f6e72656e6465722e636f6d2f6381527f6172732f66696e65732f00000000000000000000000000000000000000000000602082015260008251614c6481602a85016020870161449c565b91909101602a0192915050565b6000614c7d8254614bd1565b82601f821115614c935783600052602060002090505b54915060208110156143075760001960209190910360031b1b16919050565b600060208284031215614cc457600080fd5b5051919050565b600060208284031215614cdd57600080fd5b8151610d1a81614853565b60008251614cfa81846020870161449c565b9190910192915050565b634e487b7160e01b600052601160045260246000fd5b60008219821115614d2d57614d2d614d04565b500190565b60008154614d3f81614bd1565b60018281168015614d575760018114614d6857614d97565b60ff19841687528287019450614d97565b8560005260208060002060005b85811015614d8e5781548a820152908401908201614d75565b50505082870194505b5050505092915050565b6000610d1a8284614d32565b6000816000190483118215151615614dc757614dc7614d04565b500290565b634e487b7160e01b600052603260045260246000fd5b600081614df157614df1614d04565b506000190190565b60006101006001600160a01b03808c1684528a60208501528960408501528089166060850152506001600160e01b0319871660808401528560a08401528460c08401528060e0840152614e4e818401856144c8565b9b9a5050505050505050505050565b60008351614e6f81846020880161449c565b835190830190614e8381836020880161449c565b01949350505050565b6001600160a01b0384168152826020820152606060408201526000612f3560608301846144c8565b60006001600160a01b0380871683528086166020840152508360408301526080606083015261320e60808301846144c8565b600060208284031215614ef857600080fd5b8151610d1a81614469565b600082614f2057634e487b7160e01b600052601260045260246000fd5b500690565b600082821015614f3757614f37614d04565b500390565b600181815b80851115614f77578160001904821115614f5d57614f5d614d04565b80851615614f6a57918102915b93841c9390800290614f41565b509250929050565b600082614f8e5750600161051f565b81614f9b5750600061051f565b8160018114614fb15760028114614fbb57614fd7565b600191505061051f565b60ff841115614fcc57614fcc614d04565b50506001821b61051f565b5060208310610133831016604e8410600b8410161715614ffa575081810a61051f565b6150048383614f3c565b806000190482111561501857615018614d04565b029392505050565b6000610d1a8383614f7f56fe63617465676f726965732e4761736f6c696e652c206f74686572206675656c732c20616e64206d6f746f72206f696c63617465676f726965732e56656869636c652070757263686173657320286e6574206f75746c617929a26469706673582212200bd0872c0cbb500b25f0829059def8b096228ee603d06e0827524efd0166ef5564736f6c634300080b0033",
  "linkReferences": {},
  "deployedLinkReferences": {}
}