{
  "_format": "hh-sol-artifact-1",
  "contractName": "AutoPassport",
  "sourceName": "contracts/AutoPassport.sol",
  "abi": [
    {
      "inputs": [],
      "stateMutability": "nonpayable",
      "type": "constructor"
    },
    {
      "anonymous": false,
      "inputs": [
        {
          "indexed": true,
          "internalType": "address",
          "name": "owner",
          "type": "address"
        },
        {
          "indexed": true,
          "internalType": "address",
          "name": "approved",
          "type": "address"
        },
        {
          "indexed": true,
          "internalType": "uint256",
          "name": "tokenId",
          "type": "uint256"
        }
      ],
      "name": "Approval",
      "type": "event"
    },
    {
      "anonymous": false,
      "inputs": [
        {
          "indexed": true,
          "internalType": "address",
          "name": "owner",
          "type": "address"
        },
        {
          "indexed": true,
          "internalType": "address",
          "name": "operator",
          "type": "address"
        },
        {
          "indexed": false,
          "internalType": "bool",
          "name": "approved",
          "type": "bool"
        }
      ],
      "name": "ApprovalForAll",
      "type": "event"
    },
    {
      "anonymous": false,
      "inputs": [
        {
          "indexed": true,
          "internalType": "address",
          "name": "from",
          "type": "address"
        },
        {
          "indexed": true,
          "internalType": "uint256",
          "name": "tokenId",
          "type": "uint256"
        },
        {
          "indexed": false,
          "internalType": "string",
          "name": "vin",
          "type": "string"
        }
      ],
      "name": "Creation",
      "type": "event"
    },
    {
      "anonymous": false,
      "inputs": [
        {
          "indexed": true,
          "internalType": "address",
          "name": "previousOwner",
          "type": "address"
        },
        {
          "indexed": true,
          "internalType": "address",
          "name": "newOwner",
          "type": "address"
        }
      ],
      "name": "OwnershipTransferred",
      "type": "event"
    },
    {
      "anonymous": false,
      "inputs": [
        {
          "indexed": true,
          "internalType": "address",
          "name": "from",
          "type": "address"
        },
        {
          "indexed": true,
          "internalType": "address",
          "name": "to",
          "type": "address"
        },
        {
          "indexed": true,
          "internalType": "uint256",
          "name": "tokenId",
          "type": "uint256"
        }
      ],
      "name": "Transfer",
      "type": "event"
    },
    {
      "inputs": [
        {
          "internalType": "address",
          "name": "to",
          "type": "address"
        },
        {
          "internalType": "uint256",
          "name": "tokenId",
          "type": "uint256"
        }
      ],
      "name": "approve",
      "outputs": [],
      "stateMutability": "nonpayable",
      "type": "function"
    },
    {
      "inputs": [
        {
          "internalType": "address",
          "name": "owner",
          "type": "address"
        }
      ],
      "name": "balanceOf",
      "outputs": [
        {
          "internalType": "uint256",
          "name": "",
          "type": "uint256"
        }
      ],
      "stateMutability": "view",
      "type": "function"
    },
    {
      "inputs": [
        {
          "internalType": "uint256",
          "name": "tokenId",
          "type": "uint256"
        }
      ],
      "name": "burn",
      "outputs": [],
      "stateMutability": "nonpayable",
      "type": "function"
    },
    {
      "inputs": [
        {
          "internalType": "address",
          "name": "to",
          "type": "address"
        },
        {
          "internalType": "string",
          "name": "brand",
          "type": "string"
        },
        {
          "internalType": "string",
          "name": "model",
          "type": "string"
        },
        {
          "internalType": "string",
          "name": "vin",
          "type": "string"
        },
        {
          "internalType": "string",
          "name": "color_code",
          "type": "string"
        },
        {
          "internalType": "string",
          "name": "date_of_manufacture",
          "type": "string"
        },
        {
          "internalType": "string",
          "name": "warranty_expiration_date",
          "type": "string"
        },
        {
          "internalType": "string",
          "name": "fuel_type",
          "type": "string"
        },
        {
          "internalType": "string",
          "name": "last_update",
          "type": "string"
        },
        {
          "internalType": "string",
          "name": "uriIpfsUrl",
          "type": "string"
        }
      ],
      "name": "createAutoPassport",
      "outputs": [],
      "stateMutability": "nonpayable",
      "type": "function"
    },
    {
      "inputs": [
        {
          "internalType": "uint256",
          "name": "tokenId",
          "type": "uint256"
        }
      ],
      "name": "getApproved",
      "outputs": [
        {
          "internalType": "address",
          "name": "",
          "type": "address"
        }
      ],
      "stateMutability": "view",
      "type": "function"
    },
    {
      "inputs": [
        {
          "internalType": "uint256",
          "name": "tokenId",
          "type": "uint256"
        }
      ],
      "name": "getCarByTokenId",
      "outputs": [
        {
          "components": [
            {
              "internalType": "string",
              "name": "brand",
              "type": "string"
            },
            {
              "internalType": "string",
              "name": "model",
              "type": "string"
            },
            {
              "internalType": "string",
              "name": "vin",
              "type": "string"
            },
            {
              "internalType": "string",
              "name": "color_code",
              "type": "string"
            },
            {
              "internalType": "string",
              "name": "date_of_manufacture",
              "type": "string"
            },
            {
              "internalType": "string",
              "name": "warranty_expiration_date",
              "type": "string"
            },
            {
              "internalType": "string",
              "name": "fuel_type",
              "type": "string"
            },
            {
              "internalType": "uint256",
              "name": "mileage",
              "type": "uint256"
            },
            {
              "internalType": "string[]",
              "name": "repair_history",
              "type": "string[]"
            },
            {
              "internalType": "string[]",
              "name": "maintenance_history",
              "type": "string[]"
            },
            {
              "internalType": "string",
              "name": "last_update",
              "type": "string"
            }
          ],
          "internalType": "struct AutoPassport.Car",
          "name": "objCar",
          "type": "tuple"
        }
      ],
      "stateMutability": "view",
      "type": "function"
    },
    {
      "inputs": [
        {
          "internalType": "string",
          "name": "vin",
          "type": "string"
        }
      ],
      "name": "getObjCarByVIN",
      "outputs": [
        {
          "internalType": "uint256",
          "name": "tokenId",
          "type": "uint256"
        },
        {
          "components": [
            {
              "internalType": "string",
              "name": "brand",
              "type": "string"
            },
            {
              "internalType": "string",
              "name": "model",
              "type": "string"
            },
            {
              "internalType": "string",
              "name": "vin",
              "type": "string"
            },
            {
              "internalType": "string",
              "name": "color_code",
              "type": "string"
            },
            {
              "internalType": "string",
              "name": "date_of_manufacture",
              "type": "string"
            },
            {
              "internalType": "string",
              "name": "warranty_expiration_date",
              "type": "string"
            },
            {
              "internalType": "string",
              "name": "fuel_type",
              "type": "string"
            },
            {
              "internalType": "uint256",
              "name": "mileage",
              "type": "uint256"
            },
            {
              "internalType": "string[]",
              "name": "repair_history",
              "type": "string[]"
            },
            {
              "internalType": "string[]",
              "name": "maintenance_history",
              "type": "string[]"
            },
            {
              "internalType": "string",
              "name": "last_update",
              "type": "string"
            }
          ],
          "internalType": "struct AutoPassport.Car",
          "name": "objCar",
          "type": "tuple"
        },
        {
          "internalType": "string",
          "name": "uri",
          "type": "string"
        }
      ],
      "stateMutability": "view",
      "type": "function"
    },
    {
      "inputs": [
        {
          "internalType": "address",
          "name": "owner",
          "type": "address"
        },
        {
          "internalType": "address",
          "name": "operator",
          "type": "address"
        }
      ],
      "name": "isApprovedForAll",
      "outputs": [
        {
          "internalType": "bool",
          "name": "",
          "type": "bool"
        }
      ],
      "stateMutability": "view",
      "type": "function"
    },
    {
      "inputs": [],
      "name": "name",
      "outputs": [
        {
          "internalType": "string",
          "name": "",
          "type": "string"
        }
      ],
      "stateMutability": "view",
      "type": "function"
    },
    {
      "inputs": [],
      "name": "owner",
      "outputs": [
        {
          "internalType": "address",
          "name": "",
          "type": "address"
        }
      ],
      "stateMutability": "view",
      "type": "function"
    },
    {
      "inputs": [
        {
          "internalType": "uint256",
          "name": "tokenId",
          "type": "uint256"
        }
      ],
      "name": "ownerOf",
      "outputs": [
        {
          "internalType": "address",
          "name": "",
          "type": "address"
        }
      ],
      "stateMutability": "view",
      "type": "function"
    },
    {
      "inputs": [],
      "name": "renounceOwnership",
      "outputs": [],
      "stateMutability": "nonpayable",
      "type": "function"
    },
    {
      "inputs": [
        {
          "internalType": "address",
          "name": "from",
          "type": "address"
        },
        {
          "internalType": "address",
          "name": "to",
          "type": "address"
        },
        {
          "internalType": "uint256",
          "name": "tokenId",
          "type": "uint256"
        }
      ],
      "name": "safeTransferFrom",
      "outputs": [],
      "stateMutability": "nonpayable",
      "type": "function"
    },
    {
      "inputs": [
        {
          "internalType": "address",
          "name": "from",
          "type": "address"
        },
        {
          "internalType": "address",
          "name": "to",
          "type": "address"
        },
        {
          "internalType": "uint256",
          "name": "tokenId",
          "type": "uint256"
        },
        {
          "internalType": "bytes",
          "name": "data",
          "type": "bytes"
        }
      ],
      "name": "safeTransferFrom",
      "outputs": [],
      "stateMutability": "nonpayable",
      "type": "function"
    },
    {
      "inputs": [
        {
          "internalType": "address",
          "name": "operator",
          "type": "address"
        },
        {
          "internalType": "bool",
          "name": "approved",
          "type": "bool"
        }
      ],
      "name": "setApprovalForAll",
      "outputs": [],
      "stateMutability": "nonpayable",
      "type": "function"
    },
    {
      "inputs": [
        {
          "internalType": "bytes4",
          "name": "interfaceId",
          "type": "bytes4"
        }
      ],
      "name": "supportsInterface",
      "outputs": [
        {
          "internalType": "bool",
          "name": "",
          "type": "bool"
        }
      ],
      "stateMutability": "view",
      "type": "function"
    },
    {
      "inputs": [],
      "name": "symbol",
      "outputs": [
        {
          "internalType": "string",
          "name": "",
          "type": "string"
        }
      ],
      "stateMutability": "view",
      "type": "function"
    },
    {
      "inputs": [
        {
          "internalType": "uint256",
          "name": "tokenId",
          "type": "uint256"
        }
      ],
      "name": "tokenURI",
      "outputs": [
        {
          "internalType": "string",
          "name": "",
          "type": "string"
        }
      ],
      "stateMutability": "view",
      "type": "function"
    },
    {
      "inputs": [
        {
          "internalType": "address",
          "name": "from",
          "type": "address"
        },
        {
          "internalType": "address",
          "name": "to",
          "type": "address"
        },
        {
          "internalType": "uint256",
          "name": "tokenId",
          "type": "uint256"
        }
      ],
      "name": "transferFrom",
      "outputs": [],
      "stateMutability": "nonpayable",
      "type": "function"
    },
    {
      "inputs": [
        {
          "internalType": "address",
          "name": "newOwner",
          "type": "address"
        }
      ],
      "name": "transferOwnership",
      "outputs": [],
      "stateMutability": "nonpayable",
      "type": "function"
    },
    {
      "inputs": [
        {
          "internalType": "string",
          "name": "vin",
          "type": "string"
        },
        {
          "internalType": "uint256",
          "name": "mileage",
          "type": "uint256"
        },
        {
          "internalType": "string",
          "name": "newRepair",
          "type": "string"
        },
        {
          "internalType": "string",
          "name": "newMaintenance",
          "type": "string"
        },
        {
          "internalType": "string",
          "name": "newURI",
          "type": "string"
        },
        {
          "internalType": "string",
          "name": "last_update",
          "type": "string"
        }
      ],
      "name": "updateAutoPassport",
      "outputs": [],
      "stateMutability": "nonpayable",
      "type": "function"
    }
  ],
  "bytecode": "0x60806040523480156200001157600080fd5b506040518060400160405280600c81526020017f4175746f70617373706f727400000000000000000000000000000000000000008152506040518060400160405280600481526020017f5061737300000000000000000000000000000000000000000000000000000000815250816000908051906020019062000096929190620001a6565b508060019080519060200190620000af929190620001a6565b505050620000d2620000c6620000d860201b60201c565b620000e060201b60201c565b620002bb565b600033905090565b6000600660009054906101000a900473ffffffffffffffffffffffffffffffffffffffff16905081600660006101000a81548173ffffffffffffffffffffffffffffffffffffffff021916908373ffffffffffffffffffffffffffffffffffffffff1602179055508173ffffffffffffffffffffffffffffffffffffffff168173ffffffffffffffffffffffffffffffffffffffff167f8be0079c531659141344cd1fd0a4f28419497f9722a3daafe3b4186f6b6457e060405160405180910390a35050565b828054620001b49062000285565b90600052602060002090601f016020900481019282620001d8576000855562000224565b82601f10620001f357805160ff191683800117855562000224565b8280016001018555821562000224579182015b828111156200022357825182559160200191906001019062000206565b5b50905062000233919062000237565b5090565b5b808211156200025257600081600090555060010162000238565b5090565b7f4e487b7100000000000000000000000000000000000000000000000000000000600052602260045260246000fd5b600060028204905060018216806200029e57607f821691505b60208210811415620002b557620002b462000256565b5b50919050565b614d6680620002cb6000396000f3fe608060405234801561001057600080fd5b50600436106101375760003560e01c806376e78ce6116100b8578063a79d65651161007c578063a79d656514610338578063b88d4fde1461036a578063bf450d1514610386578063c87b56dd146103a2578063e985e9c5146103d2578063f2fde38b1461040257610137565b806376e78ce6146102945780638da5cb5b146102c457806395d89b41146102e2578063973cacb614610300578063a22cb4651461031c57610137565b806342842e0e116100ff57806342842e0e146101f257806342966c681461020e5780636352211e1461022a57806370a082311461025a578063715018a61461028a57610137565b806301ffc9a71461013c57806306fdde031461016c578063081812fc1461018a578063095ea7b3146101ba57806323b872dd146101d6575b600080fd5b61015660048036038101906101519190613510565b61041e565b6040516101639190613558565b60405180910390f35b610174610500565b604051610181919061360c565b60405180910390f35b6101a4600480360381019061019f9190613664565b610592565b6040516101b191906136d2565b60405180910390f35b6101d460048036038101906101cf9190613719565b6105d8565b005b6101f060048036038101906101eb9190613759565b6106f0565b005b61020c60048036038101906102079190613759565b610750565b005b61022860048036038101906102239190613664565b610770565b005b610244600480360381019061023f9190613664565b6107cc565b60405161025191906136d2565b60405180910390f35b610274600480360381019061026f91906137ac565b610853565b60405161028191906137e8565b60405180910390f35b61029261090b565b005b6102ae60048036038101906102a99190613664565b61091f565b6040516102bb9190613a4c565b60405180910390f35b6102cc611003565b6040516102d991906136d2565b60405180910390f35b6102ea61102d565b6040516102f7919061360c565b60405180910390f35b61031a60048036038101906103159190613ba3565b6110bf565b005b61033660048036038101906103319190613daa565b6114e8565b005b610352600480360381019061034d9190613dea565b6114fe565b60405161036193929190613e33565b60405180910390f35b610384600480360381019061037f9190613f19565b611c1f565b005b6103a0600480360381019061039b9190613f9c565b611c81565b005b6103bc60048036038101906103b79190613664565b611ed9565b6040516103c9919061360c565b60405180910390f35b6103ec60048036038101906103e791906140b5565b611eeb565b6040516103f99190613558565b60405180910390f35b61041c600480360381019061041791906137ac565b611f7f565b005b60007f80ac58cd000000000000000000000000000000000000000000000000000000007bffffffffffffffffffffffffffffffffffffffffffffffffffffffff1916827bffffffffffffffffffffffffffffffffffffffffffffffffffffffff191614806104e957507f5b5e139f000000000000000000000000000000000000000000000000000000007bffffffffffffffffffffffffffffffffffffffffffffffffffffffff1916827bffffffffffffffffffffffffffffffffffffffffffffffffffffffff1916145b806104f957506104f882612003565b5b9050919050565b60606000805461050f90614124565b80601f016020809104026020016040519081016040528092919081815260200182805461053b90614124565b80156105885780601f1061055d57610100808354040283529160200191610588565b820191906000526020600020905b81548152906001019060200180831161056b57829003601f168201915b5050505050905090565b600061059d8261206d565b6004600083815260200190815260200160002060009054906101000a900473ffffffffffffffffffffffffffffffffffffffff169050919050565b60006105e3826107cc565b90508073ffffffffffffffffffffffffffffffffffffffff168373ffffffffffffffffffffffffffffffffffffffff161415610654576040517f08c379a000000000000000000000000000000000000000000000000000000000815260040161064b906141c8565b60405180910390fd5b8073ffffffffffffffffffffffffffffffffffffffff166106736120b8565b73ffffffffffffffffffffffffffffffffffffffff1614806106a257506106a18161069c6120b8565b611eeb565b5b6106e1576040517f08c379a00000000000000000000000000000000000000000000000000000000081526004016106d89061425a565b60405180910390fd5b6106eb83836120c0565b505050565b6107016106fb6120b8565b82612179565b610740576040517f08c379a0000000000000000000000000000000000000000000000000000000008152600401610737906142ec565b60405180910390fd5b61074b83838361220e565b505050565b61076b83838360405180602001604052806000815250611c1f565b505050565b61078161077b6120b8565b82612179565b6107c0576040517f08c379a00000000000000000000000000000000000000000000000000000000081526004016107b7906142ec565b60405180910390fd5b6107c981612508565b50565b6000806107d883612514565b9050600073ffffffffffffffffffffffffffffffffffffffff168173ffffffffffffffffffffffffffffffffffffffff16141561084a576040517f08c379a000000000000000000000000000000000000000000000000000000000815260040161084190614358565b60405180910390fd5b80915050919050565b60008073ffffffffffffffffffffffffffffffffffffffff168273ffffffffffffffffffffffffffffffffffffffff1614156108c4576040517f08c379a00000000000000000000000000000000000000000000000000000000081526004016108bb906143ea565b60405180910390fd5b600360008373ffffffffffffffffffffffffffffffffffffffff1673ffffffffffffffffffffffffffffffffffffffff168152602001908152602001600020549050919050565b610913612551565b61091d60006125cf565b565b6109276132e3565b60011515600c600084815260200190815260200160002060009054906101000a900460ff1615151461098e576040517f08c379a00000000000000000000000000000000000000000000000000000000081526004016109859061447c565b60405180910390fd5b60006009600084815260200190815260200160002090506040518061016001604052808260000180546109c090614124565b80601f01602080910402602001604051908101604052809291908181526020018280546109ec90614124565b8015610a395780601f10610a0e57610100808354040283529160200191610a39565b820191906000526020600020905b815481529060010190602001808311610a1c57829003601f168201915b50505050508152602001826001018054610a5290614124565b80601f0160208091040260200160405190810160405280929190818152602001828054610a7e90614124565b8015610acb5780601f10610aa057610100808354040283529160200191610acb565b820191906000526020600020905b815481529060010190602001808311610aae57829003601f168201915b50505050508152602001826002018054610ae490614124565b80601f0160208091040260200160405190810160405280929190818152602001828054610b1090614124565b8015610b5d5780601f10610b3257610100808354040283529160200191610b5d565b820191906000526020600020905b815481529060010190602001808311610b4057829003601f168201915b50505050508152602001826003018054610b7690614124565b80601f0160208091040260200160405190810160405280929190818152602001828054610ba290614124565b8015610bef5780601f10610bc457610100808354040283529160200191610bef565b820191906000526020600020905b815481529060010190602001808311610bd257829003601f168201915b50505050508152602001826004018054610c0890614124565b80601f0160208091040260200160405190810160405280929190818152602001828054610c3490614124565b8015610c815780601f10610c5657610100808354040283529160200191610c81565b820191906000526020600020905b815481529060010190602001808311610c6457829003601f168201915b50505050508152602001826005018054610c9a90614124565b80601f0160208091040260200160405190810160405280929190818152602001828054610cc690614124565b8015610d135780601f10610ce857610100808354040283529160200191610d13565b820191906000526020600020905b815481529060010190602001808311610cf657829003601f168201915b50505050508152602001826006018054610d2c90614124565b80601f0160208091040260200160405190810160405280929190818152602001828054610d5890614124565b8015610da55780601f10610d7a57610100808354040283529160200191610da5565b820191906000526020600020905b815481529060010190602001808311610d8857829003601f168201915b505050505081526020018260070154815260200182600801805480602002602001604051908101604052809291908181526020016000905b82821015610e89578382906000526020600020018054610dfc90614124565b80601f0160208091040260200160405190810160405280929190818152602001828054610e2890614124565b8015610e755780601f10610e4a57610100808354040283529160200191610e75565b820191906000526020600020905b815481529060010190602001808311610e5857829003601f168201915b505050505081526020019060010190610ddd565b50505050815260200182600901805480602002602001604051908101604052809291908181526020016000905b82821015610f62578382906000526020600020018054610ed590614124565b80601f0160208091040260200160405190810160405280929190818152602001828054610f0190614124565b8015610f4e5780601f10610f2357610100808354040283529160200191610f4e565b820191906000526020600020905b815481529060010190602001808311610f3157829003601f168201915b505050505081526020019060010190610eb6565b50505050815260200182600a018054610f7a90614124565b80601f0160208091040260200160405190810160405280929190818152602001828054610fa690614124565b8015610ff35780601f10610fc857610100808354040283529160200191610ff3565b820191906000526020600020905b815481529060010190602001808311610fd657829003601f168201915b5050505050815250915050919050565b6000600660009054906101000a900473ffffffffffffffffffffffffffffffffffffffff16905090565b60606001805461103c90614124565b80601f016020809104026020016040519081016040528092919081815260200182805461106890614124565b80156110b55780601f1061108a576101008083540402835291602001916110b5565b820191906000526020600020905b81548152906001019060200180831161109857829003601f168201915b5050505050905090565b6110c7612551565b60001515600b886040516110db91906144d8565b908152602001604051809103902060009054906101000a900460ff16151514611139576040517f08c379a00000000000000000000000000000000000000000000000000000000081526004016111309061453b565b60405180910390fd5b600060016111476008612695565b611151919061458a565b905060001515600c600083815260200190815260200160002060009054906101000a900460ff161515146111ba576040517f08c379a00000000000000000000000000000000000000000000000000000000081526004016111b190614652565b60405180910390fd5b6040518061016001604052808b81526020018a815260200189815260200188815260200187815260200186815260200185815260200160008152602001600067ffffffffffffffff81111561121257611211613a78565b5b60405190808252806020026020018201604052801561124557816020015b60608152602001906001900390816112305790505b508152602001600067ffffffffffffffff81111561126657611265613a78565b5b60405190808252806020026020018201604052801561129957816020015b60608152602001906001900390816112845790505b508152602001848152506009600083815260200190815260200160002060008201518160000190805190602001906112d292919061333d565b5060208201518160010190805190602001906112ef92919061333d565b50604082015181600201908051906020019061130c92919061333d565b50606082015181600301908051906020019061132992919061333d565b50608082015181600401908051906020019061134692919061333d565b5060a082015181600501908051906020019061136392919061333d565b5060c082015181600601908051906020019061138092919061333d565b5060e082015181600701556101008201518160080190805190602001906113a89291906133c3565b506101208201518160090190805190602001906113c69291906133c3565b5061014082015181600a0190805190602001906113e492919061333d565b5090505080600a896040516113f991906144d8565b90815260200160405180910390208190555061141560086126a3565b61141f8b826126b9565b61142981836126d7565b6001600b8960405161143b91906144d8565b908152602001604051809103902060006101000a81548160ff0219169083151502179055506001600c600083815260200190815260200160002060006101000a81548160ff021916908315150217905550808b73ffffffffffffffffffffffffffffffffffffffff167fe649b25ea418284e682d98726ce07ccc7a6a926d3cdac495942354deca6627438a6040516114d3919061360c565b60405180910390a35050505050505050505050565b6114fa6114f36120b8565b838361274b565b5050565b60006115086132e3565b606060011515600b8560405161151e91906144d8565b908152602001604051809103902060009054906101000a900460ff1615151461157c576040517f08c379a0000000000000000000000000000000000000000000000000000000008152600401611573906146be565b60405180910390fd5b600a8460405161158c91906144d8565b908152602001604051809103902054925060006009600085815260200190815260200160002090506040518061016001604052808260000180546115cf90614124565b80601f01602080910402602001604051908101604052809291908181526020018280546115fb90614124565b80156116485780601f1061161d57610100808354040283529160200191611648565b820191906000526020600020905b81548152906001019060200180831161162b57829003601f168201915b5050505050815260200182600101805461166190614124565b80601f016020809104026020016040519081016040528092919081815260200182805461168d90614124565b80156116da5780601f106116af576101008083540402835291602001916116da565b820191906000526020600020905b8154815290600101906020018083116116bd57829003601f168201915b505050505081526020018260020180546116f390614124565b80601f016020809104026020016040519081016040528092919081815260200182805461171f90614124565b801561176c5780601f106117415761010080835404028352916020019161176c565b820191906000526020600020905b81548152906001019060200180831161174f57829003601f168201915b5050505050815260200182600301805461178590614124565b80601f01602080910402602001604051908101604052809291908181526020018280546117b190614124565b80156117fe5780601f106117d3576101008083540402835291602001916117fe565b820191906000526020600020905b8154815290600101906020018083116117e157829003601f168201915b5050505050815260200182600401805461181790614124565b80601f016020809104026020016040519081016040528092919081815260200182805461184390614124565b80156118905780601f1061186557610100808354040283529160200191611890565b820191906000526020600020905b81548152906001019060200180831161187357829003601f168201915b505050505081526020018260050180546118a990614124565b80601f01602080910402602001604051908101604052809291908181526020018280546118d590614124565b80156119225780601f106118f757610100808354040283529160200191611922565b820191906000526020600020905b81548152906001019060200180831161190557829003601f168201915b5050505050815260200182600601805461193b90614124565b80601f016020809104026020016040519081016040528092919081815260200182805461196790614124565b80156119b45780601f10611989576101008083540402835291602001916119b4565b820191906000526020600020905b81548152906001019060200180831161199757829003601f168201915b505050505081526020018260070154815260200182600801805480602002602001604051908101604052809291908181526020016000905b82821015611a98578382906000526020600020018054611a0b90614124565b80601f0160208091040260200160405190810160405280929190818152602001828054611a3790614124565b8015611a845780601f10611a5957610100808354040283529160200191611a84565b820191906000526020600020905b815481529060010190602001808311611a6757829003601f168201915b5050505050815260200190600101906119ec565b50505050815260200182600901805480602002602001604051908101604052809291908181526020016000905b82821015611b71578382906000526020600020018054611ae490614124565b80601f0160208091040260200160405190810160405280929190818152602001828054611b1090614124565b8015611b5d5780601f10611b3257610100808354040283529160200191611b5d565b820191906000526020600020905b815481529060010190602001808311611b4057829003601f168201915b505050505081526020019060010190611ac5565b50505050815260200182600a018054611b8990614124565b80601f0160208091040260200160405190810160405280929190818152602001828054611bb590614124565b8015611c025780601f10611bd757610100808354040283529160200191611c02565b820191906000526020600020905b815481529060010190602001808311611be557829003601f168201915b50505050508152509250611c15846128b8565b9150509193909250565b611c30611c2a6120b8565b83612179565b611c6f576040517f08c379a0000000000000000000000000000000000000000000000000000000008152600401611c66906142ec565b60405180910390fd5b611c7b848484846129cb565b50505050565b60011515600b87604051611c9591906144d8565b908152602001604051809103902060009054906101000a900460ff16151514611cf3576040517f08c379a0000000000000000000000000000000000000000000000000000000008152600401611cea906146be565b60405180910390fd5b6000600a87604051611d0591906144d8565b9081526020016040518091039020549050600060096000838152602001908152602001600020905086816007015410611d73576040517f08c379a0000000000000000000000000000000000000000000000000000000008152600401611d6a90614750565b60405180910390fd5b86816007018190555060008651118015611dd057506040518060400160405280600981526020017f756e646566696e6564000000000000000000000000000000000000000000000081525080519060200120868051906020012014155b15611e14578060080186908060018154018082558091505060019003906000526020600020016000909190919091509080519060200190611e1292919061333d565b505b60008551118015611e6857506040518060400160405280600981526020017f756e646566696e6564000000000000000000000000000000000000000000000081525080519060200120858051906020012014155b15611eac578060090185908060018154018082558091505060019003906000526020600020016000909190919091509080519060200190611eaa92919061333d565b505b611eb682856126d7565b8281600a019080519060200190611ece92919061333d565b505050505050505050565b6060611ee4826128b8565b9050919050565b6000600560008473ffffffffffffffffffffffffffffffffffffffff1673ffffffffffffffffffffffffffffffffffffffff16815260200190815260200160002060008373ffffffffffffffffffffffffffffffffffffffff1673ffffffffffffffffffffffffffffffffffffffff16815260200190815260200160002060009054906101000a900460ff16905092915050565b611f87612551565b600073ffffffffffffffffffffffffffffffffffffffff168173ffffffffffffffffffffffffffffffffffffffff161415611ff7576040517f08c379a0000000000000000000000000000000000000000000000000000000008152600401611fee906147e2565b60405180910390fd5b612000816125cf565b50565b60007f01ffc9a7000000000000000000000000000000000000000000000000000000007bffffffffffffffffffffffffffffffffffffffffffffffffffffffff1916827bffffffffffffffffffffffffffffffffffffffffffffffffffffffff1916149050919050565b61207681612a27565b6120b5576040517f08c379a00000000000000000000000000000000000000000000000000000000081526004016120ac90614358565b60405180910390fd5b50565b600033905090565b816004600083815260200190815260200160002060006101000a81548173ffffffffffffffffffffffffffffffffffffffff021916908373ffffffffffffffffffffffffffffffffffffffff160217905550808273ffffffffffffffffffffffffffffffffffffffff16612133836107cc565b73ffffffffffffffffffffffffffffffffffffffff167f8c5be1e5ebec7d5bd14f71427d1e84f3dd0314c0f7b2291e5b200ac8c7c3b92560405160405180910390a45050565b600080612185836107cc565b90508073ffffffffffffffffffffffffffffffffffffffff168473ffffffffffffffffffffffffffffffffffffffff1614806121c757506121c68185611eeb565b5b8061220557508373ffffffffffffffffffffffffffffffffffffffff166121ed84610592565b73ffffffffffffffffffffffffffffffffffffffff16145b91505092915050565b8273ffffffffffffffffffffffffffffffffffffffff1661222e826107cc565b73ffffffffffffffffffffffffffffffffffffffff1614612284576040517f08c379a000000000000000000000000000000000000000000000000000000000815260040161227b90614874565b60405180910390fd5b600073ffffffffffffffffffffffffffffffffffffffff168273ffffffffffffffffffffffffffffffffffffffff1614156122f4576040517f08c379a00000000000000000000000000000000000000000000000000000000081526004016122eb90614906565b60405180910390fd5b6123018383836001612a68565b8273ffffffffffffffffffffffffffffffffffffffff16612321826107cc565b73ffffffffffffffffffffffffffffffffffffffff1614612377576040517f08c379a000000000000000000000000000000000000000000000000000000000815260040161236e90614874565b60405180910390fd5b6004600082815260200190815260200160002060006101000a81549073ffffffffffffffffffffffffffffffffffffffff02191690556001600360008573ffffffffffffffffffffffffffffffffffffffff1673ffffffffffffffffffffffffffffffffffffffff168152602001908152602001600020600082825403925050819055506001600360008473ffffffffffffffffffffffffffffffffffffffff1673ffffffffffffffffffffffffffffffffffffffff16815260200190815260200160002060008282540192505081905550816002600083815260200190815260200160002060006101000a81548173ffffffffffffffffffffffffffffffffffffffff021916908373ffffffffffffffffffffffffffffffffffffffff160217905550808273ffffffffffffffffffffffffffffffffffffffff168473ffffffffffffffffffffffffffffffffffffffff167fddf252ad1be2c89b69c2b068fc378daa952ba7f163c4a11628f55a4df523b3ef60405160405180910390a46125038383836001612a6e565b505050565b61251181612a74565b50565b60006002600083815260200190815260200160002060009054906101000a900473ffffffffffffffffffffffffffffffffffffffff169050919050565b6125596120b8565b73ffffffffffffffffffffffffffffffffffffffff16612577611003565b73ffffffffffffffffffffffffffffffffffffffff16146125cd576040517f08c379a00000000000000000000000000000000000000000000000000000000081526004016125c490614972565b60405180910390fd5b565b6000600660009054906101000a900473ffffffffffffffffffffffffffffffffffffffff16905081600660006101000a81548173ffffffffffffffffffffffffffffffffffffffff021916908373ffffffffffffffffffffffffffffffffffffffff1602179055508173ffffffffffffffffffffffffffffffffffffffff168173ffffffffffffffffffffffffffffffffffffffff167f8be0079c531659141344cd1fd0a4f28419497f9722a3daafe3b4186f6b6457e060405160405180910390a35050565b600081600001549050919050565b6001816000016000828254019250508190555050565b6126d3828260405180602001604052806000815250612ac7565b5050565b6126e082612a27565b61271f576040517f08c379a000000000000000000000000000000000000000000000000000000000815260040161271690614a04565b60405180910390fd5b8060076000848152602001908152602001600020908051906020019061274692919061333d565b505050565b8173ffffffffffffffffffffffffffffffffffffffff168373ffffffffffffffffffffffffffffffffffffffff1614156127ba576040517f08c379a00000000000000000000000000000000000000000000000000000000081526004016127b190614a70565b60405180910390fd5b80600560008573ffffffffffffffffffffffffffffffffffffffff1673ffffffffffffffffffffffffffffffffffffffff16815260200190815260200160002060008473ffffffffffffffffffffffffffffffffffffffff1673ffffffffffffffffffffffffffffffffffffffff16815260200190815260200160002060006101000a81548160ff0219169083151502179055508173ffffffffffffffffffffffffffffffffffffffff168373ffffffffffffffffffffffffffffffffffffffff167f17307eab39ab6107e8899845ad3d59bd9653f200f220920489ca2b5937696c31836040516128ab9190613558565b60405180910390a3505050565b60606128c38261206d565b60006007600084815260200190815260200160002080546128e390614124565b80601f016020809104026020016040519081016040528092919081815260200182805461290f90614124565b801561295c5780601f106129315761010080835404028352916020019161295c565b820191906000526020600020905b81548152906001019060200180831161293f57829003601f168201915b50505050509050600061296d612b22565b90506000815114156129835781925050506129c6565b6000825111156129b85780826040516020016129a0929190614a90565b604051602081830303815290604052925050506129c6565b6129c184612b39565b925050505b919050565b6129d684848461220e565b6129e284848484612ba1565b612a21576040517f08c379a0000000000000000000000000000000000000000000000000000000008152600401612a1890614b26565b60405180910390fd5b50505050565b60008073ffffffffffffffffffffffffffffffffffffffff16612a4983612514565b73ffffffffffffffffffffffffffffffffffffffff1614159050919050565b50505050565b50505050565b612a7d81612d29565b6000600760008381526020019081526020016000208054612a9d90614124565b905014612ac457600760008281526020019081526020016000206000612ac39190613423565b5b50565b612ad18383612e77565b612ade6000848484612ba1565b612b1d576040517f08c379a0000000000000000000000000000000000000000000000000000000008152600401612b1490614b26565b60405180910390fd5b505050565b606060405180602001604052806000815250905090565b6060612b448261206d565b6000612b4e612b22565b90506000815111612b6e5760405180602001604052806000815250612b99565b80612b7884613095565b604051602001612b89929190614a90565b6040516020818303038152906040525b915050919050565b6000612bc28473ffffffffffffffffffffffffffffffffffffffff1661316d565b15612d1c578373ffffffffffffffffffffffffffffffffffffffff1663150b7a02612beb6120b8565b8786866040518563ffffffff1660e01b8152600401612c0d9493929190614b9b565b6020604051808303816000875af1925050508015612c4957506040513d601f19601f82011682018060405250810190612c469190614bfc565b60015b612ccc573d8060008114612c79576040519150601f19603f3d011682016040523d82523d6000602084013e612c7e565b606091505b50600081511415612cc4576040517f08c379a0000000000000000000000000000000000000000000000000000000008152600401612cbb90614b26565b60405180910390fd5b805181602001fd5b63150b7a0260e01b7bffffffffffffffffffffffffffffffffffffffffffffffffffffffff1916817bffffffffffffffffffffffffffffffffffffffffffffffffffffffff191614915050612d21565b600190505b949350505050565b6000612d34826107cc565b9050612d44816000846001612a68565b612d4d826107cc565b90506004600083815260200190815260200160002060006101000a81549073ffffffffffffffffffffffffffffffffffffffff02191690556001600360008373ffffffffffffffffffffffffffffffffffffffff1673ffffffffffffffffffffffffffffffffffffffff168152602001908152602001600020600082825403925050819055506002600083815260200190815260200160002060006101000a81549073ffffffffffffffffffffffffffffffffffffffff021916905581600073ffffffffffffffffffffffffffffffffffffffff168273ffffffffffffffffffffffffffffffffffffffff167fddf252ad1be2c89b69c2b068fc378daa952ba7f163c4a11628f55a4df523b3ef60405160405180910390a4612e73816000846001612a6e565b5050565b600073ffffffffffffffffffffffffffffffffffffffff168273ffffffffffffffffffffffffffffffffffffffff161415612ee7576040517f08c379a0000000000000000000000000000000000000000000000000000000008152600401612ede90614c75565b60405180910390fd5b612ef081612a27565b15612f30576040517f08c379a0000000000000000000000000000000000000000000000000000000008152600401612f2790614ce1565b60405180910390fd5b612f3e600083836001612a68565b612f4781612a27565b15612f87576040517f08c379a0000000000000000000000000000000000000000000000000000000008152600401612f7e90614ce1565b60405180910390fd5b6001600360008473ffffffffffffffffffffffffffffffffffffffff1673ffffffffffffffffffffffffffffffffffffffff16815260200190815260200160002060008282540192505081905550816002600083815260200190815260200160002060006101000a81548173ffffffffffffffffffffffffffffffffffffffff021916908373ffffffffffffffffffffffffffffffffffffffff160217905550808273ffffffffffffffffffffffffffffffffffffffff16600073ffffffffffffffffffffffffffffffffffffffff167fddf252ad1be2c89b69c2b068fc378daa952ba7f163c4a11628f55a4df523b3ef60405160405180910390a4613091600083836001612a6e565b5050565b6060600060016130a484613190565b01905060008167ffffffffffffffff8111156130c3576130c2613a78565b5b6040519080825280601f01601f1916602001820160405280156130f55781602001600182028036833780820191505090505b509050600082602001820190505b600115613162578080600190039150507f3031323334353637383961626364656600000000000000000000000000000000600a86061a8153600a858161314c5761314b614d01565b5b049450600085141561315d57613162565b613103565b819350505050919050565b6000808273ffffffffffffffffffffffffffffffffffffffff163b119050919050565b600080600090507a184f03e93ff9f4daa797ed6e38ed64bf6a1f01000000000000000083106131ee577a184f03e93ff9f4daa797ed6e38ed64bf6a1f01000000000000000083816131e4576131e3614d01565b5b0492506040810190505b6d04ee2d6d415b85acef8100000000831061322b576d04ee2d6d415b85acef8100000000838161322157613220614d01565b5b0492506020810190505b662386f26fc10000831061325a57662386f26fc1000083816132505761324f614d01565b5b0492506010810190505b6305f5e1008310613283576305f5e100838161327957613278614d01565b5b0492506008810190505b61271083106132a857612710838161329e5761329d614d01565b5b0492506004810190505b606483106132cb57606483816132c1576132c0614d01565b5b0492506002810190505b600a83106132da576001810190505b80915050919050565b60405180610160016040528060608152602001606081526020016060815260200160608152602001606081526020016060815260200160608152602001600081526020016060815260200160608152602001606081525090565b82805461334990614124565b90600052602060002090601f01602090048101928261336b57600085556133b2565b82601f1061338457805160ff19168380011785556133b2565b828001600101855582156133b2579182015b828111156133b1578251825591602001919060010190613396565b5b5090506133bf9190613463565b5090565b828054828255906000526020600020908101928215613412579160200282015b8281111561341157825182908051906020019061340192919061333d565b50916020019190600101906133e3565b5b50905061341f9190613480565b5090565b50805461342f90614124565b6000825580601f106134415750613460565b601f01602090049060005260206000209081019061345f9190613463565b5b50565b5b8082111561347c576000816000905550600101613464565b5090565b5b808211156134a057600081816134979190613423565b50600101613481565b5090565b6000604051905090565b600080fd5b600080fd5b60007fffffffff0000000000000000000000000000000000000000000000000000000082169050919050565b6134ed816134b8565b81146134f857600080fd5b50565b60008135905061350a816134e4565b92915050565b600060208284031215613526576135256134ae565b5b6000613534848285016134fb565b91505092915050565b60008115159050919050565b6135528161353d565b82525050565b600060208201905061356d6000830184613549565b92915050565b600081519050919050565b600082825260208201905092915050565b60005b838110156135ad578082015181840152602081019050613592565b838111156135bc576000848401525b50505050565b6000601f19601f8301169050919050565b60006135de82613573565b6135e8818561357e565b93506135f881856020860161358f565b613601816135c2565b840191505092915050565b6000602082019050818103600083015261362681846135d3565b905092915050565b6000819050919050565b6136418161362e565b811461364c57600080fd5b50565b60008135905061365e81613638565b92915050565b60006020828403121561367a576136796134ae565b5b60006136888482850161364f565b91505092915050565b600073ffffffffffffffffffffffffffffffffffffffff82169050919050565b60006136bc82613691565b9050919050565b6136cc816136b1565b82525050565b60006020820190506136e760008301846136c3565b92915050565b6136f6816136b1565b811461370157600080fd5b50565b600081359050613713816136ed565b92915050565b600080604083850312156137305761372f6134ae565b5b600061373e85828601613704565b925050602061374f8582860161364f565b9150509250929050565b600080600060608486031215613772576137716134ae565b5b600061378086828701613704565b935050602061379186828701613704565b92505060406137a28682870161364f565b9150509250925092565b6000602082840312156137c2576137c16134ae565b5b60006137d084828501613704565b91505092915050565b6137e28161362e565b82525050565b60006020820190506137fd60008301846137d9565b92915050565b600082825260208201905092915050565b600061381f82613573565b6138298185613803565b935061383981856020860161358f565b613842816135c2565b840191505092915050565b6138568161362e565b82525050565b600081519050919050565b600082825260208201905092915050565b6000819050602082019050919050565b60006138948383613814565b905092915050565b6000602082019050919050565b60006138b48261385c565b6138be8185613867565b9350836020820285016138d085613878565b8060005b8581101561390c57848403895281516138ed8582613888565b94506138f88361389c565b925060208a019950506001810190506138d4565b50829750879550505050505092915050565b600061016083016000830151848203600086015261393c8282613814565b915050602083015184820360208601526139568282613814565b915050604083015184820360408601526139708282613814565b9150506060830151848203606086015261398a8282613814565b915050608083015184820360808601526139a48282613814565b91505060a083015184820360a08601526139be8282613814565b91505060c083015184820360c08601526139d88282613814565b91505060e08301516139ed60e086018261384d565b50610100830151848203610100860152613a0782826138a9565b915050610120830151848203610120860152613a2382826138a9565b915050610140830151848203610140860152613a3f8282613814565b9150508091505092915050565b60006020820190508181036000830152613a66818461391e565b905092915050565b600080fd5b600080fd5b7f4e487b7100000000000000000000000000000000000000000000000000000000600052604160045260246000fd5b613ab0826135c2565b810181811067ffffffffffffffff82111715613acf57613ace613a78565b5b80604052505050565b6000613ae26134a4565b9050613aee8282613aa7565b919050565b600067ffffffffffffffff821115613b0e57613b0d613a78565b5b613b17826135c2565b9050602081019050919050565b82818337600083830152505050565b6000613b46613b4184613af3565b613ad8565b905082815260208101848484011115613b6257613b61613a73565b5b613b6d848285613b24565b509392505050565b600082601f830112613b8a57613b89613a6e565b5b8135613b9a848260208601613b33565b91505092915050565b6000806000806000806000806000806101408b8d031215613bc757613bc66134ae565b5b6000613bd58d828e01613704565b9a505060208b013567ffffffffffffffff811115613bf657613bf56134b3565b5b613c028d828e01613b75565b99505060408b013567ffffffffffffffff811115613c2357613c226134b3565b5b613c2f8d828e01613b75565b98505060608b013567ffffffffffffffff811115613c5057613c4f6134b3565b5b613c5c8d828e01613b75565b97505060808b013567ffffffffffffffff811115613c7d57613c7c6134b3565b5b613c898d828e01613b75565b96505060a08b013567ffffffffffffffff811115613caa57613ca96134b3565b5b613cb68d828e01613b75565b95505060c08b013567ffffffffffffffff811115613cd757613cd66134b3565b5b613ce38d828e01613b75565b94505060e08b013567ffffffffffffffff811115613d0457613d036134b3565b5b613d108d828e01613b75565b9350506101008b013567ffffffffffffffff811115613d3257613d316134b3565b5b613d3e8d828e01613b75565b9250506101208b013567ffffffffffffffff811115613d6057613d5f6134b3565b5b613d6c8d828e01613b75565b9150509295989b9194979a5092959850565b613d878161353d565b8114613d9257600080fd5b50565b600081359050613da481613d7e565b92915050565b60008060408385031215613dc157613dc06134ae565b5b6000613dcf85828601613704565b9250506020613de085828601613d95565b9150509250929050565b600060208284031215613e0057613dff6134ae565b5b600082013567ffffffffffffffff811115613e1e57613e1d6134b3565b5b613e2a84828501613b75565b91505092915050565b6000606082019050613e4860008301866137d9565b8181036020830152613e5a818561391e565b90508181036040830152613e6e81846135d3565b9050949350505050565b600067ffffffffffffffff821115613e9357613e92613a78565b5b613e9c826135c2565b9050602081019050919050565b6000613ebc613eb784613e78565b613ad8565b905082815260208101848484011115613ed857613ed7613a73565b5b613ee3848285613b24565b509392505050565b600082601f830112613f0057613eff613a6e565b5b8135613f10848260208601613ea9565b91505092915050565b60008060008060808587031215613f3357613f326134ae565b5b6000613f4187828801613704565b9450506020613f5287828801613704565b9350506040613f638782880161364f565b925050606085013567ffffffffffffffff811115613f8457613f836134b3565b5b613f9087828801613eeb565b91505092959194509250565b60008060008060008060c08789031215613fb957613fb86134ae565b5b600087013567ffffffffffffffff811115613fd757613fd66134b3565b5b613fe389828a01613b75565b9650506020613ff489828a0161364f565b955050604087013567ffffffffffffffff811115614015576140146134b3565b5b61402189828a01613b75565b945050606087013567ffffffffffffffff811115614042576140416134b3565b5b61404e89828a01613b75565b935050608087013567ffffffffffffffff81111561406f5761406e6134b3565b5b61407b89828a01613b75565b92505060a087013567ffffffffffffffff81111561409c5761409b6134b3565b5b6140a889828a01613b75565b9150509295509295509295565b600080604083850312156140cc576140cb6134ae565b5b60006140da85828601613704565b92505060206140eb85828601613704565b9150509250929050565b7f4e487b7100000000000000000000000000000000000000000000000000000000600052602260045260246000fd5b6000600282049050600182168061413c57607f821691505b602082108114156141505761414f6140f5565b5b50919050565b7f4552433732313a20617070726f76616c20746f2063757272656e74206f776e6560008201527f7200000000000000000000000000000000000000000000000000000000000000602082015250565b60006141b260218361357e565b91506141bd82614156565b604082019050919050565b600060208201905081810360008301526141e1816141a5565b9050919050565b7f4552433732313a20617070726f76652063616c6c6572206973206e6f7420746f60008201527f6b656e206f776e6572206f7220617070726f76656420666f7220616c6c000000602082015250565b6000614244603d8361357e565b915061424f826141e8565b604082019050919050565b6000602082019050818103600083015261427381614237565b9050919050565b7f4552433732313a2063616c6c6572206973206e6f7420746f6b656e206f776e6560008201527f72206f7220617070726f76656400000000000000000000000000000000000000602082015250565b60006142d6602d8361357e565b91506142e18261427a565b604082019050919050565b60006020820190508181036000830152614305816142c9565b9050919050565b7f4552433732313a20696e76616c696420746f6b656e2049440000000000000000600082015250565b600061434260188361357e565b915061434d8261430c565b602082019050919050565b6000602082019050818103600083015261437181614335565b9050919050565b7f4552433732313a2061646472657373207a65726f206973206e6f74206120766160008201527f6c6964206f776e65720000000000000000000000000000000000000000000000602082015250565b60006143d460298361357e565b91506143df82614378565b604082019050919050565b60006020820190508181036000830152614403816143c7565b9050919050565b7f4361722077697468207468697320746f6b656e496420646f6573206e6f74206560008201527f7869737400000000000000000000000000000000000000000000000000000000602082015250565b600061446660248361357e565b91506144718261440a565b604082019050919050565b6000602082019050818103600083015261449581614459565b9050919050565b600081905092915050565b60006144b282613573565b6144bc818561449c565b93506144cc81856020860161358f565b80840191505092915050565b60006144e482846144a7565b915081905092915050565b7f436172207769746820746869732056494e20616c726561647920657869737473600082015250565b600061452560208361357e565b9150614530826144ef565b602082019050919050565b6000602082019050818103600083015261455481614518565b9050919050565b7f4e487b7100000000000000000000000000000000000000000000000000000000600052601160045260246000fd5b60006145958261362e565b91506145a08361362e565b9250827fffffffffffffffffffffffffffffffffffffffffffffffffffffffffffffffff038211156145d5576145d461455b565b5b828201905092915050565b7f4361722077697468207468697320746f6b656e496420616c726561647920657860008201527f6973747300000000000000000000000000000000000000000000000000000000602082015250565b600061463c60248361357e565b9150614647826145e0565b604082019050919050565b6000602082019050818103600083015261466b8161462f565b9050919050565b7f436172207769746820746869732056494e20646f6573206e6f74206578697374600082015250565b60006146a860208361357e565b91506146b382614672565b602082019050919050565b600060208201905081810360008301526146d78161469b565b9050919050565b7f4e6577206d696c656167652076616c7565206d7573742062652067726561746560008201527f72207468616e207468652063757272656e742076616c75650000000000000000602082015250565b600061473a60388361357e565b9150614745826146de565b604082019050919050565b600060208201905081810360008301526147698161472d565b9050919050565b7f4f776e61626c653a206e6577206f776e657220697320746865207a65726f206160008201527f6464726573730000000000000000000000000000000000000000000000000000602082015250565b60006147cc60268361357e565b91506147d782614770565b604082019050919050565b600060208201905081810360008301526147fb816147bf565b9050919050565b7f4552433732313a207472616e736665722066726f6d20696e636f72726563742060008201527f6f776e6572000000000000000000000000000000000000000000000000000000602082015250565b600061485e60258361357e565b915061486982614802565b604082019050919050565b6000602082019050818103600083015261488d81614851565b9050919050565b7f4552433732313a207472616e7366657220746f20746865207a65726f2061646460008201527f7265737300000000000000000000000000000000000000000000000000000000602082015250565b60006148f060248361357e565b91506148fb82614894565b604082019050919050565b6000602082019050818103600083015261491f816148e3565b9050919050565b7f4f776e61626c653a2063616c6c6572206973206e6f7420746865206f776e6572600082015250565b600061495c60208361357e565b915061496782614926565b602082019050919050565b6000602082019050818103600083015261498b8161494f565b9050919050565b7f45524337323155524953746f726167653a2055524920736574206f66206e6f6e60008201527f6578697374656e7420746f6b656e000000000000000000000000000000000000602082015250565b60006149ee602e8361357e565b91506149f982614992565b604082019050919050565b60006020820190508181036000830152614a1d816149e1565b9050919050565b7f4552433732313a20617070726f766520746f2063616c6c657200000000000000600082015250565b6000614a5a60198361357e565b9150614a6582614a24565b602082019050919050565b60006020820190508181036000830152614a8981614a4d565b9050919050565b6000614a9c82856144a7565b9150614aa882846144a7565b91508190509392505050565b7f4552433732313a207472616e7366657220746f206e6f6e20455243373231526560008201527f63656976657220696d706c656d656e7465720000000000000000000000000000602082015250565b6000614b1060328361357e565b9150614b1b82614ab4565b604082019050919050565b60006020820190508181036000830152614b3f81614b03565b9050919050565b600081519050919050565b600082825260208201905092915050565b6000614b6d82614b46565b614b778185614b51565b9350614b8781856020860161358f565b614b90816135c2565b840191505092915050565b6000608082019050614bb060008301876136c3565b614bbd60208301866136c3565b614bca60408301856137d9565b8181036060830152614bdc8184614b62565b905095945050505050565b600081519050614bf6816134e4565b92915050565b600060208284031215614c1257614c116134ae565b5b6000614c2084828501614be7565b91505092915050565b7f4552433732313a206d696e7420746f20746865207a65726f2061646472657373600082015250565b6000614c5f60208361357e565b9150614c6a82614c29565b602082019050919050565b60006020820190508181036000830152614c8e81614c52565b9050919050565b7f4552433732313a20746f6b656e20616c7265616479206d696e74656400000000600082015250565b6000614ccb601c8361357e565b9150614cd682614c95565b602082019050919050565b60006020820190508181036000830152614cfa81614cbe565b9050919050565b7f4e487b7100000000000000000000000000000000000000000000000000000000600052601260045260246000fdfea2646970667358221220e6fababde4d14c862b9a8cff4fcdd3d9116f3d381a528081ec8a4188645b726d64736f6c634300080b0033",
  "linkReferences": {},
  "deployedLinkReferences": {}
}