{
  "_format": "hh-sol-artifact-1",
  "contractName": "AutoPassport",
  "sourceName": "contracts/AutoPassport.sol",
  "abi": [
    {
      "inputs": [],
      "stateMutability": "nonpayable",
      "type": "constructor"
    },
    {
      "anonymous": false,
      "inputs": [
        {
          "indexed": true,
          "internalType": "address",
          "name": "owner",
          "type": "address"
        },
        {
          "indexed": true,
          "internalType": "address",
          "name": "approved",
          "type": "address"
        },
        {
          "indexed": true,
          "internalType": "uint256",
          "name": "tokenId",
          "type": "uint256"
        }
      ],
      "name": "Approval",
      "type": "event"
    },
    {
      "anonymous": false,
      "inputs": [
        {
          "indexed": true,
          "internalType": "address",
          "name": "owner",
          "type": "address"
        },
        {
          "indexed": true,
          "internalType": "address",
          "name": "operator",
          "type": "address"
        },
        {
          "indexed": false,
          "internalType": "bool",
          "name": "approved",
          "type": "bool"
        }
      ],
      "name": "ApprovalForAll",
      "type": "event"
    },
    {
      "anonymous": false,
      "inputs": [
        {
          "indexed": false,
          "internalType": "uint256",
          "name": "_fromTokenId",
          "type": "uint256"
        },
        {
          "indexed": false,
          "internalType": "uint256",
          "name": "_toTokenId",
          "type": "uint256"
        }
      ],
      "name": "BatchMetadataUpdate",
      "type": "event"
    },
    {
      "anonymous": false,
      "inputs": [
        {
          "indexed": true,
          "internalType": "bytes32",
          "name": "id",
          "type": "bytes32"
        }
      ],
      "name": "ChainlinkCancelled",
      "type": "event"
    },
    {
      "anonymous": false,
      "inputs": [
        {
          "indexed": true,
          "internalType": "bytes32",
          "name": "id",
          "type": "bytes32"
        }
      ],
      "name": "ChainlinkFulfilled",
      "type": "event"
    },
    {
      "anonymous": false,
      "inputs": [
        {
          "indexed": true,
          "internalType": "bytes32",
          "name": "id",
          "type": "bytes32"
        }
      ],
      "name": "ChainlinkRequested",
      "type": "event"
    },
    {
      "anonymous": false,
      "inputs": [
        {
          "indexed": false,
          "internalType": "uint256",
          "name": "_tokenId",
          "type": "uint256"
        }
      ],
      "name": "MetadataUpdate",
      "type": "event"
    },
    {
      "anonymous": false,
      "inputs": [
        {
          "indexed": true,
          "internalType": "address",
          "name": "from",
          "type": "address"
        },
        {
          "indexed": true,
          "internalType": "address",
          "name": "to",
          "type": "address"
        }
      ],
      "name": "OwnershipTransferRequested",
      "type": "event"
    },
    {
      "anonymous": false,
      "inputs": [
        {
          "indexed": true,
          "internalType": "address",
          "name": "from",
          "type": "address"
        },
        {
          "indexed": true,
          "internalType": "address",
          "name": "to",
          "type": "address"
        }
      ],
      "name": "OwnershipTransferred",
      "type": "event"
    },
    {
      "anonymous": false,
      "inputs": [
        {
          "indexed": true,
          "internalType": "address",
          "name": "from",
          "type": "address"
        },
        {
          "indexed": true,
          "internalType": "address",
          "name": "to",
          "type": "address"
        },
        {
          "indexed": true,
          "internalType": "uint256",
          "name": "tokenId",
          "type": "uint256"
        }
      ],
      "name": "Transfer",
      "type": "event"
    },
    {
      "inputs": [],
      "name": "acceptOwnership",
      "outputs": [],
      "stateMutability": "nonpayable",
      "type": "function"
    },
    {
      "inputs": [
        {
          "internalType": "address",
          "name": "to",
          "type": "address"
        },
        {
          "internalType": "uint256",
          "name": "tokenId",
          "type": "uint256"
        }
      ],
      "name": "approve",
      "outputs": [],
      "stateMutability": "nonpayable",
      "type": "function"
    },
    {
      "inputs": [
        {
          "internalType": "address",
          "name": "owner",
          "type": "address"
        }
      ],
      "name": "balanceOf",
      "outputs": [
        {
          "internalType": "uint256",
          "name": "",
          "type": "uint256"
        }
      ],
      "stateMutability": "view",
      "type": "function"
    },
    {
      "inputs": [
        {
          "internalType": "uint256",
          "name": "tokenId",
          "type": "uint256"
        }
      ],
      "name": "burn",
      "outputs": [],
      "stateMutability": "nonpayable",
      "type": "function"
    },
    {
      "inputs": [],
      "name": "checkFines",
      "outputs": [],
      "stateMutability": "nonpayable",
      "type": "function"
    },
    {
      "inputs": [
        {
          "internalType": "address",
          "name": "to",
          "type": "address"
        },
        {
          "internalType": "string",
          "name": "brand",
          "type": "string"
        },
        {
          "internalType": "string",
          "name": "model",
          "type": "string"
        },
        {
          "internalType": "string",
          "name": "vin",
          "type": "string"
        },
        {
          "internalType": "string",
          "name": "color_code",
          "type": "string"
        },
        {
          "internalType": "string",
          "name": "date_of_manufacture",
          "type": "string"
        },
        {
          "internalType": "string",
          "name": "warranty_expiration_date",
          "type": "string"
        },
        {
          "internalType": "string",
          "name": "fuel_type",
          "type": "string"
        },
        {
          "internalType": "string",
          "name": "last_update",
          "type": "string"
        },
        {
          "internalType": "string",
          "name": "uriIpfsUrl",
          "type": "string"
        }
      ],
      "name": "createAutoPassport",
      "outputs": [],
      "stateMutability": "nonpayable",
      "type": "function"
    },
    {
      "inputs": [
        {
          "internalType": "bytes32",
          "name": "requestId",
          "type": "bytes32"
        },
        {
          "internalType": "string",
          "name": "hasFinesResponse",
          "type": "string"
        }
      ],
      "name": "fulfillMultipleParameters",
      "outputs": [],
      "stateMutability": "nonpayable",
      "type": "function"
    },
    {
      "inputs": [
        {
          "internalType": "uint256",
          "name": "tokenId",
          "type": "uint256"
        }
      ],
      "name": "getApproved",
      "outputs": [
        {
          "internalType": "address",
          "name": "",
          "type": "address"
        }
      ],
      "stateMutability": "view",
      "type": "function"
    },
    {
      "inputs": [
        {
          "internalType": "string",
          "name": "vin",
          "type": "string"
        }
      ],
      "name": "getObjCarByVIN",
      "outputs": [
        {
          "internalType": "uint256",
          "name": "tokenId",
          "type": "uint256"
        },
        {
          "components": [
            {
              "internalType": "string",
              "name": "brand",
              "type": "string"
            },
            {
              "internalType": "string",
              "name": "model",
              "type": "string"
            },
            {
              "internalType": "string",
              "name": "vin",
              "type": "string"
            },
            {
              "internalType": "string",
              "name": "color_code",
              "type": "string"
            },
            {
              "internalType": "string",
              "name": "date_of_manufacture",
              "type": "string"
            },
            {
              "internalType": "string",
              "name": "warranty_expiration_date",
              "type": "string"
            },
            {
              "internalType": "string",
              "name": "fuel_type",
              "type": "string"
            },
            {
              "internalType": "uint256",
              "name": "mileage",
              "type": "uint256"
            },
            {
              "internalType": "string[]",
              "name": "repair_history",
              "type": "string[]"
            },
            {
              "internalType": "string[]",
              "name": "maintenance_history",
              "type": "string[]"
            },
            {
              "internalType": "string",
              "name": "last_update",
              "type": "string"
            },
            {
              "internalType": "bool",
              "name": "hasFines",
              "type": "bool"
            }
          ],
          "internalType": "struct AutoPassport.Car",
          "name": "objCar",
          "type": "tuple"
        },
        {
          "internalType": "string",
          "name": "uri",
          "type": "string"
        }
      ],
      "stateMutability": "view",
      "type": "function"
    },
    {
      "inputs": [
        {
          "internalType": "address",
          "name": "owner",
          "type": "address"
        },
        {
          "internalType": "address",
          "name": "operator",
          "type": "address"
        }
      ],
      "name": "isApprovedForAll",
      "outputs": [
        {
          "internalType": "bool",
          "name": "",
          "type": "bool"
        }
      ],
      "stateMutability": "view",
      "type": "function"
    },
    {
      "inputs": [],
      "name": "name",
      "outputs": [
        {
          "internalType": "string",
          "name": "",
          "type": "string"
        }
      ],
      "stateMutability": "view",
      "type": "function"
    },
    {
      "inputs": [],
      "name": "owner",
      "outputs": [
        {
          "internalType": "address",
          "name": "",
          "type": "address"
        }
      ],
      "stateMutability": "view",
      "type": "function"
    },
    {
      "inputs": [
        {
          "internalType": "uint256",
          "name": "tokenId",
          "type": "uint256"
        }
      ],
      "name": "ownerOf",
      "outputs": [
        {
          "internalType": "address",
          "name": "",
          "type": "address"
        }
      ],
      "stateMutability": "view",
      "type": "function"
    },
    {
      "inputs": [
        {
          "internalType": "string",
          "name": "vin",
          "type": "string"
        }
      ],
      "name": "requestFinesApi",
      "outputs": [],
      "stateMutability": "nonpayable",
      "type": "function"
    },
    {
      "inputs": [
        {
          "internalType": "address",
          "name": "from",
          "type": "address"
        },
        {
          "internalType": "address",
          "name": "to",
          "type": "address"
        },
        {
          "internalType": "uint256",
          "name": "tokenId",
          "type": "uint256"
        }
      ],
      "name": "safeTransferFrom",
      "outputs": [],
      "stateMutability": "nonpayable",
      "type": "function"
    },
    {
      "inputs": [
        {
          "internalType": "address",
          "name": "from",
          "type": "address"
        },
        {
          "internalType": "address",
          "name": "to",
          "type": "address"
        },
        {
          "internalType": "uint256",
          "name": "tokenId",
          "type": "uint256"
        },
        {
          "internalType": "bytes",
          "name": "data",
          "type": "bytes"
        }
      ],
      "name": "safeTransferFrom",
      "outputs": [],
      "stateMutability": "nonpayable",
      "type": "function"
    },
    {
      "inputs": [
        {
          "internalType": "address",
          "name": "operator",
          "type": "address"
        },
        {
          "internalType": "bool",
          "name": "approved",
          "type": "bool"
        }
      ],
      "name": "setApprovalForAll",
      "outputs": [],
      "stateMutability": "nonpayable",
      "type": "function"
    },
    {
      "inputs": [
        {
          "internalType": "bytes4",
          "name": "interfaceId",
          "type": "bytes4"
        }
      ],
      "name": "supportsInterface",
      "outputs": [
        {
          "internalType": "bool",
          "name": "",
          "type": "bool"
        }
      ],
      "stateMutability": "view",
      "type": "function"
    },
    {
      "inputs": [],
      "name": "symbol",
      "outputs": [
        {
          "internalType": "string",
          "name": "",
          "type": "string"
        }
      ],
      "stateMutability": "view",
      "type": "function"
    },
    {
      "inputs": [
        {
          "internalType": "uint256",
          "name": "tokenId",
          "type": "uint256"
        }
      ],
      "name": "tokenURI",
      "outputs": [
        {
          "internalType": "string",
          "name": "",
          "type": "string"
        }
      ],
      "stateMutability": "view",
      "type": "function"
    },
    {
      "inputs": [
        {
          "internalType": "address",
          "name": "from",
          "type": "address"
        },
        {
          "internalType": "address",
          "name": "to",
          "type": "address"
        },
        {
          "internalType": "uint256",
          "name": "tokenId",
          "type": "uint256"
        }
      ],
      "name": "transferFrom",
      "outputs": [],
      "stateMutability": "nonpayable",
      "type": "function"
    },
    {
      "inputs": [
        {
          "internalType": "address",
          "name": "to",
          "type": "address"
        }
      ],
      "name": "transferOwnership",
      "outputs": [],
      "stateMutability": "nonpayable",
      "type": "function"
    },
    {
      "inputs": [
        {
          "internalType": "string",
          "name": "vin",
          "type": "string"
        },
        {
          "internalType": "uint256",
          "name": "mileage",
          "type": "uint256"
        },
        {
          "internalType": "string",
          "name": "newRepair",
          "type": "string"
        },
        {
          "internalType": "string",
          "name": "newMaintenance",
          "type": "string"
        },
        {
          "internalType": "string",
          "name": "newURI",
          "type": "string"
        },
        {
          "internalType": "string",
          "name": "last_update",
          "type": "string"
        }
      ],
      "name": "updateAutoPassport",
      "outputs": [],
      "stateMutability": "nonpayable",
      "type": "function"
    },
    {
      "inputs": [
        {
          "internalType": "uint256",
          "name": "",
          "type": "uint256"
        }
      ],
      "name": "vinCreated",
      "outputs": [
        {
          "internalType": "string",
          "name": "",
          "type": "string"
        }
      ],
      "stateMutability": "view",
      "type": "function"
    },
    {
      "inputs": [],
      "name": "vinProcessing",
      "outputs": [
        {
          "internalType": "string",
          "name": "",
          "type": "string"
        }
      ],
      "stateMutability": "view",
      "type": "function"
    }
  ],
  "bytecode": "0x600160045560a0604081905260006080819052620000209160119162000293565b503480156200002e57600080fd5b50604080518082018252600c81526b105d5d1bdc185cdcdc1bdc9d60a21b602080830191909152825180840190935260048352635061737360e01b90830152903380600081620000c55760405162461bcd60e51b815260206004820152601860248201527f43616e6e6f7420736574206f776e657220746f207a65726f000000000000000060448201526064015b60405180910390fd5b600680546001600160a01b0319166001600160a01b0384811691909117909155811615620000f857620000f881620001c4565b50508251620001109150600890602085019062000293565b5080516200012690600990602084019062000293565b5050506200014e73326c977e6efc84e512bb9c30f76e30c160ed06fb6200027160201b60201c565b600380546001600160a01b0319167340193c8518bb267228fc409a613bdbd8ec5a97b31790557f3764383061363338366566353433613361626235323831376636373037653362600f55600a620001af670de0b6b3a7640000600162000339565b620001bb919062000367565b601055620003c7565b6001600160a01b0381163314156200021f5760405162461bcd60e51b815260206004820152601760248201527f43616e6e6f74207472616e7366657220746f2073656c660000000000000000006044820152606401620000bc565b600780546001600160a01b0319166001600160a01b03838116918217909255600654604051919216907fed8889f560326eb138920d842192f0eb3dd22b4f139c87a2c57538e05bae127890600090a350565b600280546001600160a01b0319166001600160a01b0392909216919091179055565b828054620002a1906200038a565b90600052602060002090601f016020900481019282620002c5576000855562000310565b82601f10620002e057805160ff191683800117855562000310565b8280016001018555821562000310579182015b8281111562000310578251825591602001919060010190620002f3565b506200031e92915062000322565b5090565b5b808211156200031e576000815560010162000323565b60008160001904831182151516156200036257634e487b7160e01b600052601160045260246000fd5b500290565b6000826200038557634e487b7160e01b600052601260045260246000fd5b500490565b600181811c908216806200039f57607f821691505b60208210811415620003c157634e487b7160e01b600052602260045260246000fd5b50919050565b613f4b80620003d76000396000f3fe608060405234801561001057600080fd5b50600436106101a35760003560e01c806390d7d418116100ee578063b6a9a38a11610097578063c87b56dd11610071578063c87b56dd14610357578063d15995d31461036a578063e985e9c51461037d578063f2fde38b146103b957600080fd5b8063b6a9a38a1461031e578063b88d4fde14610331578063bf450d151461034457600080fd5b8063973cacb6116100c8578063973cacb6146102d6578063a22cb465146102e9578063a79d6565146102fc57600080fd5b806390d7d418146102be57806392012b3d146102c657806395d89b41146102ce57600080fd5b806342966c681161015057806370a082311161012a57806370a082311461028457806379ba5097146102a55780638da5cb5b146102ad57600080fd5b806342966c681461024b57806351dfe0451461025e5780636352211e1461027157600080fd5b8063095ea7b311610181578063095ea7b31461021057806323b872dd1461022557806342842e0e1461023857600080fd5b806301ffc9a7146101a857806306fdde03146101d0578063081812fc146101e5575b600080fd5b6101bb6101b6366004613378565b6103cc565b60405190151581526020015b60405180910390f35b6101d86103dd565b6040516101c791906133ed565b6101f86101f3366004613400565b61046f565b6040516001600160a01b0390911681526020016101c7565b61022361021e366004613435565b610496565b005b61022361023336600461345f565b6105eb565b61022361024636600461345f565b610663565b610223610259366004613400565b61067e565b61022361026c366004613547565b6106f5565b6101f861027f366004613400565b610811565b61029761029236600461357c565b610876565b6040519081526020016101c7565b610223610910565b6006546001600160a01b03166101f8565b6101d86109c5565b610223610a53565b6101d8610b6b565b6102236102e4366004613597565b610b7a565b6102236102f736600461371c565b610f8c565b61030f61030a366004613547565b610f9b565b6040516101c7939291906137a8565b61022361032c366004613916565b61172b565b61022361033f36600461395d565b6118c7565b6102236103523660046139d9565b61193f565b6101d8610365366004613400565b611ba8565b6101d8610378366004613400565b611bb3565b6101bb61038b366004613ab3565b6001600160a01b039182166000908152600d6020908152604080832093909416825291909152205460ff1690565b6102236103c736600461357c565b611bde565b60006103d782611bef565b92915050565b6060600880546103ec90613ae6565b80601f016020809104026020016040519081016040528092919081815260200182805461041890613ae6565b80156104655780601f1061043a57610100808354040283529160200191610465565b820191906000526020600020905b81548152906001019060200180831161044857829003601f168201915b5050505050905090565b600061047a82611c2d565b506000908152600c60205260409020546001600160a01b031690565b60006104a182610811565b9050806001600160a01b0316836001600160a01b031614156105305760405162461bcd60e51b815260206004820152602160248201527f4552433732313a20617070726f76616c20746f2063757272656e74206f776e6560448201527f720000000000000000000000000000000000000000000000000000000000000060648201526084015b60405180910390fd5b336001600160a01b038216148061056a57506001600160a01b0381166000908152600d6020908152604080832033845290915290205460ff165b6105dc5760405162461bcd60e51b815260206004820152603d60248201527f4552433732313a20617070726f76652063616c6c6572206973206e6f7420746f60448201527f6b656e206f776e6572206f7220617070726f76656420666f7220616c6c0000006064820152608401610527565b6105e68383611c91565b505050565b6105f6335b82611cff565b6106585760405162461bcd60e51b815260206004820152602d60248201527f4552433732313a2063616c6c6572206973206e6f7420746f6b656e206f776e6560448201526c1c881bdc88185c1c1c9bdd9959609a1b6064820152608401610527565b6105e6838383611d7e565b6105e6838383604051806020016040528060008152506118c7565b610687336105f0565b6106e95760405162461bcd60e51b815260206004820152602d60248201527f4552433732313a2063616c6c6572206973206e6f7420746f6b656e206f776e6560448201526c1c881bdc88185c1c1c9bdd9959609a1b6064820152608401610527565b6106f281611f77565b50565b600061070b600f543063b6a9a38a60e01b611f80565b825190915061072190601190602085019061321d565b506000826040516020016107359190613b1b565b60408051601f19818403018152828201909152600382527f67657400000000000000000000000000000000000000000000000000000000006020830152915061078090839083612011565b6107ff6040518060400160405280600481526020017f70617468000000000000000000000000000000000000000000000000000000008152506040518060400160405280600881526020017f68617346696e6573000000000000000000000000000000000000000000000000815250846120119092919063ffffffff16565b61080b8260105461202f565b50505050565b6000818152600a60205260408120546001600160a01b0316806103d75760405162461bcd60e51b815260206004820152601860248201527f4552433732313a20696e76616c696420746f6b656e20494400000000000000006044820152606401610527565b60006001600160a01b0382166108f45760405162461bcd60e51b815260206004820152602960248201527f4552433732313a2061646472657373207a65726f206973206e6f74206120766160448201527f6c6964206f776e657200000000000000000000000000000000000000000000006064820152608401610527565b506001600160a01b03166000908152600b602052604090205490565b6007546001600160a01b0316331461096a5760405162461bcd60e51b815260206004820152601660248201527f4d7573742062652070726f706f736564206f776e6572000000000000000000006044820152606401610527565b600680546001600160a01b0319808216339081179093556007805490911690556040516001600160a01b03909116919082907f8be0079c531659141344cd1fd0a4f28419497f9722a3daafe3b4186f6b6457e090600090a350565b601180546109d290613ae6565b80601f01602080910402602001604051908101604052809291908181526020018280546109fe90613ae6565b8015610a4b5780601f10610a2057610100808354040283529160200191610a4b565b820191906000526020600020905b815481529060010190602001808311610a2e57829003601f168201915b505050505081565b60005b6012548110156106f2576040805160208101825260009052517fc5d2460186f7233c927e7db2dcc703c0e500b653ca82273b7bfad8045d85a47090610a9d90601190613c1f565b60405180910390201415610b5957610b5960128281548110610ac157610ac1613c2b565b906000526020600020018054610ad690613ae6565b80601f0160208091040260200160405190810160405280929190818152602001828054610b0290613ae6565b8015610b4f5780601f10610b2457610100808354040283529160200191610b4f565b820191906000526020600020905b815481529060010190602001808311610b3257829003601f168201915b50505050506106f5565b80610b6381613c57565b915050610a56565b6060600980546103ec90613ae6565b610b82612050565b601687604051610b929190613c72565b9081526040519081900360200190205460ff1615610bf25760405162461bcd60e51b815260206004820181905260248201527f436172207769746820746869732056494e20616c7265616479206578697374736044820152606401610527565b6000610bfd60135490565b610c08906001613c8e565b60008181526017602052604090205490915060ff1615610c8f5760405162461bcd60e51b8152602060048201526024808201527f4361722077697468207468697320746f6b656e496420616c726561647920657860448201527f69737473000000000000000000000000000000000000000000000000000000006064820152608401610527565b6040518061018001604052808b81526020018a815260200189815260200188815260200187815260200186815260200185815260200160008152602001600067ffffffffffffffff811115610ce657610ce661349b565b604051908082528060200260200182016040528015610d1957816020015b6060815260200190600190039081610d045790505b5081526020016000604051908082528060200260200182016040528015610d5457816020015b6060815260200190600190039081610d3f5790505b5081526020808201869052600060409283018190528481526014825291909120825180519192610d899284929091019061321d565b506020828101518051610da2926001850192019061321d565b5060408201518051610dbe91600284019160209091019061321d565b5060608201518051610dda91600384019160209091019061321d565b5060808201518051610df691600484019160209091019061321d565b5060a08201518051610e1291600584019160209091019061321d565b5060c08201518051610e2e91600684019160209091019061321d565b5060e082015160078201556101008201518051610e559160088401916020909101906132a1565b506101208201518051610e729160098401916020909101906132a1565b506101408201518051610e8f91600a84019160209091019061321d565b506101609190910151600b909101805460ff19169115159190911790556040518190601590610ebf908b90613c72565b90815260405190819003602001902055610edd601380546001019055565b610ee78b826120ac565b610ef181836120c6565b6001601689604051610f039190613c72565b90815260405160209181900382019020805460ff191692151592909217909155601280546001810182556000919091528951610f66927fbb8a6a4669ba250d26cd7a459eca9d215f8307e33aebe50379bc5a3617ec3444909201918b019061321d565b506000908152601760205260409020805460ff1916600117905550505050505050505050565b610f973383836121a7565b5050565b600061100360405180610180016040528060608152602001606081526020016060815260200160608152602001606081526020016060815260200160608152602001600081526020016060815260200160608152602001606081526020016000151581525090565b60606016846040516110159190613c72565b9081526040519081900360200190205460ff1615156001146110795760405162461bcd60e51b815260206004820181905260248201527f436172207769746820746869732056494e20646f6573206e6f742065786973746044820152606401610527565b6015846040516110899190613c72565b908152602001604051809103902054925060006014600085815260200190815260200160002090506040518061018001604052808260000180546110cc90613ae6565b80601f01602080910402602001604051908101604052809291908181526020018280546110f890613ae6565b80156111455780601f1061111a57610100808354040283529160200191611145565b820191906000526020600020905b81548152906001019060200180831161112857829003601f168201915b5050505050815260200182600101805461115e90613ae6565b80601f016020809104026020016040519081016040528092919081815260200182805461118a90613ae6565b80156111d75780601f106111ac576101008083540402835291602001916111d7565b820191906000526020600020905b8154815290600101906020018083116111ba57829003601f168201915b505050505081526020018260020180546111f090613ae6565b80601f016020809104026020016040519081016040528092919081815260200182805461121c90613ae6565b80156112695780601f1061123e57610100808354040283529160200191611269565b820191906000526020600020905b81548152906001019060200180831161124c57829003601f168201915b5050505050815260200182600301805461128290613ae6565b80601f01602080910402602001604051908101604052809291908181526020018280546112ae90613ae6565b80156112fb5780601f106112d0576101008083540402835291602001916112fb565b820191906000526020600020905b8154815290600101906020018083116112de57829003601f168201915b5050505050815260200182600401805461131490613ae6565b80601f016020809104026020016040519081016040528092919081815260200182805461134090613ae6565b801561138d5780601f106113625761010080835404028352916020019161138d565b820191906000526020600020905b81548152906001019060200180831161137057829003601f168201915b505050505081526020018260050180546113a690613ae6565b80601f01602080910402602001604051908101604052809291908181526020018280546113d290613ae6565b801561141f5780601f106113f45761010080835404028352916020019161141f565b820191906000526020600020905b81548152906001019060200180831161140257829003601f168201915b5050505050815260200182600601805461143890613ae6565b80601f016020809104026020016040519081016040528092919081815260200182805461146490613ae6565b80156114b15780601f10611486576101008083540402835291602001916114b1565b820191906000526020600020905b81548152906001019060200180831161149457829003601f168201915b505050505081526020018260070154815260200182600801805480602002602001604051908101604052809291908181526020016000905b8282101561159557838290600052602060002001805461150890613ae6565b80601f016020809104026020016040519081016040528092919081815260200182805461153490613ae6565b80156115815780601f1061155657610100808354040283529160200191611581565b820191906000526020600020905b81548152906001019060200180831161156457829003601f168201915b5050505050815260200190600101906114e9565b50505050815260200182600901805480602002602001604051908101604052809291908181526020016000905b8282101561166e5783829060005260206000200180546115e190613ae6565b80601f016020809104026020016040519081016040528092919081815260200182805461160d90613ae6565b801561165a5780601f1061162f5761010080835404028352916020019161165a565b820191906000526020600020905b81548152906001019060200180831161163d57829003601f168201915b5050505050815260200190600101906115c2565b50505050815260200182600a01805461168690613ae6565b80601f01602080910402602001604051908101604052809291908181526020018280546116b290613ae6565b80156116ff5780601f106116d4576101008083540402835291602001916116ff565b820191906000526020600020905b8154815290600101906020018083116116e257829003601f168201915b5050509183525050600b83015460ff161515602090910152925061172284612276565b93959294505050565b60008281526005602052604090205482906001600160a01b031633146117b95760405162461bcd60e51b815260206004820152602860248201527f536f75726365206d75737420626520746865206f7261636c65206f662074686560448201527f20726571756573740000000000000000000000000000000000000000000000006064820152608401610527565b60008181526005602052604080822080546001600160a01b03191690555182917f7cc135e0cebb02c3480ae5d74d377283180a2601f8f644edf7987b009316c63a91a260006015601160405161180f9190613c1f565b90815260408051918290036020908101832054600081815260148352839020848401909352600484527f747275650000000000000000000000000000000000000000000000000000000093820193909352855190860120919250907f6273151f959616268004b58dbb21e5c851b7b8d04498b4aabee12291d22fc03414156118c057600b8101805460ff191660011790556040805160208101918290526000908190526118be9160119161321d565b505b5050505050565b6118d13383611cff565b6119335760405162461bcd60e51b815260206004820152602d60248201527f4552433732313a2063616c6c6572206973206e6f7420746f6b656e206f776e6560448201526c1c881bdc88185c1c1c9bdd9959609a1b6064820152608401610527565b61080b8484848461237f565b60168660405161194f9190613c72565b9081526040519081900360200190205460ff1615156001146119b35760405162461bcd60e51b815260206004820181905260248201527f436172207769746820746869732056494e20646f6573206e6f742065786973746044820152606401610527565b60006015876040516119c59190613c72565b9081526020016040518091039020549050600060146000838152602001908152602001600020905086816007015410611a665760405162461bcd60e51b815260206004820152603860248201527f4e6577206d696c656167652076616c7565206d7573742062652067726561746560448201527f72207468616e207468652063757272656e742076616c756500000000000000006064820152608401610527565b60078101879055855115801590611ac357506040805180820190915260098152681d5b9919599a5b995960ba1b6020918201528651908701207f019726c6babc1de231f26fd6cbb2df2c912784a2e1ba55295496269a6d3ff65114155b15611af55760088101805460018101825560009182526020918290208851611af39391909201919089019061321d565b505b60008551118015611b4c57506040805180820190915260098152681d5b9919599a5b995960ba1b6020918201528551908601207f019726c6babc1de231f26fd6cbb2df2c912784a2e1ba55295496269a6d3ff65114155b15611b7e5760098101805460018101825560009182526020918290208751611b7c9391909201919088019061321d565b505b611b8882856120c6565b8251611b9d90600a830190602086019061321d565b505050505050505050565b60606103d782612276565b60128181548110611bc357600080fd5b9060005260206000200160009150905080546109d290613ae6565b611be6612050565b6106f2816123fd565b60006001600160e01b031982167f490649060000000000000000000000000000000000000000000000000000000014806103d757506103d7826124a8565b6000818152600a60205260409020546001600160a01b03166106f25760405162461bcd60e51b815260206004820152601860248201527f4552433732313a20696e76616c696420746f6b656e20494400000000000000006044820152606401610527565b6000818152600c6020526040902080546001600160a01b0319166001600160a01b0384169081179091558190611cc682610811565b6001600160a01b03167f8c5be1e5ebec7d5bd14f71427d1e84f3dd0314c0f7b2291e5b200ac8c7c3b92560405160405180910390a45050565b600080611d0b83610811565b9050806001600160a01b0316846001600160a01b03161480611d5257506001600160a01b038082166000908152600d602090815260408083209388168352929052205460ff165b80611d765750836001600160a01b0316611d6b8461046f565b6001600160a01b0316145b949350505050565b826001600160a01b0316611d9182610811565b6001600160a01b031614611df55760405162461bcd60e51b815260206004820152602560248201527f4552433732313a207472616e736665722066726f6d20696e636f72726563742060448201526437bbb732b960d91b6064820152608401610527565b6001600160a01b038216611e705760405162461bcd60e51b8152602060048201526024808201527f4552433732313a207472616e7366657220746f20746865207a65726f2061646460448201527f72657373000000000000000000000000000000000000000000000000000000006064820152608401610527565b826001600160a01b0316611e8382610811565b6001600160a01b031614611ee75760405162461bcd60e51b815260206004820152602560248201527f4552433732313a207472616e736665722066726f6d20696e636f72726563742060448201526437bbb732b960d91b6064820152608401610527565b6000818152600c6020908152604080832080546001600160a01b03199081169091556001600160a01b03878116808652600b8552838620805460001901905590871680865283862080546001019055868652600a90945282852080549092168417909155905184937fddf252ad1be2c89b69c2b068fc378daa952ba7f163c4a11628f55a4df523b3ef91a4505050565b6106f281612543565b611fbe6040805160a0810182526000808252602080830182905282840182905260608084018390528451808601909552845283015290608082015290565b611ffc6040805160a0810182526000808252602080830182905282840182905260608084018390528451808601909552845283015290608082015290565b61200881868686612583565b95945050505050565b608083015161202090836125f6565b60808301516105e690826125f6565b600354600090612049906001600160a01b0316848461260d565b9392505050565b6006546001600160a01b031633146120aa5760405162461bcd60e51b815260206004820152601660248201527f4f6e6c792063616c6c61626c65206279206f776e6572000000000000000000006044820152606401610527565b565b610f978282604051806020016040528060008152506126ce565b6000828152600a60205260409020546001600160a01b03166121505760405162461bcd60e51b815260206004820152602e60248201527f45524337323155524953746f726167653a2055524920736574206f66206e6f6e60448201527f6578697374656e7420746f6b656e0000000000000000000000000000000000006064820152608401610527565b6000828152600e60209081526040909120825161216f9284019061321d565b506040518281527ff8e1a15aba9398e019f0b49df1a4fde98ee17ae345cb5f6b5e2c27f5033e8ce79060200160405180910390a15050565b816001600160a01b0316836001600160a01b031614156122095760405162461bcd60e51b815260206004820152601960248201527f4552433732313a20617070726f766520746f2063616c6c6572000000000000006044820152606401610527565b6001600160a01b038381166000818152600d6020908152604080832094871680845294825291829020805460ff191686151590811790915591519182527f17307eab39ab6107e8899845ad3d59bd9653f200f220920489ca2b5937696c31910160405180910390a3505050565b606061228182611c2d565b6000828152600e60205260408120805461229a90613ae6565b80601f01602080910402602001604051908101604052809291908181526020018280546122c690613ae6565b80156123135780601f106122e857610100808354040283529160200191612313565b820191906000526020600020905b8154815290600101906020018083116122f657829003601f168201915b50505050509050600061233160408051602081019091526000815290565b9050805160001415612344575092915050565b81511561237657808260405160200161235e929190613ca6565b60405160208183030381529060405292505050919050565b611d768461274c565b61238a848484611d7e565b612396848484846127bf565b61080b5760405162461bcd60e51b815260206004820152603260248201527f4552433732313a207472616e7366657220746f206e6f6e20455243373231526560448201527131b2b4bb32b91034b6b83632b6b2b73a32b960711b6064820152608401610527565b6001600160a01b0381163314156124565760405162461bcd60e51b815260206004820152601760248201527f43616e6e6f74207472616e7366657220746f2073656c660000000000000000006044820152606401610527565b600780546001600160a01b0319166001600160a01b03838116918217909255600654604051919216907fed8889f560326eb138920d842192f0eb3dd22b4f139c87a2c57538e05bae127890600090a350565b60006001600160e01b031982167f80ac58cd00000000000000000000000000000000000000000000000000000000148061250b57506001600160e01b031982167f5b5e139f00000000000000000000000000000000000000000000000000000000145b806103d757507f01ffc9a7000000000000000000000000000000000000000000000000000000006001600160e01b03198316146103d7565b61254c81612905565b6000818152600e60205260409020805461256590613ae6565b1590506106f2576000818152600e602052604081206106f2916132fa565b6125c16040805160a0810182526000808252602080830182905282840182905260608084018390528451808601909552845283015290608082015290565b6125d1856080015161010061299a565b50509183526001600160a01b031660208301526001600160e01b031916604082015290565b61260382600383516129ff565b6105e68282612b0e565b60045460009061261e816001613c8e565b600455835160408086015160808701515191516000937f40429946000000000000000000000000000000000000000000000000000000009361266f9386938493923092918a91600191602401613cd5565b60408051601f198184030181529190526020810180517bffffffffffffffffffffffffffffffffffffffffffffffffffffffff166001600160e01b03199093169290921790915290506126c486838684612b35565b9695505050505050565b6126d88383612cc6565b6126e560008484846127bf565b6105e65760405162461bcd60e51b815260206004820152603260248201527f4552433732313a207472616e7366657220746f206e6f6e20455243373231526560448201527131b2b4bb32b91034b6b83632b6b2b73a32b960711b6064820152608401610527565b606061275782611c2d565b600061276e60408051602081019091526000815290565b9050600081511161278e5760405180602001604052806000815250612049565b8061279884612e51565b6040516020016127a9929190613ca6565b6040516020818303038152906040529392505050565b60006001600160a01b0384163b156128fd57604051630a85bd0160e11b81526001600160a01b0385169063150b7a0290612803903390899088908890600401613d39565b6020604051808303816000875af192505050801561283e575060408051601f3d908101601f1916820190925261283b91810190613d6b565b60015b6128e3573d80801561286c576040519150601f19603f3d011682016040523d82523d6000602084013e612871565b606091505b5080516128db5760405162461bcd60e51b815260206004820152603260248201527f4552433732313a207472616e7366657220746f206e6f6e20455243373231526560448201527131b2b4bb32b91034b6b83632b6b2b73a32b960711b6064820152608401610527565b805181602001fd5b6001600160e01b031916630a85bd0160e11b149050611d76565b506001611d76565b600061291082610811565b905061291b82610811565b6000838152600c6020908152604080832080546001600160a01b03199081169091556001600160a01b038516808552600b84528285208054600019019055878552600a909352818420805490911690555192935084927fddf252ad1be2c89b69c2b068fc378daa952ba7f163c4a11628f55a4df523b3ef908390a45050565b6040805180820190915260608152600060208201526129ba602083613d88565b156129e2576129ca602083613d88565b6129d5906020613daa565b6129df9083613c8e565b91505b506020828101829052604080518085526000815290920101905290565b60178167ffffffffffffffff1611612a245761080b8360e0600585901b168317612efb565b60ff8167ffffffffffffffff1611612a6257612a4b836018611fe0600586901b1617612efb565b5061080b8367ffffffffffffffff83166001612f20565b61ffff8167ffffffffffffffff1611612aa157612a8a836019611fe0600586901b1617612efb565b5061080b8367ffffffffffffffff83166002612f20565b63ffffffff8167ffffffffffffffff1611612ae257612acb83601a611fe0600586901b1617612efb565b5061080b8367ffffffffffffffff83166004612f20565b612af783601b611fe0600586901b1617612efb565b5061080b8367ffffffffffffffff83166008612f20565b60408051808201909152606081526000602082015261204983846000015151848551612f46565b6040516bffffffffffffffffffffffff193060601b1660208201526034810184905260009060540160408051808303601f1901815282825280516020918201206000818152600590925291812080546001600160a01b0319166001600160a01b038a1617905590925082917fb5e6e01e79f91267dc17b4e6314d5d4d03593d2ceee0fbb452b750bd70ea5af99190a26002546040517f4000aea00000000000000000000000000000000000000000000000000000000081526001600160a01b0390911690634000aea090612c1190889087908790600401613dc1565b6020604051808303816000875af1158015612c30573d6000803e3d6000fd5b505050506040513d601f19601f82011682018060405250810190612c549190613de9565b611d765760405162461bcd60e51b815260206004820152602360248201527f756e61626c6520746f207472616e73666572416e6443616c6c20746f206f726160448201527f636c6500000000000000000000000000000000000000000000000000000000006064820152608401610527565b6001600160a01b038216612d1c5760405162461bcd60e51b815260206004820181905260248201527f4552433732313a206d696e7420746f20746865207a65726f20616464726573736044820152606401610527565b6000818152600a60205260409020546001600160a01b031615612d815760405162461bcd60e51b815260206004820152601c60248201527f4552433732313a20746f6b656e20616c7265616479206d696e746564000000006044820152606401610527565b6000818152600a60205260409020546001600160a01b031615612de65760405162461bcd60e51b815260206004820152601c60248201527f4552433732313a20746f6b656e20616c7265616479206d696e746564000000006044820152606401610527565b6001600160a01b0382166000818152600b6020908152604080832080546001019055848352600a90915280822080546001600160a01b0319168417905551839291907fddf252ad1be2c89b69c2b068fc378daa952ba7f163c4a11628f55a4df523b3ef908290a45050565b60606000612e5e83613030565b600101905060008167ffffffffffffffff811115612e7e57612e7e61349b565b6040519080825280601f01601f191660200182016040528015612ea8576020820181803683370190505b5090508181016020015b600019017f3031323334353637383961626364656600000000000000000000000000000000600a86061a8153600a8504945084612eee57612ef3565b612eb2565b509392505050565b6040805180820190915260608152600060208201526120498384600001515184613112565b604080518082019091526060815260006020820152611d7684856000015151858561316e565b6040805180820190915260608152600060208201528251821115612f6957600080fd5b6020850151612f788386613c8e565b1115612fab57612fab85612f9b87602001518786612f969190613c8e565b6131ef565b612fa6906002613e06565b613206565b600080865180518760208301019350808887011115612fca5787860182525b505050602084015b6020841061300a5780518252612fe9602083613c8e565b9150612ff6602082613c8e565b9050613003602085613daa565b9350612fd2565b51815160001960208690036101000a019081169019919091161790525083949350505050565b6000807a184f03e93ff9f4daa797ed6e38ed64bf6a1f0100000000000000008310613079577a184f03e93ff9f4daa797ed6e38ed64bf6a1f010000000000000000830492506040015b6d04ee2d6d415b85acef810000000083106130a5576d04ee2d6d415b85acef8100000000830492506020015b662386f26fc1000083106130c357662386f26fc10000830492506010015b6305f5e10083106130db576305f5e100830492506008015b61271083106130ef57612710830492506004015b60648310613101576064830492506002015b600a83106103d75760010192915050565b60408051808201909152606081526000602082015283602001518310613147576131478485602001516002612fa69190613e06565b835180516020858301018481535080851415613164576001810182525b5093949350505050565b60408051808201909152606081526000602082015260208501516131928584613c8e565b11156131a6576131a685612f9b8685613c8e565b600060016131b684610100613f09565b6131c09190613daa565b90508551838682010185831982511617815250805184870111156131e45783860181525b509495945050505050565b6000818311156132005750816103d7565b50919050565b8151613212838361299a565b5061080b8382612b0e565b82805461322990613ae6565b90600052602060002090601f01602090048101928261324b5760008555613291565b82601f1061326457805160ff1916838001178555613291565b82800160010185558215613291579182015b82811115613291578251825591602001919060010190613276565b5061329d929150613330565b5090565b8280548282559060005260206000209081019282156132ee579160200282015b828111156132ee57825180516132de91849160209091019061321d565b50916020019190600101906132c1565b5061329d929150613345565b50805461330690613ae6565b6000825580601f10613316575050565b601f0160209004906000526020600020908101906106f291905b5b8082111561329d5760008155600101613331565b8082111561329d57600061335982826132fa565b50600101613345565b6001600160e01b0319811681146106f257600080fd5b60006020828403121561338a57600080fd5b813561204981613362565b60005b838110156133b0578181015183820152602001613398565b8381111561080b5750506000910152565b600081518084526133d9816020860160208601613395565b601f01601f19169290920160200192915050565b60208152600061204960208301846133c1565b60006020828403121561341257600080fd5b5035919050565b80356001600160a01b038116811461343057600080fd5b919050565b6000806040838503121561344857600080fd5b61345183613419565b946020939093013593505050565b60008060006060848603121561347457600080fd5b61347d84613419565b925061348b60208501613419565b9150604084013590509250925092565b634e487b7160e01b600052604160045260246000fd5b600067ffffffffffffffff808411156134cc576134cc61349b565b604051601f8501601f19908116603f011681019082821181831017156134f4576134f461349b565b8160405280935085815286868601111561350d57600080fd5b858560208301376000602087830101525050509392505050565b600082601f83011261353857600080fd5b612049838335602085016134b1565b60006020828403121561355957600080fd5b813567ffffffffffffffff81111561357057600080fd5b611d7684828501613527565b60006020828403121561358e57600080fd5b61204982613419565b6000806000806000806000806000806101408b8d0312156135b757600080fd5b6135c08b613419565b995060208b013567ffffffffffffffff808211156135dd57600080fd5b6135e98e838f01613527565b9a5060408d01359150808211156135ff57600080fd5b61360b8e838f01613527565b995060608d013591508082111561362157600080fd5b61362d8e838f01613527565b985060808d013591508082111561364357600080fd5b61364f8e838f01613527565b975060a08d013591508082111561366557600080fd5b6136718e838f01613527565b965060c08d013591508082111561368757600080fd5b6136938e838f01613527565b955060e08d01359150808211156136a957600080fd5b6136b58e838f01613527565b94506101008d01359150808211156136cc57600080fd5b6136d88e838f01613527565b93506101208d01359150808211156136ef57600080fd5b506136fc8d828e01613527565b9150509295989b9194979a5092959850565b80151581146106f257600080fd5b6000806040838503121561372f57600080fd5b61373883613419565b915060208301356137488161370e565b809150509250929050565b600081518084526020808501808196508360051b8101915082860160005b8581101561379b5782840389526137898483516133c1565b98850198935090840190600101613771565b5091979650505050505050565b83815260606020820152600083516101808060608501526137cd6101e08501836133c1565b91506020860151605f19808685030160808701526137eb84836133c1565b935060408801519150808685030160a087015261380884836133c1565b935060608801519150808685030160c087015261382584836133c1565b935060808801519150808685030160e087015261384284836133c1565b935060a0880151915061010081878603018188015261386185846133c1565b945060c0890151925061012082888703018189015261388086856133c1565b955060e08a0151935061014084818a0152828b0151945061016092508389880301838a01526138af8786613753565b9650818b015194508389880301868a01526138ca8786613753565b9650808b01519550505081878603016101a08801526138e985856133c1565b94508089015193505050506139036101c085018215159052565b5082810360408401526126c481856133c1565b6000806040838503121561392957600080fd5b82359150602083013567ffffffffffffffff81111561394757600080fd5b61395385828601613527565b9150509250929050565b6000806000806080858703121561397357600080fd5b61397c85613419565b935061398a60208601613419565b925060408501359150606085013567ffffffffffffffff8111156139ad57600080fd5b8501601f810187136139be57600080fd5b6139cd878235602084016134b1565b91505092959194509250565b60008060008060008060c087890312156139f257600080fd5b863567ffffffffffffffff80821115613a0a57600080fd5b613a168a838b01613527565b9750602089013596506040890135915080821115613a3357600080fd5b613a3f8a838b01613527565b95506060890135915080821115613a5557600080fd5b613a618a838b01613527565b94506080890135915080821115613a7757600080fd5b613a838a838b01613527565b935060a0890135915080821115613a9957600080fd5b50613aa689828a01613527565b9150509295509295509295565b60008060408385031215613ac657600080fd5b613acf83613419565b9150613add60208401613419565b90509250929050565b600181811c90821680613afa57607f821691505b6020821081141561320057634e487b7160e01b600052602260045260246000fd5b7f68747470733a2f2f66696e65732d6170692e6f6e72656e6465722e636f6d2f6381527f6172732f66696e65732f00000000000000000000000000000000000000000000602082015260008251613b7981602a850160208701613395565b91909101602a0192915050565b8054600090600181811c9080831680613ba057607f831692505b6020808410821415613bc257634e487b7160e01b600052602260045260246000fd5b818015613bd65760018114613be757613c13565b60ff19861689528489019650613c13565b876000528160002060005b86811015613c0b5781548b820152908501908301613bf2565b505084890196505b50505050505092915050565b60006120498284613b86565b634e487b7160e01b600052603260045260246000fd5b634e487b7160e01b600052601160045260246000fd5b6000600019821415613c6b57613c6b613c41565b5060010190565b60008251613c84818460208701613395565b9190910192915050565b60008219821115613ca157613ca1613c41565b500190565b60008351613cb8818460208801613395565b835190830190613ccc818360208801613395565b01949350505050565b60006101006001600160a01b03808c1684528a60208501528960408501528089166060850152506001600160e01b0319871660808401528560a08401528460c08401528060e0840152613d2a818401856133c1565b9b9a5050505050505050505050565b60006001600160a01b038087168352808616602084015250836040830152608060608301526126c460808301846133c1565b600060208284031215613d7d57600080fd5b815161204981613362565b600082613da557634e487b7160e01b600052601260045260246000fd5b500690565b600082821015613dbc57613dbc613c41565b500390565b6001600160a01b038416815282602082015260606040820152600061200860608301846133c1565b600060208284031215613dfb57600080fd5b81516120498161370e565b6000816000190483118215151615613e2057613e20613c41565b500290565b600181815b80851115613e60578160001904821115613e4657613e46613c41565b80851615613e5357918102915b93841c9390800290613e2a565b509250929050565b600082613e77575060016103d7565b81613e84575060006103d7565b8160018114613e9a5760028114613ea457613ec0565b60019150506103d7565b60ff841115613eb557613eb5613c41565b50506001821b6103d7565b5060208310610133831016604e8410600b8410161715613ee3575081810a6103d7565b613eed8383613e25565b8060001904821115613f0157613f01613c41565b029392505050565b60006120498383613e6856fea2646970667358221220322e941267094ae4205153c9df21db15ffb3cd9d785049d1dc8d316ceee6f85564736f6c634300080b0033",
  "linkReferences": {},
  "deployedLinkReferences": {}
}