{
  "_format": "hh-sol-artifact-1",
  "contractName": "AutoPassport",
  "sourceName": "contracts/AutoPassport.sol",
  "abi": [
    {
      "inputs": [],
      "stateMutability": "nonpayable",
      "type": "constructor"
    },
    {
      "anonymous": false,
      "inputs": [
        {
          "indexed": true,
          "internalType": "address",
          "name": "owner",
          "type": "address"
        },
        {
          "indexed": true,
          "internalType": "address",
          "name": "approved",
          "type": "address"
        },
        {
          "indexed": true,
          "internalType": "uint256",
          "name": "tokenId",
          "type": "uint256"
        }
      ],
      "name": "Approval",
      "type": "event"
    },
    {
      "anonymous": false,
      "inputs": [
        {
          "indexed": true,
          "internalType": "address",
          "name": "owner",
          "type": "address"
        },
        {
          "indexed": true,
          "internalType": "address",
          "name": "operator",
          "type": "address"
        },
        {
          "indexed": false,
          "internalType": "bool",
          "name": "approved",
          "type": "bool"
        }
      ],
      "name": "ApprovalForAll",
      "type": "event"
    },
    {
      "anonymous": false,
      "inputs": [
        {
          "indexed": false,
          "internalType": "uint256",
          "name": "_fromTokenId",
          "type": "uint256"
        },
        {
          "indexed": false,
          "internalType": "uint256",
          "name": "_toTokenId",
          "type": "uint256"
        }
      ],
      "name": "BatchMetadataUpdate",
      "type": "event"
    },
    {
      "anonymous": false,
      "inputs": [
        {
          "indexed": true,
          "internalType": "address",
          "name": "from",
          "type": "address"
        },
        {
          "indexed": true,
          "internalType": "uint256",
          "name": "tokenId",
          "type": "uint256"
        },
        {
          "indexed": false,
          "internalType": "string",
          "name": "vin",
          "type": "string"
        }
      ],
      "name": "Creation",
      "type": "event"
    },
    {
      "anonymous": false,
      "inputs": [
        {
          "indexed": true,
          "internalType": "string",
          "name": "vin",
          "type": "string"
        },
        {
          "indexed": false,
          "internalType": "string",
          "name": "maintenance_history",
          "type": "string"
        }
      ],
      "name": "MaintenanceAdded",
      "type": "event"
    },
    {
      "anonymous": false,
      "inputs": [
        {
          "indexed": false,
          "internalType": "uint256",
          "name": "_tokenId",
          "type": "uint256"
        }
      ],
      "name": "MetadataUpdate",
      "type": "event"
    },
    {
      "anonymous": false,
      "inputs": [
        {
          "indexed": true,
          "internalType": "address",
          "name": "previousOwner",
          "type": "address"
        },
        {
          "indexed": true,
          "internalType": "address",
          "name": "newOwner",
          "type": "address"
        }
      ],
      "name": "OwnershipTransferred",
      "type": "event"
    },
    {
      "anonymous": false,
      "inputs": [
        {
          "indexed": true,
          "internalType": "string",
          "name": "vin",
          "type": "string"
        },
        {
          "indexed": false,
          "internalType": "string",
          "name": "repair_history",
          "type": "string"
        }
      ],
      "name": "RepairAdded",
      "type": "event"
    },
    {
      "anonymous": false,
      "inputs": [
        {
          "indexed": true,
          "internalType": "address",
          "name": "from",
          "type": "address"
        },
        {
          "indexed": true,
          "internalType": "address",
          "name": "to",
          "type": "address"
        },
        {
          "indexed": true,
          "internalType": "uint256",
          "name": "tokenId",
          "type": "uint256"
        }
      ],
      "name": "Transfer",
      "type": "event"
    },
    {
      "inputs": [
        {
          "internalType": "string",
          "name": "vin",
          "type": "string"
        },
        {
          "internalType": "string",
          "name": "newMaintenance",
          "type": "string"
        }
      ],
      "name": "addMaintenance",
      "outputs": [],
      "stateMutability": "nonpayable",
      "type": "function"
    },
    {
      "inputs": [
        {
          "internalType": "string",
          "name": "vin",
          "type": "string"
        },
        {
          "internalType": "string",
          "name": "newRepair",
          "type": "string"
        }
      ],
      "name": "addRepair",
      "outputs": [],
      "stateMutability": "nonpayable",
      "type": "function"
    },
    {
      "inputs": [
        {
          "internalType": "address",
          "name": "to",
          "type": "address"
        },
        {
          "internalType": "uint256",
          "name": "tokenId",
          "type": "uint256"
        }
      ],
      "name": "approve",
      "outputs": [],
      "stateMutability": "nonpayable",
      "type": "function"
    },
    {
      "inputs": [
        {
          "internalType": "address",
          "name": "owner",
          "type": "address"
        }
      ],
      "name": "balanceOf",
      "outputs": [
        {
          "internalType": "uint256",
          "name": "",
          "type": "uint256"
        }
      ],
      "stateMutability": "view",
      "type": "function"
    },
    {
      "inputs": [
        {
          "internalType": "uint256",
          "name": "tokenId",
          "type": "uint256"
        }
      ],
      "name": "burn",
      "outputs": [],
      "stateMutability": "nonpayable",
      "type": "function"
    },
    {
      "inputs": [
        {
          "internalType": "address",
          "name": "to",
          "type": "address"
        },
        {
          "internalType": "string",
          "name": "brand",
          "type": "string"
        },
        {
          "internalType": "string",
          "name": "model",
          "type": "string"
        },
        {
          "internalType": "string",
          "name": "vin",
          "type": "string"
        },
        {
          "internalType": "string",
          "name": "colorCode",
          "type": "string"
        },
        {
          "internalType": "string",
          "name": "dateOfManufacture",
          "type": "string"
        },
        {
          "internalType": "string",
          "name": "warrantyExpirationDate",
          "type": "string"
        },
        {
          "internalType": "string",
          "name": "fuelType",
          "type": "string"
        },
        {
          "internalType": "string",
          "name": "lastUpdate",
          "type": "string"
        },
        {
          "internalType": "string",
          "name": "uriIpfsUrl",
          "type": "string"
        }
      ],
      "name": "createAutoPassport",
      "outputs": [],
      "stateMutability": "nonpayable",
      "type": "function"
    },
    {
      "inputs": [
        {
          "internalType": "uint256",
          "name": "tokenId",
          "type": "uint256"
        }
      ],
      "name": "getApproved",
      "outputs": [
        {
          "internalType": "address",
          "name": "",
          "type": "address"
        }
      ],
      "stateMutability": "view",
      "type": "function"
    },
    {
      "inputs": [
        {
          "internalType": "uint256",
          "name": "tokenId",
          "type": "uint256"
        }
      ],
      "name": "getCarByTokenId",
      "outputs": [
        {
          "internalType": "string",
          "name": "brand",
          "type": "string"
        },
        {
          "internalType": "string",
          "name": "model",
          "type": "string"
        },
        {
          "internalType": "string",
          "name": "vin",
          "type": "string"
        },
        {
          "internalType": "string",
          "name": "colorCode",
          "type": "string"
        },
        {
          "internalType": "string",
          "name": "dateOfManufacture",
          "type": "string"
        },
        {
          "internalType": "string",
          "name": "warrantyExpirationDate",
          "type": "string"
        },
        {
          "internalType": "string",
          "name": "fuelType",
          "type": "string"
        },
        {
          "internalType": "uint256",
          "name": "mileage",
          "type": "uint256"
        },
        {
          "internalType": "string[]",
          "name": "repairHistory",
          "type": "string[]"
        },
        {
          "internalType": "string[]",
          "name": "maintenanceHistory",
          "type": "string[]"
        },
        {
          "internalType": "string",
          "name": "lastUpdate",
          "type": "string"
        }
      ],
      "stateMutability": "view",
      "type": "function"
    },
    {
      "inputs": [
        {
          "internalType": "string",
          "name": "vin",
          "type": "string"
        }
      ],
      "name": "getCarByVIN",
      "outputs": [
        {
          "internalType": "uint256",
          "name": "tokenId",
          "type": "uint256"
        },
        {
          "internalType": "string",
          "name": "brand",
          "type": "string"
        },
        {
          "internalType": "string",
          "name": "model",
          "type": "string"
        },
        {
          "internalType": "string",
          "name": "colorCode",
          "type": "string"
        },
        {
          "internalType": "string",
          "name": "dateOfManufacture",
          "type": "string"
        },
        {
          "internalType": "string",
          "name": "warrantyExpirationDate",
          "type": "string"
        },
        {
          "internalType": "string",
          "name": "fuelType",
          "type": "string"
        },
        {
          "internalType": "uint256",
          "name": "mileage",
          "type": "uint256"
        },
        {
          "internalType": "string[]",
          "name": "repairHistory",
          "type": "string[]"
        },
        {
          "internalType": "string[]",
          "name": "maintenanceHistory",
          "type": "string[]"
        },
        {
          "internalType": "string",
          "name": "lastUpdate",
          "type": "string"
        }
      ],
      "stateMutability": "view",
      "type": "function"
    },
    {
      "inputs": [
        {
          "internalType": "address",
          "name": "owner",
          "type": "address"
        },
        {
          "internalType": "address",
          "name": "operator",
          "type": "address"
        }
      ],
      "name": "isApprovedForAll",
      "outputs": [
        {
          "internalType": "bool",
          "name": "",
          "type": "bool"
        }
      ],
      "stateMutability": "view",
      "type": "function"
    },
    {
      "inputs": [],
      "name": "name",
      "outputs": [
        {
          "internalType": "string",
          "name": "",
          "type": "string"
        }
      ],
      "stateMutability": "view",
      "type": "function"
    },
    {
      "inputs": [],
      "name": "owner",
      "outputs": [
        {
          "internalType": "address",
          "name": "",
          "type": "address"
        }
      ],
      "stateMutability": "view",
      "type": "function"
    },
    {
      "inputs": [
        {
          "internalType": "uint256",
          "name": "tokenId",
          "type": "uint256"
        }
      ],
      "name": "ownerOf",
      "outputs": [
        {
          "internalType": "address",
          "name": "",
          "type": "address"
        }
      ],
      "stateMutability": "view",
      "type": "function"
    },
    {
      "inputs": [],
      "name": "renounceOwnership",
      "outputs": [],
      "stateMutability": "nonpayable",
      "type": "function"
    },
    {
      "inputs": [
        {
          "internalType": "address",
          "name": "from",
          "type": "address"
        },
        {
          "internalType": "address",
          "name": "to",
          "type": "address"
        },
        {
          "internalType": "uint256",
          "name": "tokenId",
          "type": "uint256"
        }
      ],
      "name": "safeTransferFrom",
      "outputs": [],
      "stateMutability": "nonpayable",
      "type": "function"
    },
    {
      "inputs": [
        {
          "internalType": "address",
          "name": "from",
          "type": "address"
        },
        {
          "internalType": "address",
          "name": "to",
          "type": "address"
        },
        {
          "internalType": "uint256",
          "name": "tokenId",
          "type": "uint256"
        },
        {
          "internalType": "bytes",
          "name": "data",
          "type": "bytes"
        }
      ],
      "name": "safeTransferFrom",
      "outputs": [],
      "stateMutability": "nonpayable",
      "type": "function"
    },
    {
      "inputs": [
        {
          "internalType": "address",
          "name": "operator",
          "type": "address"
        },
        {
          "internalType": "bool",
          "name": "approved",
          "type": "bool"
        }
      ],
      "name": "setApprovalForAll",
      "outputs": [],
      "stateMutability": "nonpayable",
      "type": "function"
    },
    {
      "inputs": [
        {
          "internalType": "bytes4",
          "name": "interfaceId",
          "type": "bytes4"
        }
      ],
      "name": "supportsInterface",
      "outputs": [
        {
          "internalType": "bool",
          "name": "",
          "type": "bool"
        }
      ],
      "stateMutability": "view",
      "type": "function"
    },
    {
      "inputs": [],
      "name": "symbol",
      "outputs": [
        {
          "internalType": "string",
          "name": "",
          "type": "string"
        }
      ],
      "stateMutability": "view",
      "type": "function"
    },
    {
      "inputs": [
        {
          "internalType": "uint256",
          "name": "tokenId",
          "type": "uint256"
        }
      ],
      "name": "tokenURI",
      "outputs": [
        {
          "internalType": "string",
          "name": "",
          "type": "string"
        }
      ],
      "stateMutability": "view",
      "type": "function"
    },
    {
      "inputs": [
        {
          "internalType": "address",
          "name": "from",
          "type": "address"
        },
        {
          "internalType": "address",
          "name": "to",
          "type": "address"
        },
        {
          "internalType": "uint256",
          "name": "tokenId",
          "type": "uint256"
        }
      ],
      "name": "transferFrom",
      "outputs": [],
      "stateMutability": "nonpayable",
      "type": "function"
    },
    {
      "inputs": [
        {
          "internalType": "address",
          "name": "newOwner",
          "type": "address"
        }
      ],
      "name": "transferOwnership",
      "outputs": [],
      "stateMutability": "nonpayable",
      "type": "function"
    },
    {
      "inputs": [
        {
          "internalType": "string",
          "name": "vin",
          "type": "string"
        },
        {
          "internalType": "uint256",
          "name": "mileage",
          "type": "uint256"
        }
      ],
      "name": "updateMileage",
      "outputs": [],
      "stateMutability": "nonpayable",
      "type": "function"
    },
    {
      "inputs": [
        {
          "internalType": "uint256",
          "name": "tokenId",
          "type": "uint256"
        },
        {
          "internalType": "string",
          "name": "newURI",
          "type": "string"
        }
      ],
      "name": "updateTokenURI",
      "outputs": [],
      "stateMutability": "nonpayable",
      "type": "function"
    }
  ],
  "bytecode": "0x60806040523480156200001157600080fd5b50604080518082018252600c81526b105d5d1bdc185cdcdc1bdc9d60a21b6020808301918252835180850190945260048452635061737360e01b9084015281519192916200006291600091620000f1565b50805162000078906001906020840190620000f1565b505050620000956200008f6200009b60201b60201c565b6200009f565b620001d4565b3390565b600780546001600160a01b038381166001600160a01b0319831681179093556040519116919082907f8be0079c531659141344cd1fd0a4f28419497f9722a3daafe3b4186f6b6457e090600090a35050565b828054620000ff9062000197565b90600052602060002090601f0160209004810192826200012357600085556200016e565b82601f106200013e57805160ff19168380011785556200016e565b828001600101855582156200016e579182015b828111156200016e57825182559160200191906001019062000151565b506200017c92915062000180565b5090565b5b808211156200017c576000815560010162000181565b600181811c90821680620001ac57607f821691505b60208210811415620001ce57634e487b7160e01b600052602260045260246000fd5b50919050565b61335880620001e46000396000f3fe608060405234801561001057600080fd5b50600436106101985760003560e01c806376e78ce6116100e3578063b88d4fde1161008c578063e985e9c511610066578063e985e9c514610381578063eb67a409146103bd578063f2fde38b146103d057600080fd5b8063b88d4fde14610348578063c87b56dd1461035b578063ca9022991461036e57600080fd5b806395d89b41116100bd57806395d89b411461031a578063973cacb614610322578063a22cb4651461033557600080fd5b806376e78ce6146102b55780637a5a576d146102df5780638da5cb5b1461030957600080fd5b806323b872dd116101455780636352211e1161011f5780636352211e1461027957806370a082311461028c578063715018a6146102ad57600080fd5b806323b872dd1461024057806342842e0e1461025357806342966c681461026657600080fd5b8063095ea7b311610176578063095ea7b31461020557806314df99f41461021a57806318e97fd11461022d57600080fd5b806301ffc9a71461019d57806306fdde03146101c5578063081812fc146101da575b600080fd5b6101b06101ab366004612b8a565b6103e3565b60405190151581526020015b60405180910390f35b6101cd6103f4565b6040516101bc9190612bff565b6101ed6101e8366004612c12565b610486565b6040516001600160a01b0390911681526020016101bc565b610218610213366004612c47565b6104ad565b005b610218610228366004612d1d565b6105e4565b61021861023b366004612d81565b610797565b61021861024e366004612dbe565b6107a5565b610218610261366004612dbe565b61081d565b610218610274366004612c12565b610838565b6101ed610287366004612c12565b6108af565b61029f61029a366004612dfa565b610914565b6040519081526020016101bc565b6102186109ae565b6102c86102c3366004612c12565b6109c2565b6040516101bc9b9a99989796959493929190612e6a565b6102f26102ed366004612f4d565b611026565b6040516101bc9b9a99989796959493929190612f82565b6007546001600160a01b03166101ed565b6101cd61156f565b610218610330366004612f9c565b61157e565b610218610343366004613113565b61188f565b61021861035636600461314f565b61189a565b6101cd610369366004612c12565b611918565b61021861037c3660046131cb565b611923565b6101b061038f366004613210565b6001600160a01b03918216600090815260056020908152604080832093909416825291909152205460ff1690565b6102186103cb366004612d1d565b611a54565b6102186103de366004612dfa565b611bd4565b60006103ee82611c61565b92915050565b60606000805461040390613243565b80601f016020809104026020016040519081016040528092919081815260200182805461042f90613243565b801561047c5780601f106104515761010080835404028352916020019161047c565b820191906000526020600020905b81548152906001019060200180831161045f57829003601f168201915b5050505050905090565b600061049182611c9f565b506000908152600460205260409020546001600160a01b031690565b60006104b8826108af565b9050806001600160a01b0316836001600160a01b031614156105475760405162461bcd60e51b815260206004820152602160248201527f4552433732313a20617070726f76616c20746f2063757272656e74206f776e6560448201527f720000000000000000000000000000000000000000000000000000000000000060648201526084015b60405180910390fd5b336001600160a01b03821614806105635750610563813361038f565b6105d55760405162461bcd60e51b815260206004820152603d60248201527f4552433732313a20617070726f76652063616c6c6572206973206e6f7420746f60448201527f6b656e206f776e6572206f7220617070726f76656420666f7220616c6c000000606482015260840161053e565b6105df8383611d03565b505050565b60006009836040516105f6919061327e565b9081526020016040518091039020549050610610816108af565b6001600160a01b0316336001600160a01b0316146106965760405162461bcd60e51b815260206004820152602260248201527f4f6e6c7920746865206f776e65722063616e20616464206d61696e74656e616e60448201527f6365000000000000000000000000000000000000000000000000000000000000606482015260840161053e565b6000818152600a6020526040902082516107185760405162461bcd60e51b815260206004820152602860248201527f4e6577206d61696e74656e616e636520737472696e67206d757374206e6f742060448201527f626520656d707479000000000000000000000000000000000000000000000000606482015260840161053e565b6009810180546001810182556000918252602091829020855161074393919092019190860190612a2f565b5083604051610752919061327e565b60405180910390207f3bebd393edada2bfbebc3ae33569b456ebc89f694d18a8e5ec35c017117c791d846040516107899190612bff565b60405180910390a250505050565b6107a18282611d71565b5050565b6107b0335b82611e52565b6108125760405162461bcd60e51b815260206004820152602d60248201527f4552433732313a2063616c6c6572206973206e6f7420746f6b656e206f776e6560448201526c1c881bdc88185c1c1c9bdd9959609a1b606482015260840161053e565b6105df838383611ed1565b6105df8383836040518060200160405280600081525061189a565b610841336107aa565b6108a35760405162461bcd60e51b815260206004820152602d60248201527f4552433732313a2063616c6c6572206973206e6f7420746f6b656e206f776e6560448201526c1c881bdc88185c1c1c9bdd9959609a1b606482015260840161053e565b6108ac816120ca565b50565b6000818152600260205260408120546001600160a01b0316806103ee5760405162461bcd60e51b815260206004820152601860248201527f4552433732313a20696e76616c696420746f6b656e2049440000000000000000604482015260640161053e565b60006001600160a01b0382166109925760405162461bcd60e51b815260206004820152602960248201527f4552433732313a2061646472657373207a65726f206973206e6f74206120766160448201527f6c6964206f776e65720000000000000000000000000000000000000000000000606482015260840161053e565b506001600160a01b031660009081526003602052604090205490565b6109b66120d3565b6109c0600061212d565b565b6060806060806060806060600060608060606000600a60008e815260200190815260200160002090508060000180546109fa90613243565b80601f0160208091040260200160405190810160405280929190818152602001828054610a2690613243565b8015610a735780601f10610a4857610100808354040283529160200191610a73565b820191906000526020600020905b815481529060010190602001808311610a5657829003601f168201915b50505050509b50806001018054610a8990613243565b80601f0160208091040260200160405190810160405280929190818152602001828054610ab590613243565b8015610b025780601f10610ad757610100808354040283529160200191610b02565b820191906000526020600020905b815481529060010190602001808311610ae557829003601f168201915b50505050509a50806002018054610b1890613243565b80601f0160208091040260200160405190810160405280929190818152602001828054610b4490613243565b8015610b915780601f10610b6657610100808354040283529160200191610b91565b820191906000526020600020905b815481529060010190602001808311610b7457829003601f168201915b50505050509950806003018054610ba790613243565b80601f0160208091040260200160405190810160405280929190818152602001828054610bd390613243565b8015610c205780601f10610bf557610100808354040283529160200191610c20565b820191906000526020600020905b815481529060010190602001808311610c0357829003601f168201915b50505050509850806004018054610c3690613243565b80601f0160208091040260200160405190810160405280929190818152602001828054610c6290613243565b8015610caf5780601f10610c8457610100808354040283529160200191610caf565b820191906000526020600020905b815481529060010190602001808311610c9257829003601f168201915b50505050509750806005018054610cc590613243565b80601f0160208091040260200160405190810160405280929190818152602001828054610cf190613243565b8015610d3e5780601f10610d1357610100808354040283529160200191610d3e565b820191906000526020600020905b815481529060010190602001808311610d2157829003601f168201915b50505050509650806006018054610d5490613243565b80601f0160208091040260200160405190810160405280929190818152602001828054610d8090613243565b8015610dcd5780601f10610da257610100808354040283529160200191610dcd565b820191906000526020600020905b815481529060010190602001808311610db057829003601f168201915b505050505095508060070154945080600801805480602002602001604051908101604052809291908181526020016000905b82821015610eab578382906000526020600020018054610e1e90613243565b80601f0160208091040260200160405190810160405280929190818152602001828054610e4a90613243565b8015610e975780601f10610e6c57610100808354040283529160200191610e97565b820191906000526020600020905b815481529060010190602001808311610e7a57829003601f168201915b505050505081526020019060010190610dff565b50505050935080600901805480602002602001604051908101604052809291908181526020016000905b82821015610f81578382906000526020600020018054610ef490613243565b80601f0160208091040260200160405190810160405280929190818152602001828054610f2090613243565b8015610f6d5780601f10610f4257610100808354040283529160200191610f6d565b820191906000526020600020905b815481529060010190602001808311610f5057829003601f168201915b505050505081526020019060010190610ed5565b50505050925080600a018054610f9690613243565b80601f0160208091040260200160405190810160405280929190818152602001828054610fc290613243565b801561100f5780601f10610fe45761010080835404028352916020019161100f565b820191906000526020600020905b815481529060010190602001808311610ff257829003601f168201915b505050505091505091939597999b90929496989a50565b60006060806060806060806000606080606060098c604051611048919061327e565b9081526040805160209281900383019020546000818152600a90935291208054919c5090819061107790613243565b80601f01602080910402602001604051908101604052809291908181526020018280546110a390613243565b80156110f05780601f106110c5576101008083540402835291602001916110f0565b820191906000526020600020905b8154815290600101906020018083116110d357829003601f168201915b50505050509a5080600101805461110690613243565b80601f016020809104026020016040519081016040528092919081815260200182805461113290613243565b801561117f5780601f106111545761010080835404028352916020019161117f565b820191906000526020600020905b81548152906001019060200180831161116257829003601f168201915b5050505050995080600301805461119590613243565b80601f01602080910402602001604051908101604052809291908181526020018280546111c190613243565b801561120e5780601f106111e35761010080835404028352916020019161120e565b820191906000526020600020905b8154815290600101906020018083116111f157829003601f168201915b5050505050985080600401805461122490613243565b80601f016020809104026020016040519081016040528092919081815260200182805461125090613243565b801561129d5780601f106112725761010080835404028352916020019161129d565b820191906000526020600020905b81548152906001019060200180831161128057829003601f168201915b505050505097508060050180546112b390613243565b80601f01602080910402602001604051908101604052809291908181526020018280546112df90613243565b801561132c5780601f106113015761010080835404028352916020019161132c565b820191906000526020600020905b81548152906001019060200180831161130f57829003601f168201915b5050505050965080600601805461134290613243565b80601f016020809104026020016040519081016040528092919081815260200182805461136e90613243565b80156113bb5780601f10611390576101008083540402835291602001916113bb565b820191906000526020600020905b81548152906001019060200180831161139e57829003601f168201915b505050505095508060070154945080600801805480602002602001604051908101604052809291908181526020016000905b8282101561149957838290600052602060002001805461140c90613243565b80601f016020809104026020016040519081016040528092919081815260200182805461143890613243565b80156114855780601f1061145a57610100808354040283529160200191611485565b820191906000526020600020905b81548152906001019060200180831161146857829003601f168201915b5050505050815260200190600101906113ed565b50505050935080600901805480602002602001604051908101604052809291908181526020016000905b82821015610f815783829060005260206000200180546114e290613243565b80601f016020809104026020016040519081016040528092919081815260200182805461150e90613243565b801561155b5780601f106115305761010080835404028352916020019161155b565b820191906000526020600020905b81548152906001019060200180831161153e57829003601f168201915b5050505050815260200190600101906114c3565b60606001805461040390613243565b6115866120d3565b600987604051611596919061327e565b9081526020016040518091039020546000146115f45760405162461bcd60e51b815260206004820181905260248201527f436172207769746820746869732056494e20616c726561647920657869737473604482015260640161053e565b60006115ff60085490565b90506040518061016001604052808b81526020018a815260200189815260200188815260200187815260200186815260200185815260200160008152602001600067ffffffffffffffff81111561165857611658612c71565b60405190808252806020026020018201604052801561168b57816020015b60608152602001906001900390816116765790505b50815260200160006040519080825280602002602001820160405280156116c657816020015b60608152602001906001900390816116b15790505b50815260209081018590526000838152600a8252604090208251805191926116f392849290910190612a2f565b50602082810151805161170c9260018501920190612a2f565b5060408201518051611728916002840191602090910190612a2f565b5060608201518051611744916003840191602090910190612a2f565b5060808201518051611760916004840191602090910190612a2f565b5060a0820151805161177c916005840191602090910190612a2f565b5060c08201518051611798916006840191602090910190612a2f565b5060e0820151600782015561010082015180516117bf916008840191602090910190612ab3565b5061012082015180516117dc916009840191602090910190612ab3565b5061014082015180516117f991600a840191602090910190612a2f565b509050506118078b8261217f565b6118118183611d71565b80600989604051611822919061327e565b90815260405190819003602001902055611840600880546001019055565b808b6001600160a01b03167fe649b25ea418284e682d98726ce07ccc7a6a926d3cdac495942354deca6627438a60405161187a9190612bff565b60405180910390a35050505050505050505050565b6107a133838361230a565b6118a43383611e52565b6119065760405162461bcd60e51b815260206004820152602d60248201527f4552433732313a2063616c6c6572206973206e6f7420746f6b656e206f776e6560448201526c1c881bdc88185c1c1c9bdd9959609a1b606482015260840161053e565b611912848484846123d9565b50505050565b60606103ee82612462565b6000600983604051611935919061327e565b90815260200160405180910390205490506119506107aa3390565b6119c25760405162461bcd60e51b815260206004820152603160248201527f4552433732313a207472616e736665722063616c6c6572206973206e6f74206f60448201527f776e6572206e6f7220617070726f766564000000000000000000000000000000606482015260840161053e565b6000818152600a6020526040902060078101548311611a495760405162461bcd60e51b815260206004820152603b60248201527f4e6577206b696c6f6d65746572732076616c7565206d7573742062652067726560448201527f61746572207468616e207468652063757272656e742076616c75650000000000606482015260840161053e565b600701919091555050565b6000600983604051611a66919061327e565b9081526020016040518091039020549050611a80816108af565b6001600160a01b0316336001600160a01b031614611ae05760405162461bcd60e51b815260206004820152601f60248201527f4f6e6c7920746865206f776e65722063616e2061646420612072657061697200604482015260640161053e565b6000818152600a6020908152604082206008810180546001810182559084529282902085519193611b179391019190860190612a2f565b506000835111611b8f5760405162461bcd60e51b815260206004820152602360248201527f4e65772072657061697220737472696e67206d757374206e6f7420626520656d60448201527f7074790000000000000000000000000000000000000000000000000000000000606482015260840161053e565b83604051611b9d919061327e565b60405180910390207ff108e0d5ea815ea472514c7f65bd2bfc03bc7e526ad82404e04fbaf0248820c9846040516107899190612bff565b611bdc6120d3565b6001600160a01b038116611c585760405162461bcd60e51b815260206004820152602660248201527f4f776e61626c653a206e6577206f776e657220697320746865207a65726f206160448201527f6464726573730000000000000000000000000000000000000000000000000000606482015260840161053e565b6108ac8161212d565b60006001600160e01b031982167f490649060000000000000000000000000000000000000000000000000000000014806103ee57506103ee8261256b565b6000818152600260205260409020546001600160a01b03166108ac5760405162461bcd60e51b815260206004820152601860248201527f4552433732313a20696e76616c696420746f6b656e2049440000000000000000604482015260640161053e565b600081815260046020526040902080546001600160a01b0319166001600160a01b0384169081179091558190611d38826108af565b6001600160a01b03167f8c5be1e5ebec7d5bd14f71427d1e84f3dd0314c0f7b2291e5b200ac8c7c3b92560405160405180910390a45050565b6000828152600260205260409020546001600160a01b0316611dfb5760405162461bcd60e51b815260206004820152602e60248201527f45524337323155524953746f726167653a2055524920736574206f66206e6f6e60448201527f6578697374656e7420746f6b656e000000000000000000000000000000000000606482015260840161053e565b60008281526006602090815260409091208251611e1a92840190612a2f565b506040518281527ff8e1a15aba9398e019f0b49df1a4fde98ee17ae345cb5f6b5e2c27f5033e8ce79060200160405180910390a15050565b600080611e5e836108af565b9050806001600160a01b0316846001600160a01b03161480611ea557506001600160a01b0380821660009081526005602090815260408083209388168352929052205460ff165b80611ec95750836001600160a01b0316611ebe84610486565b6001600160a01b0316145b949350505050565b826001600160a01b0316611ee4826108af565b6001600160a01b031614611f485760405162461bcd60e51b815260206004820152602560248201527f4552433732313a207472616e736665722066726f6d20696e636f72726563742060448201526437bbb732b960d91b606482015260840161053e565b6001600160a01b038216611fc35760405162461bcd60e51b8152602060048201526024808201527f4552433732313a207472616e7366657220746f20746865207a65726f2061646460448201527f7265737300000000000000000000000000000000000000000000000000000000606482015260840161053e565b826001600160a01b0316611fd6826108af565b6001600160a01b03161461203a5760405162461bcd60e51b815260206004820152602560248201527f4552433732313a207472616e736665722066726f6d20696e636f72726563742060448201526437bbb732b960d91b606482015260840161053e565b600081815260046020908152604080832080546001600160a01b03199081169091556001600160a01b0387811680865260038552838620805460001901905590871680865283862080546001019055868652600290945282852080549092168417909155905184937fddf252ad1be2c89b69c2b068fc378daa952ba7f163c4a11628f55a4df523b3ef91a4505050565b6108ac81612606565b6007546001600160a01b031633146109c05760405162461bcd60e51b815260206004820181905260248201527f4f776e61626c653a2063616c6c6572206973206e6f7420746865206f776e6572604482015260640161053e565b600780546001600160a01b038381166001600160a01b0319831681179093556040519116919082907f8be0079c531659141344cd1fd0a4f28419497f9722a3daafe3b4186f6b6457e090600090a35050565b6001600160a01b0382166121d55760405162461bcd60e51b815260206004820181905260248201527f4552433732313a206d696e7420746f20746865207a65726f2061646472657373604482015260640161053e565b6000818152600260205260409020546001600160a01b03161561223a5760405162461bcd60e51b815260206004820152601c60248201527f4552433732313a20746f6b656e20616c7265616479206d696e74656400000000604482015260640161053e565b6000818152600260205260409020546001600160a01b03161561229f5760405162461bcd60e51b815260206004820152601c60248201527f4552433732313a20746f6b656e20616c7265616479206d696e74656400000000604482015260640161053e565b6001600160a01b038216600081815260036020908152604080832080546001019055848352600290915280822080546001600160a01b0319168417905551839291907fddf252ad1be2c89b69c2b068fc378daa952ba7f163c4a11628f55a4df523b3ef908290a45050565b816001600160a01b0316836001600160a01b0316141561236c5760405162461bcd60e51b815260206004820152601960248201527f4552433732313a20617070726f766520746f2063616c6c657200000000000000604482015260640161053e565b6001600160a01b03838116600081815260056020908152604080832094871680845294825291829020805460ff191686151590811790915591519182527f17307eab39ab6107e8899845ad3d59bd9653f200f220920489ca2b5937696c31910160405180910390a3505050565b6123e4848484611ed1565b6123f084848484612646565b6119125760405162461bcd60e51b815260206004820152603260248201527f4552433732313a207472616e7366657220746f206e6f6e20455243373231526560448201527f63656976657220696d706c656d656e7465720000000000000000000000000000606482015260840161053e565b606061246d82611c9f565b6000828152600660205260408120805461248690613243565b80601f01602080910402602001604051908101604052809291908181526020018280546124b290613243565b80156124ff5780601f106124d4576101008083540402835291602001916124ff565b820191906000526020600020905b8154815290600101906020018083116124e257829003601f168201915b50505050509050600061251d60408051602081019091526000815290565b9050805160001415612530575092915050565b81511561256257808260405160200161254a92919061329a565b60405160208183030381529060405292505050919050565b611ec98461279a565b60006001600160e01b031982167f80ac58cd0000000000000000000000000000000000000000000000000000000014806125ce57506001600160e01b031982167f5b5e139f00000000000000000000000000000000000000000000000000000000145b806103ee57507f01ffc9a7000000000000000000000000000000000000000000000000000000006001600160e01b03198316146103ee565b61260f8161280e565b6000818152600660205260409020805461262890613243565b1590506108ac5760008181526006602052604081206108ac91612b0c565b60006001600160a01b0384163b1561278f57604051630a85bd0160e11b81526001600160a01b0385169063150b7a029061268a9033908990889088906004016132c9565b6020604051808303816000875af19250505080156126c5575060408051601f3d908101601f191682019092526126c291810190613305565b60015b612775573d8080156126f3576040519150601f19603f3d011682016040523d82523d6000602084013e6126f8565b606091505b50805161276d5760405162461bcd60e51b815260206004820152603260248201527f4552433732313a207472616e7366657220746f206e6f6e20455243373231526560448201527f63656976657220696d706c656d656e7465720000000000000000000000000000606482015260840161053e565b805181602001fd5b6001600160e01b031916630a85bd0160e11b149050611ec9565b506001949350505050565b60606127a582611c9f565b60006127bc60408051602081019091526000815290565b905060008151116127dc5760405180602001604052806000815250612807565b806127e6846128a3565b6040516020016127f792919061329a565b6040516020818303038152906040525b9392505050565b6000612819826108af565b9050612824826108af565b600083815260046020908152604080832080546001600160a01b03199081169091556001600160a01b0385168085526003845282852080546000190190558785526002909352818420805490911690555192935084927fddf252ad1be2c89b69c2b068fc378daa952ba7f163c4a11628f55a4df523b3ef908390a45050565b606060006128b08361294d565b600101905060008167ffffffffffffffff8111156128d0576128d0612c71565b6040519080825280601f01601f1916602001820160405280156128fa576020820181803683370190505b5090508181016020015b600019017f3031323334353637383961626364656600000000000000000000000000000000600a86061a8153600a850494508461294057612945565b612904565b509392505050565b6000807a184f03e93ff9f4daa797ed6e38ed64bf6a1f0100000000000000008310612996577a184f03e93ff9f4daa797ed6e38ed64bf6a1f010000000000000000830492506040015b6d04ee2d6d415b85acef810000000083106129c2576d04ee2d6d415b85acef8100000000830492506020015b662386f26fc1000083106129e057662386f26fc10000830492506010015b6305f5e10083106129f8576305f5e100830492506008015b6127108310612a0c57612710830492506004015b60648310612a1e576064830492506002015b600a83106103ee5760010192915050565b828054612a3b90613243565b90600052602060002090601f016020900481019282612a5d5760008555612aa3565b82601f10612a7657805160ff1916838001178555612aa3565b82800160010185558215612aa3579182015b82811115612aa3578251825591602001919060010190612a88565b50612aaf929150612b42565b5090565b828054828255906000526020600020908101928215612b00579160200282015b82811115612b005782518051612af0918491602090910190612a2f565b5091602001919060010190612ad3565b50612aaf929150612b57565b508054612b1890613243565b6000825580601f10612b28575050565b601f0160209004906000526020600020908101906108ac91905b5b80821115612aaf5760008155600101612b43565b80821115612aaf576000612b6b8282612b0c565b50600101612b57565b6001600160e01b0319811681146108ac57600080fd5b600060208284031215612b9c57600080fd5b813561280781612b74565b60005b83811015612bc2578181015183820152602001612baa565b838111156119125750506000910152565b60008151808452612beb816020860160208601612ba7565b601f01601f19169290920160200192915050565b6020815260006128076020830184612bd3565b600060208284031215612c2457600080fd5b5035919050565b80356001600160a01b0381168114612c4257600080fd5b919050565b60008060408385031215612c5a57600080fd5b612c6383612c2b565b946020939093013593505050565b634e487b7160e01b600052604160045260246000fd5b600067ffffffffffffffff80841115612ca257612ca2612c71565b604051601f8501601f19908116603f01168101908282118183101715612cca57612cca612c71565b81604052809350858152868686011115612ce357600080fd5b858560208301376000602087830101525050509392505050565b600082601f830112612d0e57600080fd5b61280783833560208501612c87565b60008060408385031215612d3057600080fd5b823567ffffffffffffffff80821115612d4857600080fd5b612d5486838701612cfd565b93506020850135915080821115612d6a57600080fd5b50612d7785828601612cfd565b9150509250929050565b60008060408385031215612d9457600080fd5b82359150602083013567ffffffffffffffff811115612db257600080fd5b612d7785828601612cfd565b600080600060608486031215612dd357600080fd5b612ddc84612c2b565b9250612dea60208501612c2b565b9150604084013590509250925092565b600060208284031215612e0c57600080fd5b61280782612c2b565b600081518084526020808501808196508360051b8101915082860160005b85811015612e5d578284038952612e4b848351612bd3565b98850198935090840190600101612e33565b5091979650505050505050565b6000610160808352612e7e8184018f612bd3565b90508281036020840152612e92818e612bd3565b90508281036040840152612ea6818d612bd3565b90508281036060840152612eba818c612bd3565b90508281036080840152612ece818b612bd3565b905082810360a0840152612ee2818a612bd3565b905082810360c0840152612ef68189612bd3565b90508660e0840152828103610100840152612f118187612e15565b9050828103610120840152612f268186612e15565b9050828103610140840152612f3b8185612bd3565b9e9d5050505050505050505050505050565b600060208284031215612f5f57600080fd5b813567ffffffffffffffff811115612f7657600080fd5b611ec984828501612cfd565b60006101608d8352806020840152612e928184018e612bd3565b6000806000806000806000806000806101408b8d031215612fbc57600080fd5b612fc58b612c2b565b995060208b013567ffffffffffffffff80821115612fe257600080fd5b612fee8e838f01612cfd565b9a5060408d013591508082111561300457600080fd5b6130108e838f01612cfd565b995060608d013591508082111561302657600080fd5b6130328e838f01612cfd565b985060808d013591508082111561304857600080fd5b6130548e838f01612cfd565b975060a08d013591508082111561306a57600080fd5b6130768e838f01612cfd565b965060c08d013591508082111561308c57600080fd5b6130988e838f01612cfd565b955060e08d01359150808211156130ae57600080fd5b6130ba8e838f01612cfd565b94506101008d01359150808211156130d157600080fd5b6130dd8e838f01612cfd565b93506101208d01359150808211156130f457600080fd5b506131018d828e01612cfd565b9150509295989b9194979a5092959850565b6000806040838503121561312657600080fd5b61312f83612c2b565b91506020830135801515811461314457600080fd5b809150509250929050565b6000806000806080858703121561316557600080fd5b61316e85612c2b565b935061317c60208601612c2b565b925060408501359150606085013567ffffffffffffffff81111561319f57600080fd5b8501601f810187136131b057600080fd5b6131bf87823560208401612c87565b91505092959194509250565b600080604083850312156131de57600080fd5b823567ffffffffffffffff8111156131f557600080fd5b61320185828601612cfd565b95602094909401359450505050565b6000806040838503121561322357600080fd5b61322c83612c2b565b915061323a60208401612c2b565b90509250929050565b600181811c9082168061325757607f821691505b6020821081141561327857634e487b7160e01b600052602260045260246000fd5b50919050565b60008251613290818460208701612ba7565b9190910192915050565b600083516132ac818460208801612ba7565b8351908301906132c0818360208801612ba7565b01949350505050565b60006001600160a01b038087168352808616602084015250836040830152608060608301526132fb6080830184612bd3565b9695505050505050565b60006020828403121561331757600080fd5b815161280781612b7456fea26469706673582212209b956871c2955c988227ef95df372028aabc6366eb43f6f3f7e5de549f38b9bf64736f6c634300080b0033",
  "linkReferences": {},
  "deployedLinkReferences": {}
}