{
  "_format": "hh-sol-artifact-1",
  "contractName": "AutoPassport",
  "sourceName": "contracts/AutoPassport.sol",
  "abi": [
    {
      "inputs": [],
      "stateMutability": "nonpayable",
      "type": "constructor"
    },
    {
      "anonymous": false,
      "inputs": [
        {
          "indexed": true,
          "internalType": "address",
          "name": "owner",
          "type": "address"
        },
        {
          "indexed": true,
          "internalType": "address",
          "name": "approved",
          "type": "address"
        },
        {
          "indexed": true,
          "internalType": "uint256",
          "name": "tokenId",
          "type": "uint256"
        }
      ],
      "name": "Approval",
      "type": "event"
    },
    {
      "anonymous": false,
      "inputs": [
        {
          "indexed": true,
          "internalType": "address",
          "name": "owner",
          "type": "address"
        },
        {
          "indexed": true,
          "internalType": "address",
          "name": "operator",
          "type": "address"
        },
        {
          "indexed": false,
          "internalType": "bool",
          "name": "approved",
          "type": "bool"
        }
      ],
      "name": "ApprovalForAll",
      "type": "event"
    },
    {
      "anonymous": false,
      "inputs": [
        {
          "indexed": false,
          "internalType": "uint256",
          "name": "_fromTokenId",
          "type": "uint256"
        },
        {
          "indexed": false,
          "internalType": "uint256",
          "name": "_toTokenId",
          "type": "uint256"
        }
      ],
      "name": "BatchMetadataUpdate",
      "type": "event"
    },
    {
      "anonymous": false,
      "inputs": [
        {
          "indexed": true,
          "internalType": "bytes32",
          "name": "id",
          "type": "bytes32"
        }
      ],
      "name": "ChainlinkCancelled",
      "type": "event"
    },
    {
      "anonymous": false,
      "inputs": [
        {
          "indexed": true,
          "internalType": "bytes32",
          "name": "id",
          "type": "bytes32"
        }
      ],
      "name": "ChainlinkFulfilled",
      "type": "event"
    },
    {
      "anonymous": false,
      "inputs": [
        {
          "indexed": true,
          "internalType": "bytes32",
          "name": "id",
          "type": "bytes32"
        }
      ],
      "name": "ChainlinkRequested",
      "type": "event"
    },
    {
      "anonymous": false,
      "inputs": [
        {
          "indexed": false,
          "internalType": "uint256",
          "name": "_tokenId",
          "type": "uint256"
        }
      ],
      "name": "MetadataUpdate",
      "type": "event"
    },
    {
      "anonymous": false,
      "inputs": [
        {
          "indexed": true,
          "internalType": "address",
          "name": "from",
          "type": "address"
        },
        {
          "indexed": true,
          "internalType": "address",
          "name": "to",
          "type": "address"
        }
      ],
      "name": "OwnershipTransferRequested",
      "type": "event"
    },
    {
      "anonymous": false,
      "inputs": [
        {
          "indexed": true,
          "internalType": "address",
          "name": "from",
          "type": "address"
        },
        {
          "indexed": true,
          "internalType": "address",
          "name": "to",
          "type": "address"
        }
      ],
      "name": "OwnershipTransferred",
      "type": "event"
    },
    {
      "anonymous": false,
      "inputs": [
        {
          "indexed": true,
          "internalType": "address",
          "name": "from",
          "type": "address"
        },
        {
          "indexed": true,
          "internalType": "address",
          "name": "to",
          "type": "address"
        },
        {
          "indexed": true,
          "internalType": "uint256",
          "name": "tokenId",
          "type": "uint256"
        }
      ],
      "name": "Transfer",
      "type": "event"
    },
    {
      "inputs": [],
      "name": "acceptOwnership",
      "outputs": [],
      "stateMutability": "nonpayable",
      "type": "function"
    },
    {
      "inputs": [
        {
          "internalType": "address",
          "name": "to",
          "type": "address"
        },
        {
          "internalType": "uint256",
          "name": "tokenId",
          "type": "uint256"
        }
      ],
      "name": "approve",
      "outputs": [],
      "stateMutability": "nonpayable",
      "type": "function"
    },
    {
      "inputs": [
        {
          "internalType": "address",
          "name": "owner",
          "type": "address"
        }
      ],
      "name": "balanceOf",
      "outputs": [
        {
          "internalType": "uint256",
          "name": "",
          "type": "uint256"
        }
      ],
      "stateMutability": "view",
      "type": "function"
    },
    {
      "inputs": [
        {
          "internalType": "uint256",
          "name": "tokenId",
          "type": "uint256"
        }
      ],
      "name": "burn",
      "outputs": [],
      "stateMutability": "nonpayable",
      "type": "function"
    },
    {
      "inputs": [
        {
          "internalType": "string",
          "name": "vin",
          "type": "string"
        }
      ],
      "name": "checkFines",
      "outputs": [],
      "stateMutability": "nonpayable",
      "type": "function"
    },
    {
      "inputs": [
        {
          "internalType": "string",
          "name": "vin",
          "type": "string"
        }
      ],
      "name": "checkFinesAndReturnCar",
      "outputs": [
        {
          "components": [
            {
              "internalType": "string",
              "name": "brand",
              "type": "string"
            },
            {
              "internalType": "string",
              "name": "model",
              "type": "string"
            },
            {
              "internalType": "string",
              "name": "vin",
              "type": "string"
            },
            {
              "internalType": "string",
              "name": "color_code",
              "type": "string"
            },
            {
              "internalType": "string",
              "name": "date_of_manufacture",
              "type": "string"
            },
            {
              "internalType": "string",
              "name": "warranty_expiration_date",
              "type": "string"
            },
            {
              "internalType": "string",
              "name": "fuel_type",
              "type": "string"
            },
            {
              "internalType": "uint256",
              "name": "mileage",
              "type": "uint256"
            },
            {
              "internalType": "string[]",
              "name": "repair_history",
              "type": "string[]"
            },
            {
              "internalType": "string[]",
              "name": "maintenance_history",
              "type": "string[]"
            },
            {
              "internalType": "string",
              "name": "last_update",
              "type": "string"
            },
            {
              "internalType": "bool",
              "name": "hasFines",
              "type": "bool"
            }
          ],
          "internalType": "struct AutoPassport.Car",
          "name": "objCar",
          "type": "tuple"
        }
      ],
      "stateMutability": "nonpayable",
      "type": "function"
    },
    {
      "inputs": [
        {
          "internalType": "address",
          "name": "to",
          "type": "address"
        },
        {
          "internalType": "string",
          "name": "brand",
          "type": "string"
        },
        {
          "internalType": "string",
          "name": "model",
          "type": "string"
        },
        {
          "internalType": "string",
          "name": "vin",
          "type": "string"
        },
        {
          "internalType": "string",
          "name": "color_code",
          "type": "string"
        },
        {
          "internalType": "string",
          "name": "date_of_manufacture",
          "type": "string"
        },
        {
          "internalType": "string",
          "name": "warranty_expiration_date",
          "type": "string"
        },
        {
          "internalType": "string",
          "name": "fuel_type",
          "type": "string"
        },
        {
          "internalType": "string",
          "name": "last_update",
          "type": "string"
        },
        {
          "internalType": "string",
          "name": "uriIpfsUrl",
          "type": "string"
        }
      ],
      "name": "createAutoPassport",
      "outputs": [],
      "stateMutability": "nonpayable",
      "type": "function"
    },
    {
      "inputs": [
        {
          "internalType": "bytes32",
          "name": "requestId",
          "type": "bytes32"
        },
        {
          "internalType": "string",
          "name": "hasFinesResponse",
          "type": "string"
        }
      ],
      "name": "fulfillMultipleParameters",
      "outputs": [],
      "stateMutability": "nonpayable",
      "type": "function"
    },
    {
      "inputs": [
        {
          "internalType": "uint256",
          "name": "tokenId",
          "type": "uint256"
        }
      ],
      "name": "getApproved",
      "outputs": [
        {
          "internalType": "address",
          "name": "",
          "type": "address"
        }
      ],
      "stateMutability": "view",
      "type": "function"
    },
    {
      "inputs": [
        {
          "internalType": "string",
          "name": "vin",
          "type": "string"
        }
      ],
      "name": "getObjCarByVIN",
      "outputs": [
        {
          "internalType": "uint256",
          "name": "tokenId",
          "type": "uint256"
        },
        {
          "components": [
            {
              "internalType": "string",
              "name": "brand",
              "type": "string"
            },
            {
              "internalType": "string",
              "name": "model",
              "type": "string"
            },
            {
              "internalType": "string",
              "name": "vin",
              "type": "string"
            },
            {
              "internalType": "string",
              "name": "color_code",
              "type": "string"
            },
            {
              "internalType": "string",
              "name": "date_of_manufacture",
              "type": "string"
            },
            {
              "internalType": "string",
              "name": "warranty_expiration_date",
              "type": "string"
            },
            {
              "internalType": "string",
              "name": "fuel_type",
              "type": "string"
            },
            {
              "internalType": "uint256",
              "name": "mileage",
              "type": "uint256"
            },
            {
              "internalType": "string[]",
              "name": "repair_history",
              "type": "string[]"
            },
            {
              "internalType": "string[]",
              "name": "maintenance_history",
              "type": "string[]"
            },
            {
              "internalType": "string",
              "name": "last_update",
              "type": "string"
            },
            {
              "internalType": "bool",
              "name": "hasFines",
              "type": "bool"
            }
          ],
          "internalType": "struct AutoPassport.Car",
          "name": "objCar",
          "type": "tuple"
        },
        {
          "internalType": "string",
          "name": "uri",
          "type": "string"
        }
      ],
      "stateMutability": "view",
      "type": "function"
    },
    {
      "inputs": [
        {
          "internalType": "address",
          "name": "owner",
          "type": "address"
        },
        {
          "internalType": "address",
          "name": "operator",
          "type": "address"
        }
      ],
      "name": "isApprovedForAll",
      "outputs": [
        {
          "internalType": "bool",
          "name": "",
          "type": "bool"
        }
      ],
      "stateMutability": "view",
      "type": "function"
    },
    {
      "inputs": [],
      "name": "name",
      "outputs": [
        {
          "internalType": "string",
          "name": "",
          "type": "string"
        }
      ],
      "stateMutability": "view",
      "type": "function"
    },
    {
      "inputs": [],
      "name": "owner",
      "outputs": [
        {
          "internalType": "address",
          "name": "",
          "type": "address"
        }
      ],
      "stateMutability": "view",
      "type": "function"
    },
    {
      "inputs": [
        {
          "internalType": "uint256",
          "name": "tokenId",
          "type": "uint256"
        }
      ],
      "name": "ownerOf",
      "outputs": [
        {
          "internalType": "address",
          "name": "",
          "type": "address"
        }
      ],
      "stateMutability": "view",
      "type": "function"
    },
    {
      "inputs": [
        {
          "internalType": "string",
          "name": "vin",
          "type": "string"
        }
      ],
      "name": "requestFinesApi",
      "outputs": [],
      "stateMutability": "nonpayable",
      "type": "function"
    },
    {
      "inputs": [
        {
          "internalType": "address",
          "name": "from",
          "type": "address"
        },
        {
          "internalType": "address",
          "name": "to",
          "type": "address"
        },
        {
          "internalType": "uint256",
          "name": "tokenId",
          "type": "uint256"
        }
      ],
      "name": "safeTransferFrom",
      "outputs": [],
      "stateMutability": "nonpayable",
      "type": "function"
    },
    {
      "inputs": [
        {
          "internalType": "address",
          "name": "from",
          "type": "address"
        },
        {
          "internalType": "address",
          "name": "to",
          "type": "address"
        },
        {
          "internalType": "uint256",
          "name": "tokenId",
          "type": "uint256"
        },
        {
          "internalType": "bytes",
          "name": "data",
          "type": "bytes"
        }
      ],
      "name": "safeTransferFrom",
      "outputs": [],
      "stateMutability": "nonpayable",
      "type": "function"
    },
    {
      "inputs": [
        {
          "internalType": "address",
          "name": "operator",
          "type": "address"
        },
        {
          "internalType": "bool",
          "name": "approved",
          "type": "bool"
        }
      ],
      "name": "setApprovalForAll",
      "outputs": [],
      "stateMutability": "nonpayable",
      "type": "function"
    },
    {
      "inputs": [
        {
          "internalType": "bytes4",
          "name": "interfaceId",
          "type": "bytes4"
        }
      ],
      "name": "supportsInterface",
      "outputs": [
        {
          "internalType": "bool",
          "name": "",
          "type": "bool"
        }
      ],
      "stateMutability": "view",
      "type": "function"
    },
    {
      "inputs": [],
      "name": "symbol",
      "outputs": [
        {
          "internalType": "string",
          "name": "",
          "type": "string"
        }
      ],
      "stateMutability": "view",
      "type": "function"
    },
    {
      "inputs": [
        {
          "internalType": "uint256",
          "name": "tokenId",
          "type": "uint256"
        }
      ],
      "name": "tokenURI",
      "outputs": [
        {
          "internalType": "string",
          "name": "",
          "type": "string"
        }
      ],
      "stateMutability": "view",
      "type": "function"
    },
    {
      "inputs": [
        {
          "internalType": "address",
          "name": "from",
          "type": "address"
        },
        {
          "internalType": "address",
          "name": "to",
          "type": "address"
        },
        {
          "internalType": "uint256",
          "name": "tokenId",
          "type": "uint256"
        }
      ],
      "name": "transferFrom",
      "outputs": [],
      "stateMutability": "nonpayable",
      "type": "function"
    },
    {
      "inputs": [
        {
          "internalType": "address",
          "name": "to",
          "type": "address"
        }
      ],
      "name": "transferOwnership",
      "outputs": [],
      "stateMutability": "nonpayable",
      "type": "function"
    },
    {
      "inputs": [
        {
          "internalType": "string",
          "name": "vin",
          "type": "string"
        },
        {
          "internalType": "uint256",
          "name": "mileage",
          "type": "uint256"
        },
        {
          "internalType": "string",
          "name": "newRepair",
          "type": "string"
        },
        {
          "internalType": "string",
          "name": "newMaintenance",
          "type": "string"
        },
        {
          "internalType": "string",
          "name": "newURI",
          "type": "string"
        },
        {
          "internalType": "string",
          "name": "last_update",
          "type": "string"
        }
      ],
      "name": "updateAutoPassport",
      "outputs": [],
      "stateMutability": "nonpayable",
      "type": "function"
    },
    {
      "inputs": [
        {
          "internalType": "uint256",
          "name": "",
          "type": "uint256"
        }
      ],
      "name": "vinCreated",
      "outputs": [
        {
          "internalType": "string",
          "name": "",
          "type": "string"
        }
      ],
      "stateMutability": "view",
      "type": "function"
    },
    {
      "inputs": [],
      "name": "vinProcessing",
      "outputs": [
        {
          "internalType": "string",
          "name": "",
          "type": "string"
        }
      ],
      "stateMutability": "view",
      "type": "function"
    }
  ],
  "bytecode": "0x600160045560a0604081905260006080819052620000209160119162000293565b503480156200002e57600080fd5b50604080518082018252600c81526b105d5d1bdc185cdcdc1bdc9d60a21b602080830191909152825180840190935260048352635061737360e01b90830152903380600081620000c55760405162461bcd60e51b815260206004820152601860248201527f43616e6e6f7420736574206f776e657220746f207a65726f000000000000000060448201526064015b60405180910390fd5b600680546001600160a01b0319166001600160a01b0384811691909117909155811615620000f857620000f881620001c4565b50508251620001109150600890602085019062000293565b5080516200012690600990602084019062000293565b5050506200014e73326c977e6efc84e512bb9c30f76e30c160ed06fb6200027160201b60201c565b600380546001600160a01b0319167340193c8518bb267228fc409a613bdbd8ec5a97b31790557f3764383061363338366566353433613361626235323831376636373037653362600f55600a620001af670de0b6b3a7640000600162000339565b620001bb919062000367565b601055620003c7565b6001600160a01b0381163314156200021f5760405162461bcd60e51b815260206004820152601760248201527f43616e6e6f74207472616e7366657220746f2073656c660000000000000000006044820152606401620000bc565b600780546001600160a01b0319166001600160a01b03838116918217909255600654604051919216907fed8889f560326eb138920d842192f0eb3dd22b4f139c87a2c57538e05bae127890600090a350565b600280546001600160a01b0319166001600160a01b0392909216919091179055565b828054620002a1906200038a565b90600052602060002090601f016020900481019282620002c5576000855562000310565b82601f10620002e057805160ff191683800117855562000310565b8280016001018555821562000310579182015b8281111562000310578251825591602001919060010190620002f3565b506200031e92915062000322565b5090565b5b808211156200031e576000815560010162000323565b60008160001904831182151516156200036257634e487b7160e01b600052601160045260246000fd5b500290565b6000826200038557634e487b7160e01b600052601260045260246000fd5b500490565b600181811c908216806200039f57607f821691505b60208210811415620003c157634e487b7160e01b600052602260045260246000fd5b50919050565b61471b80620003d76000396000f3fe608060405234801561001057600080fd5b50600436106101ae5760003560e01c806395d89b41116100ee578063bf450d1511610097578063d15995d311610071578063d15995d314610380578063e772124514610393578063e985e9c5146103b3578063f2fde38b146103ef57600080fd5b8063bf450d1514610347578063c47795db1461035a578063c87b56dd1461036d57600080fd5b8063a79d6565116100c8578063a79d6565146102ff578063b6a9a38a14610321578063b88d4fde1461033457600080fd5b806395d89b41146102d1578063973cacb6146102d9578063a22cb465146102ec57600080fd5b806342966c681161015b57806370a082311161013557806370a082311461028f57806379ba5097146102b05780638da5cb5b146102b857806390d7d418146102c957600080fd5b806342966c681461025657806351dfe045146102695780636352211e1461027c57600080fd5b8063095ea7b31161018c578063095ea7b31461021b57806323b872dd1461023057806342842e0e1461024357600080fd5b806301ffc9a7146101b357806306fdde03146101db578063081812fc146101f0575b600080fd5b6101c66101c1366004613b78565b610402565b60405190151581526020015b60405180910390f35b6101e3610413565b6040516101d29190613bed565b6102036101fe366004613c00565b6104a5565b6040516001600160a01b0390911681526020016101d2565b61022e610229366004613c35565b6104cc565b005b61022e61023e366004613c5f565b610621565b61022e610251366004613c5f565b610699565b61022e610264366004613c00565b6106b4565b61022e610277366004613d47565b61072b565b61020361028a366004613c00565b610847565b6102a261029d366004613d7c565b6108ac565b6040519081526020016101d2565b61022e610946565b6006546001600160a01b0316610203565b6101e36109fb565b6101e3610a89565b61022e6102e7366004613d97565b610a98565b61022e6102fa366004613f1c565b610ea2565b61031261030d366004613d47565b610eb1565b6040516101d2939291906140d9565b61022e61032f366004614104565b611641565b61022e61034236600461414b565b6118bc565b61022e6103553660046141c7565b611934565b61022e610368366004613d47565b611b9d565b6101e361037b366004613c00565b611c1a565b6101e361038e366004613c00565b611c25565b6103a66103a1366004613d47565b611c50565b6040516101d291906142a1565b6101c66103c13660046142b4565b6001600160a01b039182166000908152600d6020908152604080832093909416825291909152205460ff1690565b61022e6103fd366004613d7c565b6123de565b600061040d826123ef565b92915050565b606060088054610422906142e7565b80601f016020809104026020016040519081016040528092919081815260200182805461044e906142e7565b801561049b5780601f106104705761010080835404028352916020019161049b565b820191906000526020600020905b81548152906001019060200180831161047e57829003601f168201915b5050505050905090565b60006104b08261242d565b506000908152600c60205260409020546001600160a01b031690565b60006104d782610847565b9050806001600160a01b0316836001600160a01b031614156105665760405162461bcd60e51b815260206004820152602160248201527f4552433732313a20617070726f76616c20746f2063757272656e74206f776e6560448201527f720000000000000000000000000000000000000000000000000000000000000060648201526084015b60405180910390fd5b336001600160a01b03821614806105a057506001600160a01b0381166000908152600d6020908152604080832033845290915290205460ff165b6106125760405162461bcd60e51b815260206004820152603d60248201527f4552433732313a20617070726f76652063616c6c6572206973206e6f7420746f60448201527f6b656e206f776e6572206f7220617070726f76656420666f7220616c6c000000606482015260840161055d565b61061c8383612491565b505050565b61062c335b826124ff565b61068e5760405162461bcd60e51b815260206004820152602d60248201527f4552433732313a2063616c6c6572206973206e6f7420746f6b656e206f776e6560448201526c1c881bdc88185c1c1c9bdd9959609a1b606482015260840161055d565b61061c83838361257e565b61061c838383604051806020016040528060008152506118bc565b6106bd33610626565b61071f5760405162461bcd60e51b815260206004820152602d60248201527f4552433732313a2063616c6c6572206973206e6f7420746f6b656e206f776e6560448201526c1c881bdc88185c1c1c9bdd9959609a1b606482015260840161055d565b61072881612777565b50565b6000610741600f543063b6a9a38a60e01b612780565b8251909150610757906011906020850190613a1d565b5060008260405160200161076b919061431c565b60408051601f19818403018152828201909152600382527f6765740000000000000000000000000000000000000000000000000000000000602083015291506107b690839083612811565b6108356040518060400160405280600481526020017f70617468000000000000000000000000000000000000000000000000000000008152506040518060400160405280600881526020017f68617346696e6573000000000000000000000000000000000000000000000000815250846128119092919063ffffffff16565b6108418260105461282f565b50505050565b6000818152600a60205260408120546001600160a01b03168061040d5760405162461bcd60e51b815260206004820152601860248201527f4552433732313a20696e76616c696420746f6b656e2049440000000000000000604482015260640161055d565b60006001600160a01b03821661092a5760405162461bcd60e51b815260206004820152602960248201527f4552433732313a2061646472657373207a65726f206973206e6f74206120766160448201527f6c6964206f776e65720000000000000000000000000000000000000000000000606482015260840161055d565b506001600160a01b03166000908152600b602052604090205490565b6007546001600160a01b031633146109a05760405162461bcd60e51b815260206004820152601660248201527f4d7573742062652070726f706f736564206f776e657200000000000000000000604482015260640161055d565b600680546001600160a01b0319808216339081179093556007805490911690556040516001600160a01b03909116919082907f8be0079c531659141344cd1fd0a4f28419497f9722a3daafe3b4186f6b6457e090600090a350565b60118054610a08906142e7565b80601f0160208091040260200160405190810160405280929190818152602001828054610a34906142e7565b8015610a815780601f10610a5657610100808354040283529160200191610a81565b820191906000526020600020905b815481529060010190602001808311610a6457829003601f168201915b505050505081565b606060098054610422906142e7565b601687604051610aa89190614387565b9081526040519081900360200190205460ff1615610b085760405162461bcd60e51b815260206004820181905260248201527f436172207769746820746869732056494e20616c726561647920657869737473604482015260640161055d565b6000610b1360135490565b610b1e9060016143b9565b60008181526017602052604090205490915060ff1615610ba55760405162461bcd60e51b8152602060048201526024808201527f4361722077697468207468697320746f6b656e496420616c726561647920657860448201527f6973747300000000000000000000000000000000000000000000000000000000606482015260840161055d565b6040518061018001604052808b81526020018a815260200189815260200188815260200187815260200186815260200185815260200160008152602001600067ffffffffffffffff811115610bfc57610bfc613c9b565b604051908082528060200260200182016040528015610c2f57816020015b6060815260200190600190039081610c1a5790505b5081526020016000604051908082528060200260200182016040528015610c6a57816020015b6060815260200190600190039081610c555790505b5081526020808201869052600060409283018190528481526014825291909120825180519192610c9f92849290910190613a1d565b506020828101518051610cb89260018501920190613a1d565b5060408201518051610cd4916002840191602090910190613a1d565b5060608201518051610cf0916003840191602090910190613a1d565b5060808201518051610d0c916004840191602090910190613a1d565b5060a08201518051610d28916005840191602090910190613a1d565b5060c08201518051610d44916006840191602090910190613a1d565b5060e082015160078201556101008201518051610d6b916008840191602090910190613aa1565b506101208201518051610d88916009840191602090910190613aa1565b506101408201518051610da591600a840191602090910190613a1d565b506101609190910151600b909101805460ff19169115159190911790556040518190601590610dd5908b90614387565b90815260405190819003602001902055610df3601380546001019055565b610dfd8b82612850565b610e07818361286a565b6001601689604051610e199190614387565b90815260405160209181900382019020805460ff191692151592909217909155601280546001810182556000919091528951610e7c927fbb8a6a4669ba250d26cd7a459eca9d215f8307e33aebe50379bc5a3617ec3444909201918b0190613a1d565b506000908152601760205260409020805460ff1916600117905550505050505050505050565b610ead33838361294b565b5050565b6000610f1960405180610180016040528060608152602001606081526020016060815260200160608152602001606081526020016060815260200160608152602001600081526020016060815260200160608152602001606081526020016000151581525090565b6060601684604051610f2b9190614387565b9081526040519081900360200190205460ff161515600114610f8f5760405162461bcd60e51b815260206004820181905260248201527f436172207769746820746869732056494e20646f6573206e6f74206578697374604482015260640161055d565b601584604051610f9f9190614387565b90815260200160405180910390205492506000601460008581526020019081526020016000209050604051806101800160405280826000018054610fe2906142e7565b80601f016020809104026020016040519081016040528092919081815260200182805461100e906142e7565b801561105b5780601f106110305761010080835404028352916020019161105b565b820191906000526020600020905b81548152906001019060200180831161103e57829003601f168201915b50505050508152602001826001018054611074906142e7565b80601f01602080910402602001604051908101604052809291908181526020018280546110a0906142e7565b80156110ed5780601f106110c2576101008083540402835291602001916110ed565b820191906000526020600020905b8154815290600101906020018083116110d057829003601f168201915b50505050508152602001826002018054611106906142e7565b80601f0160208091040260200160405190810160405280929190818152602001828054611132906142e7565b801561117f5780601f106111545761010080835404028352916020019161117f565b820191906000526020600020905b81548152906001019060200180831161116257829003601f168201915b50505050508152602001826003018054611198906142e7565b80601f01602080910402602001604051908101604052809291908181526020018280546111c4906142e7565b80156112115780601f106111e657610100808354040283529160200191611211565b820191906000526020600020905b8154815290600101906020018083116111f457829003601f168201915b5050505050815260200182600401805461122a906142e7565b80601f0160208091040260200160405190810160405280929190818152602001828054611256906142e7565b80156112a35780601f10611278576101008083540402835291602001916112a3565b820191906000526020600020905b81548152906001019060200180831161128657829003601f168201915b505050505081526020018260050180546112bc906142e7565b80601f01602080910402602001604051908101604052809291908181526020018280546112e8906142e7565b80156113355780601f1061130a57610100808354040283529160200191611335565b820191906000526020600020905b81548152906001019060200180831161131857829003601f168201915b5050505050815260200182600601805461134e906142e7565b80601f016020809104026020016040519081016040528092919081815260200182805461137a906142e7565b80156113c75780601f1061139c576101008083540402835291602001916113c7565b820191906000526020600020905b8154815290600101906020018083116113aa57829003601f168201915b505050505081526020018260070154815260200182600801805480602002602001604051908101604052809291908181526020016000905b828210156114ab57838290600052602060002001805461141e906142e7565b80601f016020809104026020016040519081016040528092919081815260200182805461144a906142e7565b80156114975780601f1061146c57610100808354040283529160200191611497565b820191906000526020600020905b81548152906001019060200180831161147a57829003601f168201915b5050505050815260200190600101906113ff565b50505050815260200182600901805480602002602001604051908101604052809291908181526020016000905b828210156115845783829060005260206000200180546114f7906142e7565b80601f0160208091040260200160405190810160405280929190818152602001828054611523906142e7565b80156115705780601f1061154557610100808354040283529160200191611570565b820191906000526020600020905b81548152906001019060200180831161155357829003601f168201915b5050505050815260200190600101906114d8565b50505050815260200182600a01805461159c906142e7565b80601f01602080910402602001604051908101604052809291908181526020018280546115c8906142e7565b80156116155780601f106115ea57610100808354040283529160200191611615565b820191906000526020600020905b8154815290600101906020018083116115f857829003601f168201915b5050509183525050600b83015460ff161515602090910152925061163884612a1a565b93959294505050565b60008281526005602052604090205482906001600160a01b031633146116cf5760405162461bcd60e51b815260206004820152602860248201527f536f75726365206d75737420626520746865206f7261636c65206f662074686560448201527f2072657175657374000000000000000000000000000000000000000000000000606482015260840161055d565b60008181526005602052604080822080546001600160a01b03191690555182917f7cc135e0cebb02c3480ae5d74d377283180a2601f8f644edf7987b009316c63a91a2600060156011604051611725919061446a565b9081526040805160209281900383019020546000818152601490935291209091505b6040805160208101825260009052517fc5d2460186f7233c927e7db2dcc703c0e500b653ca82273b7bfad8045d85a470906117849060119061446a565b6040518091039020146118b55760408051808201909152600481527f74727565000000000000000000000000000000000000000000000000000000006020918201528451908501207f6273151f959616268004b58dbb21e5c851b7b8d04498b4aabee12291d22fc034141561182257600b8101805460ff1916600117905560408051602081019182905260009081905261182091601191613a1d565b505b60408051808201909152600581527f66616c73650000000000000000000000000000000000000000000000000000006020918201528451908501207fba9154e0baa69c78e0ca563b867df81bae9d177c4ea1452c35c84386a70f0f7a14156118b057600b8101805460ff191690556040805160208101918290526000908190526118ae91601191613a1d565b505b611747565b5050505050565b6118c633836124ff565b6119285760405162461bcd60e51b815260206004820152602d60248201527f4552433732313a2063616c6c6572206973206e6f7420746f6b656e206f776e6560448201526c1c881bdc88185c1c1c9bdd9959609a1b606482015260840161055d565b61084184848484612b23565b6016866040516119449190614387565b9081526040519081900360200190205460ff1615156001146119a85760405162461bcd60e51b815260206004820181905260248201527f436172207769746820746869732056494e20646f6573206e6f74206578697374604482015260640161055d565b60006015876040516119ba9190614387565b9081526020016040518091039020549050600060146000838152602001908152602001600020905086816007015410611a5b5760405162461bcd60e51b815260206004820152603860248201527f4e6577206d696c656167652076616c7565206d7573742062652067726561746560448201527f72207468616e207468652063757272656e742076616c75650000000000000000606482015260840161055d565b60078101879055855115801590611ab857506040805180820190915260098152681d5b9919599a5b995960ba1b6020918201528651908701207f019726c6babc1de231f26fd6cbb2df2c912784a2e1ba55295496269a6d3ff65114155b15611aea5760088101805460018101825560009182526020918290208851611ae893919092019190890190613a1d565b505b60008551118015611b4157506040805180820190915260098152681d5b9919599a5b995960ba1b6020918201528551908601207f019726c6babc1de231f26fd6cbb2df2c912784a2e1ba55295496269a6d3ff65114155b15611b735760098101805460018101825560009182526020918290208751611b7193919092019190880190613a1d565b505b611b7d828561286a565b8251611b9290600a8301906020860190613a1d565b505050505050505050565b601681604051611bad9190614387565b9081526040519081900360200190205460ff161515600114611c115760405162461bcd60e51b815260206004820181905260248201527f436172207769746820746869732056494e20646f6573206e6f74206578697374604482015260640161055d565b6107288161072b565b606061040d82612a1a565b60128181548110611c3557600080fd5b906000526020600020016000915090508054610a08906142e7565b611cb660405180610180016040528060608152602001606081526020016060815260200160608152602001606081526020016060815260200160608152602001600081526020016060815260200160608152602001606081526020016000151581525090565b601682604051611cc69190614387565b9081526040519081900360200190205460ff161515600114611d2a5760405162461bcd60e51b815260206004820181905260248201527f436172207769746820746869732056494e20646f6573206e6f74206578697374604482015260640161055d565b611d338261072b565b6000601583604051611d459190614387565b90815260200160405180910390205490506000601460008381526020019081526020016000209050604051806101800160405280826000018054611d88906142e7565b80601f0160208091040260200160405190810160405280929190818152602001828054611db4906142e7565b8015611e015780601f10611dd657610100808354040283529160200191611e01565b820191906000526020600020905b815481529060010190602001808311611de457829003601f168201915b50505050508152602001826001018054611e1a906142e7565b80601f0160208091040260200160405190810160405280929190818152602001828054611e46906142e7565b8015611e935780601f10611e6857610100808354040283529160200191611e93565b820191906000526020600020905b815481529060010190602001808311611e7657829003601f168201915b50505050508152602001826002018054611eac906142e7565b80601f0160208091040260200160405190810160405280929190818152602001828054611ed8906142e7565b8015611f255780601f10611efa57610100808354040283529160200191611f25565b820191906000526020600020905b815481529060010190602001808311611f0857829003601f168201915b50505050508152602001826003018054611f3e906142e7565b80601f0160208091040260200160405190810160405280929190818152602001828054611f6a906142e7565b8015611fb75780601f10611f8c57610100808354040283529160200191611fb7565b820191906000526020600020905b815481529060010190602001808311611f9a57829003601f168201915b50505050508152602001826004018054611fd0906142e7565b80601f0160208091040260200160405190810160405280929190818152602001828054611ffc906142e7565b80156120495780601f1061201e57610100808354040283529160200191612049565b820191906000526020600020905b81548152906001019060200180831161202c57829003601f168201915b50505050508152602001826005018054612062906142e7565b80601f016020809104026020016040519081016040528092919081815260200182805461208e906142e7565b80156120db5780601f106120b0576101008083540402835291602001916120db565b820191906000526020600020905b8154815290600101906020018083116120be57829003601f168201915b505050505081526020018260060180546120f4906142e7565b80601f0160208091040260200160405190810160405280929190818152602001828054612120906142e7565b801561216d5780601f106121425761010080835404028352916020019161216d565b820191906000526020600020905b81548152906001019060200180831161215057829003601f168201915b505050505081526020018260070154815260200182600801805480602002602001604051908101604052809291908181526020016000905b828210156122515783829060005260206000200180546121c4906142e7565b80601f01602080910402602001604051908101604052809291908181526020018280546121f0906142e7565b801561223d5780601f106122125761010080835404028352916020019161223d565b820191906000526020600020905b81548152906001019060200180831161222057829003601f168201915b5050505050815260200190600101906121a5565b50505050815260200182600901805480602002602001604051908101604052809291908181526020016000905b8282101561232a57838290600052602060002001805461229d906142e7565b80601f01602080910402602001604051908101604052809291908181526020018280546122c9906142e7565b80156123165780601f106122eb57610100808354040283529160200191612316565b820191906000526020600020905b8154815290600101906020018083116122f957829003601f168201915b50505050508152602001906001019061227e565b50505050815260200182600a018054612342906142e7565b80601f016020809104026020016040519081016040528092919081815260200182805461236e906142e7565b80156123bb5780601f10612390576101008083540402835291602001916123bb565b820191906000526020600020905b81548152906001019060200180831161239e57829003601f168201915b5050509183525050600b9092015460ff1615156020909201919091529392505050565b6123e6612ba1565b61072881612bfd565b60006001600160e01b031982167f4906490600000000000000000000000000000000000000000000000000000000148061040d575061040d82612ca8565b6000818152600a60205260409020546001600160a01b03166107285760405162461bcd60e51b815260206004820152601860248201527f4552433732313a20696e76616c696420746f6b656e2049440000000000000000604482015260640161055d565b6000818152600c6020526040902080546001600160a01b0319166001600160a01b03841690811790915581906124c682610847565b6001600160a01b03167f8c5be1e5ebec7d5bd14f71427d1e84f3dd0314c0f7b2291e5b200ac8c7c3b92560405160405180910390a45050565b60008061250b83610847565b9050806001600160a01b0316846001600160a01b0316148061255257506001600160a01b038082166000908152600d602090815260408083209388168352929052205460ff165b806125765750836001600160a01b031661256b846104a5565b6001600160a01b0316145b949350505050565b826001600160a01b031661259182610847565b6001600160a01b0316146125f55760405162461bcd60e51b815260206004820152602560248201527f4552433732313a207472616e736665722066726f6d20696e636f72726563742060448201526437bbb732b960d91b606482015260840161055d565b6001600160a01b0382166126705760405162461bcd60e51b8152602060048201526024808201527f4552433732313a207472616e7366657220746f20746865207a65726f2061646460448201527f7265737300000000000000000000000000000000000000000000000000000000606482015260840161055d565b826001600160a01b031661268382610847565b6001600160a01b0316146126e75760405162461bcd60e51b815260206004820152602560248201527f4552433732313a207472616e736665722066726f6d20696e636f72726563742060448201526437bbb732b960d91b606482015260840161055d565b6000818152600c6020908152604080832080546001600160a01b03199081169091556001600160a01b03878116808652600b8552838620805460001901905590871680865283862080546001019055868652600a90945282852080549092168417909155905184937fddf252ad1be2c89b69c2b068fc378daa952ba7f163c4a11628f55a4df523b3ef91a4505050565b61072881612d43565b6127be6040805160a0810182526000808252602080830182905282840182905260608084018390528451808601909552845283015290608082015290565b6127fc6040805160a0810182526000808252602080830182905282840182905260608084018390528451808601909552845283015290608082015290565b61280881868686612d83565b95945050505050565b60808301516128209083612df6565b608083015161061c9082612df6565b600354600090612849906001600160a01b03168484612e0d565b9392505050565b610ead828260405180602001604052806000815250612ece565b6000828152600a60205260409020546001600160a01b03166128f45760405162461bcd60e51b815260206004820152602e60248201527f45524337323155524953746f726167653a2055524920736574206f66206e6f6e60448201527f6578697374656e7420746f6b656e000000000000000000000000000000000000606482015260840161055d565b6000828152600e60209081526040909120825161291392840190613a1d565b506040518281527ff8e1a15aba9398e019f0b49df1a4fde98ee17ae345cb5f6b5e2c27f5033e8ce79060200160405180910390a15050565b816001600160a01b0316836001600160a01b031614156129ad5760405162461bcd60e51b815260206004820152601960248201527f4552433732313a20617070726f766520746f2063616c6c657200000000000000604482015260640161055d565b6001600160a01b038381166000818152600d6020908152604080832094871680845294825291829020805460ff191686151590811790915591519182527f17307eab39ab6107e8899845ad3d59bd9653f200f220920489ca2b5937696c31910160405180910390a3505050565b6060612a258261242d565b6000828152600e602052604081208054612a3e906142e7565b80601f0160208091040260200160405190810160405280929190818152602001828054612a6a906142e7565b8015612ab75780601f10612a8c57610100808354040283529160200191612ab7565b820191906000526020600020905b815481529060010190602001808311612a9a57829003601f168201915b505050505090506000612ad560408051602081019091526000815290565b9050805160001415612ae8575092915050565b815115612b1a578082604051602001612b02929190614476565b60405160208183030381529060405292505050919050565b61257684612f4c565b612b2e84848461257e565b612b3a84848484612fbf565b6108415760405162461bcd60e51b815260206004820152603260248201527f4552433732313a207472616e7366657220746f206e6f6e20455243373231526560448201527131b2b4bb32b91034b6b83632b6b2b73a32b960711b606482015260840161055d565b6006546001600160a01b03163314612bfb5760405162461bcd60e51b815260206004820152601660248201527f4f6e6c792063616c6c61626c65206279206f776e657200000000000000000000604482015260640161055d565b565b6001600160a01b038116331415612c565760405162461bcd60e51b815260206004820152601760248201527f43616e6e6f74207472616e7366657220746f2073656c66000000000000000000604482015260640161055d565b600780546001600160a01b0319166001600160a01b03838116918217909255600654604051919216907fed8889f560326eb138920d842192f0eb3dd22b4f139c87a2c57538e05bae127890600090a350565b60006001600160e01b031982167f80ac58cd000000000000000000000000000000000000000000000000000000001480612d0b57506001600160e01b031982167f5b5e139f00000000000000000000000000000000000000000000000000000000145b8061040d57507f01ffc9a7000000000000000000000000000000000000000000000000000000006001600160e01b031983161461040d565b612d4c81613105565b6000818152600e602052604090208054612d65906142e7565b159050610728576000818152600e6020526040812061072891613afa565b612dc16040805160a0810182526000808252602080830182905282840182905260608084018390528451808601909552845283015290608082015290565b612dd1856080015161010061319a565b50509183526001600160a01b031660208301526001600160e01b031916604082015290565b612e0382600383516131ff565b61061c828261330e565b600454600090612e1e8160016143b9565b600455835160408086015160808701515191516000937f404299460000000000000000000000000000000000000000000000000000000093612e6f9386938493923092918a916001916024016144a5565b60408051601f198184030181529190526020810180517bffffffffffffffffffffffffffffffffffffffffffffffffffffffff166001600160e01b0319909316929092179091529050612ec486838684613335565b9695505050505050565b612ed883836134c6565b612ee56000848484612fbf565b61061c5760405162461bcd60e51b815260206004820152603260248201527f4552433732313a207472616e7366657220746f206e6f6e20455243373231526560448201527131b2b4bb32b91034b6b83632b6b2b73a32b960711b606482015260840161055d565b6060612f578261242d565b6000612f6e60408051602081019091526000815290565b90506000815111612f8e5760405180602001604052806000815250612849565b80612f9884613651565b604051602001612fa9929190614476565b6040516020818303038152906040529392505050565b60006001600160a01b0384163b156130fd57604051630a85bd0160e11b81526001600160a01b0385169063150b7a0290613003903390899088908890600401614509565b6020604051808303816000875af192505050801561303e575060408051601f3d908101601f1916820190925261303b9181019061453b565b60015b6130e3573d80801561306c576040519150601f19603f3d011682016040523d82523d6000602084013e613071565b606091505b5080516130db5760405162461bcd60e51b815260206004820152603260248201527f4552433732313a207472616e7366657220746f206e6f6e20455243373231526560448201527131b2b4bb32b91034b6b83632b6b2b73a32b960711b606482015260840161055d565b805181602001fd5b6001600160e01b031916630a85bd0160e11b149050612576565b506001612576565b600061311082610847565b905061311b82610847565b6000838152600c6020908152604080832080546001600160a01b03199081169091556001600160a01b038516808552600b84528285208054600019019055878552600a909352818420805490911690555192935084927fddf252ad1be2c89b69c2b068fc378daa952ba7f163c4a11628f55a4df523b3ef908390a45050565b6040805180820190915260608152600060208201526131ba602083614558565b156131e2576131ca602083614558565b6131d590602061457a565b6131df90836143b9565b91505b506020828101829052604080518085526000815290920101905290565b60178167ffffffffffffffff1611613224576108418360e0600585901b1683176136fb565b60ff8167ffffffffffffffff16116132625761324b836018611fe0600586901b16176136fb565b506108418367ffffffffffffffff83166001613720565b61ffff8167ffffffffffffffff16116132a15761328a836019611fe0600586901b16176136fb565b506108418367ffffffffffffffff83166002613720565b63ffffffff8167ffffffffffffffff16116132e2576132cb83601a611fe0600586901b16176136fb565b506108418367ffffffffffffffff83166004613720565b6132f783601b611fe0600586901b16176136fb565b506108418367ffffffffffffffff83166008613720565b60408051808201909152606081526000602082015261284983846000015151848551613746565b6040516bffffffffffffffffffffffff193060601b1660208201526034810184905260009060540160408051808303601f1901815282825280516020918201206000818152600590925291812080546001600160a01b0319166001600160a01b038a1617905590925082917fb5e6e01e79f91267dc17b4e6314d5d4d03593d2ceee0fbb452b750bd70ea5af99190a26002546040517f4000aea00000000000000000000000000000000000000000000000000000000081526001600160a01b0390911690634000aea09061341190889087908790600401614591565b6020604051808303816000875af1158015613430573d6000803e3d6000fd5b505050506040513d601f19601f8201168201806040525081019061345491906145b9565b6125765760405162461bcd60e51b815260206004820152602360248201527f756e61626c6520746f207472616e73666572416e6443616c6c20746f206f726160448201527f636c650000000000000000000000000000000000000000000000000000000000606482015260840161055d565b6001600160a01b03821661351c5760405162461bcd60e51b815260206004820181905260248201527f4552433732313a206d696e7420746f20746865207a65726f2061646472657373604482015260640161055d565b6000818152600a60205260409020546001600160a01b0316156135815760405162461bcd60e51b815260206004820152601c60248201527f4552433732313a20746f6b656e20616c7265616479206d696e74656400000000604482015260640161055d565b6000818152600a60205260409020546001600160a01b0316156135e65760405162461bcd60e51b815260206004820152601c60248201527f4552433732313a20746f6b656e20616c7265616479206d696e74656400000000604482015260640161055d565b6001600160a01b0382166000818152600b6020908152604080832080546001019055848352600a90915280822080546001600160a01b0319168417905551839291907fddf252ad1be2c89b69c2b068fc378daa952ba7f163c4a11628f55a4df523b3ef908290a45050565b6060600061365e83613830565b600101905060008167ffffffffffffffff81111561367e5761367e613c9b565b6040519080825280601f01601f1916602001820160405280156136a8576020820181803683370190505b5090508181016020015b600019017f3031323334353637383961626364656600000000000000000000000000000000600a86061a8153600a85049450846136ee576136f3565b6136b2565b509392505050565b6040805180820190915260608152600060208201526128498384600001515184613912565b60408051808201909152606081526000602082015261257684856000015151858561396e565b604080518082019091526060815260006020820152825182111561376957600080fd5b602085015161377883866143b9565b11156137ab576137ab8561379b8760200151878661379691906143b9565b6139ef565b6137a69060026145d6565b613a06565b6000808651805187602083010193508088870111156137ca5787860182525b505050602084015b6020841061380a57805182526137e96020836143b9565b91506137f66020826143b9565b905061380360208561457a565b93506137d2565b51815160001960208690036101000a019081169019919091161790525083949350505050565b6000807a184f03e93ff9f4daa797ed6e38ed64bf6a1f0100000000000000008310613879577a184f03e93ff9f4daa797ed6e38ed64bf6a1f010000000000000000830492506040015b6d04ee2d6d415b85acef810000000083106138a5576d04ee2d6d415b85acef8100000000830492506020015b662386f26fc1000083106138c357662386f26fc10000830492506010015b6305f5e10083106138db576305f5e100830492506008015b61271083106138ef57612710830492506004015b60648310613901576064830492506002015b600a831061040d5760010192915050565b604080518082019091526060815260006020820152836020015183106139475761394784856020015160026137a691906145d6565b835180516020858301018481535080851415613964576001810182525b5093949350505050565b604080518082019091526060815260006020820152602085015161399285846143b9565b11156139a6576139a68561379b86856143b9565b600060016139b6846101006146d9565b6139c0919061457a565b90508551838682010185831982511617815250805184870111156139e45783860181525b509495945050505050565b600081831115613a0057508161040d565b50919050565b8151613a12838361319a565b50610841838261330e565b828054613a29906142e7565b90600052602060002090601f016020900481019282613a4b5760008555613a91565b82601f10613a6457805160ff1916838001178555613a91565b82800160010185558215613a91579182015b82811115613a91578251825591602001919060010190613a76565b50613a9d929150613b30565b5090565b828054828255906000526020600020908101928215613aee579160200282015b82811115613aee5782518051613ade918491602090910190613a1d565b5091602001919060010190613ac1565b50613a9d929150613b45565b508054613b06906142e7565b6000825580601f10613b16575050565b601f01602090049060005260206000209081019061072891905b5b80821115613a9d5760008155600101613b31565b80821115613a9d576000613b598282613afa565b50600101613b45565b6001600160e01b03198116811461072857600080fd5b600060208284031215613b8a57600080fd5b813561284981613b62565b60005b83811015613bb0578181015183820152602001613b98565b838111156108415750506000910152565b60008151808452613bd9816020860160208601613b95565b601f01601f19169290920160200192915050565b6020815260006128496020830184613bc1565b600060208284031215613c1257600080fd5b5035919050565b80356001600160a01b0381168114613c3057600080fd5b919050565b60008060408385031215613c4857600080fd5b613c5183613c19565b946020939093013593505050565b600080600060608486031215613c7457600080fd5b613c7d84613c19565b9250613c8b60208501613c19565b9150604084013590509250925092565b634e487b7160e01b600052604160045260246000fd5b600067ffffffffffffffff80841115613ccc57613ccc613c9b565b604051601f8501601f19908116603f01168101908282118183101715613cf457613cf4613c9b565b81604052809350858152868686011115613d0d57600080fd5b858560208301376000602087830101525050509392505050565b600082601f830112613d3857600080fd5b61284983833560208501613cb1565b600060208284031215613d5957600080fd5b813567ffffffffffffffff811115613d7057600080fd5b61257684828501613d27565b600060208284031215613d8e57600080fd5b61284982613c19565b6000806000806000806000806000806101408b8d031215613db757600080fd5b613dc08b613c19565b995060208b013567ffffffffffffffff80821115613ddd57600080fd5b613de98e838f01613d27565b9a5060408d0135915080821115613dff57600080fd5b613e0b8e838f01613d27565b995060608d0135915080821115613e2157600080fd5b613e2d8e838f01613d27565b985060808d0135915080821115613e4357600080fd5b613e4f8e838f01613d27565b975060a08d0135915080821115613e6557600080fd5b613e718e838f01613d27565b965060c08d0135915080821115613e8757600080fd5b613e938e838f01613d27565b955060e08d0135915080821115613ea957600080fd5b613eb58e838f01613d27565b94506101008d0135915080821115613ecc57600080fd5b613ed88e838f01613d27565b93506101208d0135915080821115613eef57600080fd5b50613efc8d828e01613d27565b9150509295989b9194979a5092959850565b801515811461072857600080fd5b60008060408385031215613f2f57600080fd5b613f3883613c19565b91506020830135613f4881613f0e565b809150509250929050565b600081518084526020808501808196508360051b8101915082860160005b85811015613f9b578284038952613f89848351613bc1565b98850198935090840190600101613f71565b5091979650505050505050565b60006101808251818552613fbe82860182613bc1565b91505060208301518482036020860152613fd88282613bc1565b91505060408301518482036040860152613ff28282613bc1565b9150506060830151848203606086015261400c8282613bc1565b915050608083015184820360808601526140268282613bc1565b91505060a083015184820360a08601526140408282613bc1565b91505060c083015184820360c086015261405a8282613bc1565b91505060e083015160e0850152610100808401518583038287015261407f8382613f53565b92505050610120808401518583038287015261409b8382613f53565b9250505061014080840151858303828701526140b78382613bc1565b92505050610160808401516140cf8287018215159052565b5090949350505050565b8381526060602082015260006140f26060830185613fa8565b8281036040840152612ec48185613bc1565b6000806040838503121561411757600080fd5b82359150602083013567ffffffffffffffff81111561413557600080fd5b61414185828601613d27565b9150509250929050565b6000806000806080858703121561416157600080fd5b61416a85613c19565b935061417860208601613c19565b925060408501359150606085013567ffffffffffffffff81111561419b57600080fd5b8501601f810187136141ac57600080fd5b6141bb87823560208401613cb1565b91505092959194509250565b60008060008060008060c087890312156141e057600080fd5b863567ffffffffffffffff808211156141f857600080fd5b6142048a838b01613d27565b975060208901359650604089013591508082111561422157600080fd5b61422d8a838b01613d27565b9550606089013591508082111561424357600080fd5b61424f8a838b01613d27565b9450608089013591508082111561426557600080fd5b6142718a838b01613d27565b935060a089013591508082111561428757600080fd5b5061429489828a01613d27565b9150509295509295509295565b6020815260006128496020830184613fa8565b600080604083850312156142c757600080fd5b6142d083613c19565b91506142de60208401613c19565b90509250929050565b600181811c908216806142fb57607f821691505b60208210811415613a0057634e487b7160e01b600052602260045260246000fd5b7f68747470733a2f2f66696e65732d6170692e6f6e72656e6465722e636f6d2f6381527f6172732f66696e65732f0000000000000000000000000000000000000000000060208201526000825161437a81602a850160208701613b95565b91909101602a0192915050565b60008251614399818460208701613b95565b9190910192915050565b634e487b7160e01b600052601160045260246000fd5b600082198211156143cc576143cc6143a3565b500190565b8054600090600181811c90808316806143eb57607f831692505b602080841082141561440d57634e487b7160e01b600052602260045260246000fd5b81801561442157600181146144325761445e565b60ff1986168952848901965061445e565b876000528160002060005b868110156144565781548b82015290850190830161443d565b505084890196505b50505050505092915050565b600061284982846143d1565b60008351614488818460208801613b95565b83519083019061449c818360208801613b95565b01949350505050565b60006101006001600160a01b03808c1684528a60208501528960408501528089166060850152506001600160e01b0319871660808401528560a08401528460c08401528060e08401526144fa81840185613bc1565b9b9a5050505050505050505050565b60006001600160a01b03808716835280861660208401525083604083015260806060830152612ec46080830184613bc1565b60006020828403121561454d57600080fd5b815161284981613b62565b60008261457557634e487b7160e01b600052601260045260246000fd5b500690565b60008282101561458c5761458c6143a3565b500390565b6001600160a01b03841681528260208201526060604082015260006128086060830184613bc1565b6000602082840312156145cb57600080fd5b815161284981613f0e565b60008160001904831182151516156145f0576145f06143a3565b500290565b600181815b80851115614630578160001904821115614616576146166143a3565b8085161561462357918102915b93841c93908002906145fa565b509250929050565b6000826146475750600161040d565b816146545750600061040d565b816001811461466a576002811461467457614690565b600191505061040d565b60ff841115614685576146856143a3565b50506001821b61040d565b5060208310610133831016604e8410600b84101617156146b3575081810a61040d565b6146bd83836145f5565b80600019048211156146d1576146d16143a3565b029392505050565b6000612849838361463856fea2646970667358221220873f5ae33975fa2ae95307a7560931bd2a2b8469ce2b18b1e37f84f5403844ea64736f6c634300080b0033",
  "linkReferences": {},
  "deployedLinkReferences": {}
}