{
  "_format": "hh-sol-artifact-1",
  "contractName": "AutoPassport",
  "sourceName": "contracts/AutoPassport.sol",
  "abi": [
    {
      "inputs": [],
      "stateMutability": "nonpayable",
      "type": "constructor"
    },
    {
      "anonymous": false,
      "inputs": [
        {
          "indexed": true,
          "internalType": "address",
          "name": "owner",
          "type": "address"
        },
        {
          "indexed": true,
          "internalType": "address",
          "name": "approved",
          "type": "address"
        },
        {
          "indexed": true,
          "internalType": "uint256",
          "name": "tokenId",
          "type": "uint256"
        }
      ],
      "name": "Approval",
      "type": "event"
    },
    {
      "anonymous": false,
      "inputs": [
        {
          "indexed": true,
          "internalType": "address",
          "name": "owner",
          "type": "address"
        },
        {
          "indexed": true,
          "internalType": "address",
          "name": "operator",
          "type": "address"
        },
        {
          "indexed": false,
          "internalType": "bool",
          "name": "approved",
          "type": "bool"
        }
      ],
      "name": "ApprovalForAll",
      "type": "event"
    },
    {
      "anonymous": false,
      "inputs": [
        {
          "indexed": true,
          "internalType": "address",
          "name": "from",
          "type": "address"
        },
        {
          "indexed": true,
          "internalType": "uint256",
          "name": "tokenId",
          "type": "uint256"
        },
        {
          "indexed": false,
          "internalType": "string",
          "name": "vin",
          "type": "string"
        }
      ],
      "name": "Creation",
      "type": "event"
    },
    {
      "anonymous": false,
      "inputs": [
        {
          "indexed": true,
          "internalType": "string",
          "name": "vin",
          "type": "string"
        },
        {
          "indexed": false,
          "internalType": "string",
          "name": "maintenance_history",
          "type": "string"
        }
      ],
      "name": "MaintenanceAdded",
      "type": "event"
    },
    {
      "anonymous": false,
      "inputs": [
        {
          "indexed": true,
          "internalType": "address",
          "name": "previousOwner",
          "type": "address"
        },
        {
          "indexed": true,
          "internalType": "address",
          "name": "newOwner",
          "type": "address"
        }
      ],
      "name": "OwnershipTransferred",
      "type": "event"
    },
    {
      "anonymous": false,
      "inputs": [
        {
          "indexed": true,
          "internalType": "string",
          "name": "vin",
          "type": "string"
        },
        {
          "indexed": false,
          "internalType": "string",
          "name": "repair_history",
          "type": "string"
        }
      ],
      "name": "RepairAdded",
      "type": "event"
    },
    {
      "anonymous": false,
      "inputs": [
        {
          "indexed": true,
          "internalType": "address",
          "name": "from",
          "type": "address"
        },
        {
          "indexed": true,
          "internalType": "address",
          "name": "to",
          "type": "address"
        },
        {
          "indexed": true,
          "internalType": "uint256",
          "name": "tokenId",
          "type": "uint256"
        }
      ],
      "name": "Transfer",
      "type": "event"
    },
    {
      "inputs": [
        {
          "internalType": "string",
          "name": "vin",
          "type": "string"
        },
        {
          "internalType": "string",
          "name": "newMaintenance",
          "type": "string"
        }
      ],
      "name": "addMaintenance",
      "outputs": [],
      "stateMutability": "nonpayable",
      "type": "function"
    },
    {
      "inputs": [
        {
          "internalType": "string",
          "name": "vin",
          "type": "string"
        },
        {
          "internalType": "string",
          "name": "newRepair",
          "type": "string"
        }
      ],
      "name": "addRepair",
      "outputs": [],
      "stateMutability": "nonpayable",
      "type": "function"
    },
    {
      "inputs": [
        {
          "internalType": "address",
          "name": "to",
          "type": "address"
        },
        {
          "internalType": "uint256",
          "name": "tokenId",
          "type": "uint256"
        }
      ],
      "name": "approve",
      "outputs": [],
      "stateMutability": "nonpayable",
      "type": "function"
    },
    {
      "inputs": [
        {
          "internalType": "address",
          "name": "owner",
          "type": "address"
        }
      ],
      "name": "balanceOf",
      "outputs": [
        {
          "internalType": "uint256",
          "name": "",
          "type": "uint256"
        }
      ],
      "stateMutability": "view",
      "type": "function"
    },
    {
      "inputs": [
        {
          "internalType": "uint256",
          "name": "tokenId",
          "type": "uint256"
        }
      ],
      "name": "burn",
      "outputs": [],
      "stateMutability": "nonpayable",
      "type": "function"
    },
    {
      "inputs": [
        {
          "internalType": "address",
          "name": "to",
          "type": "address"
        },
        {
          "internalType": "string",
          "name": "brand",
          "type": "string"
        },
        {
          "internalType": "string",
          "name": "model",
          "type": "string"
        },
        {
          "internalType": "string",
          "name": "vin",
          "type": "string"
        },
        {
          "internalType": "string",
          "name": "color_code",
          "type": "string"
        },
        {
          "internalType": "string",
          "name": "date_of_manufacture",
          "type": "string"
        },
        {
          "internalType": "string",
          "name": "warranty_expiration_date",
          "type": "string"
        },
        {
          "internalType": "string",
          "name": "fuel_type",
          "type": "string"
        },
        {
          "internalType": "string",
          "name": "last_update",
          "type": "string"
        },
        {
          "internalType": "string",
          "name": "uriIpfsUrl",
          "type": "string"
        }
      ],
      "name": "createAutoPassport",
      "outputs": [],
      "stateMutability": "nonpayable",
      "type": "function"
    },
    {
      "inputs": [
        {
          "internalType": "uint256",
          "name": "tokenId",
          "type": "uint256"
        }
      ],
      "name": "getApproved",
      "outputs": [
        {
          "internalType": "address",
          "name": "",
          "type": "address"
        }
      ],
      "stateMutability": "view",
      "type": "function"
    },
    {
      "inputs": [
        {
          "internalType": "uint256",
          "name": "tokenId",
          "type": "uint256"
        }
      ],
      "name": "getCarByTokenId",
      "outputs": [
        {
          "internalType": "string",
          "name": "brand",
          "type": "string"
        },
        {
          "internalType": "string",
          "name": "model",
          "type": "string"
        },
        {
          "internalType": "string",
          "name": "vin",
          "type": "string"
        },
        {
          "internalType": "string",
          "name": "color_code",
          "type": "string"
        },
        {
          "internalType": "string",
          "name": "date_of_manufacture",
          "type": "string"
        },
        {
          "internalType": "string",
          "name": "warranty_expiration_date",
          "type": "string"
        },
        {
          "internalType": "string",
          "name": "fuel_type",
          "type": "string"
        },
        {
          "internalType": "uint256",
          "name": "mileage",
          "type": "uint256"
        },
        {
          "internalType": "string[]",
          "name": "repair_history",
          "type": "string[]"
        },
        {
          "internalType": "string[]",
          "name": "maintenance_history",
          "type": "string[]"
        },
        {
          "internalType": "string",
          "name": "last_update",
          "type": "string"
        }
      ],
      "stateMutability": "view",
      "type": "function"
    },
    {
      "inputs": [
        {
          "internalType": "string",
          "name": "vin",
          "type": "string"
        }
      ],
      "name": "getCarByVIN",
      "outputs": [
        {
          "internalType": "uint256",
          "name": "tokenId",
          "type": "uint256"
        },
        {
          "internalType": "string",
          "name": "brand",
          "type": "string"
        },
        {
          "internalType": "string",
          "name": "model",
          "type": "string"
        },
        {
          "internalType": "string",
          "name": "color_code",
          "type": "string"
        },
        {
          "internalType": "string",
          "name": "date_of_manufacture",
          "type": "string"
        },
        {
          "internalType": "string",
          "name": "warranty_expiration_date",
          "type": "string"
        },
        {
          "internalType": "string",
          "name": "fuel_type",
          "type": "string"
        },
        {
          "internalType": "uint256",
          "name": "mileage",
          "type": "uint256"
        },
        {
          "internalType": "string[]",
          "name": "repair_history",
          "type": "string[]"
        },
        {
          "internalType": "string[]",
          "name": "maintenance_history",
          "type": "string[]"
        },
        {
          "internalType": "string",
          "name": "last_update",
          "type": "string"
        }
      ],
      "stateMutability": "view",
      "type": "function"
    },
    {
      "inputs": [
        {
          "internalType": "address",
          "name": "owner",
          "type": "address"
        },
        {
          "internalType": "address",
          "name": "operator",
          "type": "address"
        }
      ],
      "name": "isApprovedForAll",
      "outputs": [
        {
          "internalType": "bool",
          "name": "",
          "type": "bool"
        }
      ],
      "stateMutability": "view",
      "type": "function"
    },
    {
      "inputs": [],
      "name": "name",
      "outputs": [
        {
          "internalType": "string",
          "name": "",
          "type": "string"
        }
      ],
      "stateMutability": "view",
      "type": "function"
    },
    {
      "inputs": [],
      "name": "owner",
      "outputs": [
        {
          "internalType": "address",
          "name": "",
          "type": "address"
        }
      ],
      "stateMutability": "view",
      "type": "function"
    },
    {
      "inputs": [
        {
          "internalType": "uint256",
          "name": "tokenId",
          "type": "uint256"
        }
      ],
      "name": "ownerOf",
      "outputs": [
        {
          "internalType": "address",
          "name": "",
          "type": "address"
        }
      ],
      "stateMutability": "view",
      "type": "function"
    },
    {
      "inputs": [],
      "name": "renounceOwnership",
      "outputs": [],
      "stateMutability": "nonpayable",
      "type": "function"
    },
    {
      "inputs": [
        {
          "internalType": "address",
          "name": "from",
          "type": "address"
        },
        {
          "internalType": "address",
          "name": "to",
          "type": "address"
        },
        {
          "internalType": "uint256",
          "name": "tokenId",
          "type": "uint256"
        }
      ],
      "name": "safeTransferFrom",
      "outputs": [],
      "stateMutability": "nonpayable",
      "type": "function"
    },
    {
      "inputs": [
        {
          "internalType": "address",
          "name": "from",
          "type": "address"
        },
        {
          "internalType": "address",
          "name": "to",
          "type": "address"
        },
        {
          "internalType": "uint256",
          "name": "tokenId",
          "type": "uint256"
        },
        {
          "internalType": "bytes",
          "name": "data",
          "type": "bytes"
        }
      ],
      "name": "safeTransferFrom",
      "outputs": [],
      "stateMutability": "nonpayable",
      "type": "function"
    },
    {
      "inputs": [
        {
          "internalType": "address",
          "name": "operator",
          "type": "address"
        },
        {
          "internalType": "bool",
          "name": "approved",
          "type": "bool"
        }
      ],
      "name": "setApprovalForAll",
      "outputs": [],
      "stateMutability": "nonpayable",
      "type": "function"
    },
    {
      "inputs": [
        {
          "internalType": "bytes4",
          "name": "interfaceId",
          "type": "bytes4"
        }
      ],
      "name": "supportsInterface",
      "outputs": [
        {
          "internalType": "bool",
          "name": "",
          "type": "bool"
        }
      ],
      "stateMutability": "view",
      "type": "function"
    },
    {
      "inputs": [],
      "name": "symbol",
      "outputs": [
        {
          "internalType": "string",
          "name": "",
          "type": "string"
        }
      ],
      "stateMutability": "view",
      "type": "function"
    },
    {
      "inputs": [
        {
          "internalType": "uint256",
          "name": "tokenId",
          "type": "uint256"
        }
      ],
      "name": "tokenURI",
      "outputs": [
        {
          "internalType": "string",
          "name": "",
          "type": "string"
        }
      ],
      "stateMutability": "view",
      "type": "function"
    },
    {
      "inputs": [
        {
          "internalType": "address",
          "name": "from",
          "type": "address"
        },
        {
          "internalType": "address",
          "name": "to",
          "type": "address"
        },
        {
          "internalType": "uint256",
          "name": "tokenId",
          "type": "uint256"
        }
      ],
      "name": "transferFrom",
      "outputs": [],
      "stateMutability": "nonpayable",
      "type": "function"
    },
    {
      "inputs": [
        {
          "internalType": "address",
          "name": "newOwner",
          "type": "address"
        }
      ],
      "name": "transferOwnership",
      "outputs": [],
      "stateMutability": "nonpayable",
      "type": "function"
    },
    {
      "inputs": [
        {
          "internalType": "string",
          "name": "vin",
          "type": "string"
        },
        {
          "internalType": "uint256",
          "name": "mileage",
          "type": "uint256"
        }
      ],
      "name": "updateMileage",
      "outputs": [],
      "stateMutability": "nonpayable",
      "type": "function"
    },
    {
      "inputs": [
        {
          "internalType": "uint256",
          "name": "tokenId",
          "type": "uint256"
        },
        {
          "internalType": "string",
          "name": "newURI",
          "type": "string"
        }
      ],
      "name": "updateTokenURI",
      "outputs": [],
      "stateMutability": "nonpayable",
      "type": "function"
    }
  ],
  "bytecode": "0x60806040523480156200001157600080fd5b506040518060400160405280600c81526020017f4175746f70617373706f727400000000000000000000000000000000000000008152506040518060400160405280600481526020017f5061737300000000000000000000000000000000000000000000000000000000815250816000908051906020019062000096929190620001a6565b508060019080519060200190620000af929190620001a6565b505050620000d2620000c6620000d860201b60201c565b620000e060201b60201c565b620002bb565b600033905090565b6000600660009054906101000a900473ffffffffffffffffffffffffffffffffffffffff16905081600660006101000a81548173ffffffffffffffffffffffffffffffffffffffff021916908373ffffffffffffffffffffffffffffffffffffffff1602179055508173ffffffffffffffffffffffffffffffffffffffff168173ffffffffffffffffffffffffffffffffffffffff167f8be0079c531659141344cd1fd0a4f28419497f9722a3daafe3b4186f6b6457e060405160405180910390a35050565b828054620001b49062000285565b90600052602060002090601f016020900481019282620001d8576000855562000224565b82601f10620001f357805160ff191683800117855562000224565b8280016001018555821562000224579182015b828111156200022357825182559160200191906001019062000206565b5b50905062000233919062000237565b5090565b5b808211156200025257600081600090555060010162000238565b5090565b7f4e487b7100000000000000000000000000000000000000000000000000000000600052602260045260246000fd5b600060028204905060018216806200029e57607f821691505b60208210811415620002b557620002b462000256565b5b50919050565b614da180620002cb6000396000f3fe608060405234801561001057600080fd5b50600436106101585760003560e01c806376e78ce6116100c3578063b88d4fde1161007c578063b88d4fde146103d5578063c87b56dd146103f1578063ca90229914610421578063e985e9c51461043d578063eb67a4091461046d578063f2fde38b1461048957610158565b806376e78ce6146102ed5780637a5a576d146103275780638da5cb5b1461036157806395d89b411461037f578063973cacb61461039d578063a22cb465146103b957610158565b806323b872dd1161011557806323b872dd1461022f57806342842e0e1461024b57806342966c68146102675780636352211e1461028357806370a08231146102b3578063715018a6146102e357610158565b806301ffc9a71461015d57806306fdde031461018d578063081812fc146101ab578063095ea7b3146101db57806314df99f4146101f757806318e97fd114610213575b600080fd5b6101776004803603810190610172919061345e565b6104a5565b60405161018491906134a6565b60405180910390f35b610195610587565b6040516101a2919061355a565b60405180910390f35b6101c560048036038101906101c091906135b2565b610619565b6040516101d29190613620565b60405180910390f35b6101f560048036038101906101f09190613667565b61065f565b005b610211600480360381019061020c91906137dc565b610777565b005b61022d60048036038101906102289190613854565b610903565b005b610249600480360381019061024491906138b0565b610911565b005b610265600480360381019061026091906138b0565b610971565b005b610281600480360381019061027c91906135b2565b610991565b005b61029d600480360381019061029891906135b2565b6109ed565b6040516102aa9190613620565b60405180910390f35b6102cd60048036038101906102c89190613903565b610a74565b6040516102da919061393f565b60405180910390f35b6102eb610b2c565b005b610307600480360381019061030291906135b2565b610b40565b60405161031e9b9a99989796959493929190613a66565b60405180910390f35b610341600480360381019061033c9190613b57565b6111a4565b6040516103589b9a99989796959493929190613ba0565b60405180910390f35b61036961179a565b6040516103769190613620565b60405180910390f35b6103876117c4565b604051610394919061355a565b60405180910390f35b6103b760048036038101906103b29190613c8a565b611856565b005b6103d360048036038101906103ce9190613e91565b611b9e565b005b6103ef60048036038101906103ea9190613f72565b611bb4565b005b61040b600480360381019061040691906135b2565b611c16565b604051610418919061355a565b60405180910390f35b61043b60048036038101906104369190613ff5565b611c28565b005b61045760048036038101906104529190614051565b611d07565b60405161046491906134a6565b60405180910390f35b610487600480360381019061048291906137dc565b611d9b565b005b6104a3600480360381019061049e9190613903565b611f27565b005b60007f80ac58cd000000000000000000000000000000000000000000000000000000007bffffffffffffffffffffffffffffffffffffffffffffffffffffffff1916827bffffffffffffffffffffffffffffffffffffffffffffffffffffffff1916148061057057507f5b5e139f000000000000000000000000000000000000000000000000000000007bffffffffffffffffffffffffffffffffffffffffffffffffffffffff1916827bffffffffffffffffffffffffffffffffffffffffffffffffffffffff1916145b80610580575061057f82611fab565b5b9050919050565b606060008054610596906140c0565b80601f01602080910402602001604051908101604052809291908181526020018280546105c2906140c0565b801561060f5780601f106105e45761010080835404028352916020019161060f565b820191906000526020600020905b8154815290600101906020018083116105f257829003601f168201915b5050505050905090565b600061062482612015565b6004600083815260200190815260200160002060009054906101000a900473ffffffffffffffffffffffffffffffffffffffff169050919050565b600061066a826109ed565b90508073ffffffffffffffffffffffffffffffffffffffff168373ffffffffffffffffffffffffffffffffffffffff1614156106db576040517f08c379a00000000000000000000000000000000000000000000000000000000081526004016106d290614164565b60405180910390fd5b8073ffffffffffffffffffffffffffffffffffffffff166106fa612060565b73ffffffffffffffffffffffffffffffffffffffff161480610729575061072881610723612060565b611d07565b5b610768576040517f08c379a000000000000000000000000000000000000000000000000000000000815260040161075f906141f6565b60405180910390fd5b6107728383612068565b505050565b6000600a836040516107899190614252565b90815260200160405180910390205490506107a3816109ed565b73ffffffffffffffffffffffffffffffffffffffff166107c1612060565b73ffffffffffffffffffffffffffffffffffffffff1614610817576040517f08c379a000000000000000000000000000000000000000000000000000000000815260040161080e906142db565b60405180910390fd5b60006009600083815260200190815260200160002090506000835111610872576040517f08c379a00000000000000000000000000000000000000000000000000000000081526004016108699061436d565b60405180910390fd5b80600901839080600181540180825580915050600190039060005260206000200160009091909190915090805190602001906108af92919061328b565b50836040516108be9190614252565b60405180910390207f3bebd393edada2bfbebc3ae33569b456ebc89f694d18a8e5ec35c017117c791d846040516108f5919061355a565b60405180910390a250505050565b61090d8282612121565b5050565b61092261091c612060565b82612195565b610961576040517f08c379a0000000000000000000000000000000000000000000000000000000008152600401610958906143ff565b60405180910390fd5b61096c83838361222a565b505050565b61098c83838360405180602001604052806000815250611bb4565b505050565b6109a261099c612060565b82612195565b6109e1576040517f08c379a00000000000000000000000000000000000000000000000000000000081526004016109d8906143ff565b60405180910390fd5b6109ea81612524565b50565b6000806109f983612530565b9050600073ffffffffffffffffffffffffffffffffffffffff168173ffffffffffffffffffffffffffffffffffffffff161415610a6b576040517f08c379a0000000000000000000000000000000000000000000000000000000008152600401610a629061446b565b60405180910390fd5b80915050919050565b60008073ffffffffffffffffffffffffffffffffffffffff168273ffffffffffffffffffffffffffffffffffffffff161415610ae5576040517f08c379a0000000000000000000000000000000000000000000000000000000008152600401610adc906144fd565b60405180910390fd5b600360008373ffffffffffffffffffffffffffffffffffffffff1673ffffffffffffffffffffffffffffffffffffffff168152602001908152602001600020549050919050565b610b3461256d565b610b3e60006125eb565b565b6060806060806060806060600060608060606000600960008e81526020019081526020016000209050806000018054610b78906140c0565b80601f0160208091040260200160405190810160405280929190818152602001828054610ba4906140c0565b8015610bf15780601f10610bc657610100808354040283529160200191610bf1565b820191906000526020600020905b815481529060010190602001808311610bd457829003601f168201915b50505050509b50806001018054610c07906140c0565b80601f0160208091040260200160405190810160405280929190818152602001828054610c33906140c0565b8015610c805780601f10610c5557610100808354040283529160200191610c80565b820191906000526020600020905b815481529060010190602001808311610c6357829003601f168201915b50505050509a50806002018054610c96906140c0565b80601f0160208091040260200160405190810160405280929190818152602001828054610cc2906140c0565b8015610d0f5780601f10610ce457610100808354040283529160200191610d0f565b820191906000526020600020905b815481529060010190602001808311610cf257829003601f168201915b50505050509950806003018054610d25906140c0565b80601f0160208091040260200160405190810160405280929190818152602001828054610d51906140c0565b8015610d9e5780601f10610d7357610100808354040283529160200191610d9e565b820191906000526020600020905b815481529060010190602001808311610d8157829003601f168201915b50505050509850806004018054610db4906140c0565b80601f0160208091040260200160405190810160405280929190818152602001828054610de0906140c0565b8015610e2d5780601f10610e0257610100808354040283529160200191610e2d565b820191906000526020600020905b815481529060010190602001808311610e1057829003601f168201915b50505050509750806005018054610e43906140c0565b80601f0160208091040260200160405190810160405280929190818152602001828054610e6f906140c0565b8015610ebc5780601f10610e9157610100808354040283529160200191610ebc565b820191906000526020600020905b815481529060010190602001808311610e9f57829003601f168201915b50505050509650806006018054610ed2906140c0565b80601f0160208091040260200160405190810160405280929190818152602001828054610efe906140c0565b8015610f4b5780601f10610f2057610100808354040283529160200191610f4b565b820191906000526020600020905b815481529060010190602001808311610f2e57829003601f168201915b505050505095508060070154945080600801805480602002602001604051908101604052809291908181526020016000905b82821015611029578382906000526020600020018054610f9c906140c0565b80601f0160208091040260200160405190810160405280929190818152602001828054610fc8906140c0565b80156110155780601f10610fea57610100808354040283529160200191611015565b820191906000526020600020905b815481529060010190602001808311610ff857829003601f168201915b505050505081526020019060010190610f7d565b50505050935080600901805480602002602001604051908101604052809291908181526020016000905b828210156110ff578382906000526020600020018054611072906140c0565b80601f016020809104026020016040519081016040528092919081815260200182805461109e906140c0565b80156110eb5780601f106110c0576101008083540402835291602001916110eb565b820191906000526020600020905b8154815290600101906020018083116110ce57829003601f168201915b505050505081526020019060010190611053565b50505050925080600a018054611114906140c0565b80601f0160208091040260200160405190810160405280929190818152602001828054611140906140c0565b801561118d5780601f106111625761010080835404028352916020019161118d565b820191906000526020600020905b81548152906001019060200180831161117057829003601f168201915b505050505091505091939597999b90929496989a50565b600060608060608060608060006060806060600a8c6040516111c69190614252565b9081526020016040518091039020549a506000600960008d815260200190815260200160002090508060000180546111fd906140c0565b80601f0160208091040260200160405190810160405280929190818152602001828054611229906140c0565b80156112765780601f1061124b57610100808354040283529160200191611276565b820191906000526020600020905b81548152906001019060200180831161125957829003601f168201915b50505050509a5080600101805461128c906140c0565b80601f01602080910402602001604051908101604052809291908181526020018280546112b8906140c0565b80156113055780601f106112da57610100808354040283529160200191611305565b820191906000526020600020905b8154815290600101906020018083116112e857829003601f168201915b5050505050995080600301805461131b906140c0565b80601f0160208091040260200160405190810160405280929190818152602001828054611347906140c0565b80156113945780601f1061136957610100808354040283529160200191611394565b820191906000526020600020905b81548152906001019060200180831161137757829003601f168201915b505050505098508060040180546113aa906140c0565b80601f01602080910402602001604051908101604052809291908181526020018280546113d6906140c0565b80156114235780601f106113f857610100808354040283529160200191611423565b820191906000526020600020905b81548152906001019060200180831161140657829003601f168201915b50505050509750806005018054611439906140c0565b80601f0160208091040260200160405190810160405280929190818152602001828054611465906140c0565b80156114b25780601f10611487576101008083540402835291602001916114b2565b820191906000526020600020905b81548152906001019060200180831161149557829003601f168201915b505050505096508060060180546114c8906140c0565b80601f01602080910402602001604051908101604052809291908181526020018280546114f4906140c0565b80156115415780601f1061151657610100808354040283529160200191611541565b820191906000526020600020905b81548152906001019060200180831161152457829003601f168201915b505050505095508060070154945080600801805480602002602001604051908101604052809291908181526020016000905b8282101561161f578382906000526020600020018054611592906140c0565b80601f01602080910402602001604051908101604052809291908181526020018280546115be906140c0565b801561160b5780601f106115e05761010080835404028352916020019161160b565b820191906000526020600020905b8154815290600101906020018083116115ee57829003601f168201915b505050505081526020019060010190611573565b50505050935080600901805480602002602001604051908101604052809291908181526020016000905b828210156116f5578382906000526020600020018054611668906140c0565b80601f0160208091040260200160405190810160405280929190818152602001828054611694906140c0565b80156116e15780601f106116b6576101008083540402835291602001916116e1565b820191906000526020600020905b8154815290600101906020018083116116c457829003601f168201915b505050505081526020019060010190611649565b50505050925080600a01805461170a906140c0565b80601f0160208091040260200160405190810160405280929190818152602001828054611736906140c0565b80156117835780601f1061175857610100808354040283529160200191611783565b820191906000526020600020905b81548152906001019060200180831161176657829003601f168201915b505050505091505091939597999b90929496989a50565b6000600660009054906101000a900473ffffffffffffffffffffffffffffffffffffffff16905090565b6060600180546117d3906140c0565b80601f01602080910402602001604051908101604052809291908181526020018280546117ff906140c0565b801561184c5780601f106118215761010080835404028352916020019161184c565b820191906000526020600020905b81548152906001019060200180831161182f57829003601f168201915b5050505050905090565b61185e61256d565b6000600a886040516118709190614252565b908152602001604051809103902054146118bf576040517f08c379a00000000000000000000000000000000000000000000000000000000081526004016118b690614569565b60405180910390fd5b60008a905060006118d060086126b1565b90506040518061016001604052808c81526020018b81526020018a815260200189815260200188815260200187815260200186815260200160008152602001600067ffffffffffffffff81111561192a576119296136b1565b5b60405190808252806020026020018201604052801561195d57816020015b60608152602001906001900390816119485790505b508152602001600067ffffffffffffffff81111561197e5761197d6136b1565b5b6040519080825280602002602001820160405280156119b157816020015b606081526020019060019003908161199c5790505b508152602001858152506009600083815260200190815260200160002060008201518160000190805190602001906119ea92919061328b565b506020820151816001019080519060200190611a0792919061328b565b506040820151816002019080519060200190611a2492919061328b565b506060820151816003019080519060200190611a4192919061328b565b506080820151816004019080519060200190611a5e92919061328b565b5060a0820151816005019080519060200190611a7b92919061328b565b5060c0820151816006019080519060200190611a9892919061328b565b5060e08201518160070155610100820151816008019080519060200190611ac0929190613311565b50610120820151816009019080519060200190611ade929190613311565b5061014082015181600a019080519060200190611afc92919061328b565b5090505080600a8a604051611b119190614252565b908152602001604051809103902081905550611b2d60086126bf565b611b3782826126d5565b611b418184612121565b808c73ffffffffffffffffffffffffffffffffffffffff167fe649b25ea418284e682d98726ce07ccc7a6a926d3cdac495942354deca6627438b604051611b88919061355a565b60405180910390a3505050505050505050505050565b611bb0611ba9612060565b83836126f3565b5050565b611bc5611bbf612060565b83612195565b611c04576040517f08c379a0000000000000000000000000000000000000000000000000000000008152600401611bfb906143ff565b60405180910390fd5b611c1084848484612860565b50505050565b6060611c21826128bc565b9050919050565b6000600a83604051611c3a9190614252565b9081526020016040518091039020549050611c5c611c56612060565b82612195565b611c9b576040517f08c379a0000000000000000000000000000000000000000000000000000000008152600401611c92906145fb565b60405180910390fd5b600060096000838152602001908152602001600020905082816007015410611cf8576040517f08c379a0000000000000000000000000000000000000000000000000000000008152600401611cef9061468d565b60405180910390fd5b82816007018190555050505050565b6000600560008473ffffffffffffffffffffffffffffffffffffffff1673ffffffffffffffffffffffffffffffffffffffff16815260200190815260200160002060008373ffffffffffffffffffffffffffffffffffffffff1673ffffffffffffffffffffffffffffffffffffffff16815260200190815260200160002060009054906101000a900460ff16905092915050565b6000600a83604051611dad9190614252565b9081526020016040518091039020549050611dc7816109ed565b73ffffffffffffffffffffffffffffffffffffffff16611de5612060565b73ffffffffffffffffffffffffffffffffffffffff1614611e3b576040517f08c379a0000000000000000000000000000000000000000000000000000000008152600401611e32906146f9565b60405180910390fd5b60006009600083815260200190815260200160002090508060080183908060018154018082558091505060019003906000526020600020016000909190919091509080519060200190611e8f92919061328b565b506000835111611ed4576040517f08c379a0000000000000000000000000000000000000000000000000000000008152600401611ecb9061478b565b60405180910390fd5b83604051611ee29190614252565b60405180910390207ff108e0d5ea815ea472514c7f65bd2bfc03bc7e526ad82404e04fbaf0248820c984604051611f19919061355a565b60405180910390a250505050565b611f2f61256d565b600073ffffffffffffffffffffffffffffffffffffffff168173ffffffffffffffffffffffffffffffffffffffff161415611f9f576040517f08c379a0000000000000000000000000000000000000000000000000000000008152600401611f969061481d565b60405180910390fd5b611fa8816125eb565b50565b60007f01ffc9a7000000000000000000000000000000000000000000000000000000007bffffffffffffffffffffffffffffffffffffffffffffffffffffffff1916827bffffffffffffffffffffffffffffffffffffffffffffffffffffffff1916149050919050565b61201e816129cf565b61205d576040517f08c379a00000000000000000000000000000000000000000000000000000000081526004016120549061446b565b60405180910390fd5b50565b600033905090565b816004600083815260200190815260200160002060006101000a81548173ffffffffffffffffffffffffffffffffffffffff021916908373ffffffffffffffffffffffffffffffffffffffff160217905550808273ffffffffffffffffffffffffffffffffffffffff166120db836109ed565b73ffffffffffffffffffffffffffffffffffffffff167f8c5be1e5ebec7d5bd14f71427d1e84f3dd0314c0f7b2291e5b200ac8c7c3b92560405160405180910390a45050565b61212a826129cf565b612169576040517f08c379a0000000000000000000000000000000000000000000000000000000008152600401612160906148af565b60405180910390fd5b8060076000848152602001908152602001600020908051906020019061219092919061328b565b505050565b6000806121a1836109ed565b90508073ffffffffffffffffffffffffffffffffffffffff168473ffffffffffffffffffffffffffffffffffffffff1614806121e357506121e28185611d07565b5b8061222157508373ffffffffffffffffffffffffffffffffffffffff1661220984610619565b73ffffffffffffffffffffffffffffffffffffffff16145b91505092915050565b8273ffffffffffffffffffffffffffffffffffffffff1661224a826109ed565b73ffffffffffffffffffffffffffffffffffffffff16146122a0576040517f08c379a000000000000000000000000000000000000000000000000000000000815260040161229790614941565b60405180910390fd5b600073ffffffffffffffffffffffffffffffffffffffff168273ffffffffffffffffffffffffffffffffffffffff161415612310576040517f08c379a0000000000000000000000000000000000000000000000000000000008152600401612307906149d3565b60405180910390fd5b61231d8383836001612a10565b8273ffffffffffffffffffffffffffffffffffffffff1661233d826109ed565b73ffffffffffffffffffffffffffffffffffffffff1614612393576040517f08c379a000000000000000000000000000000000000000000000000000000000815260040161238a90614941565b60405180910390fd5b6004600082815260200190815260200160002060006101000a81549073ffffffffffffffffffffffffffffffffffffffff02191690556001600360008573ffffffffffffffffffffffffffffffffffffffff1673ffffffffffffffffffffffffffffffffffffffff168152602001908152602001600020600082825403925050819055506001600360008473ffffffffffffffffffffffffffffffffffffffff1673ffffffffffffffffffffffffffffffffffffffff16815260200190815260200160002060008282540192505081905550816002600083815260200190815260200160002060006101000a81548173ffffffffffffffffffffffffffffffffffffffff021916908373ffffffffffffffffffffffffffffffffffffffff160217905550808273ffffffffffffffffffffffffffffffffffffffff168473ffffffffffffffffffffffffffffffffffffffff167fddf252ad1be2c89b69c2b068fc378daa952ba7f163c4a11628f55a4df523b3ef60405160405180910390a461251f8383836001612a16565b505050565b61252d81612a1c565b50565b60006002600083815260200190815260200160002060009054906101000a900473ffffffffffffffffffffffffffffffffffffffff169050919050565b612575612060565b73ffffffffffffffffffffffffffffffffffffffff1661259361179a565b73ffffffffffffffffffffffffffffffffffffffff16146125e9576040517f08c379a00000000000000000000000000000000000000000000000000000000081526004016125e090614a3f565b60405180910390fd5b565b6000600660009054906101000a900473ffffffffffffffffffffffffffffffffffffffff16905081600660006101000a81548173ffffffffffffffffffffffffffffffffffffffff021916908373ffffffffffffffffffffffffffffffffffffffff1602179055508173ffffffffffffffffffffffffffffffffffffffff168173ffffffffffffffffffffffffffffffffffffffff167f8be0079c531659141344cd1fd0a4f28419497f9722a3daafe3b4186f6b6457e060405160405180910390a35050565b600081600001549050919050565b6001816000016000828254019250508190555050565b6126ef828260405180602001604052806000815250612a6f565b5050565b8173ffffffffffffffffffffffffffffffffffffffff168373ffffffffffffffffffffffffffffffffffffffff161415612762576040517f08c379a000000000000000000000000000000000000000000000000000000000815260040161275990614aab565b60405180910390fd5b80600560008573ffffffffffffffffffffffffffffffffffffffff1673ffffffffffffffffffffffffffffffffffffffff16815260200190815260200160002060008473ffffffffffffffffffffffffffffffffffffffff1673ffffffffffffffffffffffffffffffffffffffff16815260200190815260200160002060006101000a81548160ff0219169083151502179055508173ffffffffffffffffffffffffffffffffffffffff168373ffffffffffffffffffffffffffffffffffffffff167f17307eab39ab6107e8899845ad3d59bd9653f200f220920489ca2b5937696c318360405161285391906134a6565b60405180910390a3505050565b61286b84848461222a565b61287784848484612aca565b6128b6576040517f08c379a00000000000000000000000000000000000000000000000000000000081526004016128ad90614b3d565b60405180910390fd5b50505050565b60606128c782612015565b60006007600084815260200190815260200160002080546128e7906140c0565b80601f0160208091040260200160405190810160405280929190818152602001828054612913906140c0565b80156129605780601f1061293557610100808354040283529160200191612960565b820191906000526020600020905b81548152906001019060200180831161294357829003601f168201915b505050505090506000612971612c52565b90506000815114156129875781925050506129ca565b6000825111156129bc5780826040516020016129a4929190614b5d565b604051602081830303815290604052925050506129ca565b6129c584612c69565b925050505b919050565b60008073ffffffffffffffffffffffffffffffffffffffff166129f183612530565b73ffffffffffffffffffffffffffffffffffffffff1614159050919050565b50505050565b50505050565b612a2581612cd1565b6000600760008381526020019081526020016000208054612a45906140c0565b905014612a6c57600760008281526020019081526020016000206000612a6b9190613371565b5b50565b612a798383612e1f565b612a866000848484612aca565b612ac5576040517f08c379a0000000000000000000000000000000000000000000000000000000008152600401612abc90614b3d565b60405180910390fd5b505050565b6000612aeb8473ffffffffffffffffffffffffffffffffffffffff1661303d565b15612c45578373ffffffffffffffffffffffffffffffffffffffff1663150b7a02612b14612060565b8786866040518563ffffffff1660e01b8152600401612b369493929190614bd6565b6020604051808303816000875af1925050508015612b7257506040513d601f19601f82011682018060405250810190612b6f9190614c37565b60015b612bf5573d8060008114612ba2576040519150601f19603f3d011682016040523d82523d6000602084013e612ba7565b606091505b50600081511415612bed576040517f08c379a0000000000000000000000000000000000000000000000000000000008152600401612be490614b3d565b60405180910390fd5b805181602001fd5b63150b7a0260e01b7bffffffffffffffffffffffffffffffffffffffffffffffffffffffff1916817bffffffffffffffffffffffffffffffffffffffffffffffffffffffff191614915050612c4a565b600190505b949350505050565b606060405180602001604052806000815250905090565b6060612c7482612015565b6000612c7e612c52565b90506000815111612c9e5760405180602001604052806000815250612cc9565b80612ca884613060565b604051602001612cb9929190614b5d565b6040516020818303038152906040525b915050919050565b6000612cdc826109ed565b9050612cec816000846001612a10565b612cf5826109ed565b90506004600083815260200190815260200160002060006101000a81549073ffffffffffffffffffffffffffffffffffffffff02191690556001600360008373ffffffffffffffffffffffffffffffffffffffff1673ffffffffffffffffffffffffffffffffffffffff168152602001908152602001600020600082825403925050819055506002600083815260200190815260200160002060006101000a81549073ffffffffffffffffffffffffffffffffffffffff021916905581600073ffffffffffffffffffffffffffffffffffffffff168273ffffffffffffffffffffffffffffffffffffffff167fddf252ad1be2c89b69c2b068fc378daa952ba7f163c4a11628f55a4df523b3ef60405160405180910390a4612e1b816000846001612a16565b5050565b600073ffffffffffffffffffffffffffffffffffffffff168273ffffffffffffffffffffffffffffffffffffffff161415612e8f576040517f08c379a0000000000000000000000000000000000000000000000000000000008152600401612e8690614cb0565b60405180910390fd5b612e98816129cf565b15612ed8576040517f08c379a0000000000000000000000000000000000000000000000000000000008152600401612ecf90614d1c565b60405180910390fd5b612ee6600083836001612a10565b612eef816129cf565b15612f2f576040517f08c379a0000000000000000000000000000000000000000000000000000000008152600401612f2690614d1c565b60405180910390fd5b6001600360008473ffffffffffffffffffffffffffffffffffffffff1673ffffffffffffffffffffffffffffffffffffffff16815260200190815260200160002060008282540192505081905550816002600083815260200190815260200160002060006101000a81548173ffffffffffffffffffffffffffffffffffffffff021916908373ffffffffffffffffffffffffffffffffffffffff160217905550808273ffffffffffffffffffffffffffffffffffffffff16600073ffffffffffffffffffffffffffffffffffffffff167fddf252ad1be2c89b69c2b068fc378daa952ba7f163c4a11628f55a4df523b3ef60405160405180910390a4613039600083836001612a16565b5050565b6000808273ffffffffffffffffffffffffffffffffffffffff163b119050919050565b60606000600161306f84613138565b01905060008167ffffffffffffffff81111561308e5761308d6136b1565b5b6040519080825280601f01601f1916602001820160405280156130c05781602001600182028036833780820191505090505b509050600082602001820190505b60011561312d578080600190039150507f3031323334353637383961626364656600000000000000000000000000000000600a86061a8153600a858161311757613116614d3c565b5b04945060008514156131285761312d565b6130ce565b819350505050919050565b600080600090507a184f03e93ff9f4daa797ed6e38ed64bf6a1f0100000000000000008310613196577a184f03e93ff9f4daa797ed6e38ed64bf6a1f010000000000000000838161318c5761318b614d3c565b5b0492506040810190505b6d04ee2d6d415b85acef810000000083106131d3576d04ee2d6d415b85acef810000000083816131c9576131c8614d3c565b5b0492506020810190505b662386f26fc10000831061320257662386f26fc1000083816131f8576131f7614d3c565b5b0492506010810190505b6305f5e100831061322b576305f5e100838161322157613220614d3c565b5b0492506008810190505b612710831061325057612710838161324657613245614d3c565b5b0492506004810190505b60648310613273576064838161326957613268614d3c565b5b0492506002810190505b600a8310613282576001810190505b80915050919050565b828054613297906140c0565b90600052602060002090601f0160209004810192826132b95760008555613300565b82601f106132d257805160ff1916838001178555613300565b82800160010185558215613300579182015b828111156132ff5782518255916020019190600101906132e4565b5b50905061330d91906133b1565b5090565b828054828255906000526020600020908101928215613360579160200282015b8281111561335f57825182908051906020019061334f92919061328b565b5091602001919060010190613331565b5b50905061336d91906133ce565b5090565b50805461337d906140c0565b6000825580601f1061338f57506133ae565b601f0160209004906000526020600020908101906133ad91906133b1565b5b50565b5b808211156133ca5760008160009055506001016133b2565b5090565b5b808211156133ee57600081816133e59190613371565b506001016133cf565b5090565b6000604051905090565b600080fd5b600080fd5b60007fffffffff0000000000000000000000000000000000000000000000000000000082169050919050565b61343b81613406565b811461344657600080fd5b50565b60008135905061345881613432565b92915050565b600060208284031215613474576134736133fc565b5b600061348284828501613449565b91505092915050565b60008115159050919050565b6134a08161348b565b82525050565b60006020820190506134bb6000830184613497565b92915050565b600081519050919050565b600082825260208201905092915050565b60005b838110156134fb5780820151818401526020810190506134e0565b8381111561350a576000848401525b50505050565b6000601f19601f8301169050919050565b600061352c826134c1565b61353681856134cc565b93506135468185602086016134dd565b61354f81613510565b840191505092915050565b600060208201905081810360008301526135748184613521565b905092915050565b6000819050919050565b61358f8161357c565b811461359a57600080fd5b50565b6000813590506135ac81613586565b92915050565b6000602082840312156135c8576135c76133fc565b5b60006135d68482850161359d565b91505092915050565b600073ffffffffffffffffffffffffffffffffffffffff82169050919050565b600061360a826135df565b9050919050565b61361a816135ff565b82525050565b60006020820190506136356000830184613611565b92915050565b613644816135ff565b811461364f57600080fd5b50565b6000813590506136618161363b565b92915050565b6000806040838503121561367e5761367d6133fc565b5b600061368c85828601613652565b925050602061369d8582860161359d565b9150509250929050565b600080fd5b600080fd5b7f4e487b7100000000000000000000000000000000000000000000000000000000600052604160045260246000fd5b6136e982613510565b810181811067ffffffffffffffff82111715613708576137076136b1565b5b80604052505050565b600061371b6133f2565b905061372782826136e0565b919050565b600067ffffffffffffffff821115613747576137466136b1565b5b61375082613510565b9050602081019050919050565b82818337600083830152505050565b600061377f61377a8461372c565b613711565b90508281526020810184848401111561379b5761379a6136ac565b5b6137a684828561375d565b509392505050565b600082601f8301126137c3576137c26136a7565b5b81356137d384826020860161376c565b91505092915050565b600080604083850312156137f3576137f26133fc565b5b600083013567ffffffffffffffff81111561381157613810613401565b5b61381d858286016137ae565b925050602083013567ffffffffffffffff81111561383e5761383d613401565b5b61384a858286016137ae565b9150509250929050565b6000806040838503121561386b5761386a6133fc565b5b60006138798582860161359d565b925050602083013567ffffffffffffffff81111561389a57613899613401565b5b6138a6858286016137ae565b9150509250929050565b6000806000606084860312156138c9576138c86133fc565b5b60006138d786828701613652565b93505060206138e886828701613652565b92505060406138f98682870161359d565b9150509250925092565b600060208284031215613919576139186133fc565b5b600061392784828501613652565b91505092915050565b6139398161357c565b82525050565b60006020820190506139546000830184613930565b92915050565b600081519050919050565b600082825260208201905092915050565b6000819050602082019050919050565b600082825260208201905092915050565b60006139a2826134c1565b6139ac8185613986565b93506139bc8185602086016134dd565b6139c581613510565b840191505092915050565b60006139dc8383613997565b905092915050565b6000602082019050919050565b60006139fc8261395a565b613a068185613965565b935083602082028501613a1885613976565b8060005b85811015613a545784840389528151613a3585826139d0565b9450613a40836139e4565b925060208a01995050600181019050613a1c565b50829750879550505050505092915050565b6000610160820190508181036000830152613a81818e613521565b90508181036020830152613a95818d613521565b90508181036040830152613aa9818c613521565b90508181036060830152613abd818b613521565b90508181036080830152613ad1818a613521565b905081810360a0830152613ae58189613521565b905081810360c0830152613af98188613521565b9050613b0860e0830187613930565b818103610100830152613b1b81866139f1565b9050818103610120830152613b3081856139f1565b9050818103610140830152613b458184613521565b90509c9b505050505050505050505050565b600060208284031215613b6d57613b6c6133fc565b5b600082013567ffffffffffffffff811115613b8b57613b8a613401565b5b613b97848285016137ae565b91505092915050565b600061016082019050613bb6600083018e613930565b8181036020830152613bc8818d613521565b90508181036040830152613bdc818c613521565b90508181036060830152613bf0818b613521565b90508181036080830152613c04818a613521565b905081810360a0830152613c188189613521565b905081810360c0830152613c2c8188613521565b9050613c3b60e0830187613930565b818103610100830152613c4e81866139f1565b9050818103610120830152613c6381856139f1565b9050818103610140830152613c788184613521565b90509c9b505050505050505050505050565b6000806000806000806000806000806101408b8d031215613cae57613cad6133fc565b5b6000613cbc8d828e01613652565b9a505060208b013567ffffffffffffffff811115613cdd57613cdc613401565b5b613ce98d828e016137ae565b99505060408b013567ffffffffffffffff811115613d0a57613d09613401565b5b613d168d828e016137ae565b98505060608b013567ffffffffffffffff811115613d3757613d36613401565b5b613d438d828e016137ae565b97505060808b013567ffffffffffffffff811115613d6457613d63613401565b5b613d708d828e016137ae565b96505060a08b013567ffffffffffffffff811115613d9157613d90613401565b5b613d9d8d828e016137ae565b95505060c08b013567ffffffffffffffff811115613dbe57613dbd613401565b5b613dca8d828e016137ae565b94505060e08b013567ffffffffffffffff811115613deb57613dea613401565b5b613df78d828e016137ae565b9350506101008b013567ffffffffffffffff811115613e1957613e18613401565b5b613e258d828e016137ae565b9250506101208b013567ffffffffffffffff811115613e4757613e46613401565b5b613e538d828e016137ae565b9150509295989b9194979a5092959850565b613e6e8161348b565b8114613e7957600080fd5b50565b600081359050613e8b81613e65565b92915050565b60008060408385031215613ea857613ea76133fc565b5b6000613eb685828601613652565b9250506020613ec785828601613e7c565b9150509250929050565b600067ffffffffffffffff821115613eec57613eeb6136b1565b5b613ef582613510565b9050602081019050919050565b6000613f15613f1084613ed1565b613711565b905082815260208101848484011115613f3157613f306136ac565b5b613f3c84828561375d565b509392505050565b600082601f830112613f5957613f586136a7565b5b8135613f69848260208601613f02565b91505092915050565b60008060008060808587031215613f8c57613f8b6133fc565b5b6000613f9a87828801613652565b9450506020613fab87828801613652565b9350506040613fbc8782880161359d565b925050606085013567ffffffffffffffff811115613fdd57613fdc613401565b5b613fe987828801613f44565b91505092959194509250565b6000806040838503121561400c5761400b6133fc565b5b600083013567ffffffffffffffff81111561402a57614029613401565b5b614036858286016137ae565b92505060206140478582860161359d565b9150509250929050565b60008060408385031215614068576140676133fc565b5b600061407685828601613652565b925050602061408785828601613652565b9150509250929050565b7f4e487b7100000000000000000000000000000000000000000000000000000000600052602260045260246000fd5b600060028204905060018216806140d857607f821691505b602082108114156140ec576140eb614091565b5b50919050565b7f4552433732313a20617070726f76616c20746f2063757272656e74206f776e6560008201527f7200000000000000000000000000000000000000000000000000000000000000602082015250565b600061414e6021836134cc565b9150614159826140f2565b604082019050919050565b6000602082019050818103600083015261417d81614141565b9050919050565b7f4552433732313a20617070726f76652063616c6c6572206973206e6f7420746f60008201527f6b656e206f776e6572206f7220617070726f76656420666f7220616c6c000000602082015250565b60006141e0603d836134cc565b91506141eb82614184565b604082019050919050565b6000602082019050818103600083015261420f816141d3565b9050919050565b600081905092915050565b600061422c826134c1565b6142368185614216565b93506142468185602086016134dd565b80840191505092915050565b600061425e8284614221565b915081905092915050565b7f4f6e6c7920746865206f776e65722063616e20616464206d61696e74656e616e60008201527f6365000000000000000000000000000000000000000000000000000000000000602082015250565b60006142c56022836134cc565b91506142d082614269565b604082019050919050565b600060208201905081810360008301526142f4816142b8565b9050919050565b7f4e6577206d61696e74656e616e636520737472696e67206d757374206e6f742060008201527f626520656d707479000000000000000000000000000000000000000000000000602082015250565b60006143576028836134cc565b9150614362826142fb565b604082019050919050565b600060208201905081810360008301526143868161434a565b9050919050565b7f4552433732313a2063616c6c6572206973206e6f7420746f6b656e206f776e6560008201527f72206f7220617070726f76656400000000000000000000000000000000000000602082015250565b60006143e9602d836134cc565b91506143f48261438d565b604082019050919050565b60006020820190508181036000830152614418816143dc565b9050919050565b7f4552433732313a20696e76616c696420746f6b656e2049440000000000000000600082015250565b60006144556018836134cc565b91506144608261441f565b602082019050919050565b6000602082019050818103600083015261448481614448565b9050919050565b7f4552433732313a2061646472657373207a65726f206973206e6f74206120766160008201527f6c6964206f776e65720000000000000000000000000000000000000000000000602082015250565b60006144e76029836134cc565b91506144f28261448b565b604082019050919050565b60006020820190508181036000830152614516816144da565b9050919050565b7f436172207769746820746869732056494e20616c726561647920657869737473600082015250565b60006145536020836134cc565b915061455e8261451d565b602082019050919050565b6000602082019050818103600083015261458281614546565b9050919050565b7f4552433732313a207472616e736665722063616c6c6572206973206e6f74206f60008201527f776e6572206e6f7220617070726f766564000000000000000000000000000000602082015250565b60006145e56031836134cc565b91506145f082614589565b604082019050919050565b60006020820190508181036000830152614614816145d8565b9050919050565b7f4e6577206b696c6f6d65746572732076616c7565206d7573742062652067726560008201527f61746572207468616e207468652063757272656e742076616c75650000000000602082015250565b6000614677603b836134cc565b91506146828261461b565b604082019050919050565b600060208201905081810360008301526146a68161466a565b9050919050565b7f4f6e6c7920746865206f776e65722063616e2061646420612072657061697200600082015250565b60006146e3601f836134cc565b91506146ee826146ad565b602082019050919050565b60006020820190508181036000830152614712816146d6565b9050919050565b7f4e65772072657061697220737472696e67206d757374206e6f7420626520656d60008201527f7074790000000000000000000000000000000000000000000000000000000000602082015250565b60006147756023836134cc565b915061478082614719565b604082019050919050565b600060208201905081810360008301526147a481614768565b9050919050565b7f4f776e61626c653a206e6577206f776e657220697320746865207a65726f206160008201527f6464726573730000000000000000000000000000000000000000000000000000602082015250565b60006148076026836134cc565b9150614812826147ab565b604082019050919050565b60006020820190508181036000830152614836816147fa565b9050919050565b7f45524337323155524953746f726167653a2055524920736574206f66206e6f6e60008201527f6578697374656e7420746f6b656e000000000000000000000000000000000000602082015250565b6000614899602e836134cc565b91506148a48261483d565b604082019050919050565b600060208201905081810360008301526148c88161488c565b9050919050565b7f4552433732313a207472616e736665722066726f6d20696e636f72726563742060008201527f6f776e6572000000000000000000000000000000000000000000000000000000602082015250565b600061492b6025836134cc565b9150614936826148cf565b604082019050919050565b6000602082019050818103600083015261495a8161491e565b9050919050565b7f4552433732313a207472616e7366657220746f20746865207a65726f2061646460008201527f7265737300000000000000000000000000000000000000000000000000000000602082015250565b60006149bd6024836134cc565b91506149c882614961565b604082019050919050565b600060208201905081810360008301526149ec816149b0565b9050919050565b7f4f776e61626c653a2063616c6c6572206973206e6f7420746865206f776e6572600082015250565b6000614a296020836134cc565b9150614a34826149f3565b602082019050919050565b60006020820190508181036000830152614a5881614a1c565b9050919050565b7f4552433732313a20617070726f766520746f2063616c6c657200000000000000600082015250565b6000614a956019836134cc565b9150614aa082614a5f565b602082019050919050565b60006020820190508181036000830152614ac481614a88565b9050919050565b7f4552433732313a207472616e7366657220746f206e6f6e20455243373231526560008201527f63656976657220696d706c656d656e7465720000000000000000000000000000602082015250565b6000614b276032836134cc565b9150614b3282614acb565b604082019050919050565b60006020820190508181036000830152614b5681614b1a565b9050919050565b6000614b698285614221565b9150614b758284614221565b91508190509392505050565b600081519050919050565b600082825260208201905092915050565b6000614ba882614b81565b614bb28185614b8c565b9350614bc28185602086016134dd565b614bcb81613510565b840191505092915050565b6000608082019050614beb6000830187613611565b614bf86020830186613611565b614c056040830185613930565b8181036060830152614c178184614b9d565b905095945050505050565b600081519050614c3181613432565b92915050565b600060208284031215614c4d57614c4c6133fc565b5b6000614c5b84828501614c22565b91505092915050565b7f4552433732313a206d696e7420746f20746865207a65726f2061646472657373600082015250565b6000614c9a6020836134cc565b9150614ca582614c64565b602082019050919050565b60006020820190508181036000830152614cc981614c8d565b9050919050565b7f4552433732313a20746f6b656e20616c7265616479206d696e74656400000000600082015250565b6000614d06601c836134cc565b9150614d1182614cd0565b602082019050919050565b60006020820190508181036000830152614d3581614cf9565b9050919050565b7f4e487b7100000000000000000000000000000000000000000000000000000000600052601260045260246000fdfea2646970667358221220210db0cbacb530582a57cb12f385fb19bf64eeb73d7a7a919f35b7da4354a4ed64736f6c634300080b0033",
  "linkReferences": {},
  "deployedLinkReferences": {}
}