{
  "_format": "hh-sol-artifact-1",
  "contractName": "AutoPassport",
  "sourceName": "contracts/AutoPassport.sol",
  "abi": [
    {
      "inputs": [],
      "stateMutability": "nonpayable",
      "type": "constructor"
    },
    {
      "anonymous": false,
      "inputs": [
        {
          "indexed": true,
          "internalType": "address",
          "name": "owner",
          "type": "address"
        },
        {
          "indexed": true,
          "internalType": "address",
          "name": "approved",
          "type": "address"
        },
        {
          "indexed": true,
          "internalType": "uint256",
          "name": "tokenId",
          "type": "uint256"
        }
      ],
      "name": "Approval",
      "type": "event"
    },
    {
      "anonymous": false,
      "inputs": [
        {
          "indexed": true,
          "internalType": "address",
          "name": "owner",
          "type": "address"
        },
        {
          "indexed": true,
          "internalType": "address",
          "name": "operator",
          "type": "address"
        },
        {
          "indexed": false,
          "internalType": "bool",
          "name": "approved",
          "type": "bool"
        }
      ],
      "name": "ApprovalForAll",
      "type": "event"
    },
    {
      "anonymous": false,
      "inputs": [
        {
          "indexed": true,
          "internalType": "address",
          "name": "from",
          "type": "address"
        },
        {
          "indexed": true,
          "internalType": "uint256",
          "name": "tokenId",
          "type": "uint256"
        },
        {
          "indexed": false,
          "internalType": "string",
          "name": "vin",
          "type": "string"
        }
      ],
      "name": "Creation",
      "type": "event"
    },
    {
      "anonymous": false,
      "inputs": [
        {
          "indexed": true,
          "internalType": "address",
          "name": "previousOwner",
          "type": "address"
        },
        {
          "indexed": true,
          "internalType": "address",
          "name": "newOwner",
          "type": "address"
        }
      ],
      "name": "OwnershipTransferred",
      "type": "event"
    },
    {
      "anonymous": false,
      "inputs": [
        {
          "indexed": true,
          "internalType": "address",
          "name": "from",
          "type": "address"
        },
        {
          "indexed": true,
          "internalType": "address",
          "name": "to",
          "type": "address"
        },
        {
          "indexed": true,
          "internalType": "uint256",
          "name": "tokenId",
          "type": "uint256"
        }
      ],
      "name": "Transfer",
      "type": "event"
    },
    {
      "inputs": [
        {
          "internalType": "address",
          "name": "to",
          "type": "address"
        },
        {
          "internalType": "uint256",
          "name": "tokenId",
          "type": "uint256"
        }
      ],
      "name": "approve",
      "outputs": [],
      "stateMutability": "nonpayable",
      "type": "function"
    },
    {
      "inputs": [
        {
          "internalType": "address",
          "name": "owner",
          "type": "address"
        }
      ],
      "name": "balanceOf",
      "outputs": [
        {
          "internalType": "uint256",
          "name": "",
          "type": "uint256"
        }
      ],
      "stateMutability": "view",
      "type": "function"
    },
    {
      "inputs": [
        {
          "internalType": "uint256",
          "name": "tokenId",
          "type": "uint256"
        }
      ],
      "name": "burn",
      "outputs": [],
      "stateMutability": "nonpayable",
      "type": "function"
    },
    {
      "inputs": [
        {
          "internalType": "address",
          "name": "to",
          "type": "address"
        },
        {
          "internalType": "string",
          "name": "brand",
          "type": "string"
        },
        {
          "internalType": "string",
          "name": "model",
          "type": "string"
        },
        {
          "internalType": "string",
          "name": "vin",
          "type": "string"
        },
        {
          "internalType": "string",
          "name": "color_code",
          "type": "string"
        },
        {
          "internalType": "string",
          "name": "date_of_manufacture",
          "type": "string"
        },
        {
          "internalType": "string",
          "name": "warranty_expiration_date",
          "type": "string"
        },
        {
          "internalType": "string",
          "name": "fuel_type",
          "type": "string"
        },
        {
          "internalType": "string",
          "name": "last_update",
          "type": "string"
        },
        {
          "internalType": "string",
          "name": "uriIpfsUrl",
          "type": "string"
        }
      ],
      "name": "createAutoPassport",
      "outputs": [],
      "stateMutability": "nonpayable",
      "type": "function"
    },
    {
      "inputs": [
        {
          "internalType": "uint256",
          "name": "tokenId",
          "type": "uint256"
        }
      ],
      "name": "getApproved",
      "outputs": [
        {
          "internalType": "address",
          "name": "",
          "type": "address"
        }
      ],
      "stateMutability": "view",
      "type": "function"
    },
    {
      "inputs": [
        {
          "internalType": "uint256",
          "name": "tokenId",
          "type": "uint256"
        }
      ],
      "name": "getCarByTokenId",
      "outputs": [
        {
          "internalType": "string",
          "name": "brand",
          "type": "string"
        },
        {
          "internalType": "string",
          "name": "model",
          "type": "string"
        },
        {
          "internalType": "string",
          "name": "vin",
          "type": "string"
        },
        {
          "internalType": "string",
          "name": "color_code",
          "type": "string"
        },
        {
          "internalType": "string",
          "name": "date_of_manufacture",
          "type": "string"
        },
        {
          "internalType": "string",
          "name": "warranty_expiration_date",
          "type": "string"
        },
        {
          "internalType": "string",
          "name": "fuel_type",
          "type": "string"
        },
        {
          "internalType": "uint256",
          "name": "mileage",
          "type": "uint256"
        },
        {
          "internalType": "string[]",
          "name": "repair_history",
          "type": "string[]"
        },
        {
          "internalType": "string[]",
          "name": "maintenance_history",
          "type": "string[]"
        },
        {
          "internalType": "string",
          "name": "last_update",
          "type": "string"
        },
        {
          "internalType": "string",
          "name": "uri",
          "type": "string"
        }
      ],
      "stateMutability": "view",
      "type": "function"
    },
    {
      "inputs": [
        {
          "internalType": "string",
          "name": "vin",
          "type": "string"
        }
      ],
      "name": "getCarByVIN",
      "outputs": [
        {
          "internalType": "uint256",
          "name": "tokenId",
          "type": "uint256"
        },
        {
          "internalType": "string",
          "name": "brand",
          "type": "string"
        },
        {
          "internalType": "string",
          "name": "model",
          "type": "string"
        },
        {
          "internalType": "string",
          "name": "color_code",
          "type": "string"
        },
        {
          "internalType": "string",
          "name": "date_of_manufacture",
          "type": "string"
        },
        {
          "internalType": "string",
          "name": "warranty_expiration_date",
          "type": "string"
        },
        {
          "internalType": "string",
          "name": "fuel_type",
          "type": "string"
        },
        {
          "internalType": "uint256",
          "name": "mileage",
          "type": "uint256"
        },
        {
          "internalType": "string[]",
          "name": "repair_history",
          "type": "string[]"
        },
        {
          "internalType": "string[]",
          "name": "maintenance_history",
          "type": "string[]"
        },
        {
          "internalType": "string",
          "name": "last_update",
          "type": "string"
        },
        {
          "internalType": "string",
          "name": "uri",
          "type": "string"
        }
      ],
      "stateMutability": "view",
      "type": "function"
    },
    {
      "inputs": [
        {
          "internalType": "string",
          "name": "vin",
          "type": "string"
        }
      ],
      "name": "getObjCarByVIN",
      "outputs": [
        {
          "internalType": "uint256",
          "name": "tokenId",
          "type": "uint256"
        },
        {
          "components": [
            {
              "internalType": "string",
              "name": "brand",
              "type": "string"
            },
            {
              "internalType": "string",
              "name": "model",
              "type": "string"
            },
            {
              "internalType": "string",
              "name": "vin",
              "type": "string"
            },
            {
              "internalType": "string",
              "name": "color_code",
              "type": "string"
            },
            {
              "internalType": "string",
              "name": "date_of_manufacture",
              "type": "string"
            },
            {
              "internalType": "string",
              "name": "warranty_expiration_date",
              "type": "string"
            },
            {
              "internalType": "string",
              "name": "fuel_type",
              "type": "string"
            },
            {
              "internalType": "uint256",
              "name": "mileage",
              "type": "uint256"
            },
            {
              "internalType": "string[]",
              "name": "repair_history",
              "type": "string[]"
            },
            {
              "internalType": "string[]",
              "name": "maintenance_history",
              "type": "string[]"
            },
            {
              "internalType": "string",
              "name": "last_update",
              "type": "string"
            }
          ],
          "internalType": "struct AutoPassport.Car",
          "name": "objCar",
          "type": "tuple"
        },
        {
          "internalType": "string",
          "name": "uri",
          "type": "string"
        }
      ],
      "stateMutability": "view",
      "type": "function"
    },
    {
      "inputs": [
        {
          "internalType": "address",
          "name": "owner",
          "type": "address"
        },
        {
          "internalType": "address",
          "name": "operator",
          "type": "address"
        }
      ],
      "name": "isApprovedForAll",
      "outputs": [
        {
          "internalType": "bool",
          "name": "",
          "type": "bool"
        }
      ],
      "stateMutability": "view",
      "type": "function"
    },
    {
      "inputs": [],
      "name": "name",
      "outputs": [
        {
          "internalType": "string",
          "name": "",
          "type": "string"
        }
      ],
      "stateMutability": "view",
      "type": "function"
    },
    {
      "inputs": [],
      "name": "owner",
      "outputs": [
        {
          "internalType": "address",
          "name": "",
          "type": "address"
        }
      ],
      "stateMutability": "view",
      "type": "function"
    },
    {
      "inputs": [
        {
          "internalType": "uint256",
          "name": "tokenId",
          "type": "uint256"
        }
      ],
      "name": "ownerOf",
      "outputs": [
        {
          "internalType": "address",
          "name": "",
          "type": "address"
        }
      ],
      "stateMutability": "view",
      "type": "function"
    },
    {
      "inputs": [],
      "name": "renounceOwnership",
      "outputs": [],
      "stateMutability": "nonpayable",
      "type": "function"
    },
    {
      "inputs": [
        {
          "internalType": "address",
          "name": "from",
          "type": "address"
        },
        {
          "internalType": "address",
          "name": "to",
          "type": "address"
        },
        {
          "internalType": "uint256",
          "name": "tokenId",
          "type": "uint256"
        }
      ],
      "name": "safeTransferFrom",
      "outputs": [],
      "stateMutability": "nonpayable",
      "type": "function"
    },
    {
      "inputs": [
        {
          "internalType": "address",
          "name": "from",
          "type": "address"
        },
        {
          "internalType": "address",
          "name": "to",
          "type": "address"
        },
        {
          "internalType": "uint256",
          "name": "tokenId",
          "type": "uint256"
        },
        {
          "internalType": "bytes",
          "name": "data",
          "type": "bytes"
        }
      ],
      "name": "safeTransferFrom",
      "outputs": [],
      "stateMutability": "nonpayable",
      "type": "function"
    },
    {
      "inputs": [
        {
          "internalType": "address",
          "name": "operator",
          "type": "address"
        },
        {
          "internalType": "bool",
          "name": "approved",
          "type": "bool"
        }
      ],
      "name": "setApprovalForAll",
      "outputs": [],
      "stateMutability": "nonpayable",
      "type": "function"
    },
    {
      "inputs": [
        {
          "internalType": "bytes4",
          "name": "interfaceId",
          "type": "bytes4"
        }
      ],
      "name": "supportsInterface",
      "outputs": [
        {
          "internalType": "bool",
          "name": "",
          "type": "bool"
        }
      ],
      "stateMutability": "view",
      "type": "function"
    },
    {
      "inputs": [],
      "name": "symbol",
      "outputs": [
        {
          "internalType": "string",
          "name": "",
          "type": "string"
        }
      ],
      "stateMutability": "view",
      "type": "function"
    },
    {
      "inputs": [
        {
          "internalType": "uint256",
          "name": "tokenId",
          "type": "uint256"
        }
      ],
      "name": "tokenURI",
      "outputs": [
        {
          "internalType": "string",
          "name": "",
          "type": "string"
        }
      ],
      "stateMutability": "view",
      "type": "function"
    },
    {
      "inputs": [
        {
          "internalType": "address",
          "name": "from",
          "type": "address"
        },
        {
          "internalType": "address",
          "name": "to",
          "type": "address"
        },
        {
          "internalType": "uint256",
          "name": "tokenId",
          "type": "uint256"
        }
      ],
      "name": "transferFrom",
      "outputs": [],
      "stateMutability": "nonpayable",
      "type": "function"
    },
    {
      "inputs": [
        {
          "internalType": "address",
          "name": "newOwner",
          "type": "address"
        }
      ],
      "name": "transferOwnership",
      "outputs": [],
      "stateMutability": "nonpayable",
      "type": "function"
    },
    {
      "inputs": [
        {
          "internalType": "string",
          "name": "vin",
          "type": "string"
        },
        {
          "internalType": "uint256",
          "name": "mileage",
          "type": "uint256"
        },
        {
          "internalType": "string",
          "name": "newRepair",
          "type": "string"
        },
        {
          "internalType": "string",
          "name": "newMaintenance",
          "type": "string"
        },
        {
          "internalType": "string",
          "name": "newURI",
          "type": "string"
        },
        {
          "internalType": "string",
          "name": "last_update",
          "type": "string"
        }
      ],
      "name": "updateAutoPassport",
      "outputs": [],
      "stateMutability": "nonpayable",
      "type": "function"
    }
  ],
  "bytecode": "0x60806040523480156200001157600080fd5b506040518060400160405280600c81526020017f4175746f70617373706f727400000000000000000000000000000000000000008152506040518060400160405280600481526020017f5061737300000000000000000000000000000000000000000000000000000000815250816000908051906020019062000096929190620001a6565b508060019080519060200190620000af929190620001a6565b505050620000d2620000c6620000d860201b60201c565b620000e060201b60201c565b620002bb565b600033905090565b6000600660009054906101000a900473ffffffffffffffffffffffffffffffffffffffff16905081600660006101000a81548173ffffffffffffffffffffffffffffffffffffffff021916908373ffffffffffffffffffffffffffffffffffffffff1602179055508173ffffffffffffffffffffffffffffffffffffffff168173ffffffffffffffffffffffffffffffffffffffff167f8be0079c531659141344cd1fd0a4f28419497f9722a3daafe3b4186f6b6457e060405160405180910390a35050565b828054620001b49062000285565b90600052602060002090601f016020900481019282620001d8576000855562000224565b82601f10620001f357805160ff191683800117855562000224565b8280016001018555821562000224579182015b828111156200022357825182559160200191906001019062000206565b5b50905062000233919062000237565b5090565b5b808211156200025257600081600090555060010162000238565b5090565b7f4e487b7100000000000000000000000000000000000000000000000000000000600052602260045260246000fd5b600060028204905060018216806200029e57607f821691505b60208210811415620002b557620002b462000256565b5b50919050565b6151d680620002cb6000396000f3fe608060405234801561001057600080fd5b50600436106101425760003560e01c80637a5a576d116100b8578063a79d65651161007c578063a79d656514610389578063b88d4fde146103bb578063bf450d15146103d7578063c87b56dd146103f3578063e985e9c514610423578063f2fde38b1461045357610142565b80637a5a576d146102da5780638da5cb5b1461031557806395d89b4114610333578063973cacb614610351578063a22cb4651461036d57610142565b806342842e0e1161010a57806342842e0e146101fd57806342966c68146102195780636352211e1461023557806370a0823114610265578063715018a61461029557806376e78ce61461029f57610142565b806301ffc9a71461014757806306fdde0314610177578063081812fc14610195578063095ea7b3146101c557806323b872dd146101e1575b600080fd5b610161600480360381019061015c919061392a565b61046f565b60405161016e9190613972565b60405180910390f35b61017f610551565b60405161018c9190613a26565b60405180910390f35b6101af60048036038101906101aa9190613a7e565b6105e3565b6040516101bc9190613aec565b60405180910390f35b6101df60048036038101906101da9190613b33565b610629565b005b6101fb60048036038101906101f69190613b73565b610741565b005b61021760048036038101906102129190613b73565b6107a1565b005b610233600480360381019061022e9190613a7e565b6107c1565b005b61024f600480360381019061024a9190613a7e565b61081d565b60405161025c9190613aec565b60405180910390f35b61027f600480360381019061027a9190613bc6565b6108a4565b60405161028c9190613c02565b60405180910390f35b61029d61095c565b005b6102b960048036038101906102b49190613a7e565b610970565b6040516102d19c9b9a99989796959493929190613d29565b60405180910390f35b6102f460048036038101906102ef9190613f65565b610fe0565b60405161030c9c9b9a99989796959493929190613fae565b60405180910390f35b61031d6115e2565b60405161032a9190613aec565b60405180910390f35b61033b61160c565b6040516103489190613a26565b60405180910390f35b61036b600480360381019061036691906140ae565b61169e565b005b610387600480360381019061038291906142b5565b6119e6565b005b6103a3600480360381019061039e9190613f65565b6119fc565b6040516103b2939291906144b8565b60405180910390f35b6103d560048036038101906103d0919061459e565b6120ab565b005b6103f160048036038101906103ec9190614621565b61210d565b005b61040d60048036038101906104089190613a7e565b6122f3565b60405161041a9190613a26565b60405180910390f35b61043d6004803603810190610438919061473a565b612305565b60405161044a9190613972565b60405180910390f35b61046d60048036038101906104689190613bc6565b612399565b005b60007f80ac58cd000000000000000000000000000000000000000000000000000000007bffffffffffffffffffffffffffffffffffffffffffffffffffffffff1916827bffffffffffffffffffffffffffffffffffffffffffffffffffffffff1916148061053a57507f5b5e139f000000000000000000000000000000000000000000000000000000007bffffffffffffffffffffffffffffffffffffffffffffffffffffffff1916827bffffffffffffffffffffffffffffffffffffffffffffffffffffffff1916145b8061054a57506105498261241d565b5b9050919050565b606060008054610560906147a9565b80601f016020809104026020016040519081016040528092919081815260200182805461058c906147a9565b80156105d95780601f106105ae576101008083540402835291602001916105d9565b820191906000526020600020905b8154815290600101906020018083116105bc57829003601f168201915b5050505050905090565b60006105ee82612487565b6004600083815260200190815260200160002060009054906101000a900473ffffffffffffffffffffffffffffffffffffffff169050919050565b60006106348261081d565b90508073ffffffffffffffffffffffffffffffffffffffff168373ffffffffffffffffffffffffffffffffffffffff1614156106a5576040517f08c379a000000000000000000000000000000000000000000000000000000000815260040161069c9061484d565b60405180910390fd5b8073ffffffffffffffffffffffffffffffffffffffff166106c46124d2565b73ffffffffffffffffffffffffffffffffffffffff1614806106f357506106f2816106ed6124d2565b612305565b5b610732576040517f08c379a0000000000000000000000000000000000000000000000000000000008152600401610729906148df565b60405180910390fd5b61073c83836124da565b505050565b61075261074c6124d2565b82612593565b610791576040517f08c379a000000000000000000000000000000000000000000000000000000000815260040161078890614971565b60405180910390fd5b61079c838383612628565b505050565b6107bc838383604051806020016040528060008152506120ab565b505050565b6107d26107cc6124d2565b82612593565b610811576040517f08c379a000000000000000000000000000000000000000000000000000000000815260040161080890614971565b60405180910390fd5b61081a81612922565b50565b6000806108298361292e565b9050600073ffffffffffffffffffffffffffffffffffffffff168173ffffffffffffffffffffffffffffffffffffffff16141561089b576040517f08c379a0000000000000000000000000000000000000000000000000000000008152600401610892906149dd565b60405180910390fd5b80915050919050565b60008073ffffffffffffffffffffffffffffffffffffffff168273ffffffffffffffffffffffffffffffffffffffff161415610915576040517f08c379a000000000000000000000000000000000000000000000000000000000815260040161090c90614a6f565b60405180910390fd5b600360008373ffffffffffffffffffffffffffffffffffffffff1673ffffffffffffffffffffffffffffffffffffffff168152602001908152602001600020549050919050565b61096461296b565b61096e60006129e9565b565b606080606080606080606060006060806060806000600960008f815260200190815260200160002090508060000180546109a9906147a9565b80601f01602080910402602001604051908101604052809291908181526020018280546109d5906147a9565b8015610a225780601f106109f757610100808354040283529160200191610a22565b820191906000526020600020905b815481529060010190602001808311610a0557829003601f168201915b50505050509c50806001018054610a38906147a9565b80601f0160208091040260200160405190810160405280929190818152602001828054610a64906147a9565b8015610ab15780601f10610a8657610100808354040283529160200191610ab1565b820191906000526020600020905b815481529060010190602001808311610a9457829003601f168201915b50505050509b50806002018054610ac7906147a9565b80601f0160208091040260200160405190810160405280929190818152602001828054610af3906147a9565b8015610b405780601f10610b1557610100808354040283529160200191610b40565b820191906000526020600020905b815481529060010190602001808311610b2357829003601f168201915b50505050509a50806003018054610b56906147a9565b80601f0160208091040260200160405190810160405280929190818152602001828054610b82906147a9565b8015610bcf5780601f10610ba457610100808354040283529160200191610bcf565b820191906000526020600020905b815481529060010190602001808311610bb257829003601f168201915b50505050509950806004018054610be5906147a9565b80601f0160208091040260200160405190810160405280929190818152602001828054610c11906147a9565b8015610c5e5780601f10610c3357610100808354040283529160200191610c5e565b820191906000526020600020905b815481529060010190602001808311610c4157829003601f168201915b50505050509850806005018054610c74906147a9565b80601f0160208091040260200160405190810160405280929190818152602001828054610ca0906147a9565b8015610ced5780601f10610cc257610100808354040283529160200191610ced565b820191906000526020600020905b815481529060010190602001808311610cd057829003601f168201915b50505050509750806006018054610d03906147a9565b80601f0160208091040260200160405190810160405280929190818152602001828054610d2f906147a9565b8015610d7c5780601f10610d5157610100808354040283529160200191610d7c565b820191906000526020600020905b815481529060010190602001808311610d5f57829003601f168201915b505050505096508060070154955080600801805480602002602001604051908101604052809291908181526020016000905b82821015610e5a578382906000526020600020018054610dcd906147a9565b80601f0160208091040260200160405190810160405280929190818152602001828054610df9906147a9565b8015610e465780601f10610e1b57610100808354040283529160200191610e46565b820191906000526020600020905b815481529060010190602001808311610e2957829003601f168201915b505050505081526020019060010190610dae565b50505050945080600901805480602002602001604051908101604052809291908181526020016000905b82821015610f30578382906000526020600020018054610ea3906147a9565b80601f0160208091040260200160405190810160405280929190818152602001828054610ecf906147a9565b8015610f1c5780601f10610ef157610100808354040283529160200191610f1c565b820191906000526020600020905b815481529060010190602001808311610eff57829003601f168201915b505050505081526020019060010190610e84565b50505050935080600a018054610f45906147a9565b80601f0160208091040260200160405190810160405280929190818152602001828054610f71906147a9565b8015610fbe5780601f10610f9357610100808354040283529160200191610fbe565b820191906000526020600020905b815481529060010190602001808311610fa157829003601f168201915b50505050509250610fce8e612aaf565b91505091939597999b5091939597999b565b60006060806060806060806000606080606080600a8d6040516110039190614acb565b9081526020016040518091039020549b506000600960008e8152602001908152602001600020905080600001805461103a906147a9565b80601f0160208091040260200160405190810160405280929190818152602001828054611066906147a9565b80156110b35780601f10611088576101008083540402835291602001916110b3565b820191906000526020600020905b81548152906001019060200180831161109657829003601f168201915b50505050509b508060010180546110c9906147a9565b80601f01602080910402602001604051908101604052809291908181526020018280546110f5906147a9565b80156111425780601f1061111757610100808354040283529160200191611142565b820191906000526020600020905b81548152906001019060200180831161112557829003601f168201915b50505050509a50806003018054611158906147a9565b80601f0160208091040260200160405190810160405280929190818152602001828054611184906147a9565b80156111d15780601f106111a6576101008083540402835291602001916111d1565b820191906000526020600020905b8154815290600101906020018083116111b457829003601f168201915b505050505099508060040180546111e7906147a9565b80601f0160208091040260200160405190810160405280929190818152602001828054611213906147a9565b80156112605780601f1061123557610100808354040283529160200191611260565b820191906000526020600020905b81548152906001019060200180831161124357829003601f168201915b50505050509850806005018054611276906147a9565b80601f01602080910402602001604051908101604052809291908181526020018280546112a2906147a9565b80156112ef5780601f106112c4576101008083540402835291602001916112ef565b820191906000526020600020905b8154815290600101906020018083116112d257829003601f168201915b50505050509750806006018054611305906147a9565b80601f0160208091040260200160405190810160405280929190818152602001828054611331906147a9565b801561137e5780601f106113535761010080835404028352916020019161137e565b820191906000526020600020905b81548152906001019060200180831161136157829003601f168201915b505050505096508060070154955080600801805480602002602001604051908101604052809291908181526020016000905b8282101561145c5783829060005260206000200180546113cf906147a9565b80601f01602080910402602001604051908101604052809291908181526020018280546113fb906147a9565b80156114485780601f1061141d57610100808354040283529160200191611448565b820191906000526020600020905b81548152906001019060200180831161142b57829003601f168201915b5050505050815260200190600101906113b0565b50505050945080600901805480602002602001604051908101604052809291908181526020016000905b828210156115325783829060005260206000200180546114a5906147a9565b80601f01602080910402602001604051908101604052809291908181526020018280546114d1906147a9565b801561151e5780601f106114f35761010080835404028352916020019161151e565b820191906000526020600020905b81548152906001019060200180831161150157829003601f168201915b505050505081526020019060010190611486565b50505050935080600a018054611547906147a9565b80601f0160208091040260200160405190810160405280929190818152602001828054611573906147a9565b80156115c05780601f10611595576101008083540402835291602001916115c0565b820191906000526020600020905b8154815290600101906020018083116115a357829003601f168201915b505050505092506115d08d612aaf565b91505091939597999b5091939597999b565b6000600660009054906101000a900473ffffffffffffffffffffffffffffffffffffffff16905090565b60606001805461161b906147a9565b80601f0160208091040260200160405190810160405280929190818152602001828054611647906147a9565b80156116945780601f1061166957610100808354040283529160200191611694565b820191906000526020600020905b81548152906001019060200180831161167757829003601f168201915b5050505050905090565b6116a661296b565b6000600a886040516116b89190614acb565b90815260200160405180910390205414611707576040517f08c379a00000000000000000000000000000000000000000000000000000000081526004016116fe90614b2e565b60405180910390fd5b60008a905060006117186008612bc2565b90506040518061016001604052808c81526020018b81526020018a815260200189815260200188815260200187815260200186815260200160008152602001600067ffffffffffffffff81111561177257611771613e3a565b5b6040519080825280602002602001820160405280156117a557816020015b60608152602001906001900390816117905790505b508152602001600067ffffffffffffffff8111156117c6576117c5613e3a565b5b6040519080825280602002602001820160405280156117f957816020015b60608152602001906001900390816117e45790505b508152602001858152506009600083815260200190815260200160002060008201518160000190805190602001906118329291906136fd565b50602082015181600101908051906020019061184f9291906136fd565b50604082015181600201908051906020019061186c9291906136fd565b5060608201518160030190805190602001906118899291906136fd565b5060808201518160040190805190602001906118a69291906136fd565b5060a08201518160050190805190602001906118c39291906136fd565b5060c08201518160060190805190602001906118e09291906136fd565b5060e08201518160070155610100820151816008019080519060200190611908929190613783565b50610120820151816009019080519060200190611926929190613783565b5061014082015181600a0190805190602001906119449291906136fd565b5090505080600a8a6040516119599190614acb565b9081526020016040518091039020819055506119756008612bd0565b61197f8282612be6565b6119898184612c04565b808c73ffffffffffffffffffffffffffffffffffffffff167fe649b25ea418284e682d98726ce07ccc7a6a926d3cdac495942354deca6627438b6040516119d09190613a26565b60405180910390a3505050505050505050505050565b6119f86119f16124d2565b8383612c78565b5050565b6000611a066137e3565b6060600a84604051611a189190614acb565b90815260200160405180910390205492506000600960008581526020019081526020016000209050604051806101600160405280826000018054611a5b906147a9565b80601f0160208091040260200160405190810160405280929190818152602001828054611a87906147a9565b8015611ad45780601f10611aa957610100808354040283529160200191611ad4565b820191906000526020600020905b815481529060010190602001808311611ab757829003601f168201915b50505050508152602001826001018054611aed906147a9565b80601f0160208091040260200160405190810160405280929190818152602001828054611b19906147a9565b8015611b665780601f10611b3b57610100808354040283529160200191611b66565b820191906000526020600020905b815481529060010190602001808311611b4957829003601f168201915b50505050508152602001826002018054611b7f906147a9565b80601f0160208091040260200160405190810160405280929190818152602001828054611bab906147a9565b8015611bf85780601f10611bcd57610100808354040283529160200191611bf8565b820191906000526020600020905b815481529060010190602001808311611bdb57829003601f168201915b50505050508152602001826003018054611c11906147a9565b80601f0160208091040260200160405190810160405280929190818152602001828054611c3d906147a9565b8015611c8a5780601f10611c5f57610100808354040283529160200191611c8a565b820191906000526020600020905b815481529060010190602001808311611c6d57829003601f168201915b50505050508152602001826004018054611ca3906147a9565b80601f0160208091040260200160405190810160405280929190818152602001828054611ccf906147a9565b8015611d1c5780601f10611cf157610100808354040283529160200191611d1c565b820191906000526020600020905b815481529060010190602001808311611cff57829003601f168201915b50505050508152602001826005018054611d35906147a9565b80601f0160208091040260200160405190810160405280929190818152602001828054611d61906147a9565b8015611dae5780601f10611d8357610100808354040283529160200191611dae565b820191906000526020600020905b815481529060010190602001808311611d9157829003601f168201915b50505050508152602001826006018054611dc7906147a9565b80601f0160208091040260200160405190810160405280929190818152602001828054611df3906147a9565b8015611e405780601f10611e1557610100808354040283529160200191611e40565b820191906000526020600020905b815481529060010190602001808311611e2357829003601f168201915b505050505081526020018260070154815260200182600801805480602002602001604051908101604052809291908181526020016000905b82821015611f24578382906000526020600020018054611e97906147a9565b80601f0160208091040260200160405190810160405280929190818152602001828054611ec3906147a9565b8015611f105780601f10611ee557610100808354040283529160200191611f10565b820191906000526020600020905b815481529060010190602001808311611ef357829003601f168201915b505050505081526020019060010190611e78565b50505050815260200182600901805480602002602001604051908101604052809291908181526020016000905b82821015611ffd578382906000526020600020018054611f70906147a9565b80601f0160208091040260200160405190810160405280929190818152602001828054611f9c906147a9565b8015611fe95780601f10611fbe57610100808354040283529160200191611fe9565b820191906000526020600020905b815481529060010190602001808311611fcc57829003601f168201915b505050505081526020019060010190611f51565b50505050815260200182600a018054612015906147a9565b80601f0160208091040260200160405190810160405280929190818152602001828054612041906147a9565b801561208e5780601f106120635761010080835404028352916020019161208e565b820191906000526020600020905b81548152906001019060200180831161207157829003601f168201915b505050505081525092506120a184612aaf565b9150509193909250565b6120bc6120b66124d2565b83612593565b6120fb576040517f08c379a00000000000000000000000000000000000000000000000000000000081526004016120f290614971565b60405180910390fd5b61210784848484612de5565b50505050565b6000600a8760405161211f9190614acb565b908152602001604051809103902054905060006009600083815260200190815260200160002090508681600701541061218d576040517f08c379a000000000000000000000000000000000000000000000000000000000815260040161218490614bc0565b60405180910390fd5b868160070181905550600086511180156121ea57506040518060400160405280600981526020017f756e646566696e6564000000000000000000000000000000000000000000000081525080519060200120868051906020012014155b1561222e57806008018690806001815401808255809150506001900390600052602060002001600090919091909150908051906020019061222c9291906136fd565b505b6000855111801561228257506040518060400160405280600981526020017f756e646566696e6564000000000000000000000000000000000000000000000081525080519060200120858051906020012014155b156122c65780600901859080600181540180825580915050600190039060005260206000200160009091909190915090805190602001906122c49291906136fd565b505b6122d08285612c04565b8281600a0190805190602001906122e89291906136fd565b505050505050505050565b60606122fe82612aaf565b9050919050565b6000600560008473ffffffffffffffffffffffffffffffffffffffff1673ffffffffffffffffffffffffffffffffffffffff16815260200190815260200160002060008373ffffffffffffffffffffffffffffffffffffffff1673ffffffffffffffffffffffffffffffffffffffff16815260200190815260200160002060009054906101000a900460ff16905092915050565b6123a161296b565b600073ffffffffffffffffffffffffffffffffffffffff168173ffffffffffffffffffffffffffffffffffffffff161415612411576040517f08c379a000000000000000000000000000000000000000000000000000000000815260040161240890614c52565b60405180910390fd5b61241a816129e9565b50565b60007f01ffc9a7000000000000000000000000000000000000000000000000000000007bffffffffffffffffffffffffffffffffffffffffffffffffffffffff1916827bffffffffffffffffffffffffffffffffffffffffffffffffffffffff1916149050919050565b61249081612e41565b6124cf576040517f08c379a00000000000000000000000000000000000000000000000000000000081526004016124c6906149dd565b60405180910390fd5b50565b600033905090565b816004600083815260200190815260200160002060006101000a81548173ffffffffffffffffffffffffffffffffffffffff021916908373ffffffffffffffffffffffffffffffffffffffff160217905550808273ffffffffffffffffffffffffffffffffffffffff1661254d8361081d565b73ffffffffffffffffffffffffffffffffffffffff167f8c5be1e5ebec7d5bd14f71427d1e84f3dd0314c0f7b2291e5b200ac8c7c3b92560405160405180910390a45050565b60008061259f8361081d565b90508073ffffffffffffffffffffffffffffffffffffffff168473ffffffffffffffffffffffffffffffffffffffff1614806125e157506125e08185612305565b5b8061261f57508373ffffffffffffffffffffffffffffffffffffffff16612607846105e3565b73ffffffffffffffffffffffffffffffffffffffff16145b91505092915050565b8273ffffffffffffffffffffffffffffffffffffffff166126488261081d565b73ffffffffffffffffffffffffffffffffffffffff161461269e576040517f08c379a000000000000000000000000000000000000000000000000000000000815260040161269590614ce4565b60405180910390fd5b600073ffffffffffffffffffffffffffffffffffffffff168273ffffffffffffffffffffffffffffffffffffffff16141561270e576040517f08c379a000000000000000000000000000000000000000000000000000000000815260040161270590614d76565b60405180910390fd5b61271b8383836001612e82565b8273ffffffffffffffffffffffffffffffffffffffff1661273b8261081d565b73ffffffffffffffffffffffffffffffffffffffff1614612791576040517f08c379a000000000000000000000000000000000000000000000000000000000815260040161278890614ce4565b60405180910390fd5b6004600082815260200190815260200160002060006101000a81549073ffffffffffffffffffffffffffffffffffffffff02191690556001600360008573ffffffffffffffffffffffffffffffffffffffff1673ffffffffffffffffffffffffffffffffffffffff168152602001908152602001600020600082825403925050819055506001600360008473ffffffffffffffffffffffffffffffffffffffff1673ffffffffffffffffffffffffffffffffffffffff16815260200190815260200160002060008282540192505081905550816002600083815260200190815260200160002060006101000a81548173ffffffffffffffffffffffffffffffffffffffff021916908373ffffffffffffffffffffffffffffffffffffffff160217905550808273ffffffffffffffffffffffffffffffffffffffff168473ffffffffffffffffffffffffffffffffffffffff167fddf252ad1be2c89b69c2b068fc378daa952ba7f163c4a11628f55a4df523b3ef60405160405180910390a461291d8383836001612e88565b505050565b61292b81612e8e565b50565b60006002600083815260200190815260200160002060009054906101000a900473ffffffffffffffffffffffffffffffffffffffff169050919050565b6129736124d2565b73ffffffffffffffffffffffffffffffffffffffff166129916115e2565b73ffffffffffffffffffffffffffffffffffffffff16146129e7576040517f08c379a00000000000000000000000000000000000000000000000000000000081526004016129de90614de2565b60405180910390fd5b565b6000600660009054906101000a900473ffffffffffffffffffffffffffffffffffffffff16905081600660006101000a81548173ffffffffffffffffffffffffffffffffffffffff021916908373ffffffffffffffffffffffffffffffffffffffff1602179055508173ffffffffffffffffffffffffffffffffffffffff168173ffffffffffffffffffffffffffffffffffffffff167f8be0079c531659141344cd1fd0a4f28419497f9722a3daafe3b4186f6b6457e060405160405180910390a35050565b6060612aba82612487565b6000600760008481526020019081526020016000208054612ada906147a9565b80601f0160208091040260200160405190810160405280929190818152602001828054612b06906147a9565b8015612b535780601f10612b2857610100808354040283529160200191612b53565b820191906000526020600020905b815481529060010190602001808311612b3657829003601f168201915b505050505090506000612b64612ee1565b9050600081511415612b7a578192505050612bbd565b600082511115612baf578082604051602001612b97929190614e02565b60405160208183030381529060405292505050612bbd565b612bb884612ef8565b925050505b919050565b600081600001549050919050565b6001816000016000828254019250508190555050565b612c00828260405180602001604052806000815250612f60565b5050565b612c0d82612e41565b612c4c576040517f08c379a0000000000000000000000000000000000000000000000000000000008152600401612c4390614e98565b60405180910390fd5b80600760008481526020019081526020016000209080519060200190612c739291906136fd565b505050565b8173ffffffffffffffffffffffffffffffffffffffff168373ffffffffffffffffffffffffffffffffffffffff161415612ce7576040517f08c379a0000000000000000000000000000000000000000000000000000000008152600401612cde90614f04565b60405180910390fd5b80600560008573ffffffffffffffffffffffffffffffffffffffff1673ffffffffffffffffffffffffffffffffffffffff16815260200190815260200160002060008473ffffffffffffffffffffffffffffffffffffffff1673ffffffffffffffffffffffffffffffffffffffff16815260200190815260200160002060006101000a81548160ff0219169083151502179055508173ffffffffffffffffffffffffffffffffffffffff168373ffffffffffffffffffffffffffffffffffffffff167f17307eab39ab6107e8899845ad3d59bd9653f200f220920489ca2b5937696c3183604051612dd89190613972565b60405180910390a3505050565b612df0848484612628565b612dfc84848484612fbb565b612e3b576040517f08c379a0000000000000000000000000000000000000000000000000000000008152600401612e3290614f96565b60405180910390fd5b50505050565b60008073ffffffffffffffffffffffffffffffffffffffff16612e638361292e565b73ffffffffffffffffffffffffffffffffffffffff1614159050919050565b50505050565b50505050565b612e9781613143565b6000600760008381526020019081526020016000208054612eb7906147a9565b905014612ede57600760008281526020019081526020016000206000612edd919061383d565b5b50565b606060405180602001604052806000815250905090565b6060612f0382612487565b6000612f0d612ee1565b90506000815111612f2d5760405180602001604052806000815250612f58565b80612f3784613291565b604051602001612f48929190614e02565b6040516020818303038152906040525b915050919050565b612f6a8383613369565b612f776000848484612fbb565b612fb6576040517f08c379a0000000000000000000000000000000000000000000000000000000008152600401612fad90614f96565b60405180910390fd5b505050565b6000612fdc8473ffffffffffffffffffffffffffffffffffffffff16613587565b15613136578373ffffffffffffffffffffffffffffffffffffffff1663150b7a026130056124d2565b8786866040518563ffffffff1660e01b8152600401613027949392919061500b565b6020604051808303816000875af192505050801561306357506040513d601f19601f82011682018060405250810190613060919061506c565b60015b6130e6573d8060008114613093576040519150601f19603f3d011682016040523d82523d6000602084013e613098565b606091505b506000815114156130de576040517f08c379a00000000000000000000000000000000000000000000000000000000081526004016130d590614f96565b60405180910390fd5b805181602001fd5b63150b7a0260e01b7bffffffffffffffffffffffffffffffffffffffffffffffffffffffff1916817bffffffffffffffffffffffffffffffffffffffffffffffffffffffff19161491505061313b565b600190505b949350505050565b600061314e8261081d565b905061315e816000846001612e82565b6131678261081d565b90506004600083815260200190815260200160002060006101000a81549073ffffffffffffffffffffffffffffffffffffffff02191690556001600360008373ffffffffffffffffffffffffffffffffffffffff1673ffffffffffffffffffffffffffffffffffffffff168152602001908152602001600020600082825403925050819055506002600083815260200190815260200160002060006101000a81549073ffffffffffffffffffffffffffffffffffffffff021916905581600073ffffffffffffffffffffffffffffffffffffffff168273ffffffffffffffffffffffffffffffffffffffff167fddf252ad1be2c89b69c2b068fc378daa952ba7f163c4a11628f55a4df523b3ef60405160405180910390a461328d816000846001612e88565b5050565b6060600060016132a0846135aa565b01905060008167ffffffffffffffff8111156132bf576132be613e3a565b5b6040519080825280601f01601f1916602001820160405280156132f15781602001600182028036833780820191505090505b509050600082602001820190505b60011561335e578080600190039150507f3031323334353637383961626364656600000000000000000000000000000000600a86061a8153600a858161334857613347615099565b5b04945060008514156133595761335e565b6132ff565b819350505050919050565b600073ffffffffffffffffffffffffffffffffffffffff168273ffffffffffffffffffffffffffffffffffffffff1614156133d9576040517f08c379a00000000000000000000000000000000000000000000000000000000081526004016133d090615114565b60405180910390fd5b6133e281612e41565b15613422576040517f08c379a000000000000000000000000000000000000000000000000000000000815260040161341990615180565b60405180910390fd5b613430600083836001612e82565b61343981612e41565b15613479576040517f08c379a000000000000000000000000000000000000000000000000000000000815260040161347090615180565b60405180910390fd5b6001600360008473ffffffffffffffffffffffffffffffffffffffff1673ffffffffffffffffffffffffffffffffffffffff16815260200190815260200160002060008282540192505081905550816002600083815260200190815260200160002060006101000a81548173ffffffffffffffffffffffffffffffffffffffff021916908373ffffffffffffffffffffffffffffffffffffffff160217905550808273ffffffffffffffffffffffffffffffffffffffff16600073ffffffffffffffffffffffffffffffffffffffff167fddf252ad1be2c89b69c2b068fc378daa952ba7f163c4a11628f55a4df523b3ef60405160405180910390a4613583600083836001612e88565b5050565b6000808273ffffffffffffffffffffffffffffffffffffffff163b119050919050565b600080600090507a184f03e93ff9f4daa797ed6e38ed64bf6a1f0100000000000000008310613608577a184f03e93ff9f4daa797ed6e38ed64bf6a1f01000000000000000083816135fe576135fd615099565b5b0492506040810190505b6d04ee2d6d415b85acef81000000008310613645576d04ee2d6d415b85acef8100000000838161363b5761363a615099565b5b0492506020810190505b662386f26fc10000831061367457662386f26fc10000838161366a57613669615099565b5b0492506010810190505b6305f5e100831061369d576305f5e100838161369357613692615099565b5b0492506008810190505b61271083106136c25761271083816136b8576136b7615099565b5b0492506004810190505b606483106136e557606483816136db576136da615099565b5b0492506002810190505b600a83106136f4576001810190505b80915050919050565b828054613709906147a9565b90600052602060002090601f01602090048101928261372b5760008555613772565b82601f1061374457805160ff1916838001178555613772565b82800160010185558215613772579182015b82811115613771578251825591602001919060010190613756565b5b50905061377f919061387d565b5090565b8280548282559060005260206000209081019282156137d2579160200282015b828111156137d15782518290805190602001906137c19291906136fd565b50916020019190600101906137a3565b5b5090506137df919061389a565b5090565b60405180610160016040528060608152602001606081526020016060815260200160608152602001606081526020016060815260200160608152602001600081526020016060815260200160608152602001606081525090565b508054613849906147a9565b6000825580601f1061385b575061387a565b601f016020900490600052602060002090810190613879919061387d565b5b50565b5b8082111561389657600081600090555060010161387e565b5090565b5b808211156138ba57600081816138b1919061383d565b5060010161389b565b5090565b6000604051905090565b600080fd5b600080fd5b60007fffffffff0000000000000000000000000000000000000000000000000000000082169050919050565b613907816138d2565b811461391257600080fd5b50565b600081359050613924816138fe565b92915050565b6000602082840312156139405761393f6138c8565b5b600061394e84828501613915565b91505092915050565b60008115159050919050565b61396c81613957565b82525050565b60006020820190506139876000830184613963565b92915050565b600081519050919050565b600082825260208201905092915050565b60005b838110156139c75780820151818401526020810190506139ac565b838111156139d6576000848401525b50505050565b6000601f19601f8301169050919050565b60006139f88261398d565b613a028185613998565b9350613a128185602086016139a9565b613a1b816139dc565b840191505092915050565b60006020820190508181036000830152613a4081846139ed565b905092915050565b6000819050919050565b613a5b81613a48565b8114613a6657600080fd5b50565b600081359050613a7881613a52565b92915050565b600060208284031215613a9457613a936138c8565b5b6000613aa284828501613a69565b91505092915050565b600073ffffffffffffffffffffffffffffffffffffffff82169050919050565b6000613ad682613aab565b9050919050565b613ae681613acb565b82525050565b6000602082019050613b016000830184613add565b92915050565b613b1081613acb565b8114613b1b57600080fd5b50565b600081359050613b2d81613b07565b92915050565b60008060408385031215613b4a57613b496138c8565b5b6000613b5885828601613b1e565b9250506020613b6985828601613a69565b9150509250929050565b600080600060608486031215613b8c57613b8b6138c8565b5b6000613b9a86828701613b1e565b9350506020613bab86828701613b1e565b9250506040613bbc86828701613a69565b9150509250925092565b600060208284031215613bdc57613bdb6138c8565b5b6000613bea84828501613b1e565b91505092915050565b613bfc81613a48565b82525050565b6000602082019050613c176000830184613bf3565b92915050565b600081519050919050565b600082825260208201905092915050565b6000819050602082019050919050565b600082825260208201905092915050565b6000613c658261398d565b613c6f8185613c49565b9350613c7f8185602086016139a9565b613c88816139dc565b840191505092915050565b6000613c9f8383613c5a565b905092915050565b6000602082019050919050565b6000613cbf82613c1d565b613cc98185613c28565b935083602082028501613cdb85613c39565b8060005b85811015613d175784840389528151613cf88582613c93565b9450613d0383613ca7565b925060208a01995050600181019050613cdf565b50829750879550505050505092915050565b6000610180820190508181036000830152613d44818f6139ed565b90508181036020830152613d58818e6139ed565b90508181036040830152613d6c818d6139ed565b90508181036060830152613d80818c6139ed565b90508181036080830152613d94818b6139ed565b905081810360a0830152613da8818a6139ed565b905081810360c0830152613dbc81896139ed565b9050613dcb60e0830188613bf3565b818103610100830152613dde8187613cb4565b9050818103610120830152613df38186613cb4565b9050818103610140830152613e0881856139ed565b9050818103610160830152613e1d81846139ed565b90509d9c50505050505050505050505050565b600080fd5b600080fd5b7f4e487b7100000000000000000000000000000000000000000000000000000000600052604160045260246000fd5b613e72826139dc565b810181811067ffffffffffffffff82111715613e9157613e90613e3a565b5b80604052505050565b6000613ea46138be565b9050613eb08282613e69565b919050565b600067ffffffffffffffff821115613ed057613ecf613e3a565b5b613ed9826139dc565b9050602081019050919050565b82818337600083830152505050565b6000613f08613f0384613eb5565b613e9a565b905082815260208101848484011115613f2457613f23613e35565b5b613f2f848285613ee6565b509392505050565b600082601f830112613f4c57613f4b613e30565b5b8135613f5c848260208601613ef5565b91505092915050565b600060208284031215613f7b57613f7a6138c8565b5b600082013567ffffffffffffffff811115613f9957613f986138cd565b5b613fa584828501613f37565b91505092915050565b600061018082019050613fc4600083018f613bf3565b8181036020830152613fd6818e6139ed565b90508181036040830152613fea818d6139ed565b90508181036060830152613ffe818c6139ed565b90508181036080830152614012818b6139ed565b905081810360a0830152614026818a6139ed565b905081810360c083015261403a81896139ed565b905061404960e0830188613bf3565b81810361010083015261405c8187613cb4565b90508181036101208301526140718186613cb4565b905081810361014083015261408681856139ed565b905081810361016083015261409b81846139ed565b90509d9c50505050505050505050505050565b6000806000806000806000806000806101408b8d0312156140d2576140d16138c8565b5b60006140e08d828e01613b1e565b9a505060208b013567ffffffffffffffff811115614101576141006138cd565b5b61410d8d828e01613f37565b99505060408b013567ffffffffffffffff81111561412e5761412d6138cd565b5b61413a8d828e01613f37565b98505060608b013567ffffffffffffffff81111561415b5761415a6138cd565b5b6141678d828e01613f37565b97505060808b013567ffffffffffffffff811115614188576141876138cd565b5b6141948d828e01613f37565b96505060a08b013567ffffffffffffffff8111156141b5576141b46138cd565b5b6141c18d828e01613f37565b95505060c08b013567ffffffffffffffff8111156141e2576141e16138cd565b5b6141ee8d828e01613f37565b94505060e08b013567ffffffffffffffff81111561420f5761420e6138cd565b5b61421b8d828e01613f37565b9350506101008b013567ffffffffffffffff81111561423d5761423c6138cd565b5b6142498d828e01613f37565b9250506101208b013567ffffffffffffffff81111561426b5761426a6138cd565b5b6142778d828e01613f37565b9150509295989b9194979a5092959850565b61429281613957565b811461429d57600080fd5b50565b6000813590506142af81614289565b92915050565b600080604083850312156142cc576142cb6138c8565b5b60006142da85828601613b1e565b92505060206142eb858286016142a0565b9150509250929050565b6142fe81613a48565b82525050565b600082825260208201905092915050565b600061432082613c1d565b61432a8185614304565b93508360208202850161433c85613c39565b8060005b8581101561437857848403895281516143598582613c93565b945061436483613ca7565b925060208a01995050600181019050614340565b50829750879550505050505092915050565b60006101608301600083015184820360008601526143a88282613c5a565b915050602083015184820360208601526143c28282613c5a565b915050604083015184820360408601526143dc8282613c5a565b915050606083015184820360608601526143f68282613c5a565b915050608083015184820360808601526144108282613c5a565b91505060a083015184820360a086015261442a8282613c5a565b91505060c083015184820360c08601526144448282613c5a565b91505060e083015161445960e08601826142f5565b506101008301518482036101008601526144738282614315565b91505061012083015184820361012086015261448f8282614315565b9150506101408301518482036101408601526144ab8282613c5a565b9150508091505092915050565b60006060820190506144cd6000830186613bf3565b81810360208301526144df818561438a565b905081810360408301526144f381846139ed565b9050949350505050565b600067ffffffffffffffff82111561451857614517613e3a565b5b614521826139dc565b9050602081019050919050565b600061454161453c846144fd565b613e9a565b90508281526020810184848401111561455d5761455c613e35565b5b614568848285613ee6565b509392505050565b600082601f83011261458557614584613e30565b5b813561459584826020860161452e565b91505092915050565b600080600080608085870312156145b8576145b76138c8565b5b60006145c687828801613b1e565b94505060206145d787828801613b1e565b93505060406145e887828801613a69565b925050606085013567ffffffffffffffff811115614609576146086138cd565b5b61461587828801614570565b91505092959194509250565b60008060008060008060c0878903121561463e5761463d6138c8565b5b600087013567ffffffffffffffff81111561465c5761465b6138cd565b5b61466889828a01613f37565b965050602061467989828a01613a69565b955050604087013567ffffffffffffffff81111561469a576146996138cd565b5b6146a689828a01613f37565b945050606087013567ffffffffffffffff8111156146c7576146c66138cd565b5b6146d389828a01613f37565b935050608087013567ffffffffffffffff8111156146f4576146f36138cd565b5b61470089828a01613f37565b92505060a087013567ffffffffffffffff811115614721576147206138cd565b5b61472d89828a01613f37565b9150509295509295509295565b60008060408385031215614751576147506138c8565b5b600061475f85828601613b1e565b925050602061477085828601613b1e565b9150509250929050565b7f4e487b7100000000000000000000000000000000000000000000000000000000600052602260045260246000fd5b600060028204905060018216806147c157607f821691505b602082108114156147d5576147d461477a565b5b50919050565b7f4552433732313a20617070726f76616c20746f2063757272656e74206f776e6560008201527f7200000000000000000000000000000000000000000000000000000000000000602082015250565b6000614837602183613998565b9150614842826147db565b604082019050919050565b600060208201905081810360008301526148668161482a565b9050919050565b7f4552433732313a20617070726f76652063616c6c6572206973206e6f7420746f60008201527f6b656e206f776e6572206f7220617070726f76656420666f7220616c6c000000602082015250565b60006148c9603d83613998565b91506148d48261486d565b604082019050919050565b600060208201905081810360008301526148f8816148bc565b9050919050565b7f4552433732313a2063616c6c6572206973206e6f7420746f6b656e206f776e6560008201527f72206f7220617070726f76656400000000000000000000000000000000000000602082015250565b600061495b602d83613998565b9150614966826148ff565b604082019050919050565b6000602082019050818103600083015261498a8161494e565b9050919050565b7f4552433732313a20696e76616c696420746f6b656e2049440000000000000000600082015250565b60006149c7601883613998565b91506149d282614991565b602082019050919050565b600060208201905081810360008301526149f6816149ba565b9050919050565b7f4552433732313a2061646472657373207a65726f206973206e6f74206120766160008201527f6c6964206f776e65720000000000000000000000000000000000000000000000602082015250565b6000614a59602983613998565b9150614a64826149fd565b604082019050919050565b60006020820190508181036000830152614a8881614a4c565b9050919050565b600081905092915050565b6000614aa58261398d565b614aaf8185614a8f565b9350614abf8185602086016139a9565b80840191505092915050565b6000614ad78284614a9a565b915081905092915050565b7f436172207769746820746869732056494e20616c726561647920657869737473600082015250565b6000614b18602083613998565b9150614b2382614ae2565b602082019050919050565b60006020820190508181036000830152614b4781614b0b565b9050919050565b7f4e6577206b696c6f6d65746572732076616c7565206d7573742062652067726560008201527f61746572207468616e207468652063757272656e742076616c75650000000000602082015250565b6000614baa603b83613998565b9150614bb582614b4e565b604082019050919050565b60006020820190508181036000830152614bd981614b9d565b9050919050565b7f4f776e61626c653a206e6577206f776e657220697320746865207a65726f206160008201527f6464726573730000000000000000000000000000000000000000000000000000602082015250565b6000614c3c602683613998565b9150614c4782614be0565b604082019050919050565b60006020820190508181036000830152614c6b81614c2f565b9050919050565b7f4552433732313a207472616e736665722066726f6d20696e636f72726563742060008201527f6f776e6572000000000000000000000000000000000000000000000000000000602082015250565b6000614cce602583613998565b9150614cd982614c72565b604082019050919050565b60006020820190508181036000830152614cfd81614cc1565b9050919050565b7f4552433732313a207472616e7366657220746f20746865207a65726f2061646460008201527f7265737300000000000000000000000000000000000000000000000000000000602082015250565b6000614d60602483613998565b9150614d6b82614d04565b604082019050919050565b60006020820190508181036000830152614d8f81614d53565b9050919050565b7f4f776e61626c653a2063616c6c6572206973206e6f7420746865206f776e6572600082015250565b6000614dcc602083613998565b9150614dd782614d96565b602082019050919050565b60006020820190508181036000830152614dfb81614dbf565b9050919050565b6000614e0e8285614a9a565b9150614e1a8284614a9a565b91508190509392505050565b7f45524337323155524953746f726167653a2055524920736574206f66206e6f6e60008201527f6578697374656e7420746f6b656e000000000000000000000000000000000000602082015250565b6000614e82602e83613998565b9150614e8d82614e26565b604082019050919050565b60006020820190508181036000830152614eb181614e75565b9050919050565b7f4552433732313a20617070726f766520746f2063616c6c657200000000000000600082015250565b6000614eee601983613998565b9150614ef982614eb8565b602082019050919050565b60006020820190508181036000830152614f1d81614ee1565b9050919050565b7f4552433732313a207472616e7366657220746f206e6f6e20455243373231526560008201527f63656976657220696d706c656d656e7465720000000000000000000000000000602082015250565b6000614f80603283613998565b9150614f8b82614f24565b604082019050919050565b60006020820190508181036000830152614faf81614f73565b9050919050565b600081519050919050565b600082825260208201905092915050565b6000614fdd82614fb6565b614fe78185614fc1565b9350614ff78185602086016139a9565b615000816139dc565b840191505092915050565b60006080820190506150206000830187613add565b61502d6020830186613add565b61503a6040830185613bf3565b818103606083015261504c8184614fd2565b905095945050505050565b600081519050615066816138fe565b92915050565b600060208284031215615082576150816138c8565b5b600061509084828501615057565b91505092915050565b7f4e487b7100000000000000000000000000000000000000000000000000000000600052601260045260246000fd5b7f4552433732313a206d696e7420746f20746865207a65726f2061646472657373600082015250565b60006150fe602083613998565b9150615109826150c8565b602082019050919050565b6000602082019050818103600083015261512d816150f1565b9050919050565b7f4552433732313a20746f6b656e20616c7265616479206d696e74656400000000600082015250565b600061516a601c83613998565b915061517582615134565b602082019050919050565b600060208201905081810360008301526151998161515d565b905091905056fea2646970667358221220022c0297c305aee801279b3bc5f3804a1e1eacc7bdd2ca582b4cebe56a22bd1a64736f6c634300080b0033",
  "linkReferences": {},
  "deployedLinkReferences": {}
}