{
  "_format": "hh-sol-artifact-1",
  "contractName": "AutoPassport",
  "sourceName": "contracts/AutoPassport.sol",
  "abi": [
    {
      "inputs": [],
      "stateMutability": "nonpayable",
      "type": "constructor"
    },
    {
      "anonymous": false,
      "inputs": [
        {
          "indexed": true,
          "internalType": "address",
          "name": "owner",
          "type": "address"
        },
        {
          "indexed": true,
          "internalType": "address",
          "name": "approved",
          "type": "address"
        },
        {
          "indexed": true,
          "internalType": "uint256",
          "name": "tokenId",
          "type": "uint256"
        }
      ],
      "name": "Approval",
      "type": "event"
    },
    {
      "anonymous": false,
      "inputs": [
        {
          "indexed": true,
          "internalType": "address",
          "name": "owner",
          "type": "address"
        },
        {
          "indexed": true,
          "internalType": "address",
          "name": "operator",
          "type": "address"
        },
        {
          "indexed": false,
          "internalType": "bool",
          "name": "approved",
          "type": "bool"
        }
      ],
      "name": "ApprovalForAll",
      "type": "event"
    },
    {
      "anonymous": false,
      "inputs": [
        {
          "indexed": true,
          "internalType": "address",
          "name": "from",
          "type": "address"
        },
        {
          "indexed": true,
          "internalType": "uint256",
          "name": "tokenId",
          "type": "uint256"
        },
        {
          "indexed": false,
          "internalType": "string",
          "name": "vin",
          "type": "string"
        }
      ],
      "name": "Creation",
      "type": "event"
    },
    {
      "anonymous": false,
      "inputs": [
        {
          "indexed": true,
          "internalType": "address",
          "name": "previousOwner",
          "type": "address"
        },
        {
          "indexed": true,
          "internalType": "address",
          "name": "newOwner",
          "type": "address"
        }
      ],
      "name": "OwnershipTransferred",
      "type": "event"
    },
    {
      "anonymous": false,
      "inputs": [
        {
          "indexed": true,
          "internalType": "address",
          "name": "from",
          "type": "address"
        },
        {
          "indexed": true,
          "internalType": "address",
          "name": "to",
          "type": "address"
        },
        {
          "indexed": true,
          "internalType": "uint256",
          "name": "tokenId",
          "type": "uint256"
        }
      ],
      "name": "Transfer",
      "type": "event"
    },
    {
      "inputs": [
        {
          "internalType": "address",
          "name": "to",
          "type": "address"
        },
        {
          "internalType": "uint256",
          "name": "tokenId",
          "type": "uint256"
        }
      ],
      "name": "approve",
      "outputs": [],
      "stateMutability": "nonpayable",
      "type": "function"
    },
    {
      "inputs": [
        {
          "internalType": "address",
          "name": "owner",
          "type": "address"
        }
      ],
      "name": "balanceOf",
      "outputs": [
        {
          "internalType": "uint256",
          "name": "",
          "type": "uint256"
        }
      ],
      "stateMutability": "view",
      "type": "function"
    },
    {
      "inputs": [
        {
          "internalType": "uint256",
          "name": "tokenId",
          "type": "uint256"
        }
      ],
      "name": "burn",
      "outputs": [],
      "stateMutability": "nonpayable",
      "type": "function"
    },
    {
      "inputs": [
        {
          "internalType": "address",
          "name": "to",
          "type": "address"
        },
        {
          "internalType": "string",
          "name": "brand",
          "type": "string"
        },
        {
          "internalType": "string",
          "name": "model",
          "type": "string"
        },
        {
          "internalType": "string",
          "name": "vin",
          "type": "string"
        },
        {
          "internalType": "string",
          "name": "color_code",
          "type": "string"
        },
        {
          "internalType": "string",
          "name": "date_of_manufacture",
          "type": "string"
        },
        {
          "internalType": "string",
          "name": "warranty_expiration_date",
          "type": "string"
        },
        {
          "internalType": "string",
          "name": "fuel_type",
          "type": "string"
        },
        {
          "internalType": "string",
          "name": "last_update",
          "type": "string"
        },
        {
          "internalType": "string",
          "name": "uriIpfsUrl",
          "type": "string"
        }
      ],
      "name": "createAutoPassport",
      "outputs": [],
      "stateMutability": "nonpayable",
      "type": "function"
    },
    {
      "inputs": [
        {
          "internalType": "uint256",
          "name": "tokenId",
          "type": "uint256"
        }
      ],
      "name": "getApproved",
      "outputs": [
        {
          "internalType": "address",
          "name": "",
          "type": "address"
        }
      ],
      "stateMutability": "view",
      "type": "function"
    },
    {
      "inputs": [
        {
          "internalType": "uint256",
          "name": "tokenId",
          "type": "uint256"
        }
      ],
      "name": "getCarByTokenId",
      "outputs": [
        {
          "internalType": "string",
          "name": "brand",
          "type": "string"
        },
        {
          "internalType": "string",
          "name": "model",
          "type": "string"
        },
        {
          "internalType": "string",
          "name": "vin",
          "type": "string"
        },
        {
          "internalType": "string",
          "name": "color_code",
          "type": "string"
        },
        {
          "internalType": "string",
          "name": "date_of_manufacture",
          "type": "string"
        },
        {
          "internalType": "string",
          "name": "warranty_expiration_date",
          "type": "string"
        },
        {
          "internalType": "string",
          "name": "fuel_type",
          "type": "string"
        },
        {
          "internalType": "uint256",
          "name": "mileage",
          "type": "uint256"
        },
        {
          "internalType": "string[]",
          "name": "repair_history",
          "type": "string[]"
        },
        {
          "internalType": "string[]",
          "name": "maintenance_history",
          "type": "string[]"
        },
        {
          "internalType": "string",
          "name": "last_update",
          "type": "string"
        },
        {
          "internalType": "string",
          "name": "uri",
          "type": "string"
        }
      ],
      "stateMutability": "view",
      "type": "function"
    },
    {
      "inputs": [
        {
          "internalType": "string",
          "name": "vin",
          "type": "string"
        }
      ],
      "name": "getCarByVIN",
      "outputs": [
        {
          "internalType": "uint256",
          "name": "tokenId",
          "type": "uint256"
        },
        {
          "internalType": "string",
          "name": "brand",
          "type": "string"
        },
        {
          "internalType": "string",
          "name": "model",
          "type": "string"
        },
        {
          "internalType": "string",
          "name": "color_code",
          "type": "string"
        },
        {
          "internalType": "string",
          "name": "date_of_manufacture",
          "type": "string"
        },
        {
          "internalType": "string",
          "name": "warranty_expiration_date",
          "type": "string"
        },
        {
          "internalType": "string",
          "name": "fuel_type",
          "type": "string"
        },
        {
          "internalType": "uint256",
          "name": "mileage",
          "type": "uint256"
        },
        {
          "internalType": "string[]",
          "name": "repair_history",
          "type": "string[]"
        },
        {
          "internalType": "string[]",
          "name": "maintenance_history",
          "type": "string[]"
        },
        {
          "internalType": "string",
          "name": "last_update",
          "type": "string"
        },
        {
          "internalType": "string",
          "name": "uri",
          "type": "string"
        }
      ],
      "stateMutability": "view",
      "type": "function"
    },
    {
      "inputs": [
        {
          "internalType": "address",
          "name": "owner",
          "type": "address"
        },
        {
          "internalType": "address",
          "name": "operator",
          "type": "address"
        }
      ],
      "name": "isApprovedForAll",
      "outputs": [
        {
          "internalType": "bool",
          "name": "",
          "type": "bool"
        }
      ],
      "stateMutability": "view",
      "type": "function"
    },
    {
      "inputs": [],
      "name": "name",
      "outputs": [
        {
          "internalType": "string",
          "name": "",
          "type": "string"
        }
      ],
      "stateMutability": "view",
      "type": "function"
    },
    {
      "inputs": [],
      "name": "owner",
      "outputs": [
        {
          "internalType": "address",
          "name": "",
          "type": "address"
        }
      ],
      "stateMutability": "view",
      "type": "function"
    },
    {
      "inputs": [
        {
          "internalType": "uint256",
          "name": "tokenId",
          "type": "uint256"
        }
      ],
      "name": "ownerOf",
      "outputs": [
        {
          "internalType": "address",
          "name": "",
          "type": "address"
        }
      ],
      "stateMutability": "view",
      "type": "function"
    },
    {
      "inputs": [],
      "name": "renounceOwnership",
      "outputs": [],
      "stateMutability": "nonpayable",
      "type": "function"
    },
    {
      "inputs": [
        {
          "internalType": "address",
          "name": "from",
          "type": "address"
        },
        {
          "internalType": "address",
          "name": "to",
          "type": "address"
        },
        {
          "internalType": "uint256",
          "name": "tokenId",
          "type": "uint256"
        }
      ],
      "name": "safeTransferFrom",
      "outputs": [],
      "stateMutability": "nonpayable",
      "type": "function"
    },
    {
      "inputs": [
        {
          "internalType": "address",
          "name": "from",
          "type": "address"
        },
        {
          "internalType": "address",
          "name": "to",
          "type": "address"
        },
        {
          "internalType": "uint256",
          "name": "tokenId",
          "type": "uint256"
        },
        {
          "internalType": "bytes",
          "name": "data",
          "type": "bytes"
        }
      ],
      "name": "safeTransferFrom",
      "outputs": [],
      "stateMutability": "nonpayable",
      "type": "function"
    },
    {
      "inputs": [
        {
          "internalType": "address",
          "name": "operator",
          "type": "address"
        },
        {
          "internalType": "bool",
          "name": "approved",
          "type": "bool"
        }
      ],
      "name": "setApprovalForAll",
      "outputs": [],
      "stateMutability": "nonpayable",
      "type": "function"
    },
    {
      "inputs": [
        {
          "internalType": "bytes4",
          "name": "interfaceId",
          "type": "bytes4"
        }
      ],
      "name": "supportsInterface",
      "outputs": [
        {
          "internalType": "bool",
          "name": "",
          "type": "bool"
        }
      ],
      "stateMutability": "view",
      "type": "function"
    },
    {
      "inputs": [],
      "name": "symbol",
      "outputs": [
        {
          "internalType": "string",
          "name": "",
          "type": "string"
        }
      ],
      "stateMutability": "view",
      "type": "function"
    },
    {
      "inputs": [
        {
          "internalType": "uint256",
          "name": "tokenId",
          "type": "uint256"
        }
      ],
      "name": "tokenURI",
      "outputs": [
        {
          "internalType": "string",
          "name": "",
          "type": "string"
        }
      ],
      "stateMutability": "view",
      "type": "function"
    },
    {
      "inputs": [
        {
          "internalType": "address",
          "name": "from",
          "type": "address"
        },
        {
          "internalType": "address",
          "name": "to",
          "type": "address"
        },
        {
          "internalType": "uint256",
          "name": "tokenId",
          "type": "uint256"
        }
      ],
      "name": "transferFrom",
      "outputs": [],
      "stateMutability": "nonpayable",
      "type": "function"
    },
    {
      "inputs": [
        {
          "internalType": "address",
          "name": "newOwner",
          "type": "address"
        }
      ],
      "name": "transferOwnership",
      "outputs": [],
      "stateMutability": "nonpayable",
      "type": "function"
    },
    {
      "inputs": [
        {
          "internalType": "string",
          "name": "vin",
          "type": "string"
        },
        {
          "internalType": "uint256",
          "name": "mileage",
          "type": "uint256"
        },
        {
          "internalType": "string",
          "name": "newRepair",
          "type": "string"
        },
        {
          "internalType": "string",
          "name": "newMaintenance",
          "type": "string"
        },
        {
          "internalType": "string",
          "name": "newURI",
          "type": "string"
        },
        {
          "internalType": "string",
          "name": "last_update",
          "type": "string"
        }
      ],
      "name": "updateAutoPassport",
      "outputs": [],
      "stateMutability": "nonpayable",
      "type": "function"
    }
  ],
  "bytecode": "0x60806040523480156200001157600080fd5b506040518060400160405280600c81526020017f4175746f70617373706f727400000000000000000000000000000000000000008152506040518060400160405280600481526020017f5061737300000000000000000000000000000000000000000000000000000000815250816000908051906020019062000096929190620001a6565b508060019080519060200190620000af929190620001a6565b505050620000d2620000c6620000d860201b60201c565b620000e060201b60201c565b620002bb565b600033905090565b6000600660009054906101000a900473ffffffffffffffffffffffffffffffffffffffff16905081600660006101000a81548173ffffffffffffffffffffffffffffffffffffffff021916908373ffffffffffffffffffffffffffffffffffffffff1602179055508173ffffffffffffffffffffffffffffffffffffffff168173ffffffffffffffffffffffffffffffffffffffff167f8be0079c531659141344cd1fd0a4f28419497f9722a3daafe3b4186f6b6457e060405160405180910390a35050565b828054620001b49062000285565b90600052602060002090601f016020900481019282620001d8576000855562000224565b82601f10620001f357805160ff191683800117855562000224565b8280016001018555821562000224579182015b828111156200022357825182559160200191906001019062000206565b5b50905062000233919062000237565b5090565b5b808211156200025257600081600090555060010162000238565b5090565b7f4e487b7100000000000000000000000000000000000000000000000000000000600052602260045260246000fd5b600060028204905060018216806200029e57607f821691505b60208210811415620002b557620002b462000256565b5b50919050565b61488880620002cb6000396000f3fe608060405234801561001057600080fd5b50600436106101375760003560e01c806376e78ce6116100b8578063a22cb4651161007c578063a22cb46514610362578063b88d4fde1461037e578063bf450d151461039a578063c87b56dd146103b6578063e985e9c5146103e6578063f2fde38b1461041657610137565b806376e78ce6146102945780637a5a576d146102cf5780638da5cb5b1461030a57806395d89b4114610328578063973cacb61461034657610137565b806342842e0e116100ff57806342842e0e146101f257806342966c681461020e5780636352211e1461022a57806370a082311461025a578063715018a61461028a57610137565b806301ffc9a71461013c57806306fdde031461016c578063081812fc1461018a578063095ea7b3146101ba57806323b872dd146101d6575b600080fd5b610156600480360381019061015191906131e4565b610432565b604051610163919061322c565b60405180910390f35b610174610514565b60405161018191906132e0565b60405180910390f35b6101a4600480360381019061019f9190613338565b6105a6565b6040516101b191906133a6565b60405180910390f35b6101d460048036038101906101cf91906133ed565b6105ec565b005b6101f060048036038101906101eb919061342d565b610704565b005b61020c6004803603810190610207919061342d565b610764565b005b61022860048036038101906102239190613338565b610784565b005b610244600480360381019061023f9190613338565b6107e0565b60405161025191906133a6565b60405180910390f35b610274600480360381019061026f9190613480565b610867565b60405161028191906134bc565b60405180910390f35b61029261091f565b005b6102ae60048036038101906102a99190613338565b610933565b6040516102c69c9b9a999897969594939291906135e3565b60405180910390f35b6102e960048036038101906102e4919061381f565b610fa3565b6040516103019c9b9a99989796959493929190613868565b60405180910390f35b6103126115a5565b60405161031f91906133a6565b60405180910390f35b6103306115cf565b60405161033d91906132e0565b60405180910390f35b610360600480360381019061035b9190613968565b611661565b005b61037c60048036038101906103779190613b6f565b6119a9565b005b61039860048036038101906103939190613c50565b6119bf565b005b6103b460048036038101906103af9190613cd3565b611a21565b005b6103d060048036038101906103cb9190613338565b611c07565b6040516103dd91906132e0565b60405180910390f35b61040060048036038101906103fb9190613dec565b611c19565b60405161040d919061322c565b60405180910390f35b610430600480360381019061042b9190613480565b611cad565b005b60007f80ac58cd000000000000000000000000000000000000000000000000000000007bffffffffffffffffffffffffffffffffffffffffffffffffffffffff1916827bffffffffffffffffffffffffffffffffffffffffffffffffffffffff191614806104fd57507f5b5e139f000000000000000000000000000000000000000000000000000000007bffffffffffffffffffffffffffffffffffffffffffffffffffffffff1916827bffffffffffffffffffffffffffffffffffffffffffffffffffffffff1916145b8061050d575061050c82611d31565b5b9050919050565b60606000805461052390613e5b565b80601f016020809104026020016040519081016040528092919081815260200182805461054f90613e5b565b801561059c5780601f106105715761010080835404028352916020019161059c565b820191906000526020600020905b81548152906001019060200180831161057f57829003601f168201915b5050505050905090565b60006105b182611d9b565b6004600083815260200190815260200160002060009054906101000a900473ffffffffffffffffffffffffffffffffffffffff169050919050565b60006105f7826107e0565b90508073ffffffffffffffffffffffffffffffffffffffff168373ffffffffffffffffffffffffffffffffffffffff161415610668576040517f08c379a000000000000000000000000000000000000000000000000000000000815260040161065f90613eff565b60405180910390fd5b8073ffffffffffffffffffffffffffffffffffffffff16610687611de6565b73ffffffffffffffffffffffffffffffffffffffff1614806106b657506106b5816106b0611de6565b611c19565b5b6106f5576040517f08c379a00000000000000000000000000000000000000000000000000000000081526004016106ec90613f91565b60405180910390fd5b6106ff8383611dee565b505050565b61071561070f611de6565b82611ea7565b610754576040517f08c379a000000000000000000000000000000000000000000000000000000000815260040161074b90614023565b60405180910390fd5b61075f838383611f3c565b505050565b61077f838383604051806020016040528060008152506119bf565b505050565b61079561078f611de6565b82611ea7565b6107d4576040517f08c379a00000000000000000000000000000000000000000000000000000000081526004016107cb90614023565b60405180910390fd5b6107dd81612236565b50565b6000806107ec83612242565b9050600073ffffffffffffffffffffffffffffffffffffffff168173ffffffffffffffffffffffffffffffffffffffff16141561085e576040517f08c379a00000000000000000000000000000000000000000000000000000000081526004016108559061408f565b60405180910390fd5b80915050919050565b60008073ffffffffffffffffffffffffffffffffffffffff168273ffffffffffffffffffffffffffffffffffffffff1614156108d8576040517f08c379a00000000000000000000000000000000000000000000000000000000081526004016108cf90614121565b60405180910390fd5b600360008373ffffffffffffffffffffffffffffffffffffffff1673ffffffffffffffffffffffffffffffffffffffff168152602001908152602001600020549050919050565b61092761227f565b61093160006122fd565b565b606080606080606080606060006060806060806000600960008f8152602001908152602001600020905080600001805461096c90613e5b565b80601f016020809104026020016040519081016040528092919081815260200182805461099890613e5b565b80156109e55780601f106109ba576101008083540402835291602001916109e5565b820191906000526020600020905b8154815290600101906020018083116109c857829003601f168201915b50505050509c508060010180546109fb90613e5b565b80601f0160208091040260200160405190810160405280929190818152602001828054610a2790613e5b565b8015610a745780601f10610a4957610100808354040283529160200191610a74565b820191906000526020600020905b815481529060010190602001808311610a5757829003601f168201915b50505050509b50806002018054610a8a90613e5b565b80601f0160208091040260200160405190810160405280929190818152602001828054610ab690613e5b565b8015610b035780601f10610ad857610100808354040283529160200191610b03565b820191906000526020600020905b815481529060010190602001808311610ae657829003601f168201915b50505050509a50806003018054610b1990613e5b565b80601f0160208091040260200160405190810160405280929190818152602001828054610b4590613e5b565b8015610b925780601f10610b6757610100808354040283529160200191610b92565b820191906000526020600020905b815481529060010190602001808311610b7557829003601f168201915b50505050509950806004018054610ba890613e5b565b80601f0160208091040260200160405190810160405280929190818152602001828054610bd490613e5b565b8015610c215780601f10610bf657610100808354040283529160200191610c21565b820191906000526020600020905b815481529060010190602001808311610c0457829003601f168201915b50505050509850806005018054610c3790613e5b565b80601f0160208091040260200160405190810160405280929190818152602001828054610c6390613e5b565b8015610cb05780601f10610c8557610100808354040283529160200191610cb0565b820191906000526020600020905b815481529060010190602001808311610c9357829003601f168201915b50505050509750806006018054610cc690613e5b565b80601f0160208091040260200160405190810160405280929190818152602001828054610cf290613e5b565b8015610d3f5780601f10610d1457610100808354040283529160200191610d3f565b820191906000526020600020905b815481529060010190602001808311610d2257829003601f168201915b505050505096508060070154955080600801805480602002602001604051908101604052809291908181526020016000905b82821015610e1d578382906000526020600020018054610d9090613e5b565b80601f0160208091040260200160405190810160405280929190818152602001828054610dbc90613e5b565b8015610e095780601f10610dde57610100808354040283529160200191610e09565b820191906000526020600020905b815481529060010190602001808311610dec57829003601f168201915b505050505081526020019060010190610d71565b50505050945080600901805480602002602001604051908101604052809291908181526020016000905b82821015610ef3578382906000526020600020018054610e6690613e5b565b80601f0160208091040260200160405190810160405280929190818152602001828054610e9290613e5b565b8015610edf5780601f10610eb457610100808354040283529160200191610edf565b820191906000526020600020905b815481529060010190602001808311610ec257829003601f168201915b505050505081526020019060010190610e47565b50505050935080600a018054610f0890613e5b565b80601f0160208091040260200160405190810160405280929190818152602001828054610f3490613e5b565b8015610f815780601f10610f5657610100808354040283529160200191610f81565b820191906000526020600020905b815481529060010190602001808311610f6457829003601f168201915b50505050509250610f918e6123c3565b91505091939597999b5091939597999b565b60006060806060806060806000606080606080600a8d604051610fc6919061417d565b9081526020016040518091039020549b506000600960008e81526020019081526020016000209050806000018054610ffd90613e5b565b80601f016020809104026020016040519081016040528092919081815260200182805461102990613e5b565b80156110765780601f1061104b57610100808354040283529160200191611076565b820191906000526020600020905b81548152906001019060200180831161105957829003601f168201915b50505050509b5080600101805461108c90613e5b565b80601f01602080910402602001604051908101604052809291908181526020018280546110b890613e5b565b80156111055780601f106110da57610100808354040283529160200191611105565b820191906000526020600020905b8154815290600101906020018083116110e857829003601f168201915b50505050509a5080600301805461111b90613e5b565b80601f016020809104026020016040519081016040528092919081815260200182805461114790613e5b565b80156111945780601f1061116957610100808354040283529160200191611194565b820191906000526020600020905b81548152906001019060200180831161117757829003601f168201915b505050505099508060040180546111aa90613e5b565b80601f01602080910402602001604051908101604052809291908181526020018280546111d690613e5b565b80156112235780601f106111f857610100808354040283529160200191611223565b820191906000526020600020905b81548152906001019060200180831161120657829003601f168201915b5050505050985080600501805461123990613e5b565b80601f016020809104026020016040519081016040528092919081815260200182805461126590613e5b565b80156112b25780601f10611287576101008083540402835291602001916112b2565b820191906000526020600020905b81548152906001019060200180831161129557829003601f168201915b505050505097508060060180546112c890613e5b565b80601f01602080910402602001604051908101604052809291908181526020018280546112f490613e5b565b80156113415780601f1061131657610100808354040283529160200191611341565b820191906000526020600020905b81548152906001019060200180831161132457829003601f168201915b505050505096508060070154955080600801805480602002602001604051908101604052809291908181526020016000905b8282101561141f57838290600052602060002001805461139290613e5b565b80601f01602080910402602001604051908101604052809291908181526020018280546113be90613e5b565b801561140b5780601f106113e05761010080835404028352916020019161140b565b820191906000526020600020905b8154815290600101906020018083116113ee57829003601f168201915b505050505081526020019060010190611373565b50505050945080600901805480602002602001604051908101604052809291908181526020016000905b828210156114f557838290600052602060002001805461146890613e5b565b80601f016020809104026020016040519081016040528092919081815260200182805461149490613e5b565b80156114e15780601f106114b6576101008083540402835291602001916114e1565b820191906000526020600020905b8154815290600101906020018083116114c457829003601f168201915b505050505081526020019060010190611449565b50505050935080600a01805461150a90613e5b565b80601f016020809104026020016040519081016040528092919081815260200182805461153690613e5b565b80156115835780601f1061155857610100808354040283529160200191611583565b820191906000526020600020905b81548152906001019060200180831161156657829003601f168201915b505050505092506115938d6123c3565b91505091939597999b5091939597999b565b6000600660009054906101000a900473ffffffffffffffffffffffffffffffffffffffff16905090565b6060600180546115de90613e5b565b80601f016020809104026020016040519081016040528092919081815260200182805461160a90613e5b565b80156116575780601f1061162c57610100808354040283529160200191611657565b820191906000526020600020905b81548152906001019060200180831161163a57829003601f168201915b5050505050905090565b61166961227f565b6000600a8860405161167b919061417d565b908152602001604051809103902054146116ca576040517f08c379a00000000000000000000000000000000000000000000000000000000081526004016116c1906141e0565b60405180910390fd5b60008a905060006116db60086124d6565b90506040518061016001604052808c81526020018b81526020018a815260200189815260200188815260200187815260200186815260200160008152602001600067ffffffffffffffff811115611735576117346136f4565b5b60405190808252806020026020018201604052801561176857816020015b60608152602001906001900390816117535790505b508152602001600067ffffffffffffffff811115611789576117886136f4565b5b6040519080825280602002602001820160405280156117bc57816020015b60608152602001906001900390816117a75790505b508152602001858152506009600083815260200190815260200160002060008201518160000190805190602001906117f5929190613011565b506020820151816001019080519060200190611812929190613011565b50604082015181600201908051906020019061182f929190613011565b50606082015181600301908051906020019061184c929190613011565b506080820151816004019080519060200190611869929190613011565b5060a0820151816005019080519060200190611886929190613011565b5060c08201518160060190805190602001906118a3929190613011565b5060e082015181600701556101008201518160080190805190602001906118cb929190613097565b506101208201518160090190805190602001906118e9929190613097565b5061014082015181600a019080519060200190611907929190613011565b5090505080600a8a60405161191c919061417d565b90815260200160405180910390208190555061193860086124e4565b61194282826124fa565b61194c8184612518565b808c73ffffffffffffffffffffffffffffffffffffffff167fe649b25ea418284e682d98726ce07ccc7a6a926d3cdac495942354deca6627438b60405161199391906132e0565b60405180910390a3505050505050505050505050565b6119bb6119b4611de6565b838361258c565b5050565b6119d06119ca611de6565b83611ea7565b611a0f576040517f08c379a0000000000000000000000000000000000000000000000000000000008152600401611a0690614023565b60405180910390fd5b611a1b848484846126f9565b50505050565b6000600a87604051611a33919061417d565b9081526020016040518091039020549050600060096000838152602001908152602001600020905086816007015410611aa1576040517f08c379a0000000000000000000000000000000000000000000000000000000008152600401611a9890614272565b60405180910390fd5b86816007018190555060008651118015611afe57506040518060400160405280600981526020017f756e646566696e6564000000000000000000000000000000000000000000000081525080519060200120868051906020012014155b15611b42578060080186908060018154018082558091505060019003906000526020600020016000909190919091509080519060200190611b40929190613011565b505b60008551118015611b9657506040518060400160405280600981526020017f756e646566696e6564000000000000000000000000000000000000000000000081525080519060200120858051906020012014155b15611bda578060090185908060018154018082558091505060019003906000526020600020016000909190919091509080519060200190611bd8929190613011565b505b611be48285612518565b8281600a019080519060200190611bfc929190613011565b505050505050505050565b6060611c12826123c3565b9050919050565b6000600560008473ffffffffffffffffffffffffffffffffffffffff1673ffffffffffffffffffffffffffffffffffffffff16815260200190815260200160002060008373ffffffffffffffffffffffffffffffffffffffff1673ffffffffffffffffffffffffffffffffffffffff16815260200190815260200160002060009054906101000a900460ff16905092915050565b611cb561227f565b600073ffffffffffffffffffffffffffffffffffffffff168173ffffffffffffffffffffffffffffffffffffffff161415611d25576040517f08c379a0000000000000000000000000000000000000000000000000000000008152600401611d1c90614304565b60405180910390fd5b611d2e816122fd565b50565b60007f01ffc9a7000000000000000000000000000000000000000000000000000000007bffffffffffffffffffffffffffffffffffffffffffffffffffffffff1916827bffffffffffffffffffffffffffffffffffffffffffffffffffffffff1916149050919050565b611da481612755565b611de3576040517f08c379a0000000000000000000000000000000000000000000000000000000008152600401611dda9061408f565b60405180910390fd5b50565b600033905090565b816004600083815260200190815260200160002060006101000a81548173ffffffffffffffffffffffffffffffffffffffff021916908373ffffffffffffffffffffffffffffffffffffffff160217905550808273ffffffffffffffffffffffffffffffffffffffff16611e61836107e0565b73ffffffffffffffffffffffffffffffffffffffff167f8c5be1e5ebec7d5bd14f71427d1e84f3dd0314c0f7b2291e5b200ac8c7c3b92560405160405180910390a45050565b600080611eb3836107e0565b90508073ffffffffffffffffffffffffffffffffffffffff168473ffffffffffffffffffffffffffffffffffffffff161480611ef55750611ef48185611c19565b5b80611f3357508373ffffffffffffffffffffffffffffffffffffffff16611f1b846105a6565b73ffffffffffffffffffffffffffffffffffffffff16145b91505092915050565b8273ffffffffffffffffffffffffffffffffffffffff16611f5c826107e0565b73ffffffffffffffffffffffffffffffffffffffff1614611fb2576040517f08c379a0000000000000000000000000000000000000000000000000000000008152600401611fa990614396565b60405180910390fd5b600073ffffffffffffffffffffffffffffffffffffffff168273ffffffffffffffffffffffffffffffffffffffff161415612022576040517f08c379a000000000000000000000000000000000000000000000000000000000815260040161201990614428565b60405180910390fd5b61202f8383836001612796565b8273ffffffffffffffffffffffffffffffffffffffff1661204f826107e0565b73ffffffffffffffffffffffffffffffffffffffff16146120a5576040517f08c379a000000000000000000000000000000000000000000000000000000000815260040161209c90614396565b60405180910390fd5b6004600082815260200190815260200160002060006101000a81549073ffffffffffffffffffffffffffffffffffffffff02191690556001600360008573ffffffffffffffffffffffffffffffffffffffff1673ffffffffffffffffffffffffffffffffffffffff168152602001908152602001600020600082825403925050819055506001600360008473ffffffffffffffffffffffffffffffffffffffff1673ffffffffffffffffffffffffffffffffffffffff16815260200190815260200160002060008282540192505081905550816002600083815260200190815260200160002060006101000a81548173ffffffffffffffffffffffffffffffffffffffff021916908373ffffffffffffffffffffffffffffffffffffffff160217905550808273ffffffffffffffffffffffffffffffffffffffff168473ffffffffffffffffffffffffffffffffffffffff167fddf252ad1be2c89b69c2b068fc378daa952ba7f163c4a11628f55a4df523b3ef60405160405180910390a4612231838383600161279c565b505050565b61223f816127a2565b50565b60006002600083815260200190815260200160002060009054906101000a900473ffffffffffffffffffffffffffffffffffffffff169050919050565b612287611de6565b73ffffffffffffffffffffffffffffffffffffffff166122a56115a5565b73ffffffffffffffffffffffffffffffffffffffff16146122fb576040517f08c379a00000000000000000000000000000000000000000000000000000000081526004016122f290614494565b60405180910390fd5b565b6000600660009054906101000a900473ffffffffffffffffffffffffffffffffffffffff16905081600660006101000a81548173ffffffffffffffffffffffffffffffffffffffff021916908373ffffffffffffffffffffffffffffffffffffffff1602179055508173ffffffffffffffffffffffffffffffffffffffff168173ffffffffffffffffffffffffffffffffffffffff167f8be0079c531659141344cd1fd0a4f28419497f9722a3daafe3b4186f6b6457e060405160405180910390a35050565b60606123ce82611d9b565b60006007600084815260200190815260200160002080546123ee90613e5b565b80601f016020809104026020016040519081016040528092919081815260200182805461241a90613e5b565b80156124675780601f1061243c57610100808354040283529160200191612467565b820191906000526020600020905b81548152906001019060200180831161244a57829003601f168201915b5050505050905060006124786127f5565b905060008151141561248e5781925050506124d1565b6000825111156124c35780826040516020016124ab9291906144b4565b604051602081830303815290604052925050506124d1565b6124cc8461280c565b925050505b919050565b600081600001549050919050565b6001816000016000828254019250508190555050565b612514828260405180602001604052806000815250612874565b5050565b61252182612755565b612560576040517f08c379a00000000000000000000000000000000000000000000000000000000081526004016125579061454a565b60405180910390fd5b80600760008481526020019081526020016000209080519060200190612587929190613011565b505050565b8173ffffffffffffffffffffffffffffffffffffffff168373ffffffffffffffffffffffffffffffffffffffff1614156125fb576040517f08c379a00000000000000000000000000000000000000000000000000000000081526004016125f2906145b6565b60405180910390fd5b80600560008573ffffffffffffffffffffffffffffffffffffffff1673ffffffffffffffffffffffffffffffffffffffff16815260200190815260200160002060008473ffffffffffffffffffffffffffffffffffffffff1673ffffffffffffffffffffffffffffffffffffffff16815260200190815260200160002060006101000a81548160ff0219169083151502179055508173ffffffffffffffffffffffffffffffffffffffff168373ffffffffffffffffffffffffffffffffffffffff167f17307eab39ab6107e8899845ad3d59bd9653f200f220920489ca2b5937696c31836040516126ec919061322c565b60405180910390a3505050565b612704848484611f3c565b612710848484846128cf565b61274f576040517f08c379a000000000000000000000000000000000000000000000000000000000815260040161274690614648565b60405180910390fd5b50505050565b60008073ffffffffffffffffffffffffffffffffffffffff1661277783612242565b73ffffffffffffffffffffffffffffffffffffffff1614159050919050565b50505050565b50505050565b6127ab81612a57565b60006007600083815260200190815260200160002080546127cb90613e5b565b9050146127f2576007600082815260200190815260200160002060006127f191906130f7565b5b50565b606060405180602001604052806000815250905090565b606061281782611d9b565b60006128216127f5565b90506000815111612841576040518060200160405280600081525061286c565b8061284b84612ba5565b60405160200161285c9291906144b4565b6040516020818303038152906040525b915050919050565b61287e8383612c7d565b61288b60008484846128cf565b6128ca576040517f08c379a00000000000000000000000000000000000000000000000000000000081526004016128c190614648565b60405180910390fd5b505050565b60006128f08473ffffffffffffffffffffffffffffffffffffffff16612e9b565b15612a4a578373ffffffffffffffffffffffffffffffffffffffff1663150b7a02612919611de6565b8786866040518563ffffffff1660e01b815260040161293b94939291906146bd565b6020604051808303816000875af192505050801561297757506040513d601f19601f82011682018060405250810190612974919061471e565b60015b6129fa573d80600081146129a7576040519150601f19603f3d011682016040523d82523d6000602084013e6129ac565b606091505b506000815114156129f2576040517f08c379a00000000000000000000000000000000000000000000000000000000081526004016129e990614648565b60405180910390fd5b805181602001fd5b63150b7a0260e01b7bffffffffffffffffffffffffffffffffffffffffffffffffffffffff1916817bffffffffffffffffffffffffffffffffffffffffffffffffffffffff191614915050612a4f565b600190505b949350505050565b6000612a62826107e0565b9050612a72816000846001612796565b612a7b826107e0565b90506004600083815260200190815260200160002060006101000a81549073ffffffffffffffffffffffffffffffffffffffff02191690556001600360008373ffffffffffffffffffffffffffffffffffffffff1673ffffffffffffffffffffffffffffffffffffffff168152602001908152602001600020600082825403925050819055506002600083815260200190815260200160002060006101000a81549073ffffffffffffffffffffffffffffffffffffffff021916905581600073ffffffffffffffffffffffffffffffffffffffff168273ffffffffffffffffffffffffffffffffffffffff167fddf252ad1be2c89b69c2b068fc378daa952ba7f163c4a11628f55a4df523b3ef60405160405180910390a4612ba181600084600161279c565b5050565b606060006001612bb484612ebe565b01905060008167ffffffffffffffff811115612bd357612bd26136f4565b5b6040519080825280601f01601f191660200182016040528015612c055781602001600182028036833780820191505090505b509050600082602001820190505b600115612c72578080600190039150507f3031323334353637383961626364656600000000000000000000000000000000600a86061a8153600a8581612c5c57612c5b61474b565b5b0494506000851415612c6d57612c72565b612c13565b819350505050919050565b600073ffffffffffffffffffffffffffffffffffffffff168273ffffffffffffffffffffffffffffffffffffffff161415612ced576040517f08c379a0000000000000000000000000000000000000000000000000000000008152600401612ce4906147c6565b60405180910390fd5b612cf681612755565b15612d36576040517f08c379a0000000000000000000000000000000000000000000000000000000008152600401612d2d90614832565b60405180910390fd5b612d44600083836001612796565b612d4d81612755565b15612d8d576040517f08c379a0000000000000000000000000000000000000000000000000000000008152600401612d8490614832565b60405180910390fd5b6001600360008473ffffffffffffffffffffffffffffffffffffffff1673ffffffffffffffffffffffffffffffffffffffff16815260200190815260200160002060008282540192505081905550816002600083815260200190815260200160002060006101000a81548173ffffffffffffffffffffffffffffffffffffffff021916908373ffffffffffffffffffffffffffffffffffffffff160217905550808273ffffffffffffffffffffffffffffffffffffffff16600073ffffffffffffffffffffffffffffffffffffffff167fddf252ad1be2c89b69c2b068fc378daa952ba7f163c4a11628f55a4df523b3ef60405160405180910390a4612e9760008383600161279c565b5050565b6000808273ffffffffffffffffffffffffffffffffffffffff163b119050919050565b600080600090507a184f03e93ff9f4daa797ed6e38ed64bf6a1f0100000000000000008310612f1c577a184f03e93ff9f4daa797ed6e38ed64bf6a1f0100000000000000008381612f1257612f1161474b565b5b0492506040810190505b6d04ee2d6d415b85acef81000000008310612f59576d04ee2d6d415b85acef81000000008381612f4f57612f4e61474b565b5b0492506020810190505b662386f26fc100008310612f8857662386f26fc100008381612f7e57612f7d61474b565b5b0492506010810190505b6305f5e1008310612fb1576305f5e1008381612fa757612fa661474b565b5b0492506008810190505b6127108310612fd6576127108381612fcc57612fcb61474b565b5b0492506004810190505b60648310612ff95760648381612fef57612fee61474b565b5b0492506002810190505b600a8310613008576001810190505b80915050919050565b82805461301d90613e5b565b90600052602060002090601f01602090048101928261303f5760008555613086565b82601f1061305857805160ff1916838001178555613086565b82800160010185558215613086579182015b8281111561308557825182559160200191906001019061306a565b5b5090506130939190613137565b5090565b8280548282559060005260206000209081019282156130e6579160200282015b828111156130e55782518290805190602001906130d5929190613011565b50916020019190600101906130b7565b5b5090506130f39190613154565b5090565b50805461310390613e5b565b6000825580601f106131155750613134565b601f0160209004906000526020600020908101906131339190613137565b5b50565b5b80821115613150576000816000905550600101613138565b5090565b5b80821115613174576000818161316b91906130f7565b50600101613155565b5090565b6000604051905090565b600080fd5b600080fd5b60007fffffffff0000000000000000000000000000000000000000000000000000000082169050919050565b6131c18161318c565b81146131cc57600080fd5b50565b6000813590506131de816131b8565b92915050565b6000602082840312156131fa576131f9613182565b5b6000613208848285016131cf565b91505092915050565b60008115159050919050565b61322681613211565b82525050565b6000602082019050613241600083018461321d565b92915050565b600081519050919050565b600082825260208201905092915050565b60005b83811015613281578082015181840152602081019050613266565b83811115613290576000848401525b50505050565b6000601f19601f8301169050919050565b60006132b282613247565b6132bc8185613252565b93506132cc818560208601613263565b6132d581613296565b840191505092915050565b600060208201905081810360008301526132fa81846132a7565b905092915050565b6000819050919050565b61331581613302565b811461332057600080fd5b50565b6000813590506133328161330c565b92915050565b60006020828403121561334e5761334d613182565b5b600061335c84828501613323565b91505092915050565b600073ffffffffffffffffffffffffffffffffffffffff82169050919050565b600061339082613365565b9050919050565b6133a081613385565b82525050565b60006020820190506133bb6000830184613397565b92915050565b6133ca81613385565b81146133d557600080fd5b50565b6000813590506133e7816133c1565b92915050565b6000806040838503121561340457613403613182565b5b6000613412858286016133d8565b925050602061342385828601613323565b9150509250929050565b60008060006060848603121561344657613445613182565b5b6000613454868287016133d8565b9350506020613465868287016133d8565b925050604061347686828701613323565b9150509250925092565b60006020828403121561349657613495613182565b5b60006134a4848285016133d8565b91505092915050565b6134b681613302565b82525050565b60006020820190506134d160008301846134ad565b92915050565b600081519050919050565b600082825260208201905092915050565b6000819050602082019050919050565b600082825260208201905092915050565b600061351f82613247565b6135298185613503565b9350613539818560208601613263565b61354281613296565b840191505092915050565b60006135598383613514565b905092915050565b6000602082019050919050565b6000613579826134d7565b61358381856134e2565b935083602082028501613595856134f3565b8060005b858110156135d157848403895281516135b2858261354d565b94506135bd83613561565b925060208a01995050600181019050613599565b50829750879550505050505092915050565b60006101808201905081810360008301526135fe818f6132a7565b90508181036020830152613612818e6132a7565b90508181036040830152613626818d6132a7565b9050818103606083015261363a818c6132a7565b9050818103608083015261364e818b6132a7565b905081810360a0830152613662818a6132a7565b905081810360c083015261367681896132a7565b905061368560e08301886134ad565b818103610100830152613698818761356e565b90508181036101208301526136ad818661356e565b90508181036101408301526136c281856132a7565b90508181036101608301526136d781846132a7565b90509d9c50505050505050505050505050565b600080fd5b600080fd5b7f4e487b7100000000000000000000000000000000000000000000000000000000600052604160045260246000fd5b61372c82613296565b810181811067ffffffffffffffff8211171561374b5761374a6136f4565b5b80604052505050565b600061375e613178565b905061376a8282613723565b919050565b600067ffffffffffffffff82111561378a576137896136f4565b5b61379382613296565b9050602081019050919050565b82818337600083830152505050565b60006137c26137bd8461376f565b613754565b9050828152602081018484840111156137de576137dd6136ef565b5b6137e98482856137a0565b509392505050565b600082601f830112613806576138056136ea565b5b81356138168482602086016137af565b91505092915050565b60006020828403121561383557613834613182565b5b600082013567ffffffffffffffff81111561385357613852613187565b5b61385f848285016137f1565b91505092915050565b60006101808201905061387e600083018f6134ad565b8181036020830152613890818e6132a7565b905081810360408301526138a4818d6132a7565b905081810360608301526138b8818c6132a7565b905081810360808301526138cc818b6132a7565b905081810360a08301526138e0818a6132a7565b905081810360c08301526138f481896132a7565b905061390360e08301886134ad565b818103610100830152613916818761356e565b905081810361012083015261392b818661356e565b905081810361014083015261394081856132a7565b905081810361016083015261395581846132a7565b90509d9c50505050505050505050505050565b6000806000806000806000806000806101408b8d03121561398c5761398b613182565b5b600061399a8d828e016133d8565b9a505060208b013567ffffffffffffffff8111156139bb576139ba613187565b5b6139c78d828e016137f1565b99505060408b013567ffffffffffffffff8111156139e8576139e7613187565b5b6139f48d828e016137f1565b98505060608b013567ffffffffffffffff811115613a1557613a14613187565b5b613a218d828e016137f1565b97505060808b013567ffffffffffffffff811115613a4257613a41613187565b5b613a4e8d828e016137f1565b96505060a08b013567ffffffffffffffff811115613a6f57613a6e613187565b5b613a7b8d828e016137f1565b95505060c08b013567ffffffffffffffff811115613a9c57613a9b613187565b5b613aa88d828e016137f1565b94505060e08b013567ffffffffffffffff811115613ac957613ac8613187565b5b613ad58d828e016137f1565b9350506101008b013567ffffffffffffffff811115613af757613af6613187565b5b613b038d828e016137f1565b9250506101208b013567ffffffffffffffff811115613b2557613b24613187565b5b613b318d828e016137f1565b9150509295989b9194979a5092959850565b613b4c81613211565b8114613b5757600080fd5b50565b600081359050613b6981613b43565b92915050565b60008060408385031215613b8657613b85613182565b5b6000613b94858286016133d8565b9250506020613ba585828601613b5a565b9150509250929050565b600067ffffffffffffffff821115613bca57613bc96136f4565b5b613bd382613296565b9050602081019050919050565b6000613bf3613bee84613baf565b613754565b905082815260208101848484011115613c0f57613c0e6136ef565b5b613c1a8482856137a0565b509392505050565b600082601f830112613c3757613c366136ea565b5b8135613c47848260208601613be0565b91505092915050565b60008060008060808587031215613c6a57613c69613182565b5b6000613c78878288016133d8565b9450506020613c89878288016133d8565b9350506040613c9a87828801613323565b925050606085013567ffffffffffffffff811115613cbb57613cba613187565b5b613cc787828801613c22565b91505092959194509250565b60008060008060008060c08789031215613cf057613cef613182565b5b600087013567ffffffffffffffff811115613d0e57613d0d613187565b5b613d1a89828a016137f1565b9650506020613d2b89828a01613323565b955050604087013567ffffffffffffffff811115613d4c57613d4b613187565b5b613d5889828a016137f1565b945050606087013567ffffffffffffffff811115613d7957613d78613187565b5b613d8589828a016137f1565b935050608087013567ffffffffffffffff811115613da657613da5613187565b5b613db289828a016137f1565b92505060a087013567ffffffffffffffff811115613dd357613dd2613187565b5b613ddf89828a016137f1565b9150509295509295509295565b60008060408385031215613e0357613e02613182565b5b6000613e11858286016133d8565b9250506020613e22858286016133d8565b9150509250929050565b7f4e487b7100000000000000000000000000000000000000000000000000000000600052602260045260246000fd5b60006002820490506001821680613e7357607f821691505b60208210811415613e8757613e86613e2c565b5b50919050565b7f4552433732313a20617070726f76616c20746f2063757272656e74206f776e6560008201527f7200000000000000000000000000000000000000000000000000000000000000602082015250565b6000613ee9602183613252565b9150613ef482613e8d565b604082019050919050565b60006020820190508181036000830152613f1881613edc565b9050919050565b7f4552433732313a20617070726f76652063616c6c6572206973206e6f7420746f60008201527f6b656e206f776e6572206f7220617070726f76656420666f7220616c6c000000602082015250565b6000613f7b603d83613252565b9150613f8682613f1f565b604082019050919050565b60006020820190508181036000830152613faa81613f6e565b9050919050565b7f4552433732313a2063616c6c6572206973206e6f7420746f6b656e206f776e6560008201527f72206f7220617070726f76656400000000000000000000000000000000000000602082015250565b600061400d602d83613252565b915061401882613fb1565b604082019050919050565b6000602082019050818103600083015261403c81614000565b9050919050565b7f4552433732313a20696e76616c696420746f6b656e2049440000000000000000600082015250565b6000614079601883613252565b915061408482614043565b602082019050919050565b600060208201905081810360008301526140a88161406c565b9050919050565b7f4552433732313a2061646472657373207a65726f206973206e6f74206120766160008201527f6c6964206f776e65720000000000000000000000000000000000000000000000602082015250565b600061410b602983613252565b9150614116826140af565b604082019050919050565b6000602082019050818103600083015261413a816140fe565b9050919050565b600081905092915050565b600061415782613247565b6141618185614141565b9350614171818560208601613263565b80840191505092915050565b6000614189828461414c565b915081905092915050565b7f436172207769746820746869732056494e20616c726561647920657869737473600082015250565b60006141ca602083613252565b91506141d582614194565b602082019050919050565b600060208201905081810360008301526141f9816141bd565b9050919050565b7f4e6577206b696c6f6d65746572732076616c7565206d7573742062652067726560008201527f61746572207468616e207468652063757272656e742076616c75650000000000602082015250565b600061425c603b83613252565b915061426782614200565b604082019050919050565b6000602082019050818103600083015261428b8161424f565b9050919050565b7f4f776e61626c653a206e6577206f776e657220697320746865207a65726f206160008201527f6464726573730000000000000000000000000000000000000000000000000000602082015250565b60006142ee602683613252565b91506142f982614292565b604082019050919050565b6000602082019050818103600083015261431d816142e1565b9050919050565b7f4552433732313a207472616e736665722066726f6d20696e636f72726563742060008201527f6f776e6572000000000000000000000000000000000000000000000000000000602082015250565b6000614380602583613252565b915061438b82614324565b604082019050919050565b600060208201905081810360008301526143af81614373565b9050919050565b7f4552433732313a207472616e7366657220746f20746865207a65726f2061646460008201527f7265737300000000000000000000000000000000000000000000000000000000602082015250565b6000614412602483613252565b915061441d826143b6565b604082019050919050565b6000602082019050818103600083015261444181614405565b9050919050565b7f4f776e61626c653a2063616c6c6572206973206e6f7420746865206f776e6572600082015250565b600061447e602083613252565b915061448982614448565b602082019050919050565b600060208201905081810360008301526144ad81614471565b9050919050565b60006144c0828561414c565b91506144cc828461414c565b91508190509392505050565b7f45524337323155524953746f726167653a2055524920736574206f66206e6f6e60008201527f6578697374656e7420746f6b656e000000000000000000000000000000000000602082015250565b6000614534602e83613252565b915061453f826144d8565b604082019050919050565b6000602082019050818103600083015261456381614527565b9050919050565b7f4552433732313a20617070726f766520746f2063616c6c657200000000000000600082015250565b60006145a0601983613252565b91506145ab8261456a565b602082019050919050565b600060208201905081810360008301526145cf81614593565b9050919050565b7f4552433732313a207472616e7366657220746f206e6f6e20455243373231526560008201527f63656976657220696d706c656d656e7465720000000000000000000000000000602082015250565b6000614632603283613252565b915061463d826145d6565b604082019050919050565b6000602082019050818103600083015261466181614625565b9050919050565b600081519050919050565b600082825260208201905092915050565b600061468f82614668565b6146998185614673565b93506146a9818560208601613263565b6146b281613296565b840191505092915050565b60006080820190506146d26000830187613397565b6146df6020830186613397565b6146ec60408301856134ad565b81810360608301526146fe8184614684565b905095945050505050565b600081519050614718816131b8565b92915050565b60006020828403121561473457614733613182565b5b600061474284828501614709565b91505092915050565b7f4e487b7100000000000000000000000000000000000000000000000000000000600052601260045260246000fd5b7f4552433732313a206d696e7420746f20746865207a65726f2061646472657373600082015250565b60006147b0602083613252565b91506147bb8261477a565b602082019050919050565b600060208201905081810360008301526147df816147a3565b9050919050565b7f4552433732313a20746f6b656e20616c7265616479206d696e74656400000000600082015250565b600061481c601c83613252565b9150614827826147e6565b602082019050919050565b6000602082019050818103600083015261484b8161480f565b905091905056fea26469706673582212202e4622d954a4f728ae060ef3d47d7b2b688a1f14aa62f95c208dcf5c1036b9e464736f6c634300080b0033",
  "linkReferences": {},
  "deployedLinkReferences": {}
}