{
  "_format": "hh-sol-artifact-1",
  "contractName": "AutoPassport",
  "sourceName": "contracts/AutoPassport.sol",
  "abi": [
    {
      "inputs": [],
      "stateMutability": "nonpayable",
      "type": "constructor"
    },
    {
      "anonymous": false,
      "inputs": [
        {
          "indexed": true,
          "internalType": "address",
          "name": "owner",
          "type": "address"
        },
        {
          "indexed": true,
          "internalType": "address",
          "name": "approved",
          "type": "address"
        },
        {
          "indexed": true,
          "internalType": "uint256",
          "name": "tokenId",
          "type": "uint256"
        }
      ],
      "name": "Approval",
      "type": "event"
    },
    {
      "anonymous": false,
      "inputs": [
        {
          "indexed": true,
          "internalType": "address",
          "name": "owner",
          "type": "address"
        },
        {
          "indexed": true,
          "internalType": "address",
          "name": "operator",
          "type": "address"
        },
        {
          "indexed": false,
          "internalType": "bool",
          "name": "approved",
          "type": "bool"
        }
      ],
      "name": "ApprovalForAll",
      "type": "event"
    },
    {
      "anonymous": false,
      "inputs": [
        {
          "indexed": true,
          "internalType": "address",
          "name": "from",
          "type": "address"
        },
        {
          "indexed": true,
          "internalType": "uint256",
          "name": "tokenId",
          "type": "uint256"
        },
        {
          "indexed": false,
          "internalType": "string",
          "name": "vin",
          "type": "string"
        }
      ],
      "name": "Creation",
      "type": "event"
    },
    {
      "anonymous": false,
      "inputs": [
        {
          "indexed": true,
          "internalType": "address",
          "name": "previousOwner",
          "type": "address"
        },
        {
          "indexed": true,
          "internalType": "address",
          "name": "newOwner",
          "type": "address"
        }
      ],
      "name": "OwnershipTransferred",
      "type": "event"
    },
    {
      "anonymous": false,
      "inputs": [
        {
          "indexed": true,
          "internalType": "address",
          "name": "from",
          "type": "address"
        },
        {
          "indexed": true,
          "internalType": "address",
          "name": "to",
          "type": "address"
        },
        {
          "indexed": true,
          "internalType": "uint256",
          "name": "tokenId",
          "type": "uint256"
        }
      ],
      "name": "Transfer",
      "type": "event"
    },
    {
      "inputs": [
        {
          "internalType": "address",
          "name": "to",
          "type": "address"
        },
        {
          "internalType": "uint256",
          "name": "tokenId",
          "type": "uint256"
        }
      ],
      "name": "approve",
      "outputs": [],
      "stateMutability": "nonpayable",
      "type": "function"
    },
    {
      "inputs": [
        {
          "internalType": "address",
          "name": "owner",
          "type": "address"
        }
      ],
      "name": "balanceOf",
      "outputs": [
        {
          "internalType": "uint256",
          "name": "",
          "type": "uint256"
        }
      ],
      "stateMutability": "view",
      "type": "function"
    },
    {
      "inputs": [
        {
          "internalType": "uint256",
          "name": "tokenId",
          "type": "uint256"
        }
      ],
      "name": "burn",
      "outputs": [],
      "stateMutability": "nonpayable",
      "type": "function"
    },
    {
      "inputs": [
        {
          "internalType": "address",
          "name": "to",
          "type": "address"
        },
        {
          "internalType": "string",
          "name": "brand",
          "type": "string"
        },
        {
          "internalType": "string",
          "name": "model",
          "type": "string"
        },
        {
          "internalType": "string",
          "name": "vin",
          "type": "string"
        },
        {
          "internalType": "string",
          "name": "color_code",
          "type": "string"
        },
        {
          "internalType": "string",
          "name": "dateOfManufacture",
          "type": "string"
        },
        {
          "internalType": "string",
          "name": "uriIpfsUrl",
          "type": "string"
        }
      ],
      "name": "createAutoPassport",
      "outputs": [],
      "stateMutability": "nonpayable",
      "type": "function"
    },
    {
      "inputs": [
        {
          "internalType": "uint256",
          "name": "tokenId",
          "type": "uint256"
        }
      ],
      "name": "getApproved",
      "outputs": [
        {
          "internalType": "address",
          "name": "",
          "type": "address"
        }
      ],
      "stateMutability": "view",
      "type": "function"
    },
    {
      "inputs": [],
      "name": "getCurrentTimestamp",
      "outputs": [
        {
          "internalType": "uint256",
          "name": "",
          "type": "uint256"
        }
      ],
      "stateMutability": "view",
      "type": "function"
    },
    {
      "inputs": [],
      "name": "getFormattedDate",
      "outputs": [
        {
          "internalType": "string",
          "name": "",
          "type": "string"
        }
      ],
      "stateMutability": "view",
      "type": "function"
    },
    {
      "inputs": [
        {
          "internalType": "address",
          "name": "owner",
          "type": "address"
        },
        {
          "internalType": "address",
          "name": "operator",
          "type": "address"
        }
      ],
      "name": "isApprovedForAll",
      "outputs": [
        {
          "internalType": "bool",
          "name": "",
          "type": "bool"
        }
      ],
      "stateMutability": "view",
      "type": "function"
    },
    {
      "inputs": [],
      "name": "name",
      "outputs": [
        {
          "internalType": "string",
          "name": "",
          "type": "string"
        }
      ],
      "stateMutability": "view",
      "type": "function"
    },
    {
      "inputs": [],
      "name": "owner",
      "outputs": [
        {
          "internalType": "address",
          "name": "",
          "type": "address"
        }
      ],
      "stateMutability": "view",
      "type": "function"
    },
    {
      "inputs": [
        {
          "internalType": "uint256",
          "name": "tokenId",
          "type": "uint256"
        }
      ],
      "name": "ownerOf",
      "outputs": [
        {
          "internalType": "address",
          "name": "",
          "type": "address"
        }
      ],
      "stateMutability": "view",
      "type": "function"
    },
    {
      "inputs": [],
      "name": "renounceOwnership",
      "outputs": [],
      "stateMutability": "nonpayable",
      "type": "function"
    },
    {
      "inputs": [
        {
          "internalType": "address",
          "name": "from",
          "type": "address"
        },
        {
          "internalType": "address",
          "name": "to",
          "type": "address"
        },
        {
          "internalType": "uint256",
          "name": "tokenId",
          "type": "uint256"
        }
      ],
      "name": "safeTransferFrom",
      "outputs": [],
      "stateMutability": "nonpayable",
      "type": "function"
    },
    {
      "inputs": [
        {
          "internalType": "address",
          "name": "from",
          "type": "address"
        },
        {
          "internalType": "address",
          "name": "to",
          "type": "address"
        },
        {
          "internalType": "uint256",
          "name": "tokenId",
          "type": "uint256"
        },
        {
          "internalType": "bytes",
          "name": "data",
          "type": "bytes"
        }
      ],
      "name": "safeTransferFrom",
      "outputs": [],
      "stateMutability": "nonpayable",
      "type": "function"
    },
    {
      "inputs": [
        {
          "internalType": "address",
          "name": "operator",
          "type": "address"
        },
        {
          "internalType": "bool",
          "name": "approved",
          "type": "bool"
        }
      ],
      "name": "setApprovalForAll",
      "outputs": [],
      "stateMutability": "nonpayable",
      "type": "function"
    },
    {
      "inputs": [
        {
          "internalType": "bytes4",
          "name": "interfaceId",
          "type": "bytes4"
        }
      ],
      "name": "supportsInterface",
      "outputs": [
        {
          "internalType": "bool",
          "name": "",
          "type": "bool"
        }
      ],
      "stateMutability": "view",
      "type": "function"
    },
    {
      "inputs": [],
      "name": "symbol",
      "outputs": [
        {
          "internalType": "string",
          "name": "",
          "type": "string"
        }
      ],
      "stateMutability": "view",
      "type": "function"
    },
    {
      "inputs": [
        {
          "internalType": "uint256",
          "name": "tokenId",
          "type": "uint256"
        }
      ],
      "name": "tokenURI",
      "outputs": [
        {
          "internalType": "string",
          "name": "",
          "type": "string"
        }
      ],
      "stateMutability": "view",
      "type": "function"
    },
    {
      "inputs": [
        {
          "internalType": "address",
          "name": "from",
          "type": "address"
        },
        {
          "internalType": "address",
          "name": "to",
          "type": "address"
        },
        {
          "internalType": "uint256",
          "name": "tokenId",
          "type": "uint256"
        }
      ],
      "name": "transferFrom",
      "outputs": [],
      "stateMutability": "nonpayable",
      "type": "function"
    },
    {
      "inputs": [
        {
          "internalType": "address",
          "name": "newOwner",
          "type": "address"
        }
      ],
      "name": "transferOwnership",
      "outputs": [],
      "stateMutability": "nonpayable",
      "type": "function"
    }
  ],
  "bytecode": "0x60806040523480156200001157600080fd5b506040518060400160405280600c81526020017f4175746f70617373706f727400000000000000000000000000000000000000008152506040518060400160405280600481526020017f5061737300000000000000000000000000000000000000000000000000000000815250816000908051906020019062000096929190620001a6565b508060019080519060200190620000af929190620001a6565b505050620000d2620000c6620000d860201b60201c565b620000e060201b60201c565b620002bb565b600033905090565b6000600660009054906101000a900473ffffffffffffffffffffffffffffffffffffffff16905081600660006101000a81548173ffffffffffffffffffffffffffffffffffffffff021916908373ffffffffffffffffffffffffffffffffffffffff1602179055508173ffffffffffffffffffffffffffffffffffffffff168173ffffffffffffffffffffffffffffffffffffffff167f8be0079c531659141344cd1fd0a4f28419497f9722a3daafe3b4186f6b6457e060405160405180910390a35050565b828054620001b49062000285565b90600052602060002090601f016020900481019282620001d8576000855562000224565b82601f10620001f357805160ff191683800117855562000224565b8280016001018555821562000224579182015b828111156200022357825182559160200191906001019062000206565b5b50905062000233919062000237565b5090565b5b808211156200025257600081600090555060010162000238565b5090565b7f4e487b7100000000000000000000000000000000000000000000000000000000600052602260045260246000fd5b600060028204905060018216806200029e57607f821691505b60208210811415620002b557620002b462000256565b5b50919050565b61376f80620002cb6000396000f3fe608060405234801561001057600080fd5b506004361061012c5760003560e01c806370a08231116100ad578063a5d1c92711610071578063a5d1c9271461031b578063b88d4fde14610339578063c87b56dd14610355578063e985e9c514610385578063f2fde38b146103b55761012c565b806370a0823114610289578063715018a6146102b95780638da5cb5b146102c357806395d89b41146102e1578063a22cb465146102ff5761012c565b806323b872dd116100f457806323b872dd146101e757806342842e0e1461020357806342966c681461021f5780636352211e1461023b5780636c9230db1461026b5761012c565b806301ffc9a71461013157806306fdde0314610161578063081812fc1461017f578063095ea7b3146101af578063180bcd34146101cb575b600080fd5b61014b600480360381019061014691906123cf565b6103d1565b6040516101589190612417565b60405180910390f35b6101696104b3565b60405161017691906124cb565b60405180910390f35b61019960048036038101906101949190612523565b610545565b6040516101a69190612591565b60405180910390f35b6101c960048036038101906101c491906125d8565b61058b565b005b6101e560048036038101906101e0919061274d565b6106a3565b005b61020160048036038101906101fc9190612897565b610899565b005b61021d60048036038101906102189190612897565b6108f9565b005b61023960048036038101906102349190612523565b610919565b005b61025560048036038101906102509190612523565b610975565b6040516102629190612591565b60405180910390f35b6102736109fc565b60405161028091906128f9565b60405180910390f35b6102a3600480360381019061029e9190612914565b610a04565b6040516102b091906128f9565b60405180910390f35b6102c1610abc565b005b6102cb610ad0565b6040516102d89190612591565b60405180910390f35b6102e9610afa565b6040516102f691906124cb565b60405180910390f35b6103196004803603810190610314919061296d565b610b8c565b005b610323610ba2565b60405161033091906124cb565b60405180910390f35b610353600480360381019061034e9190612a4e565b610c68565b005b61036f600480360381019061036a9190612523565b610cca565b60405161037c91906124cb565b60405180910390f35b61039f600480360381019061039a9190612ad1565b610cdc565b6040516103ac9190612417565b60405180910390f35b6103cf60048036038101906103ca9190612914565b610d70565b005b60007f80ac58cd000000000000000000000000000000000000000000000000000000007bffffffffffffffffffffffffffffffffffffffffffffffffffffffff1916827bffffffffffffffffffffffffffffffffffffffffffffffffffffffff1916148061049c57507f5b5e139f000000000000000000000000000000000000000000000000000000007bffffffffffffffffffffffffffffffffffffffffffffffffffffffff1916827bffffffffffffffffffffffffffffffffffffffffffffffffffffffff1916145b806104ac57506104ab82610df4565b5b9050919050565b6060600080546104c290612b40565b80601f01602080910402602001604051908101604052809291908181526020018280546104ee90612b40565b801561053b5780601f106105105761010080835404028352916020019161053b565b820191906000526020600020905b81548152906001019060200180831161051e57829003601f168201915b5050505050905090565b600061055082610e5e565b6004600083815260200190815260200160002060009054906101000a900473ffffffffffffffffffffffffffffffffffffffff169050919050565b600061059682610975565b90508073ffffffffffffffffffffffffffffffffffffffff168373ffffffffffffffffffffffffffffffffffffffff161415610607576040517f08c379a00000000000000000000000000000000000000000000000000000000081526004016105fe90612be4565b60405180910390fd5b8073ffffffffffffffffffffffffffffffffffffffff16610626610ea9565b73ffffffffffffffffffffffffffffffffffffffff16148061065557506106548161064f610ea9565b610cdc565b5b610694576040517f08c379a000000000000000000000000000000000000000000000000000000000815260040161068b90612c76565b60405180910390fd5b61069e8383610eb1565b505050565b6106ab610f6a565b6000600a856040516106bd9190612cd2565b9081526020016040518091039020541461070c576040517f08c379a000000000000000000000000000000000000000000000000000000000815260040161070390612d35565b60405180910390fd5b6000879050600061071d6008610fe8565b90506040518060c00160405280898152602001888152602001878152602001868152602001858152602001600081525060096000838152602001908152602001600020600082015181600001908051906020019061077c929190612280565b506020820151816001019080519060200190610799929190612280565b5060408201518160020190805190602001906107b6929190612280565b5060608201518160030190805190602001906107d3929190612280565b5060808201518160040190805190602001906107f0929190612280565b5060a0820151816005015590505080600a8760405161080f9190612cd2565b90815260200160405180910390208190555061082b6008610ff6565b610835828261100c565b61083f818461102a565b808973ffffffffffffffffffffffffffffffffffffffff167fe649b25ea418284e682d98726ce07ccc7a6a926d3cdac495942354deca6627438860405161088691906124cb565b60405180910390a3505050505050505050565b6108aa6108a4610ea9565b8261109e565b6108e9576040517f08c379a00000000000000000000000000000000000000000000000000000000081526004016108e090612dc7565b60405180910390fd5b6108f4838383611133565b505050565b61091483838360405180602001604052806000815250610c68565b505050565b61092a610924610ea9565b8261109e565b610969576040517f08c379a000000000000000000000000000000000000000000000000000000000815260040161096090612dc7565b60405180910390fd5b6109728161142d565b50565b60008061098183611439565b9050600073ffffffffffffffffffffffffffffffffffffffff168173ffffffffffffffffffffffffffffffffffffffff1614156109f3576040517f08c379a00000000000000000000000000000000000000000000000000000000081526004016109ea90612e33565b60405180910390fd5b80915050919050565b600042905090565b60008073ffffffffffffffffffffffffffffffffffffffff168273ffffffffffffffffffffffffffffffffffffffff161415610a75576040517f08c379a0000000000000000000000000000000000000000000000000000000008152600401610a6c90612ec5565b60405180910390fd5b600360008373ffffffffffffffffffffffffffffffffffffffff1673ffffffffffffffffffffffffffffffffffffffff168152602001908152602001600020549050919050565b610ac4610f6a565b610ace6000611476565b565b6000600660009054906101000a900473ffffffffffffffffffffffffffffffffffffffff16905090565b606060018054610b0990612b40565b80601f0160208091040260200160405190810160405280929190818152602001828054610b3590612b40565b8015610b825780601f10610b5757610100808354040283529160200191610b82565b820191906000526020600020905b815481529060010190602001808311610b6557829003601f168201915b5050505050905090565b610b9e610b97610ea9565b838361153c565b5050565b60606000610bae6109fc565b9050600062015180905060008183610bc69190612f43565b90506000610beb6001601f84610bdc9190612f74565b610be69190612fa5565b6116a9565b610c186001600c601f86610bff9190612f43565b610c099190612f74565b610c139190612fa5565b6116a9565b610c3b61016d85610c299190612f43565b6107b2610c369190612fa5565b6116f4565b604051602001610c4d93929190613047565b60405160208183030381529060405290508094505050505090565b610c79610c73610ea9565b8361109e565b610cb8576040517f08c379a0000000000000000000000000000000000000000000000000000000008152600401610caf90612dc7565b60405180910390fd5b610cc484848484611855565b50505050565b6060610cd5826118b1565b9050919050565b6000600560008473ffffffffffffffffffffffffffffffffffffffff1673ffffffffffffffffffffffffffffffffffffffff16815260200190815260200160002060008373ffffffffffffffffffffffffffffffffffffffff1673ffffffffffffffffffffffffffffffffffffffff16815260200190815260200160002060009054906101000a900460ff16905092915050565b610d78610f6a565b600073ffffffffffffffffffffffffffffffffffffffff168173ffffffffffffffffffffffffffffffffffffffff161415610de8576040517f08c379a0000000000000000000000000000000000000000000000000000000008152600401610ddf90613100565b60405180910390fd5b610df181611476565b50565b60007f01ffc9a7000000000000000000000000000000000000000000000000000000007bffffffffffffffffffffffffffffffffffffffffffffffffffffffff1916827bffffffffffffffffffffffffffffffffffffffffffffffffffffffff1916149050919050565b610e67816119c4565b610ea6576040517f08c379a0000000000000000000000000000000000000000000000000000000008152600401610e9d90612e33565b60405180910390fd5b50565b600033905090565b816004600083815260200190815260200160002060006101000a81548173ffffffffffffffffffffffffffffffffffffffff021916908373ffffffffffffffffffffffffffffffffffffffff160217905550808273ffffffffffffffffffffffffffffffffffffffff16610f2483610975565b73ffffffffffffffffffffffffffffffffffffffff167f8c5be1e5ebec7d5bd14f71427d1e84f3dd0314c0f7b2291e5b200ac8c7c3b92560405160405180910390a45050565b610f72610ea9565b73ffffffffffffffffffffffffffffffffffffffff16610f90610ad0565b73ffffffffffffffffffffffffffffffffffffffff1614610fe6576040517f08c379a0000000000000000000000000000000000000000000000000000000008152600401610fdd9061316c565b60405180910390fd5b565b600081600001549050919050565b6001816000016000828254019250508190555050565b611026828260405180602001604052806000815250611a05565b5050565b611033826119c4565b611072576040517f08c379a0000000000000000000000000000000000000000000000000000000008152600401611069906131fe565b60405180910390fd5b80600760008481526020019081526020016000209080519060200190611099929190612280565b505050565b6000806110aa83610975565b90508073ffffffffffffffffffffffffffffffffffffffff168473ffffffffffffffffffffffffffffffffffffffff1614806110ec57506110eb8185610cdc565b5b8061112a57508373ffffffffffffffffffffffffffffffffffffffff1661111284610545565b73ffffffffffffffffffffffffffffffffffffffff16145b91505092915050565b8273ffffffffffffffffffffffffffffffffffffffff1661115382610975565b73ffffffffffffffffffffffffffffffffffffffff16146111a9576040517f08c379a00000000000000000000000000000000000000000000000000000000081526004016111a090613290565b60405180910390fd5b600073ffffffffffffffffffffffffffffffffffffffff168273ffffffffffffffffffffffffffffffffffffffff161415611219576040517f08c379a000000000000000000000000000000000000000000000000000000000815260040161121090613322565b60405180910390fd5b6112268383836001611a60565b8273ffffffffffffffffffffffffffffffffffffffff1661124682610975565b73ffffffffffffffffffffffffffffffffffffffff161461129c576040517f08c379a000000000000000000000000000000000000000000000000000000000815260040161129390613290565b60405180910390fd5b6004600082815260200190815260200160002060006101000a81549073ffffffffffffffffffffffffffffffffffffffff02191690556001600360008573ffffffffffffffffffffffffffffffffffffffff1673ffffffffffffffffffffffffffffffffffffffff168152602001908152602001600020600082825403925050819055506001600360008473ffffffffffffffffffffffffffffffffffffffff1673ffffffffffffffffffffffffffffffffffffffff16815260200190815260200160002060008282540192505081905550816002600083815260200190815260200160002060006101000a81548173ffffffffffffffffffffffffffffffffffffffff021916908373ffffffffffffffffffffffffffffffffffffffff160217905550808273ffffffffffffffffffffffffffffffffffffffff168473ffffffffffffffffffffffffffffffffffffffff167fddf252ad1be2c89b69c2b068fc378daa952ba7f163c4a11628f55a4df523b3ef60405160405180910390a46114288383836001611a66565b505050565b61143681611a6c565b50565b60006002600083815260200190815260200160002060009054906101000a900473ffffffffffffffffffffffffffffffffffffffff169050919050565b6000600660009054906101000a900473ffffffffffffffffffffffffffffffffffffffff16905081600660006101000a81548173ffffffffffffffffffffffffffffffffffffffff021916908373ffffffffffffffffffffffffffffffffffffffff1602179055508173ffffffffffffffffffffffffffffffffffffffff168173ffffffffffffffffffffffffffffffffffffffff167f8be0079c531659141344cd1fd0a4f28419497f9722a3daafe3b4186f6b6457e060405160405180910390a35050565b8173ffffffffffffffffffffffffffffffffffffffff168373ffffffffffffffffffffffffffffffffffffffff1614156115ab576040517f08c379a00000000000000000000000000000000000000000000000000000000081526004016115a29061338e565b60405180910390fd5b80600560008573ffffffffffffffffffffffffffffffffffffffff1673ffffffffffffffffffffffffffffffffffffffff16815260200190815260200160002060008473ffffffffffffffffffffffffffffffffffffffff1673ffffffffffffffffffffffffffffffffffffffff16815260200190815260200160002060006101000a81548160ff0219169083151502179055508173ffffffffffffffffffffffffffffffffffffffff168373ffffffffffffffffffffffffffffffffffffffff167f17307eab39ab6107e8899845ad3d59bd9653f200f220920489ca2b5937696c318360405161169c9190612417565b60405180910390a3505050565b6060600a8210156116e3576116bd826116f4565b6040516020016116cd91906133fa565b60405160208183030381529060405290506116ef565b6116ec826116f4565b90505b919050565b6060600082141561173c576040518060400160405280600181526020017f30000000000000000000000000000000000000000000000000000000000000008152509050611850565b600082905060005b6000821461176e5780806117579061341c565b915050600a826117679190612f43565b9150611744565b60008167ffffffffffffffff81111561178a57611789612622565b5b6040519080825280601f01601f1916602001820160405280156117bc5781602001600182028036833780820191505090505b5090505b60008514611849576001826117d59190613465565b9150600a856117e49190612f74565b60306117f09190612fa5565b60f81b81838151811061180657611805613499565b5b60200101907effffffffffffffffffffffffffffffffffffffffffffffffffffffffffffff1916908160001a905350600a856118429190612f43565b94506117c0565b8093505050505b919050565b611860848484611133565b61186c84848484611abf565b6118ab576040517f08c379a00000000000000000000000000000000000000000000000000000000081526004016118a29061353a565b60405180910390fd5b50505050565b60606118bc82610e5e565b60006007600084815260200190815260200160002080546118dc90612b40565b80601f016020809104026020016040519081016040528092919081815260200182805461190890612b40565b80156119555780601f1061192a57610100808354040283529160200191611955565b820191906000526020600020905b81548152906001019060200180831161193857829003601f168201915b505050505090506000611966611c47565b905060008151141561197c5781925050506119bf565b6000825111156119b157808260405160200161199992919061355a565b604051602081830303815290604052925050506119bf565b6119ba84611c5e565b925050505b919050565b60008073ffffffffffffffffffffffffffffffffffffffff166119e683611439565b73ffffffffffffffffffffffffffffffffffffffff1614159050919050565b611a0f8383611cc6565b611a1c6000848484611abf565b611a5b576040517f08c379a0000000000000000000000000000000000000000000000000000000008152600401611a529061353a565b60405180910390fd5b505050565b50505050565b50505050565b611a7581611ee4565b6000600760008381526020019081526020016000208054611a9590612b40565b905014611abc57600760008281526020019081526020016000206000611abb9190612306565b5b50565b6000611ae08473ffffffffffffffffffffffffffffffffffffffff16612032565b15611c3a578373ffffffffffffffffffffffffffffffffffffffff1663150b7a02611b09610ea9565b8786866040518563ffffffff1660e01b8152600401611b2b94939291906135d3565b6020604051808303816000875af1925050508015611b6757506040513d601f19601f82011682018060405250810190611b649190613634565b60015b611bea573d8060008114611b97576040519150601f19603f3d011682016040523d82523d6000602084013e611b9c565b606091505b50600081511415611be2576040517f08c379a0000000000000000000000000000000000000000000000000000000008152600401611bd99061353a565b60405180910390fd5b805181602001fd5b63150b7a0260e01b7bffffffffffffffffffffffffffffffffffffffffffffffffffffffff1916817bffffffffffffffffffffffffffffffffffffffffffffffffffffffff191614915050611c3f565b600190505b949350505050565b606060405180602001604052806000815250905090565b6060611c6982610e5e565b6000611c73611c47565b90506000815111611c935760405180602001604052806000815250611cbe565b80611c9d84612055565b604051602001611cae92919061355a565b6040516020818303038152906040525b915050919050565b600073ffffffffffffffffffffffffffffffffffffffff168273ffffffffffffffffffffffffffffffffffffffff161415611d36576040517f08c379a0000000000000000000000000000000000000000000000000000000008152600401611d2d906136ad565b60405180910390fd5b611d3f816119c4565b15611d7f576040517f08c379a0000000000000000000000000000000000000000000000000000000008152600401611d7690613719565b60405180910390fd5b611d8d600083836001611a60565b611d96816119c4565b15611dd6576040517f08c379a0000000000000000000000000000000000000000000000000000000008152600401611dcd90613719565b60405180910390fd5b6001600360008473ffffffffffffffffffffffffffffffffffffffff1673ffffffffffffffffffffffffffffffffffffffff16815260200190815260200160002060008282540192505081905550816002600083815260200190815260200160002060006101000a81548173ffffffffffffffffffffffffffffffffffffffff021916908373ffffffffffffffffffffffffffffffffffffffff160217905550808273ffffffffffffffffffffffffffffffffffffffff16600073ffffffffffffffffffffffffffffffffffffffff167fddf252ad1be2c89b69c2b068fc378daa952ba7f163c4a11628f55a4df523b3ef60405160405180910390a4611ee0600083836001611a66565b5050565b6000611eef82610975565b9050611eff816000846001611a60565b611f0882610975565b90506004600083815260200190815260200160002060006101000a81549073ffffffffffffffffffffffffffffffffffffffff02191690556001600360008373ffffffffffffffffffffffffffffffffffffffff1673ffffffffffffffffffffffffffffffffffffffff168152602001908152602001600020600082825403925050819055506002600083815260200190815260200160002060006101000a81549073ffffffffffffffffffffffffffffffffffffffff021916905581600073ffffffffffffffffffffffffffffffffffffffff168273ffffffffffffffffffffffffffffffffffffffff167fddf252ad1be2c89b69c2b068fc378daa952ba7f163c4a11628f55a4df523b3ef60405160405180910390a461202e816000846001611a66565b5050565b6000808273ffffffffffffffffffffffffffffffffffffffff163b119050919050565b6060600060016120648461212d565b01905060008167ffffffffffffffff81111561208357612082612622565b5b6040519080825280601f01601f1916602001820160405280156120b55781602001600182028036833780820191505090505b509050600082602001820190505b600115612122578080600190039150507f3031323334353637383961626364656600000000000000000000000000000000600a86061a8153600a858161210c5761210b612ee5565b5b049450600085141561211d57612122565b6120c3565b819350505050919050565b600080600090507a184f03e93ff9f4daa797ed6e38ed64bf6a1f010000000000000000831061218b577a184f03e93ff9f4daa797ed6e38ed64bf6a1f010000000000000000838161218157612180612ee5565b5b0492506040810190505b6d04ee2d6d415b85acef810000000083106121c8576d04ee2d6d415b85acef810000000083816121be576121bd612ee5565b5b0492506020810190505b662386f26fc1000083106121f757662386f26fc1000083816121ed576121ec612ee5565b5b0492506010810190505b6305f5e1008310612220576305f5e100838161221657612215612ee5565b5b0492506008810190505b612710831061224557612710838161223b5761223a612ee5565b5b0492506004810190505b60648310612268576064838161225e5761225d612ee5565b5b0492506002810190505b600a8310612277576001810190505b80915050919050565b82805461228c90612b40565b90600052602060002090601f0160209004810192826122ae57600085556122f5565b82601f106122c757805160ff19168380011785556122f5565b828001600101855582156122f5579182015b828111156122f45782518255916020019190600101906122d9565b5b5090506123029190612346565b5090565b50805461231290612b40565b6000825580601f106123245750612343565b601f0160209004906000526020600020908101906123429190612346565b5b50565b5b8082111561235f576000816000905550600101612347565b5090565b6000604051905090565b600080fd5b600080fd5b60007fffffffff0000000000000000000000000000000000000000000000000000000082169050919050565b6123ac81612377565b81146123b757600080fd5b50565b6000813590506123c9816123a3565b92915050565b6000602082840312156123e5576123e461236d565b5b60006123f3848285016123ba565b91505092915050565b60008115159050919050565b612411816123fc565b82525050565b600060208201905061242c6000830184612408565b92915050565b600081519050919050565b600082825260208201905092915050565b60005b8381101561246c578082015181840152602081019050612451565b8381111561247b576000848401525b50505050565b6000601f19601f8301169050919050565b600061249d82612432565b6124a7818561243d565b93506124b781856020860161244e565b6124c081612481565b840191505092915050565b600060208201905081810360008301526124e58184612492565b905092915050565b6000819050919050565b612500816124ed565b811461250b57600080fd5b50565b60008135905061251d816124f7565b92915050565b6000602082840312156125395761253861236d565b5b60006125478482850161250e565b91505092915050565b600073ffffffffffffffffffffffffffffffffffffffff82169050919050565b600061257b82612550565b9050919050565b61258b81612570565b82525050565b60006020820190506125a66000830184612582565b92915050565b6125b581612570565b81146125c057600080fd5b50565b6000813590506125d2816125ac565b92915050565b600080604083850312156125ef576125ee61236d565b5b60006125fd858286016125c3565b925050602061260e8582860161250e565b9150509250929050565b600080fd5b600080fd5b7f4e487b7100000000000000000000000000000000000000000000000000000000600052604160045260246000fd5b61265a82612481565b810181811067ffffffffffffffff8211171561267957612678612622565b5b80604052505050565b600061268c612363565b90506126988282612651565b919050565b600067ffffffffffffffff8211156126b8576126b7612622565b5b6126c182612481565b9050602081019050919050565b82818337600083830152505050565b60006126f06126eb8461269d565b612682565b90508281526020810184848401111561270c5761270b61261d565b5b6127178482856126ce565b509392505050565b600082601f83011261273457612733612618565b5b81356127448482602086016126dd565b91505092915050565b600080600080600080600060e0888a03121561276c5761276b61236d565b5b600061277a8a828b016125c3565b975050602088013567ffffffffffffffff81111561279b5761279a612372565b5b6127a78a828b0161271f565b965050604088013567ffffffffffffffff8111156127c8576127c7612372565b5b6127d48a828b0161271f565b955050606088013567ffffffffffffffff8111156127f5576127f4612372565b5b6128018a828b0161271f565b945050608088013567ffffffffffffffff81111561282257612821612372565b5b61282e8a828b0161271f565b93505060a088013567ffffffffffffffff81111561284f5761284e612372565b5b61285b8a828b0161271f565b92505060c088013567ffffffffffffffff81111561287c5761287b612372565b5b6128888a828b0161271f565b91505092959891949750929550565b6000806000606084860312156128b0576128af61236d565b5b60006128be868287016125c3565b93505060206128cf868287016125c3565b92505060406128e08682870161250e565b9150509250925092565b6128f3816124ed565b82525050565b600060208201905061290e60008301846128ea565b92915050565b60006020828403121561292a5761292961236d565b5b6000612938848285016125c3565b91505092915050565b61294a816123fc565b811461295557600080fd5b50565b60008135905061296781612941565b92915050565b600080604083850312156129845761298361236d565b5b6000612992858286016125c3565b92505060206129a385828601612958565b9150509250929050565b600067ffffffffffffffff8211156129c8576129c7612622565b5b6129d182612481565b9050602081019050919050565b60006129f16129ec846129ad565b612682565b905082815260208101848484011115612a0d57612a0c61261d565b5b612a188482856126ce565b509392505050565b600082601f830112612a3557612a34612618565b5b8135612a458482602086016129de565b91505092915050565b60008060008060808587031215612a6857612a6761236d565b5b6000612a76878288016125c3565b9450506020612a87878288016125c3565b9350506040612a988782880161250e565b925050606085013567ffffffffffffffff811115612ab957612ab8612372565b5b612ac587828801612a20565b91505092959194509250565b60008060408385031215612ae857612ae761236d565b5b6000612af6858286016125c3565b9250506020612b07858286016125c3565b9150509250929050565b7f4e487b7100000000000000000000000000000000000000000000000000000000600052602260045260246000fd5b60006002820490506001821680612b5857607f821691505b60208210811415612b6c57612b6b612b11565b5b50919050565b7f4552433732313a20617070726f76616c20746f2063757272656e74206f776e6560008201527f7200000000000000000000000000000000000000000000000000000000000000602082015250565b6000612bce60218361243d565b9150612bd982612b72565b604082019050919050565b60006020820190508181036000830152612bfd81612bc1565b9050919050565b7f4552433732313a20617070726f76652063616c6c6572206973206e6f7420746f60008201527f6b656e206f776e6572206f7220617070726f76656420666f7220616c6c000000602082015250565b6000612c60603d8361243d565b9150612c6b82612c04565b604082019050919050565b60006020820190508181036000830152612c8f81612c53565b9050919050565b600081905092915050565b6000612cac82612432565b612cb68185612c96565b9350612cc681856020860161244e565b80840191505092915050565b6000612cde8284612ca1565b915081905092915050565b7f436172207769746820746869732056494e20616c726561647920657869737473600082015250565b6000612d1f60208361243d565b9150612d2a82612ce9565b602082019050919050565b60006020820190508181036000830152612d4e81612d12565b9050919050565b7f4552433732313a2063616c6c6572206973206e6f7420746f6b656e206f776e6560008201527f72206f7220617070726f76656400000000000000000000000000000000000000602082015250565b6000612db1602d8361243d565b9150612dbc82612d55565b604082019050919050565b60006020820190508181036000830152612de081612da4565b9050919050565b7f4552433732313a20696e76616c696420746f6b656e2049440000000000000000600082015250565b6000612e1d60188361243d565b9150612e2882612de7565b602082019050919050565b60006020820190508181036000830152612e4c81612e10565b9050919050565b7f4552433732313a2061646472657373207a65726f206973206e6f74206120766160008201527f6c6964206f776e65720000000000000000000000000000000000000000000000602082015250565b6000612eaf60298361243d565b9150612eba82612e53565b604082019050919050565b60006020820190508181036000830152612ede81612ea2565b9050919050565b7f4e487b7100000000000000000000000000000000000000000000000000000000600052601260045260246000fd5b7f4e487b7100000000000000000000000000000000000000000000000000000000600052601160045260246000fd5b6000612f4e826124ed565b9150612f59836124ed565b925082612f6957612f68612ee5565b5b828204905092915050565b6000612f7f826124ed565b9150612f8a836124ed565b925082612f9a57612f99612ee5565b5b828206905092915050565b6000612fb0826124ed565b9150612fbb836124ed565b9250827fffffffffffffffffffffffffffffffffffffffffffffffffffffffffffffffff03821115612ff057612fef612f14565b5b828201905092915050565b7f2f00000000000000000000000000000000000000000000000000000000000000600082015250565b6000613031600183612c96565b915061303c82612ffb565b600182019050919050565b60006130538286612ca1565b915061305e82613024565b915061306a8285612ca1565b915061307582613024565b91506130818284612ca1565b9150819050949350505050565b7f4f776e61626c653a206e6577206f776e657220697320746865207a65726f206160008201527f6464726573730000000000000000000000000000000000000000000000000000602082015250565b60006130ea60268361243d565b91506130f58261308e565b604082019050919050565b60006020820190508181036000830152613119816130dd565b9050919050565b7f4f776e61626c653a2063616c6c6572206973206e6f7420746865206f776e6572600082015250565b600061315660208361243d565b915061316182613120565b602082019050919050565b6000602082019050818103600083015261318581613149565b9050919050565b7f45524337323155524953746f726167653a2055524920736574206f66206e6f6e60008201527f6578697374656e7420746f6b656e000000000000000000000000000000000000602082015250565b60006131e8602e8361243d565b91506131f38261318c565b604082019050919050565b60006020820190508181036000830152613217816131db565b9050919050565b7f4552433732313a207472616e736665722066726f6d20696e636f72726563742060008201527f6f776e6572000000000000000000000000000000000000000000000000000000602082015250565b600061327a60258361243d565b91506132858261321e565b604082019050919050565b600060208201905081810360008301526132a98161326d565b9050919050565b7f4552433732313a207472616e7366657220746f20746865207a65726f2061646460008201527f7265737300000000000000000000000000000000000000000000000000000000602082015250565b600061330c60248361243d565b9150613317826132b0565b604082019050919050565b6000602082019050818103600083015261333b816132ff565b9050919050565b7f4552433732313a20617070726f766520746f2063616c6c657200000000000000600082015250565b600061337860198361243d565b915061338382613342565b602082019050919050565b600060208201905081810360008301526133a78161336b565b9050919050565b7f3000000000000000000000000000000000000000000000000000000000000000600082015250565b60006133e4600183612c96565b91506133ef826133ae565b600182019050919050565b6000613405826133d7565b91506134118284612ca1565b915081905092915050565b6000613427826124ed565b91507fffffffffffffffffffffffffffffffffffffffffffffffffffffffffffffffff82141561345a57613459612f14565b5b600182019050919050565b6000613470826124ed565b915061347b836124ed565b92508282101561348e5761348d612f14565b5b828203905092915050565b7f4e487b7100000000000000000000000000000000000000000000000000000000600052603260045260246000fd5b7f4552433732313a207472616e7366657220746f206e6f6e20455243373231526560008201527f63656976657220696d706c656d656e7465720000000000000000000000000000602082015250565b600061352460328361243d565b915061352f826134c8565b604082019050919050565b6000602082019050818103600083015261355381613517565b9050919050565b60006135668285612ca1565b91506135728284612ca1565b91508190509392505050565b600081519050919050565b600082825260208201905092915050565b60006135a58261357e565b6135af8185613589565b93506135bf81856020860161244e565b6135c881612481565b840191505092915050565b60006080820190506135e86000830187612582565b6135f56020830186612582565b61360260408301856128ea565b8181036060830152613614818461359a565b905095945050505050565b60008151905061362e816123a3565b92915050565b60006020828403121561364a5761364961236d565b5b60006136588482850161361f565b91505092915050565b7f4552433732313a206d696e7420746f20746865207a65726f2061646472657373600082015250565b600061369760208361243d565b91506136a282613661565b602082019050919050565b600060208201905081810360008301526136c68161368a565b9050919050565b7f4552433732313a20746f6b656e20616c7265616479206d696e74656400000000600082015250565b6000613703601c8361243d565b915061370e826136cd565b602082019050919050565b60006020820190508181036000830152613732816136f6565b905091905056fea2646970667358221220e103a2561cc8be43d75d20fc0f4c043b0d3f825e5d0080d628a24518bfbb47fe64736f6c634300080b0033",
  "linkReferences": {},
  "deployedLinkReferences": {}
}