{
  "_format": "hh-sol-artifact-1",
  "contractName": "AutoPassport",
  "sourceName": "contracts/AutoPassport.sol",
  "abi": [
    {
      "inputs": [],
      "stateMutability": "nonpayable",
      "type": "constructor"
    },
    {
      "anonymous": false,
      "inputs": [
        {
          "indexed": true,
          "internalType": "address",
          "name": "owner",
          "type": "address"
        },
        {
          "indexed": true,
          "internalType": "address",
          "name": "approved",
          "type": "address"
        },
        {
          "indexed": true,
          "internalType": "uint256",
          "name": "tokenId",
          "type": "uint256"
        }
      ],
      "name": "Approval",
      "type": "event"
    },
    {
      "anonymous": false,
      "inputs": [
        {
          "indexed": true,
          "internalType": "address",
          "name": "owner",
          "type": "address"
        },
        {
          "indexed": true,
          "internalType": "address",
          "name": "operator",
          "type": "address"
        },
        {
          "indexed": false,
          "internalType": "bool",
          "name": "approved",
          "type": "bool"
        }
      ],
      "name": "ApprovalForAll",
      "type": "event"
    },
    {
      "anonymous": false,
      "inputs": [
        {
          "indexed": false,
          "internalType": "uint256",
          "name": "_fromTokenId",
          "type": "uint256"
        },
        {
          "indexed": false,
          "internalType": "uint256",
          "name": "_toTokenId",
          "type": "uint256"
        }
      ],
      "name": "BatchMetadataUpdate",
      "type": "event"
    },
    {
      "anonymous": false,
      "inputs": [
        {
          "indexed": true,
          "internalType": "bytes32",
          "name": "id",
          "type": "bytes32"
        }
      ],
      "name": "ChainlinkCancelled",
      "type": "event"
    },
    {
      "anonymous": false,
      "inputs": [
        {
          "indexed": true,
          "internalType": "bytes32",
          "name": "id",
          "type": "bytes32"
        }
      ],
      "name": "ChainlinkFulfilled",
      "type": "event"
    },
    {
      "anonymous": false,
      "inputs": [
        {
          "indexed": true,
          "internalType": "bytes32",
          "name": "id",
          "type": "bytes32"
        }
      ],
      "name": "ChainlinkRequested",
      "type": "event"
    },
    {
      "anonymous": false,
      "inputs": [
        {
          "indexed": false,
          "internalType": "uint256",
          "name": "_tokenId",
          "type": "uint256"
        }
      ],
      "name": "MetadataUpdate",
      "type": "event"
    },
    {
      "anonymous": false,
      "inputs": [
        {
          "indexed": true,
          "internalType": "address",
          "name": "from",
          "type": "address"
        },
        {
          "indexed": true,
          "internalType": "address",
          "name": "to",
          "type": "address"
        }
      ],
      "name": "OwnershipTransferRequested",
      "type": "event"
    },
    {
      "anonymous": false,
      "inputs": [
        {
          "indexed": true,
          "internalType": "address",
          "name": "from",
          "type": "address"
        },
        {
          "indexed": true,
          "internalType": "address",
          "name": "to",
          "type": "address"
        }
      ],
      "name": "OwnershipTransferred",
      "type": "event"
    },
    {
      "anonymous": false,
      "inputs": [
        {
          "indexed": true,
          "internalType": "address",
          "name": "from",
          "type": "address"
        },
        {
          "indexed": true,
          "internalType": "address",
          "name": "to",
          "type": "address"
        },
        {
          "indexed": true,
          "internalType": "uint256",
          "name": "tokenId",
          "type": "uint256"
        }
      ],
      "name": "Transfer",
      "type": "event"
    },
    {
      "inputs": [],
      "name": "acceptOwnership",
      "outputs": [],
      "stateMutability": "nonpayable",
      "type": "function"
    },
    {
      "inputs": [
        {
          "internalType": "address",
          "name": "to",
          "type": "address"
        },
        {
          "internalType": "uint256",
          "name": "tokenId",
          "type": "uint256"
        }
      ],
      "name": "approve",
      "outputs": [],
      "stateMutability": "nonpayable",
      "type": "function"
    },
    {
      "inputs": [
        {
          "internalType": "address",
          "name": "owner",
          "type": "address"
        }
      ],
      "name": "balanceOf",
      "outputs": [
        {
          "internalType": "uint256",
          "name": "",
          "type": "uint256"
        }
      ],
      "stateMutability": "view",
      "type": "function"
    },
    {
      "inputs": [
        {
          "internalType": "uint256",
          "name": "tokenId",
          "type": "uint256"
        }
      ],
      "name": "burn",
      "outputs": [],
      "stateMutability": "nonpayable",
      "type": "function"
    },
    {
      "inputs": [
        {
          "internalType": "string",
          "name": "vin",
          "type": "string"
        }
      ],
      "name": "checkFines",
      "outputs": [],
      "stateMutability": "nonpayable",
      "type": "function"
    },
    {
      "inputs": [
        {
          "internalType": "address",
          "name": "to",
          "type": "address"
        },
        {
          "internalType": "string",
          "name": "brand",
          "type": "string"
        },
        {
          "internalType": "string",
          "name": "model",
          "type": "string"
        },
        {
          "internalType": "string",
          "name": "vin",
          "type": "string"
        },
        {
          "internalType": "string",
          "name": "color_code",
          "type": "string"
        },
        {
          "internalType": "string",
          "name": "date_of_manufacture",
          "type": "string"
        },
        {
          "internalType": "string",
          "name": "warranty_expiration_date",
          "type": "string"
        },
        {
          "internalType": "string",
          "name": "fuel_type",
          "type": "string"
        },
        {
          "internalType": "string",
          "name": "last_update",
          "type": "string"
        },
        {
          "internalType": "string",
          "name": "uriIpfsUrl",
          "type": "string"
        }
      ],
      "name": "createAutoPassport",
      "outputs": [],
      "stateMutability": "nonpayable",
      "type": "function"
    },
    {
      "inputs": [
        {
          "internalType": "bytes32",
          "name": "requestId",
          "type": "bytes32"
        },
        {
          "internalType": "string",
          "name": "hasFinesResponse",
          "type": "string"
        }
      ],
      "name": "fulfillMultipleParameters",
      "outputs": [],
      "stateMutability": "nonpayable",
      "type": "function"
    },
    {
      "inputs": [
        {
          "internalType": "uint256",
          "name": "tokenId",
          "type": "uint256"
        }
      ],
      "name": "getApproved",
      "outputs": [
        {
          "internalType": "address",
          "name": "",
          "type": "address"
        }
      ],
      "stateMutability": "view",
      "type": "function"
    },
    {
      "inputs": [
        {
          "internalType": "string",
          "name": "vin",
          "type": "string"
        }
      ],
      "name": "getObjCarByVIN",
      "outputs": [
        {
          "internalType": "uint256",
          "name": "tokenId",
          "type": "uint256"
        },
        {
          "components": [
            {
              "internalType": "string",
              "name": "brand",
              "type": "string"
            },
            {
              "internalType": "string",
              "name": "model",
              "type": "string"
            },
            {
              "internalType": "string",
              "name": "vin",
              "type": "string"
            },
            {
              "internalType": "string",
              "name": "color_code",
              "type": "string"
            },
            {
              "internalType": "string",
              "name": "date_of_manufacture",
              "type": "string"
            },
            {
              "internalType": "string",
              "name": "warranty_expiration_date",
              "type": "string"
            },
            {
              "internalType": "string",
              "name": "fuel_type",
              "type": "string"
            },
            {
              "internalType": "uint256",
              "name": "mileage",
              "type": "uint256"
            },
            {
              "internalType": "string[]",
              "name": "repair_history",
              "type": "string[]"
            },
            {
              "internalType": "string[]",
              "name": "maintenance_history",
              "type": "string[]"
            },
            {
              "internalType": "string",
              "name": "last_update",
              "type": "string"
            },
            {
              "internalType": "bool",
              "name": "hasFines",
              "type": "bool"
            }
          ],
          "internalType": "struct AutoPassport.Car",
          "name": "objCar",
          "type": "tuple"
        },
        {
          "internalType": "string",
          "name": "uri",
          "type": "string"
        }
      ],
      "stateMutability": "view",
      "type": "function"
    },
    {
      "inputs": [
        {
          "internalType": "address",
          "name": "owner",
          "type": "address"
        },
        {
          "internalType": "address",
          "name": "operator",
          "type": "address"
        }
      ],
      "name": "isApprovedForAll",
      "outputs": [
        {
          "internalType": "bool",
          "name": "",
          "type": "bool"
        }
      ],
      "stateMutability": "view",
      "type": "function"
    },
    {
      "inputs": [],
      "name": "name",
      "outputs": [
        {
          "internalType": "string",
          "name": "",
          "type": "string"
        }
      ],
      "stateMutability": "view",
      "type": "function"
    },
    {
      "inputs": [],
      "name": "owner",
      "outputs": [
        {
          "internalType": "address",
          "name": "",
          "type": "address"
        }
      ],
      "stateMutability": "view",
      "type": "function"
    },
    {
      "inputs": [
        {
          "internalType": "uint256",
          "name": "tokenId",
          "type": "uint256"
        }
      ],
      "name": "ownerOf",
      "outputs": [
        {
          "internalType": "address",
          "name": "",
          "type": "address"
        }
      ],
      "stateMutability": "view",
      "type": "function"
    },
    {
      "inputs": [
        {
          "internalType": "string",
          "name": "vin",
          "type": "string"
        }
      ],
      "name": "requestFinesApi",
      "outputs": [],
      "stateMutability": "nonpayable",
      "type": "function"
    },
    {
      "inputs": [
        {
          "internalType": "address",
          "name": "from",
          "type": "address"
        },
        {
          "internalType": "address",
          "name": "to",
          "type": "address"
        },
        {
          "internalType": "uint256",
          "name": "tokenId",
          "type": "uint256"
        }
      ],
      "name": "safeTransferFrom",
      "outputs": [],
      "stateMutability": "nonpayable",
      "type": "function"
    },
    {
      "inputs": [
        {
          "internalType": "address",
          "name": "from",
          "type": "address"
        },
        {
          "internalType": "address",
          "name": "to",
          "type": "address"
        },
        {
          "internalType": "uint256",
          "name": "tokenId",
          "type": "uint256"
        },
        {
          "internalType": "bytes",
          "name": "data",
          "type": "bytes"
        }
      ],
      "name": "safeTransferFrom",
      "outputs": [],
      "stateMutability": "nonpayable",
      "type": "function"
    },
    {
      "inputs": [
        {
          "internalType": "address",
          "name": "operator",
          "type": "address"
        },
        {
          "internalType": "bool",
          "name": "approved",
          "type": "bool"
        }
      ],
      "name": "setApprovalForAll",
      "outputs": [],
      "stateMutability": "nonpayable",
      "type": "function"
    },
    {
      "inputs": [
        {
          "internalType": "bytes4",
          "name": "interfaceId",
          "type": "bytes4"
        }
      ],
      "name": "supportsInterface",
      "outputs": [
        {
          "internalType": "bool",
          "name": "",
          "type": "bool"
        }
      ],
      "stateMutability": "view",
      "type": "function"
    },
    {
      "inputs": [],
      "name": "symbol",
      "outputs": [
        {
          "internalType": "string",
          "name": "",
          "type": "string"
        }
      ],
      "stateMutability": "view",
      "type": "function"
    },
    {
      "inputs": [
        {
          "internalType": "uint256",
          "name": "tokenId",
          "type": "uint256"
        }
      ],
      "name": "tokenURI",
      "outputs": [
        {
          "internalType": "string",
          "name": "",
          "type": "string"
        }
      ],
      "stateMutability": "view",
      "type": "function"
    },
    {
      "inputs": [
        {
          "internalType": "address",
          "name": "from",
          "type": "address"
        },
        {
          "internalType": "address",
          "name": "to",
          "type": "address"
        },
        {
          "internalType": "uint256",
          "name": "tokenId",
          "type": "uint256"
        }
      ],
      "name": "transferFrom",
      "outputs": [],
      "stateMutability": "nonpayable",
      "type": "function"
    },
    {
      "inputs": [
        {
          "internalType": "address",
          "name": "to",
          "type": "address"
        }
      ],
      "name": "transferOwnership",
      "outputs": [],
      "stateMutability": "nonpayable",
      "type": "function"
    },
    {
      "inputs": [
        {
          "internalType": "string",
          "name": "vin",
          "type": "string"
        },
        {
          "internalType": "uint256",
          "name": "mileage",
          "type": "uint256"
        },
        {
          "internalType": "string",
          "name": "newRepair",
          "type": "string"
        },
        {
          "internalType": "string",
          "name": "newMaintenance",
          "type": "string"
        },
        {
          "internalType": "string",
          "name": "newURI",
          "type": "string"
        },
        {
          "internalType": "string",
          "name": "last_update",
          "type": "string"
        }
      ],
      "name": "updateAutoPassport",
      "outputs": [],
      "stateMutability": "nonpayable",
      "type": "function"
    },
    {
      "inputs": [
        {
          "internalType": "uint256",
          "name": "",
          "type": "uint256"
        }
      ],
      "name": "vinCreated",
      "outputs": [
        {
          "internalType": "string",
          "name": "",
          "type": "string"
        }
      ],
      "stateMutability": "view",
      "type": "function"
    },
    {
      "inputs": [],
      "name": "vinProcessing",
      "outputs": [
        {
          "internalType": "string",
          "name": "",
          "type": "string"
        }
      ],
      "stateMutability": "view",
      "type": "function"
    }
  ],
  "bytecode": "0x600160045560a0604081905260006080819052620000209160119162000293565b503480156200002e57600080fd5b50604080518082018252600c81526b105d5d1bdc185cdcdc1bdc9d60a21b602080830191909152825180840190935260048352635061737360e01b90830152903380600081620000c55760405162461bcd60e51b815260206004820152601860248201527f43616e6e6f7420736574206f776e657220746f207a65726f000000000000000060448201526064015b60405180910390fd5b600680546001600160a01b0319166001600160a01b0384811691909117909155811615620000f857620000f881620001c4565b50508251620001109150600890602085019062000293565b5080516200012690600990602084019062000293565b5050506200014e73326c977e6efc84e512bb9c30f76e30c160ed06fb6200027160201b60201c565b600380546001600160a01b0319167340193c8518bb267228fc409a613bdbd8ec5a97b31790557f3764383061363338366566353433613361626235323831376636373037653362600f55600a620001af670de0b6b3a7640000600162000339565b620001bb919062000367565b601055620003c7565b6001600160a01b0381163314156200021f5760405162461bcd60e51b815260206004820152601760248201527f43616e6e6f74207472616e7366657220746f2073656c660000000000000000006044820152606401620000bc565b600780546001600160a01b0319166001600160a01b03838116918217909255600654604051919216907fed8889f560326eb138920d842192f0eb3dd22b4f139c87a2c57538e05bae127890600090a350565b600280546001600160a01b0319166001600160a01b0392909216919091179055565b828054620002a1906200038a565b90600052602060002090601f016020900481019282620002c5576000855562000310565b82601f10620002e057805160ff191683800117855562000310565b8280016001018555821562000310579182015b8281111562000310578251825591602001919060010190620002f3565b506200031e92915062000322565b5090565b5b808211156200031e576000815560010162000323565b60008160001904831182151516156200036257634e487b7160e01b600052601160045260246000fd5b500290565b6000826200038557634e487b7160e01b600052601260045260246000fd5b500490565b600181811c908216806200039f57607f821691505b60208210811415620003c157634e487b7160e01b600052602260045260246000fd5b50919050565b613f0780620003d76000396000f3fe608060405234801561001057600080fd5b50600436106101a35760003560e01c806390d7d418116100ee578063b88d4fde11610097578063c87b56dd11610071578063c87b56dd14610362578063d15995d314610375578063e985e9c514610388578063f2fde38b146103c457600080fd5b8063b88d4fde14610329578063bf450d151461033c578063c47795db1461034f57600080fd5b8063a22cb465116100c8578063a22cb465146102e1578063a79d6565146102f4578063b6a9a38a1461031657600080fd5b806390d7d418146102be57806395d89b41146102c6578063973cacb6146102ce57600080fd5b806342966c681161015057806370a082311161012a57806370a082311461028457806379ba5097146102a55780638da5cb5b146102ad57600080fd5b806342966c681461024b57806351dfe0451461025e5780636352211e1461027157600080fd5b8063095ea7b311610181578063095ea7b31461021057806323b872dd1461022557806342842e0e1461023857600080fd5b806301ffc9a7146101a857806306fdde03146101d0578063081812fc146101e5575b600080fd5b6101bb6101b636600461336e565b6103d7565b60405190151581526020015b60405180910390f35b6101d86103e8565b6040516101c791906133e3565b6101f86101f33660046133f6565b61047a565b6040516001600160a01b0390911681526020016101c7565b61022361021e36600461342b565b6104a1565b005b610223610233366004613455565b6105f6565b610223610246366004613455565b61066e565b6102236102593660046133f6565b610689565b61022361026c36600461353d565b610700565b6101f861027f3660046133f6565b61081c565b610297610292366004613572565b610881565b6040519081526020016101c7565b61022361091b565b6006546001600160a01b03166101f8565b6101d86109d0565b6101d8610a5e565b6102236102dc36600461358d565b610a6d565b6102236102ef366004613712565b610e77565b61030761030236600461353d565b610e86565b6040516101c79392919061379e565b61022361032436600461390c565b611616565b610223610337366004613953565b611840565b61022361034a3660046139cf565b6118b8565b61022361035d36600461353d565b611b21565b6101d86103703660046133f6565b611b9e565b6101d86103833660046133f6565b611ba9565b6101bb610396366004613aa9565b6001600160a01b039182166000908152600d6020908152604080832093909416825291909152205460ff1690565b6102236103d2366004613572565b611bd4565b60006103e282611be5565b92915050565b6060600880546103f790613adc565b80601f016020809104026020016040519081016040528092919081815260200182805461042390613adc565b80156104705780601f1061044557610100808354040283529160200191610470565b820191906000526020600020905b81548152906001019060200180831161045357829003601f168201915b5050505050905090565b600061048582611c23565b506000908152600c60205260409020546001600160a01b031690565b60006104ac8261081c565b9050806001600160a01b0316836001600160a01b0316141561053b5760405162461bcd60e51b815260206004820152602160248201527f4552433732313a20617070726f76616c20746f2063757272656e74206f776e6560448201527f720000000000000000000000000000000000000000000000000000000000000060648201526084015b60405180910390fd5b336001600160a01b038216148061057557506001600160a01b0381166000908152600d6020908152604080832033845290915290205460ff165b6105e75760405162461bcd60e51b815260206004820152603d60248201527f4552433732313a20617070726f76652063616c6c6572206973206e6f7420746f60448201527f6b656e206f776e6572206f7220617070726f76656420666f7220616c6c0000006064820152608401610532565b6105f18383611c87565b505050565b610601335b82611cf5565b6106635760405162461bcd60e51b815260206004820152602d60248201527f4552433732313a2063616c6c6572206973206e6f7420746f6b656e206f776e6560448201526c1c881bdc88185c1c1c9bdd9959609a1b6064820152608401610532565b6105f1838383611d74565b6105f183838360405180602001604052806000815250611840565b610692336105fb565b6106f45760405162461bcd60e51b815260206004820152602d60248201527f4552433732313a2063616c6c6572206973206e6f7420746f6b656e206f776e6560448201526c1c881bdc88185c1c1c9bdd9959609a1b6064820152608401610532565b6106fd81611f6d565b50565b6000610716600f543063b6a9a38a60e01b611f76565b825190915061072c906011906020850190613213565b506000826040516020016107409190613b11565b60408051601f19818403018152828201909152600382527f67657400000000000000000000000000000000000000000000000000000000006020830152915061078b90839083612007565b61080a6040518060400160405280600481526020017f70617468000000000000000000000000000000000000000000000000000000008152506040518060400160405280600881526020017f68617346696e6573000000000000000000000000000000000000000000000000815250846120079092919063ffffffff16565b61081682601054612025565b50505050565b6000818152600a60205260408120546001600160a01b0316806103e25760405162461bcd60e51b815260206004820152601860248201527f4552433732313a20696e76616c696420746f6b656e20494400000000000000006044820152606401610532565b60006001600160a01b0382166108ff5760405162461bcd60e51b815260206004820152602960248201527f4552433732313a2061646472657373207a65726f206973206e6f74206120766160448201527f6c6964206f776e657200000000000000000000000000000000000000000000006064820152608401610532565b506001600160a01b03166000908152600b602052604090205490565b6007546001600160a01b031633146109755760405162461bcd60e51b815260206004820152601660248201527f4d7573742062652070726f706f736564206f776e6572000000000000000000006044820152606401610532565b600680546001600160a01b0319808216339081179093556007805490911690556040516001600160a01b03909116919082907f8be0079c531659141344cd1fd0a4f28419497f9722a3daafe3b4186f6b6457e090600090a350565b601180546109dd90613adc565b80601f0160208091040260200160405190810160405280929190818152602001828054610a0990613adc565b8015610a565780601f10610a2b57610100808354040283529160200191610a56565b820191906000526020600020905b815481529060010190602001808311610a3957829003601f168201915b505050505081565b6060600980546103f790613adc565b601687604051610a7d9190613b7c565b9081526040519081900360200190205460ff1615610add5760405162461bcd60e51b815260206004820181905260248201527f436172207769746820746869732056494e20616c7265616479206578697374736044820152606401610532565b6000610ae860135490565b610af3906001613bae565b60008181526017602052604090205490915060ff1615610b7a5760405162461bcd60e51b8152602060048201526024808201527f4361722077697468207468697320746f6b656e496420616c726561647920657860448201527f69737473000000000000000000000000000000000000000000000000000000006064820152608401610532565b6040518061018001604052808b81526020018a815260200189815260200188815260200187815260200186815260200185815260200160008152602001600067ffffffffffffffff811115610bd157610bd1613491565b604051908082528060200260200182016040528015610c0457816020015b6060815260200190600190039081610bef5790505b5081526020016000604051908082528060200260200182016040528015610c3f57816020015b6060815260200190600190039081610c2a5790505b5081526020808201869052600060409283018190528481526014825291909120825180519192610c7492849290910190613213565b506020828101518051610c8d9260018501920190613213565b5060408201518051610ca9916002840191602090910190613213565b5060608201518051610cc5916003840191602090910190613213565b5060808201518051610ce1916004840191602090910190613213565b5060a08201518051610cfd916005840191602090910190613213565b5060c08201518051610d19916006840191602090910190613213565b5060e082015160078201556101008201518051610d40916008840191602090910190613297565b506101208201518051610d5d916009840191602090910190613297565b506101408201518051610d7a91600a840191602090910190613213565b506101609190910151600b909101805460ff19169115159190911790556040518190601590610daa908b90613b7c565b90815260405190819003602001902055610dc8601380546001019055565b610dd28b82612046565b610ddc8183612060565b6001601689604051610dee9190613b7c565b90815260405160209181900382019020805460ff191692151592909217909155601280546001810182556000919091528951610e51927fbb8a6a4669ba250d26cd7a459eca9d215f8307e33aebe50379bc5a3617ec3444909201918b0190613213565b506000908152601760205260409020805460ff1916600117905550505050505050505050565b610e82338383612141565b5050565b6000610eee60405180610180016040528060608152602001606081526020016060815260200160608152602001606081526020016060815260200160608152602001600081526020016060815260200160608152602001606081526020016000151581525090565b6060601684604051610f009190613b7c565b9081526040519081900360200190205460ff161515600114610f645760405162461bcd60e51b815260206004820181905260248201527f436172207769746820746869732056494e20646f6573206e6f742065786973746044820152606401610532565b601584604051610f749190613b7c565b90815260200160405180910390205492506000601460008581526020019081526020016000209050604051806101800160405280826000018054610fb790613adc565b80601f0160208091040260200160405190810160405280929190818152602001828054610fe390613adc565b80156110305780601f1061100557610100808354040283529160200191611030565b820191906000526020600020905b81548152906001019060200180831161101357829003601f168201915b5050505050815260200182600101805461104990613adc565b80601f016020809104026020016040519081016040528092919081815260200182805461107590613adc565b80156110c25780601f10611097576101008083540402835291602001916110c2565b820191906000526020600020905b8154815290600101906020018083116110a557829003601f168201915b505050505081526020018260020180546110db90613adc565b80601f016020809104026020016040519081016040528092919081815260200182805461110790613adc565b80156111545780601f1061112957610100808354040283529160200191611154565b820191906000526020600020905b81548152906001019060200180831161113757829003601f168201915b5050505050815260200182600301805461116d90613adc565b80601f016020809104026020016040519081016040528092919081815260200182805461119990613adc565b80156111e65780601f106111bb576101008083540402835291602001916111e6565b820191906000526020600020905b8154815290600101906020018083116111c957829003601f168201915b505050505081526020018260040180546111ff90613adc565b80601f016020809104026020016040519081016040528092919081815260200182805461122b90613adc565b80156112785780601f1061124d57610100808354040283529160200191611278565b820191906000526020600020905b81548152906001019060200180831161125b57829003601f168201915b5050505050815260200182600501805461129190613adc565b80601f01602080910402602001604051908101604052809291908181526020018280546112bd90613adc565b801561130a5780601f106112df5761010080835404028352916020019161130a565b820191906000526020600020905b8154815290600101906020018083116112ed57829003601f168201915b5050505050815260200182600601805461132390613adc565b80601f016020809104026020016040519081016040528092919081815260200182805461134f90613adc565b801561139c5780601f106113715761010080835404028352916020019161139c565b820191906000526020600020905b81548152906001019060200180831161137f57829003601f168201915b505050505081526020018260070154815260200182600801805480602002602001604051908101604052809291908181526020016000905b828210156114805783829060005260206000200180546113f390613adc565b80601f016020809104026020016040519081016040528092919081815260200182805461141f90613adc565b801561146c5780601f106114415761010080835404028352916020019161146c565b820191906000526020600020905b81548152906001019060200180831161144f57829003601f168201915b5050505050815260200190600101906113d4565b50505050815260200182600901805480602002602001604051908101604052809291908181526020016000905b828210156115595783829060005260206000200180546114cc90613adc565b80601f01602080910402602001604051908101604052809291908181526020018280546114f890613adc565b80156115455780601f1061151a57610100808354040283529160200191611545565b820191906000526020600020905b81548152906001019060200180831161152857829003601f168201915b5050505050815260200190600101906114ad565b50505050815260200182600a01805461157190613adc565b80601f016020809104026020016040519081016040528092919081815260200182805461159d90613adc565b80156115ea5780601f106115bf576101008083540402835291602001916115ea565b820191906000526020600020905b8154815290600101906020018083116115cd57829003601f168201915b5050509183525050600b83015460ff161515602090910152925061160d84612210565b93959294505050565b60008281526005602052604090205482906001600160a01b031633146116a45760405162461bcd60e51b815260206004820152602860248201527f536f75726365206d75737420626520746865206f7261636c65206f662074686560448201527f20726571756573740000000000000000000000000000000000000000000000006064820152608401610532565b60008181526005602052604080822080546001600160a01b03191690555182917f7cc135e0cebb02c3480ae5d74d377283180a2601f8f644edf7987b009316c63a91a26000601560116040516116fa9190613bc6565b90815260408051918290036020908101832054600081815260148352839020848401909352600484527f747275650000000000000000000000000000000000000000000000000000000093820193909352855190860120919250907f6273151f959616268004b58dbb21e5c851b7b8d04498b4aabee12291d22fc03414156117ab57600b8101805460ff191660011790556040805160208101918290526000908190526117a991601191613213565b505b60408051808201909152600581527f66616c73650000000000000000000000000000000000000000000000000000006020918201528451908501207fba9154e0baa69c78e0ca563b867df81bae9d177c4ea1452c35c84386a70f0f7a141561183957600b8101805460ff1916905560408051602081019182905260009081905261183791601191613213565b505b5050505050565b61184a3383611cf5565b6118ac5760405162461bcd60e51b815260206004820152602d60248201527f4552433732313a2063616c6c6572206973206e6f7420746f6b656e206f776e6560448201526c1c881bdc88185c1c1c9bdd9959609a1b6064820152608401610532565b61081684848484612319565b6016866040516118c89190613b7c565b9081526040519081900360200190205460ff16151560011461192c5760405162461bcd60e51b815260206004820181905260248201527f436172207769746820746869732056494e20646f6573206e6f742065786973746044820152606401610532565b600060158760405161193e9190613b7c565b90815260200160405180910390205490506000601460008381526020019081526020016000209050868160070154106119df5760405162461bcd60e51b815260206004820152603860248201527f4e6577206d696c656167652076616c7565206d7573742062652067726561746560448201527f72207468616e207468652063757272656e742076616c756500000000000000006064820152608401610532565b60078101879055855115801590611a3c57506040805180820190915260098152681d5b9919599a5b995960ba1b6020918201528651908701207f019726c6babc1de231f26fd6cbb2df2c912784a2e1ba55295496269a6d3ff65114155b15611a6e5760088101805460018101825560009182526020918290208851611a6c93919092019190890190613213565b505b60008551118015611ac557506040805180820190915260098152681d5b9919599a5b995960ba1b6020918201528551908601207f019726c6babc1de231f26fd6cbb2df2c912784a2e1ba55295496269a6d3ff65114155b15611af75760098101805460018101825560009182526020918290208751611af593919092019190880190613213565b505b611b018285612060565b8251611b1690600a8301906020860190613213565b505050505050505050565b601681604051611b319190613b7c565b9081526040519081900360200190205460ff161515600114611b955760405162461bcd60e51b815260206004820181905260248201527f436172207769746820746869732056494e20646f6573206e6f742065786973746044820152606401610532565b6106fd81610700565b60606103e282612210565b60128181548110611bb957600080fd5b9060005260206000200160009150905080546109dd90613adc565b611bdc612397565b6106fd816123f3565b60006001600160e01b031982167f490649060000000000000000000000000000000000000000000000000000000014806103e257506103e28261249e565b6000818152600a60205260409020546001600160a01b03166106fd5760405162461bcd60e51b815260206004820152601860248201527f4552433732313a20696e76616c696420746f6b656e20494400000000000000006044820152606401610532565b6000818152600c6020526040902080546001600160a01b0319166001600160a01b0384169081179091558190611cbc8261081c565b6001600160a01b03167f8c5be1e5ebec7d5bd14f71427d1e84f3dd0314c0f7b2291e5b200ac8c7c3b92560405160405180910390a45050565b600080611d018361081c565b9050806001600160a01b0316846001600160a01b03161480611d4857506001600160a01b038082166000908152600d602090815260408083209388168352929052205460ff165b80611d6c5750836001600160a01b0316611d618461047a565b6001600160a01b0316145b949350505050565b826001600160a01b0316611d878261081c565b6001600160a01b031614611deb5760405162461bcd60e51b815260206004820152602560248201527f4552433732313a207472616e736665722066726f6d20696e636f72726563742060448201526437bbb732b960d91b6064820152608401610532565b6001600160a01b038216611e665760405162461bcd60e51b8152602060048201526024808201527f4552433732313a207472616e7366657220746f20746865207a65726f2061646460448201527f72657373000000000000000000000000000000000000000000000000000000006064820152608401610532565b826001600160a01b0316611e798261081c565b6001600160a01b031614611edd5760405162461bcd60e51b815260206004820152602560248201527f4552433732313a207472616e736665722066726f6d20696e636f72726563742060448201526437bbb732b960d91b6064820152608401610532565b6000818152600c6020908152604080832080546001600160a01b03199081169091556001600160a01b03878116808652600b8552838620805460001901905590871680865283862080546001019055868652600a90945282852080549092168417909155905184937fddf252ad1be2c89b69c2b068fc378daa952ba7f163c4a11628f55a4df523b3ef91a4505050565b6106fd81612539565b611fb46040805160a0810182526000808252602080830182905282840182905260608084018390528451808601909552845283015290608082015290565b611ff26040805160a0810182526000808252602080830182905282840182905260608084018390528451808601909552845283015290608082015290565b611ffe81868686612579565b95945050505050565b608083015161201690836125ec565b60808301516105f190826125ec565b60035460009061203f906001600160a01b03168484612603565b9392505050565b610e828282604051806020016040528060008152506126c4565b6000828152600a60205260409020546001600160a01b03166120ea5760405162461bcd60e51b815260206004820152602e60248201527f45524337323155524953746f726167653a2055524920736574206f66206e6f6e60448201527f6578697374656e7420746f6b656e0000000000000000000000000000000000006064820152608401610532565b6000828152600e60209081526040909120825161210992840190613213565b506040518281527ff8e1a15aba9398e019f0b49df1a4fde98ee17ae345cb5f6b5e2c27f5033e8ce79060200160405180910390a15050565b816001600160a01b0316836001600160a01b031614156121a35760405162461bcd60e51b815260206004820152601960248201527f4552433732313a20617070726f766520746f2063616c6c6572000000000000006044820152606401610532565b6001600160a01b038381166000818152600d6020908152604080832094871680845294825291829020805460ff191686151590811790915591519182527f17307eab39ab6107e8899845ad3d59bd9653f200f220920489ca2b5937696c31910160405180910390a3505050565b606061221b82611c23565b6000828152600e60205260408120805461223490613adc565b80601f016020809104026020016040519081016040528092919081815260200182805461226090613adc565b80156122ad5780601f10612282576101008083540402835291602001916122ad565b820191906000526020600020905b81548152906001019060200180831161229057829003601f168201915b5050505050905060006122cb60408051602081019091526000815290565b90508051600014156122de575092915050565b8151156123105780826040516020016122f8929190613c62565b60405160208183030381529060405292505050919050565b611d6c84612742565b612324848484611d74565b612330848484846127b5565b6108165760405162461bcd60e51b815260206004820152603260248201527f4552433732313a207472616e7366657220746f206e6f6e20455243373231526560448201527131b2b4bb32b91034b6b83632b6b2b73a32b960711b6064820152608401610532565b6006546001600160a01b031633146123f15760405162461bcd60e51b815260206004820152601660248201527f4f6e6c792063616c6c61626c65206279206f776e6572000000000000000000006044820152606401610532565b565b6001600160a01b03811633141561244c5760405162461bcd60e51b815260206004820152601760248201527f43616e6e6f74207472616e7366657220746f2073656c660000000000000000006044820152606401610532565b600780546001600160a01b0319166001600160a01b03838116918217909255600654604051919216907fed8889f560326eb138920d842192f0eb3dd22b4f139c87a2c57538e05bae127890600090a350565b60006001600160e01b031982167f80ac58cd00000000000000000000000000000000000000000000000000000000148061250157506001600160e01b031982167f5b5e139f00000000000000000000000000000000000000000000000000000000145b806103e257507f01ffc9a7000000000000000000000000000000000000000000000000000000006001600160e01b03198316146103e2565b612542816128fb565b6000818152600e60205260409020805461255b90613adc565b1590506106fd576000818152600e602052604081206106fd916132f0565b6125b76040805160a0810182526000808252602080830182905282840182905260608084018390528451808601909552845283015290608082015290565b6125c78560800151610100612990565b50509183526001600160a01b031660208301526001600160e01b031916604082015290565b6125f982600383516129f5565b6105f18282612b04565b600454600090612614816001613bae565b600455835160408086015160808701515191516000937f4042994600000000000000000000000000000000000000000000000000000000936126659386938493923092918a91600191602401613c91565b60408051601f198184030181529190526020810180517bffffffffffffffffffffffffffffffffffffffffffffffffffffffff166001600160e01b03199093169290921790915290506126ba86838684612b2b565b9695505050505050565b6126ce8383612cbc565b6126db60008484846127b5565b6105f15760405162461bcd60e51b815260206004820152603260248201527f4552433732313a207472616e7366657220746f206e6f6e20455243373231526560448201527131b2b4bb32b91034b6b83632b6b2b73a32b960711b6064820152608401610532565b606061274d82611c23565b600061276460408051602081019091526000815290565b90506000815111612784576040518060200160405280600081525061203f565b8061278e84612e47565b60405160200161279f929190613c62565b6040516020818303038152906040529392505050565b60006001600160a01b0384163b156128f357604051630a85bd0160e11b81526001600160a01b0385169063150b7a02906127f9903390899088908890600401613cf5565b6020604051808303816000875af1925050508015612834575060408051601f3d908101601f1916820190925261283191810190613d27565b60015b6128d9573d808015612862576040519150601f19603f3d011682016040523d82523d6000602084013e612867565b606091505b5080516128d15760405162461bcd60e51b815260206004820152603260248201527f4552433732313a207472616e7366657220746f206e6f6e20455243373231526560448201527131b2b4bb32b91034b6b83632b6b2b73a32b960711b6064820152608401610532565b805181602001fd5b6001600160e01b031916630a85bd0160e11b149050611d6c565b506001611d6c565b60006129068261081c565b90506129118261081c565b6000838152600c6020908152604080832080546001600160a01b03199081169091556001600160a01b038516808552600b84528285208054600019019055878552600a909352818420805490911690555192935084927fddf252ad1be2c89b69c2b068fc378daa952ba7f163c4a11628f55a4df523b3ef908390a45050565b6040805180820190915260608152600060208201526129b0602083613d44565b156129d8576129c0602083613d44565b6129cb906020613d66565b6129d59083613bae565b91505b506020828101829052604080518085526000815290920101905290565b60178167ffffffffffffffff1611612a1a576108168360e0600585901b168317612ef1565b60ff8167ffffffffffffffff1611612a5857612a41836018611fe0600586901b1617612ef1565b506108168367ffffffffffffffff83166001612f16565b61ffff8167ffffffffffffffff1611612a9757612a80836019611fe0600586901b1617612ef1565b506108168367ffffffffffffffff83166002612f16565b63ffffffff8167ffffffffffffffff1611612ad857612ac183601a611fe0600586901b1617612ef1565b506108168367ffffffffffffffff83166004612f16565b612aed83601b611fe0600586901b1617612ef1565b506108168367ffffffffffffffff83166008612f16565b60408051808201909152606081526000602082015261203f83846000015151848551612f3c565b6040516bffffffffffffffffffffffff193060601b1660208201526034810184905260009060540160408051808303601f1901815282825280516020918201206000818152600590925291812080546001600160a01b0319166001600160a01b038a1617905590925082917fb5e6e01e79f91267dc17b4e6314d5d4d03593d2ceee0fbb452b750bd70ea5af99190a26002546040517f4000aea00000000000000000000000000000000000000000000000000000000081526001600160a01b0390911690634000aea090612c0790889087908790600401613d7d565b6020604051808303816000875af1158015612c26573d6000803e3d6000fd5b505050506040513d601f19601f82011682018060405250810190612c4a9190613da5565b611d6c5760405162461bcd60e51b815260206004820152602360248201527f756e61626c6520746f207472616e73666572416e6443616c6c20746f206f726160448201527f636c6500000000000000000000000000000000000000000000000000000000006064820152608401610532565b6001600160a01b038216612d125760405162461bcd60e51b815260206004820181905260248201527f4552433732313a206d696e7420746f20746865207a65726f20616464726573736044820152606401610532565b6000818152600a60205260409020546001600160a01b031615612d775760405162461bcd60e51b815260206004820152601c60248201527f4552433732313a20746f6b656e20616c7265616479206d696e746564000000006044820152606401610532565b6000818152600a60205260409020546001600160a01b031615612ddc5760405162461bcd60e51b815260206004820152601c60248201527f4552433732313a20746f6b656e20616c7265616479206d696e746564000000006044820152606401610532565b6001600160a01b0382166000818152600b6020908152604080832080546001019055848352600a90915280822080546001600160a01b0319168417905551839291907fddf252ad1be2c89b69c2b068fc378daa952ba7f163c4a11628f55a4df523b3ef908290a45050565b60606000612e5483613026565b600101905060008167ffffffffffffffff811115612e7457612e74613491565b6040519080825280601f01601f191660200182016040528015612e9e576020820181803683370190505b5090508181016020015b600019017f3031323334353637383961626364656600000000000000000000000000000000600a86061a8153600a8504945084612ee457612ee9565b612ea8565b509392505050565b60408051808201909152606081526000602082015261203f8384600001515184613108565b604080518082019091526060815260006020820152611d6c848560000151518585613164565b6040805180820190915260608152600060208201528251821115612f5f57600080fd5b6020850151612f6e8386613bae565b1115612fa157612fa185612f9187602001518786612f8c9190613bae565b6131e5565b612f9c906002613dc2565b6131fc565b600080865180518760208301019350808887011115612fc05787860182525b505050602084015b602084106130005780518252612fdf602083613bae565b9150612fec602082613bae565b9050612ff9602085613d66565b9350612fc8565b51815160001960208690036101000a019081169019919091161790525083949350505050565b6000807a184f03e93ff9f4daa797ed6e38ed64bf6a1f010000000000000000831061306f577a184f03e93ff9f4daa797ed6e38ed64bf6a1f010000000000000000830492506040015b6d04ee2d6d415b85acef8100000000831061309b576d04ee2d6d415b85acef8100000000830492506020015b662386f26fc1000083106130b957662386f26fc10000830492506010015b6305f5e10083106130d1576305f5e100830492506008015b61271083106130e557612710830492506004015b606483106130f7576064830492506002015b600a83106103e25760010192915050565b6040805180820190915260608152600060208201528360200151831061313d5761313d8485602001516002612f9c9190613dc2565b83518051602085830101848153508085141561315a576001810182525b5093949350505050565b60408051808201909152606081526000602082015260208501516131888584613bae565b111561319c5761319c85612f918685613bae565b600060016131ac84610100613ec5565b6131b69190613d66565b90508551838682010185831982511617815250805184870111156131da5783860181525b509495945050505050565b6000818311156131f65750816103e2565b50919050565b81516132088383612990565b506108168382612b04565b82805461321f90613adc565b90600052602060002090601f0160209004810192826132415760008555613287565b82601f1061325a57805160ff1916838001178555613287565b82800160010185558215613287579182015b8281111561328757825182559160200191906001019061326c565b50613293929150613326565b5090565b8280548282559060005260206000209081019282156132e4579160200282015b828111156132e457825180516132d4918491602090910190613213565b50916020019190600101906132b7565b5061329392915061333b565b5080546132fc90613adc565b6000825580601f1061330c575050565b601f0160209004906000526020600020908101906106fd91905b5b808211156132935760008155600101613327565b8082111561329357600061334f82826132f0565b5060010161333b565b6001600160e01b0319811681146106fd57600080fd5b60006020828403121561338057600080fd5b813561203f81613358565b60005b838110156133a657818101518382015260200161338e565b838111156108165750506000910152565b600081518084526133cf81602086016020860161338b565b601f01601f19169290920160200192915050565b60208152600061203f60208301846133b7565b60006020828403121561340857600080fd5b5035919050565b80356001600160a01b038116811461342657600080fd5b919050565b6000806040838503121561343e57600080fd5b6134478361340f565b946020939093013593505050565b60008060006060848603121561346a57600080fd5b6134738461340f565b92506134816020850161340f565b9150604084013590509250925092565b634e487b7160e01b600052604160045260246000fd5b600067ffffffffffffffff808411156134c2576134c2613491565b604051601f8501601f19908116603f011681019082821181831017156134ea576134ea613491565b8160405280935085815286868601111561350357600080fd5b858560208301376000602087830101525050509392505050565b600082601f83011261352e57600080fd5b61203f838335602085016134a7565b60006020828403121561354f57600080fd5b813567ffffffffffffffff81111561356657600080fd5b611d6c8482850161351d565b60006020828403121561358457600080fd5b61203f8261340f565b6000806000806000806000806000806101408b8d0312156135ad57600080fd5b6135b68b61340f565b995060208b013567ffffffffffffffff808211156135d357600080fd5b6135df8e838f0161351d565b9a5060408d01359150808211156135f557600080fd5b6136018e838f0161351d565b995060608d013591508082111561361757600080fd5b6136238e838f0161351d565b985060808d013591508082111561363957600080fd5b6136458e838f0161351d565b975060a08d013591508082111561365b57600080fd5b6136678e838f0161351d565b965060c08d013591508082111561367d57600080fd5b6136898e838f0161351d565b955060e08d013591508082111561369f57600080fd5b6136ab8e838f0161351d565b94506101008d01359150808211156136c257600080fd5b6136ce8e838f0161351d565b93506101208d01359150808211156136e557600080fd5b506136f28d828e0161351d565b9150509295989b9194979a5092959850565b80151581146106fd57600080fd5b6000806040838503121561372557600080fd5b61372e8361340f565b9150602083013561373e81613704565b809150509250929050565b600081518084526020808501808196508360051b8101915082860160005b8581101561379157828403895261377f8483516133b7565b98850198935090840190600101613767565b5091979650505050505050565b83815260606020820152600083516101808060608501526137c36101e08501836133b7565b91506020860151605f19808685030160808701526137e184836133b7565b935060408801519150808685030160a08701526137fe84836133b7565b935060608801519150808685030160c087015261381b84836133b7565b935060808801519150808685030160e087015261383884836133b7565b935060a0880151915061010081878603018188015261385785846133b7565b945060c0890151925061012082888703018189015261387686856133b7565b955060e08a0151935061014084818a0152828b0151945061016092508389880301838a01526138a58786613749565b9650818b015194508389880301868a01526138c08786613749565b9650808b01519550505081878603016101a08801526138df85856133b7565b94508089015193505050506138f96101c085018215159052565b5082810360408401526126ba81856133b7565b6000806040838503121561391f57600080fd5b82359150602083013567ffffffffffffffff81111561393d57600080fd5b6139498582860161351d565b9150509250929050565b6000806000806080858703121561396957600080fd5b6139728561340f565b93506139806020860161340f565b925060408501359150606085013567ffffffffffffffff8111156139a357600080fd5b8501601f810187136139b457600080fd5b6139c3878235602084016134a7565b91505092959194509250565b60008060008060008060c087890312156139e857600080fd5b863567ffffffffffffffff80821115613a0057600080fd5b613a0c8a838b0161351d565b9750602089013596506040890135915080821115613a2957600080fd5b613a358a838b0161351d565b95506060890135915080821115613a4b57600080fd5b613a578a838b0161351d565b94506080890135915080821115613a6d57600080fd5b613a798a838b0161351d565b935060a0890135915080821115613a8f57600080fd5b50613a9c89828a0161351d565b9150509295509295509295565b60008060408385031215613abc57600080fd5b613ac58361340f565b9150613ad36020840161340f565b90509250929050565b600181811c90821680613af057607f821691505b602082108114156131f657634e487b7160e01b600052602260045260246000fd5b7f68747470733a2f2f66696e65732d6170692e6f6e72656e6465722e636f6d2f6381527f6172732f66696e65732f00000000000000000000000000000000000000000000602082015260008251613b6f81602a85016020870161338b565b91909101602a0192915050565b60008251613b8e81846020870161338b565b9190910192915050565b634e487b7160e01b600052601160045260246000fd5b60008219821115613bc157613bc1613b98565b500190565b600080835481600182811c915080831680613be257607f831692505b6020808410821415613c0257634e487b7160e01b86526022600452602486fd5b818015613c165760018114613c2757613c54565b60ff19861689528489019650613c54565b60008a81526020902060005b86811015613c4c5781548b820152908501908301613c33565b505084890196505b509498975050505050505050565b60008351613c7481846020880161338b565b835190830190613c8881836020880161338b565b01949350505050565b60006101006001600160a01b03808c1684528a60208501528960408501528089166060850152506001600160e01b0319871660808401528560a08401528460c08401528060e0840152613ce6818401856133b7565b9b9a5050505050505050505050565b60006001600160a01b038087168352808616602084015250836040830152608060608301526126ba60808301846133b7565b600060208284031215613d3957600080fd5b815161203f81613358565b600082613d6157634e487b7160e01b600052601260045260246000fd5b500690565b600082821015613d7857613d78613b98565b500390565b6001600160a01b0384168152826020820152606060408201526000611ffe60608301846133b7565b600060208284031215613db757600080fd5b815161203f81613704565b6000816000190483118215151615613ddc57613ddc613b98565b500290565b600181815b80851115613e1c578160001904821115613e0257613e02613b98565b80851615613e0f57918102915b93841c9390800290613de6565b509250929050565b600082613e33575060016103e2565b81613e40575060006103e2565b8160018114613e565760028114613e6057613e7c565b60019150506103e2565b60ff841115613e7157613e71613b98565b50506001821b6103e2565b5060208310610133831016604e8410600b8410161715613e9f575081810a6103e2565b613ea98383613de1565b8060001904821115613ebd57613ebd613b98565b029392505050565b600061203f8383613e2456fea26469706673582212205fc893ca987cee9b021c08936563c07bd3230a0ea2b0fb6142c27561ca93206c64736f6c634300080b0033",
  "linkReferences": {},
  "deployedLinkReferences": {}
}