{
  "_format": "hh-sol-artifact-1",
  "contractName": "AutoPassport",
  "sourceName": "contracts/AutoPassport.sol",
  "abi": [
    {
      "inputs": [],
      "stateMutability": "nonpayable",
      "type": "constructor"
    },
    {
      "anonymous": false,
      "inputs": [
        {
          "indexed": true,
          "internalType": "address",
          "name": "owner",
          "type": "address"
        },
        {
          "indexed": true,
          "internalType": "address",
          "name": "approved",
          "type": "address"
        },
        {
          "indexed": true,
          "internalType": "uint256",
          "name": "tokenId",
          "type": "uint256"
        }
      ],
      "name": "Approval",
      "type": "event"
    },
    {
      "anonymous": false,
      "inputs": [
        {
          "indexed": true,
          "internalType": "address",
          "name": "owner",
          "type": "address"
        },
        {
          "indexed": true,
          "internalType": "address",
          "name": "operator",
          "type": "address"
        },
        {
          "indexed": false,
          "internalType": "bool",
          "name": "approved",
          "type": "bool"
        }
      ],
      "name": "ApprovalForAll",
      "type": "event"
    },
    {
      "anonymous": false,
      "inputs": [
        {
          "indexed": false,
          "internalType": "uint256",
          "name": "_fromTokenId",
          "type": "uint256"
        },
        {
          "indexed": false,
          "internalType": "uint256",
          "name": "_toTokenId",
          "type": "uint256"
        }
      ],
      "name": "BatchMetadataUpdate",
      "type": "event"
    },
    {
      "anonymous": false,
      "inputs": [
        {
          "indexed": true,
          "internalType": "bytes32",
          "name": "id",
          "type": "bytes32"
        }
      ],
      "name": "ChainlinkCancelled",
      "type": "event"
    },
    {
      "anonymous": false,
      "inputs": [
        {
          "indexed": true,
          "internalType": "bytes32",
          "name": "id",
          "type": "bytes32"
        }
      ],
      "name": "ChainlinkFulfilled",
      "type": "event"
    },
    {
      "anonymous": false,
      "inputs": [
        {
          "indexed": true,
          "internalType": "bytes32",
          "name": "id",
          "type": "bytes32"
        }
      ],
      "name": "ChainlinkRequested",
      "type": "event"
    },
    {
      "anonymous": false,
      "inputs": [
        {
          "indexed": false,
          "internalType": "uint256",
          "name": "_tokenId",
          "type": "uint256"
        }
      ],
      "name": "MetadataUpdate",
      "type": "event"
    },
    {
      "anonymous": false,
      "inputs": [
        {
          "indexed": true,
          "internalType": "address",
          "name": "from",
          "type": "address"
        },
        {
          "indexed": true,
          "internalType": "address",
          "name": "to",
          "type": "address"
        }
      ],
      "name": "OwnershipTransferRequested",
      "type": "event"
    },
    {
      "anonymous": false,
      "inputs": [
        {
          "indexed": true,
          "internalType": "address",
          "name": "from",
          "type": "address"
        },
        {
          "indexed": true,
          "internalType": "address",
          "name": "to",
          "type": "address"
        }
      ],
      "name": "OwnershipTransferred",
      "type": "event"
    },
    {
      "anonymous": false,
      "inputs": [
        {
          "indexed": true,
          "internalType": "address",
          "name": "from",
          "type": "address"
        },
        {
          "indexed": true,
          "internalType": "address",
          "name": "to",
          "type": "address"
        },
        {
          "indexed": true,
          "internalType": "uint256",
          "name": "tokenId",
          "type": "uint256"
        }
      ],
      "name": "Transfer",
      "type": "event"
    },
    {
      "inputs": [],
      "name": "acceptOwnership",
      "outputs": [],
      "stateMutability": "nonpayable",
      "type": "function"
    },
    {
      "inputs": [
        {
          "internalType": "address",
          "name": "to",
          "type": "address"
        },
        {
          "internalType": "uint256",
          "name": "tokenId",
          "type": "uint256"
        }
      ],
      "name": "approve",
      "outputs": [],
      "stateMutability": "nonpayable",
      "type": "function"
    },
    {
      "inputs": [
        {
          "internalType": "address",
          "name": "owner",
          "type": "address"
        }
      ],
      "name": "balanceOf",
      "outputs": [
        {
          "internalType": "uint256",
          "name": "",
          "type": "uint256"
        }
      ],
      "stateMutability": "view",
      "type": "function"
    },
    {
      "inputs": [
        {
          "internalType": "uint256",
          "name": "tokenId",
          "type": "uint256"
        }
      ],
      "name": "burn",
      "outputs": [],
      "stateMutability": "nonpayable",
      "type": "function"
    },
    {
      "inputs": [
        {
          "internalType": "address",
          "name": "to",
          "type": "address"
        },
        {
          "internalType": "string",
          "name": "brand",
          "type": "string"
        },
        {
          "internalType": "string",
          "name": "model",
          "type": "string"
        },
        {
          "internalType": "string",
          "name": "vin",
          "type": "string"
        },
        {
          "internalType": "string",
          "name": "color_code",
          "type": "string"
        },
        {
          "internalType": "string",
          "name": "date_of_manufacture",
          "type": "string"
        },
        {
          "internalType": "string",
          "name": "warranty_expiration_date",
          "type": "string"
        },
        {
          "internalType": "string",
          "name": "fuel_type",
          "type": "string"
        },
        {
          "internalType": "string",
          "name": "last_update",
          "type": "string"
        },
        {
          "internalType": "string",
          "name": "uriIpfsUrl",
          "type": "string"
        }
      ],
      "name": "createAutoPassport",
      "outputs": [],
      "stateMutability": "nonpayable",
      "type": "function"
    },
    {
      "inputs": [
        {
          "internalType": "bytes32",
          "name": "requestId",
          "type": "bytes32"
        },
        {
          "internalType": "string",
          "name": "hasFinesResponse",
          "type": "string"
        }
      ],
      "name": "fulfillMultipleParameters",
      "outputs": [],
      "stateMutability": "nonpayable",
      "type": "function"
    },
    {
      "inputs": [
        {
          "internalType": "uint256",
          "name": "tokenId",
          "type": "uint256"
        }
      ],
      "name": "getApproved",
      "outputs": [
        {
          "internalType": "address",
          "name": "",
          "type": "address"
        }
      ],
      "stateMutability": "view",
      "type": "function"
    },
    {
      "inputs": [
        {
          "internalType": "string",
          "name": "vin",
          "type": "string"
        }
      ],
      "name": "getCarAndCheckFines",
      "outputs": [
        {
          "internalType": "uint256",
          "name": "tokenId",
          "type": "uint256"
        },
        {
          "components": [
            {
              "internalType": "string",
              "name": "brand",
              "type": "string"
            },
            {
              "internalType": "string",
              "name": "model",
              "type": "string"
            },
            {
              "internalType": "string",
              "name": "vin",
              "type": "string"
            },
            {
              "internalType": "string",
              "name": "color_code",
              "type": "string"
            },
            {
              "internalType": "string",
              "name": "date_of_manufacture",
              "type": "string"
            },
            {
              "internalType": "string",
              "name": "warranty_expiration_date",
              "type": "string"
            },
            {
              "internalType": "string",
              "name": "fuel_type",
              "type": "string"
            },
            {
              "internalType": "uint256",
              "name": "mileage",
              "type": "uint256"
            },
            {
              "internalType": "string[]",
              "name": "repair_history",
              "type": "string[]"
            },
            {
              "internalType": "string[]",
              "name": "maintenance_history",
              "type": "string[]"
            },
            {
              "internalType": "string",
              "name": "last_update",
              "type": "string"
            },
            {
              "internalType": "bool",
              "name": "hasFines",
              "type": "bool"
            }
          ],
          "internalType": "struct AutoPassport.Car",
          "name": "objCar",
          "type": "tuple"
        },
        {
          "internalType": "string",
          "name": "uri",
          "type": "string"
        }
      ],
      "stateMutability": "nonpayable",
      "type": "function"
    },
    {
      "inputs": [
        {
          "internalType": "string",
          "name": "vin",
          "type": "string"
        }
      ],
      "name": "getObjCarByVIN",
      "outputs": [
        {
          "internalType": "uint256",
          "name": "tokenId",
          "type": "uint256"
        },
        {
          "components": [
            {
              "internalType": "string",
              "name": "brand",
              "type": "string"
            },
            {
              "internalType": "string",
              "name": "model",
              "type": "string"
            },
            {
              "internalType": "string",
              "name": "vin",
              "type": "string"
            },
            {
              "internalType": "string",
              "name": "color_code",
              "type": "string"
            },
            {
              "internalType": "string",
              "name": "date_of_manufacture",
              "type": "string"
            },
            {
              "internalType": "string",
              "name": "warranty_expiration_date",
              "type": "string"
            },
            {
              "internalType": "string",
              "name": "fuel_type",
              "type": "string"
            },
            {
              "internalType": "uint256",
              "name": "mileage",
              "type": "uint256"
            },
            {
              "internalType": "string[]",
              "name": "repair_history",
              "type": "string[]"
            },
            {
              "internalType": "string[]",
              "name": "maintenance_history",
              "type": "string[]"
            },
            {
              "internalType": "string",
              "name": "last_update",
              "type": "string"
            },
            {
              "internalType": "bool",
              "name": "hasFines",
              "type": "bool"
            }
          ],
          "internalType": "struct AutoPassport.Car",
          "name": "objCar",
          "type": "tuple"
        },
        {
          "internalType": "string",
          "name": "uri",
          "type": "string"
        }
      ],
      "stateMutability": "view",
      "type": "function"
    },
    {
      "inputs": [
        {
          "internalType": "address",
          "name": "owner",
          "type": "address"
        },
        {
          "internalType": "address",
          "name": "operator",
          "type": "address"
        }
      ],
      "name": "isApprovedForAll",
      "outputs": [
        {
          "internalType": "bool",
          "name": "",
          "type": "bool"
        }
      ],
      "stateMutability": "view",
      "type": "function"
    },
    {
      "inputs": [],
      "name": "name",
      "outputs": [
        {
          "internalType": "string",
          "name": "",
          "type": "string"
        }
      ],
      "stateMutability": "view",
      "type": "function"
    },
    {
      "inputs": [],
      "name": "owner",
      "outputs": [
        {
          "internalType": "address",
          "name": "",
          "type": "address"
        }
      ],
      "stateMutability": "view",
      "type": "function"
    },
    {
      "inputs": [
        {
          "internalType": "uint256",
          "name": "tokenId",
          "type": "uint256"
        }
      ],
      "name": "ownerOf",
      "outputs": [
        {
          "internalType": "address",
          "name": "",
          "type": "address"
        }
      ],
      "stateMutability": "view",
      "type": "function"
    },
    {
      "inputs": [
        {
          "internalType": "string",
          "name": "vin",
          "type": "string"
        }
      ],
      "name": "requestFinesApi",
      "outputs": [],
      "stateMutability": "nonpayable",
      "type": "function"
    },
    {
      "inputs": [
        {
          "internalType": "address",
          "name": "from",
          "type": "address"
        },
        {
          "internalType": "address",
          "name": "to",
          "type": "address"
        },
        {
          "internalType": "uint256",
          "name": "tokenId",
          "type": "uint256"
        }
      ],
      "name": "safeTransferFrom",
      "outputs": [],
      "stateMutability": "nonpayable",
      "type": "function"
    },
    {
      "inputs": [
        {
          "internalType": "address",
          "name": "from",
          "type": "address"
        },
        {
          "internalType": "address",
          "name": "to",
          "type": "address"
        },
        {
          "internalType": "uint256",
          "name": "tokenId",
          "type": "uint256"
        },
        {
          "internalType": "bytes",
          "name": "data",
          "type": "bytes"
        }
      ],
      "name": "safeTransferFrom",
      "outputs": [],
      "stateMutability": "nonpayable",
      "type": "function"
    },
    {
      "inputs": [
        {
          "internalType": "address",
          "name": "operator",
          "type": "address"
        },
        {
          "internalType": "bool",
          "name": "approved",
          "type": "bool"
        }
      ],
      "name": "setApprovalForAll",
      "outputs": [],
      "stateMutability": "nonpayable",
      "type": "function"
    },
    {
      "inputs": [
        {
          "internalType": "bytes4",
          "name": "interfaceId",
          "type": "bytes4"
        }
      ],
      "name": "supportsInterface",
      "outputs": [
        {
          "internalType": "bool",
          "name": "",
          "type": "bool"
        }
      ],
      "stateMutability": "view",
      "type": "function"
    },
    {
      "inputs": [],
      "name": "symbol",
      "outputs": [
        {
          "internalType": "string",
          "name": "",
          "type": "string"
        }
      ],
      "stateMutability": "view",
      "type": "function"
    },
    {
      "inputs": [
        {
          "internalType": "uint256",
          "name": "tokenId",
          "type": "uint256"
        }
      ],
      "name": "tokenURI",
      "outputs": [
        {
          "internalType": "string",
          "name": "",
          "type": "string"
        }
      ],
      "stateMutability": "view",
      "type": "function"
    },
    {
      "inputs": [
        {
          "internalType": "address",
          "name": "from",
          "type": "address"
        },
        {
          "internalType": "address",
          "name": "to",
          "type": "address"
        },
        {
          "internalType": "uint256",
          "name": "tokenId",
          "type": "uint256"
        }
      ],
      "name": "transferFrom",
      "outputs": [],
      "stateMutability": "nonpayable",
      "type": "function"
    },
    {
      "inputs": [
        {
          "internalType": "address",
          "name": "to",
          "type": "address"
        }
      ],
      "name": "transferOwnership",
      "outputs": [],
      "stateMutability": "nonpayable",
      "type": "function"
    },
    {
      "inputs": [
        {
          "internalType": "string",
          "name": "vin",
          "type": "string"
        },
        {
          "internalType": "uint256",
          "name": "mileage",
          "type": "uint256"
        },
        {
          "internalType": "string",
          "name": "newRepair",
          "type": "string"
        },
        {
          "internalType": "string",
          "name": "newMaintenance",
          "type": "string"
        },
        {
          "internalType": "string",
          "name": "newURI",
          "type": "string"
        },
        {
          "internalType": "string",
          "name": "last_update",
          "type": "string"
        }
      ],
      "name": "updateAutoPassport",
      "outputs": [],
      "stateMutability": "nonpayable",
      "type": "function"
    },
    {
      "inputs": [
        {
          "internalType": "uint256",
          "name": "",
          "type": "uint256"
        }
      ],
      "name": "vinCreated",
      "outputs": [
        {
          "internalType": "string",
          "name": "",
          "type": "string"
        }
      ],
      "stateMutability": "view",
      "type": "function"
    },
    {
      "inputs": [],
      "name": "vinProcessing",
      "outputs": [
        {
          "internalType": "string",
          "name": "",
          "type": "string"
        }
      ],
      "stateMutability": "view",
      "type": "function"
    }
  ],
  "bytecode": "0x600160045560a0604081905260006080819052620000209160119162000293565b503480156200002e57600080fd5b50604080518082018252600c81526b105d5d1bdc185cdcdc1bdc9d60a21b602080830191909152825180840190935260048352635061737360e01b90830152903380600081620000c55760405162461bcd60e51b815260206004820152601860248201527f43616e6e6f7420736574206f776e657220746f207a65726f000000000000000060448201526064015b60405180910390fd5b600680546001600160a01b0319166001600160a01b0384811691909117909155811615620000f857620000f881620001c4565b50508251620001109150600890602085019062000293565b5080516200012690600990602084019062000293565b5050506200014e73326c977e6efc84e512bb9c30f76e30c160ed06fb6200027160201b60201c565b600380546001600160a01b0319167340193c8518bb267228fc409a613bdbd8ec5a97b31790557f3764383061363338366566353433613361626235323831376636373037653362600f55600a620001af670de0b6b3a7640000600162000339565b620001bb919062000367565b601055620003c7565b6001600160a01b0381163314156200021f5760405162461bcd60e51b815260206004820152601760248201527f43616e6e6f74207472616e7366657220746f2073656c660000000000000000006044820152606401620000bc565b600780546001600160a01b0319166001600160a01b03838116918217909255600654604051919216907fed8889f560326eb138920d842192f0eb3dd22b4f139c87a2c57538e05bae127890600090a350565b600280546001600160a01b0319166001600160a01b0392909216919091179055565b828054620002a1906200038a565b90600052602060002090601f016020900481019282620002c5576000855562000310565b82601f10620002e057805160ff191683800117855562000310565b8280016001018555821562000310579182015b8281111562000310578251825591602001919060010190620002f3565b506200031e92915062000322565b5090565b5b808211156200031e576000815560010162000323565b60008160001904831182151516156200036257634e487b7160e01b600052601160045260246000fd5b500290565b6000826200038557634e487b7160e01b600052601260045260246000fd5b500490565b600181811c908216806200039f57607f821691505b60208210811415620003c157634e487b7160e01b600052602260045260246000fd5b50919050565b6144d180620003d76000396000f3fe608060405234801561001057600080fd5b50600436106101a35760003560e01c806390d7d418116100ee578063b88d4fde11610097578063d15995d311610071578063d15995d314610362578063df56f00d14610375578063e985e9c514610388578063f2fde38b146103c457600080fd5b8063b88d4fde14610329578063bf450d151461033c578063c87b56dd1461034f57600080fd5b8063a22cb465116100c8578063a22cb465146102e1578063a79d6565146102f4578063b6a9a38a1461031657600080fd5b806390d7d418146102be57806395d89b41146102c6578063973cacb6146102ce57600080fd5b806342966c681161015057806370a082311161012a57806370a082311461028457806379ba5097146102a55780638da5cb5b146102ad57600080fd5b806342966c681461024b57806351dfe0451461025e5780636352211e1461027157600080fd5b8063095ea7b311610181578063095ea7b31461021057806323b872dd1461022557806342842e0e1461023857600080fd5b806301ffc9a7146101a857806306fdde03146101d0578063081812fc146101e5575b600080fd5b6101bb6101b6366004613938565b6103d7565b60405190151581526020015b60405180910390f35b6101d86103e8565b6040516101c791906139ad565b6101f86101f33660046139c0565b61047a565b6040516001600160a01b0390911681526020016101c7565b61022361021e3660046139f5565b6104a1565b005b610223610233366004613a1f565b6105f6565b610223610246366004613a1f565b61066e565b6102236102593660046139c0565b610689565b61022361026c366004613b07565b610700565b6101f861027f3660046139c0565b61081c565b610297610292366004613b3c565b610881565b6040519081526020016101c7565b61022361091b565b6006546001600160a01b03166101f8565b6101d86109d0565b6101d8610a5e565b6102236102dc366004613b57565b610a6d565b6102236102ef366004613cdc565b610e77565b610307610302366004613b07565b610e86565b6040516101c793929190613d68565b610223610324366004613ed6565b611616565b610223610337366004613f1d565b6117b2565b61022361034a366004613f99565b61182a565b6101d861035d3660046139c0565b611a93565b6101d86103703660046139c0565b611a9e565b610307610383366004613b07565b611ac9565b6101bb610396366004614073565b6001600160a01b039182166000908152600d6020908152604080832093909416825291909152205460ff1690565b6102236103d2366004613b3c565b61219e565b60006103e2826121af565b92915050565b6060600880546103f7906140a6565b80601f0160208091040260200160405190810160405280929190818152602001828054610423906140a6565b80156104705780601f1061044557610100808354040283529160200191610470565b820191906000526020600020905b81548152906001019060200180831161045357829003601f168201915b5050505050905090565b6000610485826121ed565b506000908152600c60205260409020546001600160a01b031690565b60006104ac8261081c565b9050806001600160a01b0316836001600160a01b0316141561053b5760405162461bcd60e51b815260206004820152602160248201527f4552433732313a20617070726f76616c20746f2063757272656e74206f776e6560448201527f720000000000000000000000000000000000000000000000000000000000000060648201526084015b60405180910390fd5b336001600160a01b038216148061057557506001600160a01b0381166000908152600d6020908152604080832033845290915290205460ff165b6105e75760405162461bcd60e51b815260206004820152603d60248201527f4552433732313a20617070726f76652063616c6c6572206973206e6f7420746f60448201527f6b656e206f776e6572206f7220617070726f76656420666f7220616c6c0000006064820152608401610532565b6105f18383612251565b505050565b610601335b826122bf565b6106635760405162461bcd60e51b815260206004820152602d60248201527f4552433732313a2063616c6c6572206973206e6f7420746f6b656e206f776e6560448201526c1c881bdc88185c1c1c9bdd9959609a1b6064820152608401610532565b6105f183838361233e565b6105f1838383604051806020016040528060008152506117b2565b610692336105fb565b6106f45760405162461bcd60e51b815260206004820152602d60248201527f4552433732313a2063616c6c6572206973206e6f7420746f6b656e206f776e6560448201526c1c881bdc88185c1c1c9bdd9959609a1b6064820152608401610532565b6106fd81612537565b50565b6000610716600f543063b6a9a38a60e01b612540565b825190915061072c9060119060208501906137dd565b5060008260405160200161074091906140db565b60408051601f19818403018152828201909152600382527f67657400000000000000000000000000000000000000000000000000000000006020830152915061078b908390836125d1565b61080a6040518060400160405280600481526020017f70617468000000000000000000000000000000000000000000000000000000008152506040518060400160405280600881526020017f68617346696e6573000000000000000000000000000000000000000000000000815250846125d19092919063ffffffff16565b610816826010546125ef565b50505050565b6000818152600a60205260408120546001600160a01b0316806103e25760405162461bcd60e51b815260206004820152601860248201527f4552433732313a20696e76616c696420746f6b656e20494400000000000000006044820152606401610532565b60006001600160a01b0382166108ff5760405162461bcd60e51b815260206004820152602960248201527f4552433732313a2061646472657373207a65726f206973206e6f74206120766160448201527f6c6964206f776e657200000000000000000000000000000000000000000000006064820152608401610532565b506001600160a01b03166000908152600b602052604090205490565b6007546001600160a01b031633146109755760405162461bcd60e51b815260206004820152601660248201527f4d7573742062652070726f706f736564206f776e6572000000000000000000006044820152606401610532565b600680546001600160a01b0319808216339081179093556007805490911690556040516001600160a01b03909116919082907f8be0079c531659141344cd1fd0a4f28419497f9722a3daafe3b4186f6b6457e090600090a350565b601180546109dd906140a6565b80601f0160208091040260200160405190810160405280929190818152602001828054610a09906140a6565b8015610a565780601f10610a2b57610100808354040283529160200191610a56565b820191906000526020600020905b815481529060010190602001808311610a3957829003601f168201915b505050505081565b6060600980546103f7906140a6565b601687604051610a7d9190614146565b9081526040519081900360200190205460ff1615610add5760405162461bcd60e51b815260206004820181905260248201527f436172207769746820746869732056494e20616c7265616479206578697374736044820152606401610532565b6000610ae860135490565b610af3906001614178565b60008181526017602052604090205490915060ff1615610b7a5760405162461bcd60e51b8152602060048201526024808201527f4361722077697468207468697320746f6b656e496420616c726561647920657860448201527f69737473000000000000000000000000000000000000000000000000000000006064820152608401610532565b6040518061018001604052808b81526020018a815260200189815260200188815260200187815260200186815260200185815260200160008152602001600067ffffffffffffffff811115610bd157610bd1613a5b565b604051908082528060200260200182016040528015610c0457816020015b6060815260200190600190039081610bef5790505b5081526020016000604051908082528060200260200182016040528015610c3f57816020015b6060815260200190600190039081610c2a5790505b5081526020808201869052600060409283018190528481526014825291909120825180519192610c74928492909101906137dd565b506020828101518051610c8d92600185019201906137dd565b5060408201518051610ca99160028401916020909101906137dd565b5060608201518051610cc59160038401916020909101906137dd565b5060808201518051610ce19160048401916020909101906137dd565b5060a08201518051610cfd9160058401916020909101906137dd565b5060c08201518051610d199160068401916020909101906137dd565b5060e082015160078201556101008201518051610d40916008840191602090910190613861565b506101208201518051610d5d916009840191602090910190613861565b506101408201518051610d7a91600a8401916020909101906137dd565b506101609190910151600b909101805460ff19169115159190911790556040518190601590610daa908b90614146565b90815260405190819003602001902055610dc8601380546001019055565b610dd28b82612610565b610ddc818361262a565b6001601689604051610dee9190614146565b90815260405160209181900382019020805460ff191692151592909217909155601280546001810182556000919091528951610e51927fbb8a6a4669ba250d26cd7a459eca9d215f8307e33aebe50379bc5a3617ec3444909201918b01906137dd565b506000908152601760205260409020805460ff1916600117905550505050505050505050565b610e8233838361270b565b5050565b6000610eee60405180610180016040528060608152602001606081526020016060815260200160608152602001606081526020016060815260200160608152602001600081526020016060815260200160608152602001606081526020016000151581525090565b6060601684604051610f009190614146565b9081526040519081900360200190205460ff161515600114610f645760405162461bcd60e51b815260206004820181905260248201527f436172207769746820746869732056494e20646f6573206e6f742065786973746044820152606401610532565b601584604051610f749190614146565b90815260200160405180910390205492506000601460008581526020019081526020016000209050604051806101800160405280826000018054610fb7906140a6565b80601f0160208091040260200160405190810160405280929190818152602001828054610fe3906140a6565b80156110305780601f1061100557610100808354040283529160200191611030565b820191906000526020600020905b81548152906001019060200180831161101357829003601f168201915b50505050508152602001826001018054611049906140a6565b80601f0160208091040260200160405190810160405280929190818152602001828054611075906140a6565b80156110c25780601f10611097576101008083540402835291602001916110c2565b820191906000526020600020905b8154815290600101906020018083116110a557829003601f168201915b505050505081526020018260020180546110db906140a6565b80601f0160208091040260200160405190810160405280929190818152602001828054611107906140a6565b80156111545780601f1061112957610100808354040283529160200191611154565b820191906000526020600020905b81548152906001019060200180831161113757829003601f168201915b5050505050815260200182600301805461116d906140a6565b80601f0160208091040260200160405190810160405280929190818152602001828054611199906140a6565b80156111e65780601f106111bb576101008083540402835291602001916111e6565b820191906000526020600020905b8154815290600101906020018083116111c957829003601f168201915b505050505081526020018260040180546111ff906140a6565b80601f016020809104026020016040519081016040528092919081815260200182805461122b906140a6565b80156112785780601f1061124d57610100808354040283529160200191611278565b820191906000526020600020905b81548152906001019060200180831161125b57829003601f168201915b50505050508152602001826005018054611291906140a6565b80601f01602080910402602001604051908101604052809291908181526020018280546112bd906140a6565b801561130a5780601f106112df5761010080835404028352916020019161130a565b820191906000526020600020905b8154815290600101906020018083116112ed57829003601f168201915b50505050508152602001826006018054611323906140a6565b80601f016020809104026020016040519081016040528092919081815260200182805461134f906140a6565b801561139c5780601f106113715761010080835404028352916020019161139c565b820191906000526020600020905b81548152906001019060200180831161137f57829003601f168201915b505050505081526020018260070154815260200182600801805480602002602001604051908101604052809291908181526020016000905b828210156114805783829060005260206000200180546113f3906140a6565b80601f016020809104026020016040519081016040528092919081815260200182805461141f906140a6565b801561146c5780601f106114415761010080835404028352916020019161146c565b820191906000526020600020905b81548152906001019060200180831161144f57829003601f168201915b5050505050815260200190600101906113d4565b50505050815260200182600901805480602002602001604051908101604052809291908181526020016000905b828210156115595783829060005260206000200180546114cc906140a6565b80601f01602080910402602001604051908101604052809291908181526020018280546114f8906140a6565b80156115455780601f1061151a57610100808354040283529160200191611545565b820191906000526020600020905b81548152906001019060200180831161152857829003601f168201915b5050505050815260200190600101906114ad565b50505050815260200182600a018054611571906140a6565b80601f016020809104026020016040519081016040528092919081815260200182805461159d906140a6565b80156115ea5780601f106115bf576101008083540402835291602001916115ea565b820191906000526020600020905b8154815290600101906020018083116115cd57829003601f168201915b5050509183525050600b83015460ff161515602090910152925061160d846127da565b93959294505050565b60008281526005602052604090205482906001600160a01b031633146116a45760405162461bcd60e51b815260206004820152602860248201527f536f75726365206d75737420626520746865206f7261636c65206f662074686560448201527f20726571756573740000000000000000000000000000000000000000000000006064820152608401610532565b60008181526005602052604080822080546001600160a01b03191690555182917f7cc135e0cebb02c3480ae5d74d377283180a2601f8f644edf7987b009316c63a91a26000601560116040516116fa9190614190565b90815260408051918290036020908101832054600081815260148352839020848401909352600484527f747275650000000000000000000000000000000000000000000000000000000093820193909352855190860120919250907f6273151f959616268004b58dbb21e5c851b7b8d04498b4aabee12291d22fc03414156117ab57600b8101805460ff191660011790556040805160208101918290526000908190526117a9916011916137dd565b505b5050505050565b6117bc33836122bf565b61181e5760405162461bcd60e51b815260206004820152602d60248201527f4552433732313a2063616c6c6572206973206e6f7420746f6b656e206f776e6560448201526c1c881bdc88185c1c1c9bdd9959609a1b6064820152608401610532565b610816848484846128e3565b60168660405161183a9190614146565b9081526040519081900360200190205460ff16151560011461189e5760405162461bcd60e51b815260206004820181905260248201527f436172207769746820746869732056494e20646f6573206e6f742065786973746044820152606401610532565b60006015876040516118b09190614146565b90815260200160405180910390205490506000601460008381526020019081526020016000209050868160070154106119515760405162461bcd60e51b815260206004820152603860248201527f4e6577206d696c656167652076616c7565206d7573742062652067726561746560448201527f72207468616e207468652063757272656e742076616c756500000000000000006064820152608401610532565b600781018790558551158015906119ae57506040805180820190915260098152681d5b9919599a5b995960ba1b6020918201528651908701207f019726c6babc1de231f26fd6cbb2df2c912784a2e1ba55295496269a6d3ff65114155b156119e057600881018054600181018255600091825260209182902088516119de939190920191908901906137dd565b505b60008551118015611a3757506040805180820190915260098152681d5b9919599a5b995960ba1b6020918201528551908601207f019726c6babc1de231f26fd6cbb2df2c912784a2e1ba55295496269a6d3ff65114155b15611a695760098101805460018101825560009182526020918290208751611a67939190920191908801906137dd565b505b611a73828561262a565b8251611a8890600a83019060208601906137dd565b505050505050505050565b60606103e2826127da565b60128181548110611aae57600080fd5b9060005260206000200160009150905080546109dd906140a6565b6000611b3160405180610180016040528060608152602001606081526020016060815260200160608152602001606081526020016060815260200160608152602001600081526020016060815260200160608152602001606081526020016000151581525090565b6060601684604051611b439190614146565b9081526040519081900360200190205460ff161515600114611ba75760405162461bcd60e51b815260206004820181905260248201527f436172207769746820746869732056494e20646f6573206e6f742065786973746044820152606401610532565b601584604051611bb79190614146565b908152604080516020928190038301902054600081815260149093529120909350611be185610700565b604051806101800160405280826000018054611bfc906140a6565b80601f0160208091040260200160405190810160405280929190818152602001828054611c28906140a6565b8015611c755780601f10611c4a57610100808354040283529160200191611c75565b820191906000526020600020905b815481529060010190602001808311611c5857829003601f168201915b50505050508152602001826001018054611c8e906140a6565b80601f0160208091040260200160405190810160405280929190818152602001828054611cba906140a6565b8015611d075780601f10611cdc57610100808354040283529160200191611d07565b820191906000526020600020905b815481529060010190602001808311611cea57829003601f168201915b50505050508152602001826002018054611d20906140a6565b80601f0160208091040260200160405190810160405280929190818152602001828054611d4c906140a6565b8015611d995780601f10611d6e57610100808354040283529160200191611d99565b820191906000526020600020905b815481529060010190602001808311611d7c57829003601f168201915b50505050508152602001826003018054611db2906140a6565b80601f0160208091040260200160405190810160405280929190818152602001828054611dde906140a6565b8015611e2b5780601f10611e0057610100808354040283529160200191611e2b565b820191906000526020600020905b815481529060010190602001808311611e0e57829003601f168201915b50505050508152602001826004018054611e44906140a6565b80601f0160208091040260200160405190810160405280929190818152602001828054611e70906140a6565b8015611ebd5780601f10611e9257610100808354040283529160200191611ebd565b820191906000526020600020905b815481529060010190602001808311611ea057829003601f168201915b50505050508152602001826005018054611ed6906140a6565b80601f0160208091040260200160405190810160405280929190818152602001828054611f02906140a6565b8015611f4f5780601f10611f2457610100808354040283529160200191611f4f565b820191906000526020600020905b815481529060010190602001808311611f3257829003601f168201915b50505050508152602001826006018054611f68906140a6565b80601f0160208091040260200160405190810160405280929190818152602001828054611f94906140a6565b8015611fe15780601f10611fb657610100808354040283529160200191611fe1565b820191906000526020600020905b815481529060010190602001808311611fc457829003601f168201915b505050505081526020018260070154815260200182600801805480602002602001604051908101604052809291908181526020016000905b828210156120c5578382906000526020600020018054612038906140a6565b80601f0160208091040260200160405190810160405280929190818152602001828054612064906140a6565b80156120b15780601f10612086576101008083540402835291602001916120b1565b820191906000526020600020905b81548152906001019060200180831161209457829003601f168201915b505050505081526020019060010190612019565b50505050815260200182600901805480602002602001604051908101604052809291908181526020016000905b82821015611559578382906000526020600020018054612111906140a6565b80601f016020809104026020016040519081016040528092919081815260200182805461213d906140a6565b801561218a5780601f1061215f5761010080835404028352916020019161218a565b820191906000526020600020905b81548152906001019060200180831161216d57829003601f168201915b5050505050815260200190600101906120f2565b6121a6612961565b6106fd816129bd565b60006001600160e01b031982167f490649060000000000000000000000000000000000000000000000000000000014806103e257506103e282612a68565b6000818152600a60205260409020546001600160a01b03166106fd5760405162461bcd60e51b815260206004820152601860248201527f4552433732313a20696e76616c696420746f6b656e20494400000000000000006044820152606401610532565b6000818152600c6020526040902080546001600160a01b0319166001600160a01b03841690811790915581906122868261081c565b6001600160a01b03167f8c5be1e5ebec7d5bd14f71427d1e84f3dd0314c0f7b2291e5b200ac8c7c3b92560405160405180910390a45050565b6000806122cb8361081c565b9050806001600160a01b0316846001600160a01b0316148061231257506001600160a01b038082166000908152600d602090815260408083209388168352929052205460ff165b806123365750836001600160a01b031661232b8461047a565b6001600160a01b0316145b949350505050565b826001600160a01b03166123518261081c565b6001600160a01b0316146123b55760405162461bcd60e51b815260206004820152602560248201527f4552433732313a207472616e736665722066726f6d20696e636f72726563742060448201526437bbb732b960d91b6064820152608401610532565b6001600160a01b0382166124305760405162461bcd60e51b8152602060048201526024808201527f4552433732313a207472616e7366657220746f20746865207a65726f2061646460448201527f72657373000000000000000000000000000000000000000000000000000000006064820152608401610532565b826001600160a01b03166124438261081c565b6001600160a01b0316146124a75760405162461bcd60e51b815260206004820152602560248201527f4552433732313a207472616e736665722066726f6d20696e636f72726563742060448201526437bbb732b960d91b6064820152608401610532565b6000818152600c6020908152604080832080546001600160a01b03199081169091556001600160a01b03878116808652600b8552838620805460001901905590871680865283862080546001019055868652600a90945282852080549092168417909155905184937fddf252ad1be2c89b69c2b068fc378daa952ba7f163c4a11628f55a4df523b3ef91a4505050565b6106fd81612b03565b61257e6040805160a0810182526000808252602080830182905282840182905260608084018390528451808601909552845283015290608082015290565b6125bc6040805160a0810182526000808252602080830182905282840182905260608084018390528451808601909552845283015290608082015290565b6125c881868686612b43565b95945050505050565b60808301516125e09083612bb6565b60808301516105f19082612bb6565b600354600090612609906001600160a01b03168484612bcd565b9392505050565b610e82828260405180602001604052806000815250612c8e565b6000828152600a60205260409020546001600160a01b03166126b45760405162461bcd60e51b815260206004820152602e60248201527f45524337323155524953746f726167653a2055524920736574206f66206e6f6e60448201527f6578697374656e7420746f6b656e0000000000000000000000000000000000006064820152608401610532565b6000828152600e6020908152604090912082516126d3928401906137dd565b506040518281527ff8e1a15aba9398e019f0b49df1a4fde98ee17ae345cb5f6b5e2c27f5033e8ce79060200160405180910390a15050565b816001600160a01b0316836001600160a01b0316141561276d5760405162461bcd60e51b815260206004820152601960248201527f4552433732313a20617070726f766520746f2063616c6c6572000000000000006044820152606401610532565b6001600160a01b038381166000818152600d6020908152604080832094871680845294825291829020805460ff191686151590811790915591519182527f17307eab39ab6107e8899845ad3d59bd9653f200f220920489ca2b5937696c31910160405180910390a3505050565b60606127e5826121ed565b6000828152600e6020526040812080546127fe906140a6565b80601f016020809104026020016040519081016040528092919081815260200182805461282a906140a6565b80156128775780601f1061284c57610100808354040283529160200191612877565b820191906000526020600020905b81548152906001019060200180831161285a57829003601f168201915b50505050509050600061289560408051602081019091526000815290565b90508051600014156128a8575092915050565b8151156128da5780826040516020016128c292919061422c565b60405160208183030381529060405292505050919050565b61233684612d0c565b6128ee84848461233e565b6128fa84848484612d7f565b6108165760405162461bcd60e51b815260206004820152603260248201527f4552433732313a207472616e7366657220746f206e6f6e20455243373231526560448201527131b2b4bb32b91034b6b83632b6b2b73a32b960711b6064820152608401610532565b6006546001600160a01b031633146129bb5760405162461bcd60e51b815260206004820152601660248201527f4f6e6c792063616c6c61626c65206279206f776e6572000000000000000000006044820152606401610532565b565b6001600160a01b038116331415612a165760405162461bcd60e51b815260206004820152601760248201527f43616e6e6f74207472616e7366657220746f2073656c660000000000000000006044820152606401610532565b600780546001600160a01b0319166001600160a01b03838116918217909255600654604051919216907fed8889f560326eb138920d842192f0eb3dd22b4f139c87a2c57538e05bae127890600090a350565b60006001600160e01b031982167f80ac58cd000000000000000000000000000000000000000000000000000000001480612acb57506001600160e01b031982167f5b5e139f00000000000000000000000000000000000000000000000000000000145b806103e257507f01ffc9a7000000000000000000000000000000000000000000000000000000006001600160e01b03198316146103e2565b612b0c81612ec5565b6000818152600e602052604090208054612b25906140a6565b1590506106fd576000818152600e602052604081206106fd916138ba565b612b816040805160a0810182526000808252602080830182905282840182905260608084018390528451808601909552845283015290608082015290565b612b918560800151610100612f5a565b50509183526001600160a01b031660208301526001600160e01b031916604082015290565b612bc38260038351612fbf565b6105f182826130ce565b600454600090612bde816001614178565b600455835160408086015160808701515191516000937f404299460000000000000000000000000000000000000000000000000000000093612c2f9386938493923092918a9160019160240161425b565b60408051601f198184030181529190526020810180517bffffffffffffffffffffffffffffffffffffffffffffffffffffffff166001600160e01b0319909316929092179091529050612c84868386846130f5565b9695505050505050565b612c988383613286565b612ca56000848484612d7f565b6105f15760405162461bcd60e51b815260206004820152603260248201527f4552433732313a207472616e7366657220746f206e6f6e20455243373231526560448201527131b2b4bb32b91034b6b83632b6b2b73a32b960711b6064820152608401610532565b6060612d17826121ed565b6000612d2e60408051602081019091526000815290565b90506000815111612d4e5760405180602001604052806000815250612609565b80612d5884613411565b604051602001612d6992919061422c565b6040516020818303038152906040529392505050565b60006001600160a01b0384163b15612ebd57604051630a85bd0160e11b81526001600160a01b0385169063150b7a0290612dc39033908990889088906004016142bf565b6020604051808303816000875af1925050508015612dfe575060408051601f3d908101601f19168201909252612dfb918101906142f1565b60015b612ea3573d808015612e2c576040519150601f19603f3d011682016040523d82523d6000602084013e612e31565b606091505b508051612e9b5760405162461bcd60e51b815260206004820152603260248201527f4552433732313a207472616e7366657220746f206e6f6e20455243373231526560448201527131b2b4bb32b91034b6b83632b6b2b73a32b960711b6064820152608401610532565b805181602001fd5b6001600160e01b031916630a85bd0160e11b149050612336565b506001612336565b6000612ed08261081c565b9050612edb8261081c565b6000838152600c6020908152604080832080546001600160a01b03199081169091556001600160a01b038516808552600b84528285208054600019019055878552600a909352818420805490911690555192935084927fddf252ad1be2c89b69c2b068fc378daa952ba7f163c4a11628f55a4df523b3ef908390a45050565b604080518082019091526060815260006020820152612f7a60208361430e565b15612fa257612f8a60208361430e565b612f95906020614330565b612f9f9083614178565b91505b506020828101829052604080518085526000815290920101905290565b60178167ffffffffffffffff1611612fe4576108168360e0600585901b1683176134bb565b60ff8167ffffffffffffffff16116130225761300b836018611fe0600586901b16176134bb565b506108168367ffffffffffffffff831660016134e0565b61ffff8167ffffffffffffffff16116130615761304a836019611fe0600586901b16176134bb565b506108168367ffffffffffffffff831660026134e0565b63ffffffff8167ffffffffffffffff16116130a25761308b83601a611fe0600586901b16176134bb565b506108168367ffffffffffffffff831660046134e0565b6130b783601b611fe0600586901b16176134bb565b506108168367ffffffffffffffff831660086134e0565b60408051808201909152606081526000602082015261260983846000015151848551613506565b6040516bffffffffffffffffffffffff193060601b1660208201526034810184905260009060540160408051808303601f1901815282825280516020918201206000818152600590925291812080546001600160a01b0319166001600160a01b038a1617905590925082917fb5e6e01e79f91267dc17b4e6314d5d4d03593d2ceee0fbb452b750bd70ea5af99190a26002546040517f4000aea00000000000000000000000000000000000000000000000000000000081526001600160a01b0390911690634000aea0906131d190889087908790600401614347565b6020604051808303816000875af11580156131f0573d6000803e3d6000fd5b505050506040513d601f19601f82011682018060405250810190613214919061436f565b6123365760405162461bcd60e51b815260206004820152602360248201527f756e61626c6520746f207472616e73666572416e6443616c6c20746f206f726160448201527f636c6500000000000000000000000000000000000000000000000000000000006064820152608401610532565b6001600160a01b0382166132dc5760405162461bcd60e51b815260206004820181905260248201527f4552433732313a206d696e7420746f20746865207a65726f20616464726573736044820152606401610532565b6000818152600a60205260409020546001600160a01b0316156133415760405162461bcd60e51b815260206004820152601c60248201527f4552433732313a20746f6b656e20616c7265616479206d696e746564000000006044820152606401610532565b6000818152600a60205260409020546001600160a01b0316156133a65760405162461bcd60e51b815260206004820152601c60248201527f4552433732313a20746f6b656e20616c7265616479206d696e746564000000006044820152606401610532565b6001600160a01b0382166000818152600b6020908152604080832080546001019055848352600a90915280822080546001600160a01b0319168417905551839291907fddf252ad1be2c89b69c2b068fc378daa952ba7f163c4a11628f55a4df523b3ef908290a45050565b6060600061341e836135f0565b600101905060008167ffffffffffffffff81111561343e5761343e613a5b565b6040519080825280601f01601f191660200182016040528015613468576020820181803683370190505b5090508181016020015b600019017f3031323334353637383961626364656600000000000000000000000000000000600a86061a8153600a85049450846134ae576134b3565b613472565b509392505050565b60408051808201909152606081526000602082015261260983846000015151846136d2565b60408051808201909152606081526000602082015261233684856000015151858561372e565b604080518082019091526060815260006020820152825182111561352957600080fd5b60208501516135388386614178565b111561356b5761356b8561355b876020015187866135569190614178565b6137af565b61356690600261438c565b6137c6565b60008086518051876020830101935080888701111561358a5787860182525b505050602084015b602084106135ca57805182526135a9602083614178565b91506135b6602082614178565b90506135c3602085614330565b9350613592565b51815160001960208690036101000a019081169019919091161790525083949350505050565b6000807a184f03e93ff9f4daa797ed6e38ed64bf6a1f0100000000000000008310613639577a184f03e93ff9f4daa797ed6e38ed64bf6a1f010000000000000000830492506040015b6d04ee2d6d415b85acef81000000008310613665576d04ee2d6d415b85acef8100000000830492506020015b662386f26fc10000831061368357662386f26fc10000830492506010015b6305f5e100831061369b576305f5e100830492506008015b61271083106136af57612710830492506004015b606483106136c1576064830492506002015b600a83106103e25760010192915050565b60408051808201909152606081526000602082015283602001518310613707576137078485602001516002613566919061438c565b835180516020858301018481535080851415613724576001810182525b5093949350505050565b60408051808201909152606081526000602082015260208501516137528584614178565b1115613766576137668561355b8685614178565b600060016137768461010061448f565b6137809190614330565b90508551838682010185831982511617815250805184870111156137a45783860181525b509495945050505050565b6000818311156137c05750816103e2565b50919050565b81516137d28383612f5a565b5061081683826130ce565b8280546137e9906140a6565b90600052602060002090601f01602090048101928261380b5760008555613851565b82601f1061382457805160ff1916838001178555613851565b82800160010185558215613851579182015b82811115613851578251825591602001919060010190613836565b5061385d9291506138f0565b5090565b8280548282559060005260206000209081019282156138ae579160200282015b828111156138ae578251805161389e9184916020909101906137dd565b5091602001919060010190613881565b5061385d929150613905565b5080546138c6906140a6565b6000825580601f106138d6575050565b601f0160209004906000526020600020908101906106fd91905b5b8082111561385d57600081556001016138f1565b8082111561385d57600061391982826138ba565b50600101613905565b6001600160e01b0319811681146106fd57600080fd5b60006020828403121561394a57600080fd5b813561260981613922565b60005b83811015613970578181015183820152602001613958565b838111156108165750506000910152565b60008151808452613999816020860160208601613955565b601f01601f19169290920160200192915050565b6020815260006126096020830184613981565b6000602082840312156139d257600080fd5b5035919050565b80356001600160a01b03811681146139f057600080fd5b919050565b60008060408385031215613a0857600080fd5b613a11836139d9565b946020939093013593505050565b600080600060608486031215613a3457600080fd5b613a3d846139d9565b9250613a4b602085016139d9565b9150604084013590509250925092565b634e487b7160e01b600052604160045260246000fd5b600067ffffffffffffffff80841115613a8c57613a8c613a5b565b604051601f8501601f19908116603f01168101908282118183101715613ab457613ab4613a5b565b81604052809350858152868686011115613acd57600080fd5b858560208301376000602087830101525050509392505050565b600082601f830112613af857600080fd5b61260983833560208501613a71565b600060208284031215613b1957600080fd5b813567ffffffffffffffff811115613b3057600080fd5b61233684828501613ae7565b600060208284031215613b4e57600080fd5b612609826139d9565b6000806000806000806000806000806101408b8d031215613b7757600080fd5b613b808b6139d9565b995060208b013567ffffffffffffffff80821115613b9d57600080fd5b613ba98e838f01613ae7565b9a5060408d0135915080821115613bbf57600080fd5b613bcb8e838f01613ae7565b995060608d0135915080821115613be157600080fd5b613bed8e838f01613ae7565b985060808d0135915080821115613c0357600080fd5b613c0f8e838f01613ae7565b975060a08d0135915080821115613c2557600080fd5b613c318e838f01613ae7565b965060c08d0135915080821115613c4757600080fd5b613c538e838f01613ae7565b955060e08d0135915080821115613c6957600080fd5b613c758e838f01613ae7565b94506101008d0135915080821115613c8c57600080fd5b613c988e838f01613ae7565b93506101208d0135915080821115613caf57600080fd5b50613cbc8d828e01613ae7565b9150509295989b9194979a5092959850565b80151581146106fd57600080fd5b60008060408385031215613cef57600080fd5b613cf8836139d9565b91506020830135613d0881613cce565b809150509250929050565b600081518084526020808501808196508360051b8101915082860160005b85811015613d5b578284038952613d49848351613981565b98850198935090840190600101613d31565b5091979650505050505050565b8381526060602082015260008351610180806060850152613d8d6101e0850183613981565b91506020860151605f1980868503016080870152613dab8483613981565b935060408801519150808685030160a0870152613dc88483613981565b935060608801519150808685030160c0870152613de58483613981565b935060808801519150808685030160e0870152613e028483613981565b935060a08801519150610100818786030181880152613e218584613981565b945060c08901519250610120828887030181890152613e408685613981565b955060e08a0151935061014084818a0152828b0151945061016092508389880301838a0152613e6f8786613d13565b9650818b015194508389880301868a0152613e8a8786613d13565b9650808b01519550505081878603016101a0880152613ea98585613981565b9450808901519350505050613ec36101c085018215159052565b508281036040840152612c848185613981565b60008060408385031215613ee957600080fd5b82359150602083013567ffffffffffffffff811115613f0757600080fd5b613f1385828601613ae7565b9150509250929050565b60008060008060808587031215613f3357600080fd5b613f3c856139d9565b9350613f4a602086016139d9565b925060408501359150606085013567ffffffffffffffff811115613f6d57600080fd5b8501601f81018713613f7e57600080fd5b613f8d87823560208401613a71565b91505092959194509250565b60008060008060008060c08789031215613fb257600080fd5b863567ffffffffffffffff80821115613fca57600080fd5b613fd68a838b01613ae7565b9750602089013596506040890135915080821115613ff357600080fd5b613fff8a838b01613ae7565b9550606089013591508082111561401557600080fd5b6140218a838b01613ae7565b9450608089013591508082111561403757600080fd5b6140438a838b01613ae7565b935060a089013591508082111561405957600080fd5b5061406689828a01613ae7565b9150509295509295509295565b6000806040838503121561408657600080fd5b61408f836139d9565b915061409d602084016139d9565b90509250929050565b600181811c908216806140ba57607f821691505b602082108114156137c057634e487b7160e01b600052602260045260246000fd5b7f68747470733a2f2f66696e65732d6170692e6f6e72656e6465722e636f6d2f6381527f6172732f66696e65732f0000000000000000000000000000000000000000000060208201526000825161413981602a850160208701613955565b91909101602a0192915050565b60008251614158818460208701613955565b9190910192915050565b634e487b7160e01b600052601160045260246000fd5b6000821982111561418b5761418b614162565b500190565b600080835481600182811c9150808316806141ac57607f831692505b60208084108214156141cc57634e487b7160e01b86526022600452602486fd5b8180156141e057600181146141f15761421e565b60ff1986168952848901965061421e565b60008a81526020902060005b868110156142165781548b8201529085019083016141fd565b505084890196505b509498975050505050505050565b6000835161423e818460208801613955565b835190830190614252818360208801613955565b01949350505050565b60006101006001600160a01b03808c1684528a60208501528960408501528089166060850152506001600160e01b0319871660808401528560a08401528460c08401528060e08401526142b081840185613981565b9b9a5050505050505050505050565b60006001600160a01b03808716835280861660208401525083604083015260806060830152612c846080830184613981565b60006020828403121561430357600080fd5b815161260981613922565b60008261432b57634e487b7160e01b600052601260045260246000fd5b500690565b60008282101561434257614342614162565b500390565b6001600160a01b03841681528260208201526060604082015260006125c86060830184613981565b60006020828403121561438157600080fd5b815161260981613cce565b60008160001904831182151516156143a6576143a6614162565b500290565b600181815b808511156143e65781600019048211156143cc576143cc614162565b808516156143d957918102915b93841c93908002906143b0565b509250929050565b6000826143fd575060016103e2565b8161440a575060006103e2565b8160018114614420576002811461442a57614446565b60019150506103e2565b60ff84111561443b5761443b614162565b50506001821b6103e2565b5060208310610133831016604e8410600b8410161715614469575081810a6103e2565b61447383836143ab565b806000190482111561448757614487614162565b029392505050565b600061260983836143ee56fea2646970667358221220e93a29270d1c1ef6a5778fd0a7677da032dee6fa8dff2e2e4e76eb7daa7e8c1764736f6c634300080b0033",
  "linkReferences": {},
  "deployedLinkReferences": {}
}