{
  "_format": "hh-sol-artifact-1",
  "contractName": "AutoPassport",
  "sourceName": "contracts/AutoPassport.sol",
  "abi": [
    {
      "inputs": [
        {
          "internalType": "address",
          "name": "_passportAccessAddress",
          "type": "address"
        }
      ],
      "stateMutability": "nonpayable",
      "type": "constructor"
    },
    {
      "anonymous": false,
      "inputs": [
        {
          "indexed": true,
          "internalType": "address",
          "name": "owner",
          "type": "address"
        },
        {
          "indexed": true,
          "internalType": "address",
          "name": "approved",
          "type": "address"
        },
        {
          "indexed": true,
          "internalType": "uint256",
          "name": "tokenId",
          "type": "uint256"
        }
      ],
      "name": "Approval",
      "type": "event"
    },
    {
      "anonymous": false,
      "inputs": [
        {
          "indexed": true,
          "internalType": "address",
          "name": "owner",
          "type": "address"
        },
        {
          "indexed": true,
          "internalType": "address",
          "name": "operator",
          "type": "address"
        },
        {
          "indexed": false,
          "internalType": "bool",
          "name": "approved",
          "type": "bool"
        }
      ],
      "name": "ApprovalForAll",
      "type": "event"
    },
    {
      "anonymous": false,
      "inputs": [
        {
          "indexed": false,
          "internalType": "uint256",
          "name": "_fromTokenId",
          "type": "uint256"
        },
        {
          "indexed": false,
          "internalType": "uint256",
          "name": "_toTokenId",
          "type": "uint256"
        }
      ],
      "name": "BatchMetadataUpdate",
      "type": "event"
    },
    {
      "anonymous": false,
      "inputs": [
        {
          "indexed": true,
          "internalType": "bytes32",
          "name": "id",
          "type": "bytes32"
        }
      ],
      "name": "ChainlinkCancelled",
      "type": "event"
    },
    {
      "anonymous": false,
      "inputs": [
        {
          "indexed": true,
          "internalType": "bytes32",
          "name": "id",
          "type": "bytes32"
        }
      ],
      "name": "ChainlinkFulfilled",
      "type": "event"
    },
    {
      "anonymous": false,
      "inputs": [
        {
          "indexed": true,
          "internalType": "bytes32",
          "name": "id",
          "type": "bytes32"
        }
      ],
      "name": "ChainlinkRequested",
      "type": "event"
    },
    {
      "anonymous": false,
      "inputs": [
        {
          "indexed": false,
          "internalType": "uint256",
          "name": "_tokenId",
          "type": "uint256"
        }
      ],
      "name": "MetadataUpdate",
      "type": "event"
    },
    {
      "anonymous": false,
      "inputs": [
        {
          "indexed": true,
          "internalType": "address",
          "name": "from",
          "type": "address"
        },
        {
          "indexed": true,
          "internalType": "address",
          "name": "to",
          "type": "address"
        }
      ],
      "name": "OwnershipTransferRequested",
      "type": "event"
    },
    {
      "anonymous": false,
      "inputs": [
        {
          "indexed": true,
          "internalType": "address",
          "name": "from",
          "type": "address"
        },
        {
          "indexed": true,
          "internalType": "address",
          "name": "to",
          "type": "address"
        }
      ],
      "name": "OwnershipTransferred",
      "type": "event"
    },
    {
      "anonymous": false,
      "inputs": [
        {
          "indexed": true,
          "internalType": "address",
          "name": "from",
          "type": "address"
        },
        {
          "indexed": true,
          "internalType": "address",
          "name": "to",
          "type": "address"
        },
        {
          "indexed": true,
          "internalType": "uint256",
          "name": "tokenId",
          "type": "uint256"
        }
      ],
      "name": "Transfer",
      "type": "event"
    },
    {
      "inputs": [],
      "name": "acceptOwnership",
      "outputs": [],
      "stateMutability": "nonpayable",
      "type": "function"
    },
    {
      "inputs": [
        {
          "internalType": "address",
          "name": "to",
          "type": "address"
        },
        {
          "internalType": "uint256",
          "name": "tokenId",
          "type": "uint256"
        }
      ],
      "name": "approve",
      "outputs": [],
      "stateMutability": "nonpayable",
      "type": "function"
    },
    {
      "inputs": [
        {
          "internalType": "address",
          "name": "owner",
          "type": "address"
        }
      ],
      "name": "balanceOf",
      "outputs": [
        {
          "internalType": "uint256",
          "name": "",
          "type": "uint256"
        }
      ],
      "stateMutability": "view",
      "type": "function"
    },
    {
      "inputs": [
        {
          "internalType": "uint256",
          "name": "tokenId",
          "type": "uint256"
        }
      ],
      "name": "burn",
      "outputs": [],
      "stateMutability": "nonpayable",
      "type": "function"
    },
    {
      "inputs": [
        {
          "internalType": "string",
          "name": "vin",
          "type": "string"
        }
      ],
      "name": "checkFines",
      "outputs": [],
      "stateMutability": "nonpayable",
      "type": "function"
    },
    {
      "inputs": [
        {
          "internalType": "string",
          "name": "vin",
          "type": "string"
        }
      ],
      "name": "checkFinesAndReturnCar",
      "outputs": [
        {
          "components": [
            {
              "internalType": "string",
              "name": "brand",
              "type": "string"
            },
            {
              "internalType": "string",
              "name": "model",
              "type": "string"
            },
            {
              "internalType": "string",
              "name": "vin",
              "type": "string"
            },
            {
              "internalType": "string",
              "name": "color_code",
              "type": "string"
            },
            {
              "internalType": "string",
              "name": "date_of_manufacture",
              "type": "string"
            },
            {
              "internalType": "string",
              "name": "warranty_expiration_date",
              "type": "string"
            },
            {
              "internalType": "string",
              "name": "fuel_type",
              "type": "string"
            },
            {
              "internalType": "uint256",
              "name": "mileage",
              "type": "uint256"
            },
            {
              "internalType": "string[]",
              "name": "repair_history",
              "type": "string[]"
            },
            {
              "internalType": "string[]",
              "name": "maintenance_history",
              "type": "string[]"
            },
            {
              "internalType": "string",
              "name": "last_update",
              "type": "string"
            },
            {
              "internalType": "bool",
              "name": "hasFines",
              "type": "bool"
            }
          ],
          "internalType": "struct AutoPassport.Car",
          "name": "objCar",
          "type": "tuple"
        }
      ],
      "stateMutability": "nonpayable",
      "type": "function"
    },
    {
      "inputs": [
        {
          "internalType": "address",
          "name": "to",
          "type": "address"
        },
        {
          "internalType": "string",
          "name": "brand",
          "type": "string"
        },
        {
          "internalType": "string",
          "name": "model",
          "type": "string"
        },
        {
          "internalType": "string",
          "name": "vin",
          "type": "string"
        },
        {
          "internalType": "string",
          "name": "color_code",
          "type": "string"
        },
        {
          "internalType": "string",
          "name": "date_of_manufacture",
          "type": "string"
        },
        {
          "internalType": "string",
          "name": "warranty_expiration_date",
          "type": "string"
        },
        {
          "internalType": "string",
          "name": "fuel_type",
          "type": "string"
        },
        {
          "internalType": "string",
          "name": "last_update",
          "type": "string"
        },
        {
          "internalType": "string",
          "name": "uriIpfsUrl",
          "type": "string"
        }
      ],
      "name": "createAutoPassport",
      "outputs": [],
      "stateMutability": "nonpayable",
      "type": "function"
    },
    {
      "inputs": [
        {
          "internalType": "bytes32",
          "name": "requestId",
          "type": "bytes32"
        },
        {
          "internalType": "string",
          "name": "hasFinesResponse",
          "type": "string"
        }
      ],
      "name": "fulfillMultipleParameters",
      "outputs": [],
      "stateMutability": "nonpayable",
      "type": "function"
    },
    {
      "inputs": [
        {
          "internalType": "bytes32",
          "name": "_requestId",
          "type": "bytes32"
        },
        {
          "internalType": "string",
          "name": "_inflation",
          "type": "string"
        }
      ],
      "name": "fulfillTruflationInflation",
      "outputs": [],
      "stateMutability": "nonpayable",
      "type": "function"
    },
    {
      "inputs": [
        {
          "internalType": "uint256",
          "name": "tokenId",
          "type": "uint256"
        }
      ],
      "name": "getApproved",
      "outputs": [
        {
          "internalType": "address",
          "name": "",
          "type": "address"
        }
      ],
      "stateMutability": "view",
      "type": "function"
    },
    {
      "inputs": [
        {
          "internalType": "string",
          "name": "vin",
          "type": "string"
        }
      ],
      "name": "getObjCarByVIN",
      "outputs": [
        {
          "internalType": "uint256",
          "name": "tokenId",
          "type": "uint256"
        },
        {
          "components": [
            {
              "internalType": "string",
              "name": "brand",
              "type": "string"
            },
            {
              "internalType": "string",
              "name": "model",
              "type": "string"
            },
            {
              "internalType": "string",
              "name": "vin",
              "type": "string"
            },
            {
              "internalType": "string",
              "name": "color_code",
              "type": "string"
            },
            {
              "internalType": "string",
              "name": "date_of_manufacture",
              "type": "string"
            },
            {
              "internalType": "string",
              "name": "warranty_expiration_date",
              "type": "string"
            },
            {
              "internalType": "string",
              "name": "fuel_type",
              "type": "string"
            },
            {
              "internalType": "uint256",
              "name": "mileage",
              "type": "uint256"
            },
            {
              "internalType": "string[]",
              "name": "repair_history",
              "type": "string[]"
            },
            {
              "internalType": "string[]",
              "name": "maintenance_history",
              "type": "string[]"
            },
            {
              "internalType": "string",
              "name": "last_update",
              "type": "string"
            },
            {
              "internalType": "bool",
              "name": "hasFines",
              "type": "bool"
            }
          ],
          "internalType": "struct AutoPassport.Car",
          "name": "objCar",
          "type": "tuple"
        },
        {
          "internalType": "string",
          "name": "uri",
          "type": "string"
        }
      ],
      "stateMutability": "view",
      "type": "function"
    },
    {
      "inputs": [
        {
          "internalType": "address",
          "name": "owner",
          "type": "address"
        },
        {
          "internalType": "address",
          "name": "operator",
          "type": "address"
        }
      ],
      "name": "isApprovedForAll",
      "outputs": [
        {
          "internalType": "bool",
          "name": "",
          "type": "bool"
        }
      ],
      "stateMutability": "view",
      "type": "function"
    },
    {
      "inputs": [],
      "name": "name",
      "outputs": [
        {
          "internalType": "string",
          "name": "",
          "type": "string"
        }
      ],
      "stateMutability": "view",
      "type": "function"
    },
    {
      "inputs": [],
      "name": "owner",
      "outputs": [
        {
          "internalType": "address",
          "name": "",
          "type": "address"
        }
      ],
      "stateMutability": "view",
      "type": "function"
    },
    {
      "inputs": [
        {
          "internalType": "uint256",
          "name": "tokenId",
          "type": "uint256"
        }
      ],
      "name": "ownerOf",
      "outputs": [
        {
          "internalType": "address",
          "name": "",
          "type": "address"
        }
      ],
      "stateMutability": "view",
      "type": "function"
    },
    {
      "inputs": [
        {
          "internalType": "string",
          "name": "vin",
          "type": "string"
        }
      ],
      "name": "requestFinesApi",
      "outputs": [],
      "stateMutability": "nonpayable",
      "type": "function"
    },
    {
      "inputs": [],
      "name": "requestTruflationInflation",
      "outputs": [
        {
          "internalType": "bytes32",
          "name": "requestId",
          "type": "bytes32"
        }
      ],
      "stateMutability": "nonpayable",
      "type": "function"
    },
    {
      "inputs": [
        {
          "internalType": "address",
          "name": "from",
          "type": "address"
        },
        {
          "internalType": "address",
          "name": "to",
          "type": "address"
        },
        {
          "internalType": "uint256",
          "name": "tokenId",
          "type": "uint256"
        }
      ],
      "name": "safeTransferFrom",
      "outputs": [],
      "stateMutability": "nonpayable",
      "type": "function"
    },
    {
      "inputs": [
        {
          "internalType": "address",
          "name": "from",
          "type": "address"
        },
        {
          "internalType": "address",
          "name": "to",
          "type": "address"
        },
        {
          "internalType": "uint256",
          "name": "tokenId",
          "type": "uint256"
        },
        {
          "internalType": "bytes",
          "name": "data",
          "type": "bytes"
        }
      ],
      "name": "safeTransferFrom",
      "outputs": [],
      "stateMutability": "nonpayable",
      "type": "function"
    },
    {
      "inputs": [
        {
          "internalType": "address",
          "name": "operator",
          "type": "address"
        },
        {
          "internalType": "bool",
          "name": "approved",
          "type": "bool"
        }
      ],
      "name": "setApprovalForAll",
      "outputs": [],
      "stateMutability": "nonpayable",
      "type": "function"
    },
    {
      "inputs": [
        {
          "internalType": "bytes4",
          "name": "interfaceId",
          "type": "bytes4"
        }
      ],
      "name": "supportsInterface",
      "outputs": [
        {
          "internalType": "bool",
          "name": "",
          "type": "bool"
        }
      ],
      "stateMutability": "view",
      "type": "function"
    },
    {
      "inputs": [],
      "name": "symbol",
      "outputs": [
        {
          "internalType": "string",
          "name": "",
          "type": "string"
        }
      ],
      "stateMutability": "view",
      "type": "function"
    },
    {
      "inputs": [
        {
          "internalType": "uint256",
          "name": "tokenId",
          "type": "uint256"
        }
      ],
      "name": "tokenURI",
      "outputs": [
        {
          "internalType": "string",
          "name": "",
          "type": "string"
        }
      ],
      "stateMutability": "view",
      "type": "function"
    },
    {
      "inputs": [
        {
          "internalType": "address",
          "name": "from",
          "type": "address"
        },
        {
          "internalType": "address",
          "name": "to",
          "type": "address"
        },
        {
          "internalType": "uint256",
          "name": "tokenId",
          "type": "uint256"
        }
      ],
      "name": "transferFrom",
      "outputs": [],
      "stateMutability": "nonpayable",
      "type": "function"
    },
    {
      "inputs": [
        {
          "internalType": "address",
          "name": "to",
          "type": "address"
        }
      ],
      "name": "transferOwnership",
      "outputs": [],
      "stateMutability": "nonpayable",
      "type": "function"
    },
    {
      "inputs": [],
      "name": "truflationInflation",
      "outputs": [
        {
          "internalType": "string",
          "name": "",
          "type": "string"
        }
      ],
      "stateMutability": "view",
      "type": "function"
    },
    {
      "inputs": [],
      "name": "truflationJobGasId",
      "outputs": [
        {
          "internalType": "string",
          "name": "",
          "type": "string"
        }
      ],
      "stateMutability": "view",
      "type": "function"
    },
    {
      "inputs": [],
      "name": "truflationOracleId",
      "outputs": [
        {
          "internalType": "address",
          "name": "",
          "type": "address"
        }
      ],
      "stateMutability": "view",
      "type": "function"
    },
    {
      "inputs": [
        {
          "internalType": "string",
          "name": "vin",
          "type": "string"
        },
        {
          "internalType": "uint256",
          "name": "mileage",
          "type": "uint256"
        },
        {
          "internalType": "string",
          "name": "newRepair",
          "type": "string"
        },
        {
          "internalType": "string",
          "name": "newMaintenance",
          "type": "string"
        },
        {
          "internalType": "string",
          "name": "newURI",
          "type": "string"
        },
        {
          "internalType": "string",
          "name": "last_update",
          "type": "string"
        }
      ],
      "name": "updateAutoPassport",
      "outputs": [],
      "stateMutability": "nonpayable",
      "type": "function"
    },
    {
      "inputs": [
        {
          "internalType": "uint256",
          "name": "",
          "type": "uint256"
        }
      ],
      "name": "vinCreated",
      "outputs": [
        {
          "internalType": "string",
          "name": "",
          "type": "string"
        }
      ],
      "stateMutability": "view",
      "type": "function"
    },
    {
      "inputs": [],
      "name": "vinProcessing",
      "outputs": [
        {
          "internalType": "string",
          "name": "",
          "type": "string"
        }
      ],
      "stateMutability": "view",
      "type": "function"
    },
    {
      "inputs": [],
      "name": "withdrawLink",
      "outputs": [],
      "stateMutability": "nonpayable",
      "type": "function"
    }
  ],
  "bytecode": "0x600160045560a0604052600060809081526016906200001f9082620003b9565b503480156200002d57600080fd5b50604051620056ab380380620056ab833981016040819052620000509162000485565b604080518082018252600c81526b105d5d1bdc185cdcdc1bdc9d60a21b602080830191909152825180840190935260048352635061737360e01b90830152903380600081620000e65760405162461bcd60e51b815260206004820152601860248201527f43616e6e6f7420736574206f776e657220746f207a65726f000000000000000060448201526064015b60405180910390fd5b600680546001600160a01b0319166001600160a01b03848116919091179091558116156200011957620001198162000268565b50600891506200012c90508382620003b9565b5060096200013b8282620003b9565b5050600f80546001600160a01b0384166001600160a01b0319918216179091556002805490911673326c977e6efc84e512bb9c30f76e30c160ed06fb17905550600380546001600160a01b0319167340193c8518bb267228fc409a613bdbd8ec5a97b31790557f3764383061363338366566353433613361626235323831376636373037653362601055600a620001dc670de0b6b3a76400006001620004b7565b620001e89190620004e3565b601155670de0b6b3a76400006015556040805180820190915260208082527f6432323065356536383738383434363239303961303330323133383562376165908201526014906200023a9082620003b9565b5050601380546001600160a01b031916736d141cf6c43f7eabf94e288f5aa3f2335727849917905562000506565b336001600160a01b03821603620002c25760405162461bcd60e51b815260206004820152601760248201527f43616e6e6f74207472616e7366657220746f2073656c660000000000000000006044820152606401620000dd565b600780546001600160a01b0319166001600160a01b03838116918217909255600654604051919216907fed8889f560326eb138920d842192f0eb3dd22b4f139c87a2c57538e05bae127890600090a350565b634e487b7160e01b600052604160045260246000fd5b600181811c908216806200033f57607f821691505b6020821081036200036057634e487b7160e01b600052602260045260246000fd5b50919050565b601f821115620003b457600081815260208120601f850160051c810160208610156200038f5750805b601f850160051c820191505b81811015620003b0578281556001016200039b565b5050505b505050565b81516001600160401b03811115620003d557620003d562000314565b620003ed81620003e684546200032a565b8462000366565b602080601f8311600181146200042557600084156200040c5750858301515b600019600386901b1c1916600185901b178555620003b0565b600085815260208120601f198616915b82811015620004565788860151825594840194600190910190840162000435565b5085821015620004755787850151600019600388901b60f8161c191681555b5050505050600190811b01905550565b6000602082840312156200049857600080fd5b81516001600160a01b0381168114620004b057600080fd5b9392505050565b8082028115828204841417620004dd57634e487b7160e01b600052601160045260246000fd5b92915050565b6000826200050157634e487b7160e01b600052601260045260246000fd5b500490565b61519580620005166000396000f3fe608060405234801561001057600080fd5b50600436106101f05760003560e01c806395d89b411161010f578063c47795db116100a2578063e772124511610071578063e772124514610413578063e985e9c514610433578063f07981a91461046f578063f2fde38b1461047757600080fd5b8063c47795db146103c7578063c7b1df83146103da578063c87b56dd146103ed578063d15995d31461040057600080fd5b8063b6a9a38a116100de578063b6a9a38a14610386578063b88d4fde14610399578063bf450d15146103ac578063c3145b16146103bf57600080fd5b806395d89b4114610336578063973cacb61461033e578063a22cb46514610351578063a79d65651461036457600080fd5b806351dfe0451161018757806379ba50971161015657806379ba50971461030d5780638da5cb5b146103155780638dc654a21461032657806390d7d4181461032e57600080fd5b806351dfe045146102c15780635216ae88146102d45780636352211e146102e757806370a08231146102fa57600080fd5b806323b872dd116101c357806323b872dd14610272578063242717cc1461028557806342842e0e1461029b57806342966c68146102ae57600080fd5b806301ffc9a7146101f557806306fdde031461021d578063081812fc14610232578063095ea7b31461025d575b600080fd5b610208610203366004614466565b61048a565b60405190151581526020015b60405180910390f35b61022561049b565b60405161021491906144d3565b6102456102403660046144e6565b61052d565b6040516001600160a01b039091168152602001610214565b61027061026b36600461451b565b610554565b005b610270610280366004614545565b6106a8565b61028d610720565b604051908152602001610214565b6102706102a9366004614545565b610942565b6102706102bc3660046144e6565b61095d565b6102706102cf36600461462d565b6109d4565b601354610245906001600160a01b031681565b6102456102f53660046144e6565b610ae8565b61028d610308366004614662565b610b4d565b610270610be7565b6006546001600160a01b0316610245565b610270610c9c565b610225610e01565b610225610e8f565b61027061034c36600461467d565b610e9e565b61027061035f366004614802565b611401565b61037761037236600461462d565b611410565b604051610214939291906149bf565b6102706103943660046149ea565b611ba0565b6102706103a7366004614a31565b611e00565b6102706103ba366004614aad565b611e78565b61022561225d565b6102706103d536600461462d565b61226a565b6102706103e83660046149ea565b6122e7565b6102256103fb3660046144e6565b6123af565b61022561040e3660046144e6565b6123ba565b61042661042136600461462d565b6123e5565b6040516102149190614b87565b610208610441366004614b9a565b6001600160a01b039182166000908152600d6020908152604080832093909416825291909152205460ff1690565b610225612b73565b610270610485366004614662565b612b80565b600061049582612b91565b92915050565b6060600880546104aa90614bcd565b80601f01602080910402602001604051908101604052809291908181526020018280546104d690614bcd565b80156105235780601f106104f857610100808354040283529160200191610523565b820191906000526020600020905b81548152906001019060200180831161050657829003601f168201915b5050505050905090565b600061053882612bcf565b506000908152600c60205260409020546001600160a01b031690565b600061055f82610ae8565b9050806001600160a01b0316836001600160a01b0316036105ed5760405162461bcd60e51b815260206004820152602160248201527f4552433732313a20617070726f76616c20746f2063757272656e74206f776e6560448201527f720000000000000000000000000000000000000000000000000000000000000060648201526084015b60405180910390fd5b336001600160a01b038216148061062757506001600160a01b0381166000908152600d6020908152604080832033845290915290205460ff165b6106995760405162461bcd60e51b815260206004820152603d60248201527f4552433732313a20617070726f76652063616c6c6572206973206e6f7420746f60448201527f6b656e206f776e6572206f7220617070726f76656420666f7220616c6c00000060648201526084016105e4565b6106a38383612c33565b505050565b6106b3335b82612ca1565b6107155760405162461bcd60e51b815260206004820152602d60248201527f4552433732313a2063616c6c6572206973206e6f7420746f6b656e206f776e6560448201526c1c881bdc88185c1c1c9bdd9959609a1b60648201526084016105e4565b6106a3838383612d20565b6000806107576107306014614c01565b307fc7b1df8300000000000000000000000000000000000000000000000000000000612f19565b90506107d86040518060400160405280600781526020017f73657276696365000000000000000000000000000000000000000000000000008152506040518060400160405280601281526020017f747275666c6174696f6e2f63757272656e74000000000000000000000000000081525083612faa9092919063ffffffff16565b6108576040518060400160405280600481526020017f64617461000000000000000000000000000000000000000000000000000000008152506040518060400160405280601181526020017f7b226c6f636174696f6e223a227573227d00000000000000000000000000000081525083612faa9092919063ffffffff16565b6108d66040518060400160405280600381526020017f61626900000000000000000000000000000000000000000000000000000000008152506040518060400160405280600481526020017f6a736f6e0000000000000000000000000000000000000000000000000000000081525083612faa9092919063ffffffff16565b60408051808201909152600881527f726566756e64546f000000000000000000000000000000000000000000000000602082015261092190610919336014612fc8565b839190612faa565b60135460155461093c916001600160a01b03169083906131b0565b91505090565b6106a383838360405180602001604052806000815250611e00565b610966336106ad565b6109c85760405162461bcd60e51b815260206004820152602d60248201527f4552433732313a2063616c6c6572206973206e6f7420746f6b656e206f776e6560448201526c1c881bdc88185c1c1c9bdd9959609a1b60648201526084016105e4565b6109d181613271565b50565b60006109ea6010543063b6a9a38a60e01b612f19565b905060166109f88382614c90565b50600082604051602001610a0c9190614d50565b60408051601f19818403018152828201909152600382527f676574000000000000000000000000000000000000000000000000000000000060208301529150610a5790839083612faa565b610ad66040518060400160405280600481526020017f70617468000000000000000000000000000000000000000000000000000000008152506040518060400160405280600881526020017f68617346696e657300000000000000000000000000000000000000000000000081525084612faa9092919063ffffffff16565b610ae28260115461327a565b50505050565b6000818152600a60205260408120546001600160a01b0316806104955760405162461bcd60e51b815260206004820152601860248201527f4552433732313a20696e76616c696420746f6b656e204944000000000000000060448201526064016105e4565b60006001600160a01b038216610bcb5760405162461bcd60e51b815260206004820152602960248201527f4552433732313a2061646472657373207a65726f206973206e6f74206120766160448201527f6c6964206f776e6572000000000000000000000000000000000000000000000060648201526084016105e4565b506001600160a01b03166000908152600b602052604090205490565b6007546001600160a01b03163314610c415760405162461bcd60e51b815260206004820152601660248201527f4d7573742062652070726f706f736564206f776e65720000000000000000000060448201526064016105e4565b600680546001600160a01b0319808216339081179093556007805490911690556040516001600160a01b03909116919082907f8be0079c531659141344cd1fd0a4f28419497f9722a3daafe3b4186f6b6457e090600090a350565b610ca4613294565b6000610cb86002546001600160a01b031690565b6040517f70a082310000000000000000000000000000000000000000000000000000000081523060048201529091506001600160a01b0382169063a9059cbb90339083906370a0823190602401602060405180830381865afa158015610d22573d6000803e3d6000fd5b505050506040513d601f19601f82011682018060405250810190610d469190614dbb565b6040516001600160e01b031960e085901b1681526001600160a01b03909216600483015260248201526044016020604051808303816000875af1158015610d91573d6000803e3d6000fd5b505050506040513d601f19601f82011682018060405250810190610db59190614dd4565b6109d15760405162461bcd60e51b815260206004820152601260248201527f556e61626c6520746f207472616e73666572000000000000000000000000000060448201526064016105e4565b60168054610e0e90614bcd565b80601f0160208091040260200160405190810160405280929190818152602001828054610e3a90614bcd565b8015610e875780601f10610e5c57610100808354040283529160200191610e87565b820191906000526020600020905b815481529060010190602001808311610e6a57829003601f168201915b505050505081565b6060600980546104aa90614bcd565b600f5460405163132dd0ff60e01b81523360048201526002916001600160a01b03169063132dd0ff90602401602060405180830381865afa158015610ee7573d6000803e3d6000fd5b505050506040513d601f19601f82011682018060405250810190610f0b9190614e07565b6003811115610f1c57610f1c614df1565b14610f695760405162461bcd60e51b815260206004820152601c60248201527f4f6e6c7920617574686f72697a6564204d616e7566616374757265720000000060448201526064016105e4565b600f5460405163132dd0ff60e01b81523360048201526002916001600160a01b03169063132dd0ff90602401602060405180830381865afa158015610fb2573d6000803e3d6000fd5b505050506040513d601f19601f82011682018060405250810190610fd69190614e07565b6003811115610fe757610fe7614df1565b10156110355760405162461bcd60e51b815260206004820152601c60248201527f4f6e6c7920617574686f72697a6564204d616e7566616374757265720000000060448201526064016105e4565b601b876040516110459190614e28565b9081526040519081900360200190205460ff16156110a55760405162461bcd60e51b815260206004820181905260248201527f436172207769746820746869732056494e20616c72656164792065786973747360448201526064016105e4565b60006110b060185490565b6110bb906001614e5a565b6000818152601c602052604090205490915060ff16156111425760405162461bcd60e51b8152602060048201526024808201527f4361722077697468207468697320746f6b656e496420616c726561647920657860448201527f697374730000000000000000000000000000000000000000000000000000000060648201526084016105e4565b6040518061018001604052808b81526020018a815260200189815260200188815260200187815260200186815260200185815260200160008152602001600067ffffffffffffffff81111561119957611199614581565b6040519080825280602002602001820160405280156111cc57816020015b60608152602001906001900390816111b75790505b508152602001600060405190808252806020026020018201604052801561120757816020015b60608152602001906001900390816111f25790505b508152602080820186905260006040928301819052848152601990915220815181906112339082614c90565b50602082015160018201906112489082614c90565b506040820151600282019061125d9082614c90565b50606082015160038201906112729082614c90565b50608082015160048201906112879082614c90565b5060a0820151600582019061129c9082614c90565b5060c082015160068201906112b19082614c90565b5060e0820151600782015561010082015180516112d891600884019160209091019061438e565b5061012082015180516112f591600984019160209091019061438e565b50610140820151600a82019061130b9082614c90565b506101609190910151600b909101805460ff19169115159190911790556040518190601a9061133b908b90614e28565b90815260405190819003602001902055611359601880546001019055565b6113638b826132f0565b61136d818361330a565b6001601b8960405161137f9190614e28565b908152604051908190036020019020805491151560ff19909216919091179055601780546001810182556000919091527fc624b66cc0138b8fabc209247f72d758e1cf3343756d543badbf24212bed8c15016113db8982614c90565b506000908152601c60205260409020805460ff1916600117905550505050505050505050565b61140c3383836133e4565b5050565b600061147860405180610180016040528060608152602001606081526020016060815260200160608152602001606081526020016060815260200160608152602001600081526020016060815260200160608152602001606081526020016000151581525090565b6060601b8460405161148a9190614e28565b9081526040519081900360200190205460ff1615156001146114ee5760405162461bcd60e51b815260206004820181905260248201527f436172207769746820746869732056494e20646f6573206e6f7420657869737460448201526064016105e4565b601a846040516114fe9190614e28565b9081526020016040518091039020549250600060196000858152602001908152602001600020905060405180610180016040528082600001805461154190614bcd565b80601f016020809104026020016040519081016040528092919081815260200182805461156d90614bcd565b80156115ba5780601f1061158f576101008083540402835291602001916115ba565b820191906000526020600020905b81548152906001019060200180831161159d57829003601f168201915b505050505081526020018260010180546115d390614bcd565b80601f01602080910402602001604051908101604052809291908181526020018280546115ff90614bcd565b801561164c5780601f106116215761010080835404028352916020019161164c565b820191906000526020600020905b81548152906001019060200180831161162f57829003601f168201915b5050505050815260200182600201805461166590614bcd565b80601f016020809104026020016040519081016040528092919081815260200182805461169190614bcd565b80156116de5780601f106116b3576101008083540402835291602001916116de565b820191906000526020600020905b8154815290600101906020018083116116c157829003601f168201915b505050505081526020018260030180546116f790614bcd565b80601f016020809104026020016040519081016040528092919081815260200182805461172390614bcd565b80156117705780601f1061174557610100808354040283529160200191611770565b820191906000526020600020905b81548152906001019060200180831161175357829003601f168201915b5050505050815260200182600401805461178990614bcd565b80601f01602080910402602001604051908101604052809291908181526020018280546117b590614bcd565b80156118025780601f106117d757610100808354040283529160200191611802565b820191906000526020600020905b8154815290600101906020018083116117e557829003601f168201915b5050505050815260200182600501805461181b90614bcd565b80601f016020809104026020016040519081016040528092919081815260200182805461184790614bcd565b80156118945780601f1061186957610100808354040283529160200191611894565b820191906000526020600020905b81548152906001019060200180831161187757829003601f168201915b505050505081526020018260060180546118ad90614bcd565b80601f01602080910402602001604051908101604052809291908181526020018280546118d990614bcd565b80156119265780601f106118fb57610100808354040283529160200191611926565b820191906000526020600020905b81548152906001019060200180831161190957829003601f168201915b505050505081526020018260070154815260200182600801805480602002602001604051908101604052809291908181526020016000905b82821015611a0a57838290600052602060002001805461197d90614bcd565b80601f01602080910402602001604051908101604052809291908181526020018280546119a990614bcd565b80156119f65780601f106119cb576101008083540402835291602001916119f6565b820191906000526020600020905b8154815290600101906020018083116119d957829003601f168201915b50505050508152602001906001019061195e565b50505050815260200182600901805480602002602001604051908101604052809291908181526020016000905b82821015611ae3578382906000526020600020018054611a5690614bcd565b80601f0160208091040260200160405190810160405280929190818152602001828054611a8290614bcd565b8015611acf5780601f10611aa457610100808354040283529160200191611acf565b820191906000526020600020905b815481529060010190602001808311611ab257829003601f168201915b505050505081526020019060010190611a37565b50505050815260200182600a018054611afb90614bcd565b80601f0160208091040260200160405190810160405280929190818152602001828054611b2790614bcd565b8015611b745780601f10611b4957610100808354040283529160200191611b74565b820191906000526020600020905b815481529060010190602001808311611b5757829003601f168201915b5050509183525050600b83015460ff1615156020909101529250611b97846134b2565b93959294505050565b60008281526005602052604090205482906001600160a01b03163314611c195760405162461bcd60e51b815260206004820152602860248201527f536f75726365206d75737420626520746865206f7261636c65206f6620746865604482015267081c995c5d595cdd60c21b60648201526084016105e4565b60008181526005602052604080822080546001600160a01b03191690555182917f7cc135e0cebb02c3480ae5d74d377283180a2601f8f644edf7987b009316c63a91a26000601a6016604051611c6f9190614ee0565b9081526040805160209281900383019020546000818152601990935291209091505b6040805160208101825260009052517fc5d2460186f7233c927e7db2dcc703c0e500b653ca82273b7bfad8045d85a47090611cce90601690614ee0565b604051809103902014611df95760408051808201909152600481527f74727565000000000000000000000000000000000000000000000000000000006020918201528451908501207f9d8ceae06a69e9d97ffb4a7244de1a37ae48472fbb674b55411edd6e2dd03fcc01611d6957600b8101805460ff19166001179055604080516020810190915260008152601690611d679082614c90565b505b60408051808201909152600581527f66616c73650000000000000000000000000000000000000000000000000000006020918201528451908501207f456eab1f455963871f35a9c4798207e45162e883b15ebad3ca37bc7958f0f08601611df457600b8101805460ff19169055604080516020810190915260008152601690611df29082614c90565b505b611c91565b5050505050565b611e0a3383612ca1565b611e6c5760405162461bcd60e51b815260206004820152602d60248201527f4552433732313a2063616c6c6572206973206e6f7420746f6b656e206f776e6560448201526c1c881bdc88185c1c1c9bdd9959609a1b60648201526084016105e4565b610ae2848484846135ba565b600f5460405163132dd0ff60e01b81523360048201526001916001600160a01b03169063132dd0ff90602401602060405180830381865afa158015611ec1573d6000803e3d6000fd5b505050506040513d601f19601f82011682018060405250810190611ee59190614e07565b6003811115611ef657611ef6614df1565b14611f435760405162461bcd60e51b815260206004820152601860248201527f4f6e6c7920617574686f72697a656420576f726b73686f70000000000000000060448201526064016105e4565b600f5460405163132dd0ff60e01b81523360048201526001916001600160a01b03169063132dd0ff90602401602060405180830381865afa158015611f8c573d6000803e3d6000fd5b505050506040513d601f19601f82011682018060405250810190611fb09190614e07565b6003811115611fc157611fc1614df1565b101561200f5760405162461bcd60e51b815260206004820152601860248201527f4f6e6c7920617574686f72697a656420576f726b73686f70000000000000000060448201526064016105e4565b601b8660405161201f9190614e28565b9081526040519081900360200190205460ff1615156001146120835760405162461bcd60e51b815260206004820181905260248201527f436172207769746820746869732056494e20646f6573206e6f7420657869737460448201526064016105e4565b6000601a876040516120959190614e28565b90815260200160405180910390205490506000601960008381526020019081526020016000209050868160070154106121365760405162461bcd60e51b815260206004820152603860248201527f4e6577206d696c656167652076616c7565206d7573742062652067726561746560448201527f72207468616e207468652063757272656e742076616c7565000000000000000060648201526084016105e4565b6007810187905585511580159061219357506040805180820190915260098152681d5b9919599a5b995960ba1b6020918201528651908701207f019726c6babc1de231f26fd6cbb2df2c912784a2e1ba55295496269a6d3ff65114155b156121bb5760088101805460018101825560009182526020909120016121b98782614c90565b505b6000855111801561221257506040805180820190915260098152681d5b9919599a5b995960ba1b6020918201528551908601207f019726c6babc1de231f26fd6cbb2df2c912784a2e1ba55295496269a6d3ff65114155b1561223a5760098101805460018101825560009182526020909120016122388682614c90565b505b612244828561330a565b600a81016122528482614c90565b505050505050505050565b60148054610e0e90614bcd565b601b8160405161227a9190614e28565b9081526040519081900360200190205460ff1615156001146122de5760405162461bcd60e51b815260206004820181905260248201527f436172207769746820746869732056494e20646f6573206e6f7420657869737460448201526064016105e4565b6109d1816109d4565b60008281526005602052604090205482906001600160a01b031633146123605760405162461bcd60e51b815260206004820152602860248201527f536f75726365206d75737420626520746865206f7261636c65206f6620746865604482015267081c995c5d595cdd60c21b60648201526084016105e4565b60008181526005602052604080822080546001600160a01b03191690555182917f7cc135e0cebb02c3480ae5d74d377283180a2601f8f644edf7987b009316c63a91a26012610ae28382614c90565b6060610495826134b2565b601781815481106123ca57600080fd5b906000526020600020016000915090508054610e0e90614bcd565b61244b60405180610180016040528060608152602001606081526020016060815260200160608152602001606081526020016060815260200160608152602001600081526020016060815260200160608152602001606081526020016000151581525090565b601b8260405161245b9190614e28565b9081526040519081900360200190205460ff1615156001146124bf5760405162461bcd60e51b815260206004820181905260248201527f436172207769746820746869732056494e20646f6573206e6f7420657869737460448201526064016105e4565b6124c8826109d4565b6000601a836040516124da9190614e28565b9081526020016040518091039020549050600060196000838152602001908152602001600020905060405180610180016040528082600001805461251d90614bcd565b80601f016020809104026020016040519081016040528092919081815260200182805461254990614bcd565b80156125965780601f1061256b57610100808354040283529160200191612596565b820191906000526020600020905b81548152906001019060200180831161257957829003601f168201915b505050505081526020018260010180546125af90614bcd565b80601f01602080910402602001604051908101604052809291908181526020018280546125db90614bcd565b80156126285780601f106125fd57610100808354040283529160200191612628565b820191906000526020600020905b81548152906001019060200180831161260b57829003601f168201915b5050505050815260200182600201805461264190614bcd565b80601f016020809104026020016040519081016040528092919081815260200182805461266d90614bcd565b80156126ba5780601f1061268f576101008083540402835291602001916126ba565b820191906000526020600020905b81548152906001019060200180831161269d57829003601f168201915b505050505081526020018260030180546126d390614bcd565b80601f01602080910402602001604051908101604052809291908181526020018280546126ff90614bcd565b801561274c5780601f106127215761010080835404028352916020019161274c565b820191906000526020600020905b81548152906001019060200180831161272f57829003601f168201915b5050505050815260200182600401805461276590614bcd565b80601f016020809104026020016040519081016040528092919081815260200182805461279190614bcd565b80156127de5780601f106127b3576101008083540402835291602001916127de565b820191906000526020600020905b8154815290600101906020018083116127c157829003601f168201915b505050505081526020018260050180546127f790614bcd565b80601f016020809104026020016040519081016040528092919081815260200182805461282390614bcd565b80156128705780601f1061284557610100808354040283529160200191612870565b820191906000526020600020905b81548152906001019060200180831161285357829003601f168201915b5050505050815260200182600601805461288990614bcd565b80601f01602080910402602001604051908101604052809291908181526020018280546128b590614bcd565b80156129025780601f106128d757610100808354040283529160200191612902565b820191906000526020600020905b8154815290600101906020018083116128e557829003601f168201915b505050505081526020018260070154815260200182600801805480602002602001604051908101604052809291908181526020016000905b828210156129e657838290600052602060002001805461295990614bcd565b80601f016020809104026020016040519081016040528092919081815260200182805461298590614bcd565b80156129d25780601f106129a7576101008083540402835291602001916129d2565b820191906000526020600020905b8154815290600101906020018083116129b557829003601f168201915b50505050508152602001906001019061293a565b50505050815260200182600901805480602002602001604051908101604052809291908181526020016000905b82821015612abf578382906000526020600020018054612a3290614bcd565b80601f0160208091040260200160405190810160405280929190818152602001828054612a5e90614bcd565b8015612aab5780601f10612a8057610100808354040283529160200191612aab565b820191906000526020600020905b815481529060010190602001808311612a8e57829003601f168201915b505050505081526020019060010190612a13565b50505050815260200182600a018054612ad790614bcd565b80601f0160208091040260200160405190810160405280929190818152602001828054612b0390614bcd565b8015612b505780601f10612b2557610100808354040283529160200191612b50565b820191906000526020600020905b815481529060010190602001808311612b3357829003601f168201915b5050509183525050600b9092015460ff1615156020909201919091529392505050565b60128054610e0e90614bcd565b612b88613294565b6109d181613638565b60006001600160e01b031982167f490649060000000000000000000000000000000000000000000000000000000014806104955750610495826136e2565b6000818152600a60205260409020546001600160a01b03166109d15760405162461bcd60e51b815260206004820152601860248201527f4552433732313a20696e76616c696420746f6b656e204944000000000000000060448201526064016105e4565b6000818152600c6020526040902080546001600160a01b0319166001600160a01b0384169081179091558190612c6882610ae8565b6001600160a01b03167f8c5be1e5ebec7d5bd14f71427d1e84f3dd0314c0f7b2291e5b200ac8c7c3b92560405160405180910390a45050565b600080612cad83610ae8565b9050806001600160a01b0316846001600160a01b03161480612cf457506001600160a01b038082166000908152600d602090815260408083209388168352929052205460ff165b80612d185750836001600160a01b0316612d0d8461052d565b6001600160a01b0316145b949350505050565b826001600160a01b0316612d3382610ae8565b6001600160a01b031614612d975760405162461bcd60e51b815260206004820152602560248201527f4552433732313a207472616e736665722066726f6d20696e636f72726563742060448201526437bbb732b960d91b60648201526084016105e4565b6001600160a01b038216612e125760405162461bcd60e51b8152602060048201526024808201527f4552433732313a207472616e7366657220746f20746865207a65726f2061646460448201527f726573730000000000000000000000000000000000000000000000000000000060648201526084016105e4565b826001600160a01b0316612e2582610ae8565b6001600160a01b031614612e895760405162461bcd60e51b815260206004820152602560248201527f4552433732313a207472616e736665722066726f6d20696e636f72726563742060448201526437bbb732b960d91b60648201526084016105e4565b6000818152600c6020908152604080832080546001600160a01b03199081169091556001600160a01b03878116808652600b8552838620805460001901905590871680865283862080546001019055868652600a90945282852080549092168417909155905184937fddf252ad1be2c89b69c2b068fc378daa952ba7f163c4a11628f55a4df523b3ef91a4505050565b612f576040805160a0810182526000808252602080830182905282840182905260608084018390528451808601909552845283015290608082015290565b612f956040805160a0810182526000808252602080830182905282840182905260608084018390528451808601909552845283015290608082015290565b612fa18186868661377d565b95945050505050565b6080830151612fb990836137f0565b60808301516106a390826137f0565b60606000612fd7836002614eec565b612fe2906002614e5a565b67ffffffffffffffff811115612ffa57612ffa614581565b6040519080825280601f01601f191660200182016040528015613024576020820181803683370190505b5090507f30000000000000000000000000000000000000000000000000000000000000008160008151811061305b5761305b614f03565b60200101906001600160f81b031916908160001a9053507f7800000000000000000000000000000000000000000000000000000000000000816001815181106130a6576130a6614f03565b60200101906001600160f81b031916908160001a90535060006130ca846002614eec565b6130d5906001614e5a565b90505b600181111561315a577f303132333435363738396162636465660000000000000000000000000000000085600f166010811061311657613116614f03565b1a60f81b82828151811061312c5761312c614f03565b60200101906001600160f81b031916908160001a90535060049490941c9361315381614f19565b90506130d8565b5083156131a95760405162461bcd60e51b815260206004820181905260248201527f537472696e67733a20686578206c656e67746820696e73756666696369656e7460448201526064016105e4565b9392505050565b6004546000906131c1816001614e5a565b600455835160408086015160808701515191516000937f4042994600000000000000000000000000000000000000000000000000000000936132129386938493923092918a91600191602401614f30565b60408051601f198184030181529190526020810180517bffffffffffffffffffffffffffffffffffffffffffffffffffffffff166001600160e01b031990931692909217909152905061326786838684613807565b9695505050505050565b6109d181613998565b6003546000906131a9906001600160a01b031684846131b0565b6006546001600160a01b031633146132ee5760405162461bcd60e51b815260206004820152601660248201527f4f6e6c792063616c6c61626c65206279206f776e65720000000000000000000060448201526064016105e4565b565b61140c8282604051806020016040528060008152506139d8565b6000828152600a60205260409020546001600160a01b03166133945760405162461bcd60e51b815260206004820152602e60248201527f45524337323155524953746f726167653a2055524920736574206f66206e6f6e60448201527f6578697374656e7420746f6b656e00000000000000000000000000000000000060648201526084016105e4565b6000828152600e602052604090206133ac8282614c90565b506040518281527ff8e1a15aba9398e019f0b49df1a4fde98ee17ae345cb5f6b5e2c27f5033e8ce79060200160405180910390a15050565b816001600160a01b0316836001600160a01b0316036134455760405162461bcd60e51b815260206004820152601960248201527f4552433732313a20617070726f766520746f2063616c6c65720000000000000060448201526064016105e4565b6001600160a01b038381166000818152600d6020908152604080832094871680845294825291829020805460ff191686151590811790915591519182527f17307eab39ab6107e8899845ad3d59bd9653f200f220920489ca2b5937696c31910160405180910390a3505050565b60606134bd82612bcf565b6000828152600e6020526040812080546134d690614bcd565b80601f016020809104026020016040519081016040528092919081815260200182805461350290614bcd565b801561354f5780601f106135245761010080835404028352916020019161354f565b820191906000526020600020905b81548152906001019060200180831161353257829003601f168201915b50505050509050600061356d60408051602081019091526000815290565b9050805160000361357f575092915050565b8151156135b1578082604051602001613599929190614f94565b60405160208183030381529060405292505050919050565b612d1884613a56565b6135c5848484612d20565b6135d184848484613ac9565b610ae25760405162461bcd60e51b815260206004820152603260248201527f4552433732313a207472616e7366657220746f206e6f6e20455243373231526560448201527131b2b4bb32b91034b6b83632b6b2b73a32b960711b60648201526084016105e4565b336001600160a01b038216036136905760405162461bcd60e51b815260206004820152601760248201527f43616e6e6f74207472616e7366657220746f2073656c6600000000000000000060448201526064016105e4565b600780546001600160a01b0319166001600160a01b03838116918217909255600654604051919216907fed8889f560326eb138920d842192f0eb3dd22b4f139c87a2c57538e05bae127890600090a350565b60006001600160e01b031982167f80ac58cd00000000000000000000000000000000000000000000000000000000148061374557506001600160e01b031982167f5b5e139f00000000000000000000000000000000000000000000000000000000145b8061049557507f01ffc9a7000000000000000000000000000000000000000000000000000000006001600160e01b0319831614610495565b6137bb6040805160a0810182526000808252602080830182905282840182905260608084018390528451808601909552845283015290608082015290565b6137cb8560800151610100613c12565b50509183526001600160a01b031660208301526001600160e01b031916604082015290565b6137fd8260038351613c77565b6106a38282613d86565b6040516bffffffffffffffffffffffff193060601b1660208201526034810184905260009060540160408051808303601f1901815282825280516020918201206000818152600590925291812080546001600160a01b0319166001600160a01b038a1617905590925082917fb5e6e01e79f91267dc17b4e6314d5d4d03593d2ceee0fbb452b750bd70ea5af99190a26002546040517f4000aea00000000000000000000000000000000000000000000000000000000081526001600160a01b0390911690634000aea0906138e390889087908790600401614fc3565b6020604051808303816000875af1158015613902573d6000803e3d6000fd5b505050506040513d601f19601f820116820180604052508101906139269190614dd4565b612d185760405162461bcd60e51b815260206004820152602360248201527f756e61626c6520746f207472616e73666572416e6443616c6c20746f206f726160448201527f636c65000000000000000000000000000000000000000000000000000000000060648201526084016105e4565b6139a181613dad565b6000818152600e6020526040902080546139ba90614bcd565b1590506109d1576000818152600e602052604081206109d1916143e4565b6139e28383613e42565b6139ef6000848484613ac9565b6106a35760405162461bcd60e51b815260206004820152603260248201527f4552433732313a207472616e7366657220746f206e6f6e20455243373231526560448201527131b2b4bb32b91034b6b83632b6b2b73a32b960711b60648201526084016105e4565b6060613a6182612bcf565b6000613a7860408051602081019091526000815290565b90506000815111613a9857604051806020016040528060008152506131a9565b80613aa284613fcd565b604051602001613ab3929190614f94565b6040516020818303038152906040529392505050565b60006001600160a01b0384163b15613c0a57604051630a85bd0160e11b81526001600160a01b0385169063150b7a0290613b0d903390899088908890600401614feb565b6020604051808303816000875af1925050508015613b48575060408051601f3d908101601f19168201909252613b459181019061501d565b60015b613bf0573d808015613b76576040519150601f19603f3d011682016040523d82523d6000602084013e613b7b565b606091505b508051600003613be85760405162461bcd60e51b815260206004820152603260248201527f4552433732313a207472616e7366657220746f206e6f6e20455243373231526560448201527131b2b4bb32b91034b6b83632b6b2b73a32b960711b60648201526084016105e4565b805181602001fd5b6001600160e01b031916630a85bd0160e11b149050612d18565b506001612d18565b604080518082019091526060815260006020820152613c3260208361503a565b15613c5a57613c4260208361503a565b613c4d90602061505c565b613c579083614e5a565b91505b506020828101829052604080518085526000815290920101905290565b60178167ffffffffffffffff1611613c9c57610ae28360e0600585901b16831761406d565b60ff8167ffffffffffffffff1611613cda57613cc3836018611fe0600586901b161761406d565b50610ae28367ffffffffffffffff83166001614092565b61ffff8167ffffffffffffffff1611613d1957613d02836019611fe0600586901b161761406d565b50610ae28367ffffffffffffffff83166002614092565b63ffffffff8167ffffffffffffffff1611613d5a57613d4383601a611fe0600586901b161761406d565b50610ae28367ffffffffffffffff83166004614092565b613d6f83601b611fe0600586901b161761406d565b50610ae28367ffffffffffffffff83166008614092565b6040805180820190915260608152600060208201526131a9838460000151518485516140b8565b6000613db882610ae8565b9050613dc382610ae8565b6000838152600c6020908152604080832080546001600160a01b03199081169091556001600160a01b038516808552600b84528285208054600019019055878552600a909352818420805490911690555192935084927fddf252ad1be2c89b69c2b068fc378daa952ba7f163c4a11628f55a4df523b3ef908390a45050565b6001600160a01b038216613e985760405162461bcd60e51b815260206004820181905260248201527f4552433732313a206d696e7420746f20746865207a65726f206164647265737360448201526064016105e4565b6000818152600a60205260409020546001600160a01b031615613efd5760405162461bcd60e51b815260206004820152601c60248201527f4552433732313a20746f6b656e20616c7265616479206d696e7465640000000060448201526064016105e4565b6000818152600a60205260409020546001600160a01b031615613f625760405162461bcd60e51b815260206004820152601c60248201527f4552433732313a20746f6b656e20616c7265616479206d696e7465640000000060448201526064016105e4565b6001600160a01b0382166000818152600b6020908152604080832080546001019055848352600a90915280822080546001600160a01b0319168417905551839291907fddf252ad1be2c89b69c2b068fc378daa952ba7f163c4a11628f55a4df523b3ef908290a45050565b60606000613fda836141a2565b600101905060008167ffffffffffffffff811115613ffa57613ffa614581565b6040519080825280601f01601f191660200182016040528015614024576020820181803683370190505b5090508181016020015b600019017f3031323334353637383961626364656600000000000000000000000000000000600a86061a8153600a850494508461402e57509392505050565b6040805180820190915260608152600060208201526131a98384600001515184614284565b604080518082019091526060815260006020820152612d188485600001515185856142df565b60408051808201909152606081526000602082015282518211156140db57600080fd5b60208501516140ea8386614e5a565b111561411d5761411d8561410d876020015187866141089190614e5a565b614360565b614118906002614eec565b614377565b60008086518051876020830101935080888701111561413c5787860182525b505050602084015b6020841061417c578051825261415b602083614e5a565b9150614168602082614e5a565b905061417560208561505c565b9350614144565b51815160001960208690036101000a019081169019919091161790525083949350505050565b6000807a184f03e93ff9f4daa797ed6e38ed64bf6a1f01000000000000000083106141eb577a184f03e93ff9f4daa797ed6e38ed64bf6a1f010000000000000000830492506040015b6d04ee2d6d415b85acef81000000008310614217576d04ee2d6d415b85acef8100000000830492506020015b662386f26fc10000831061423557662386f26fc10000830492506010015b6305f5e100831061424d576305f5e100830492506008015b612710831061426157612710830492506004015b60648310614273576064830492506002015b600a83106104955760010192915050565b604080518082019091526060815260006020820152836020015183106142b9576142b984856020015160026141189190614eec565b83518051602085830101848153508085036142d5576001810182525b5093949350505050565b60408051808201909152606081526000602082015260208501516143038584614e5a565b1115614317576143178561410d8685614e5a565b6000600161432784610100615153565b614331919061505c565b90508551838682010185831982511617815250805184870111156143555783860181525b509495945050505050565b600081831115614371575081610495565b50919050565b81516143838383613c12565b50610ae28382613d86565b8280548282559060005260206000209081019282156143d4579160200282015b828111156143d457825182906143c49082614c90565b50916020019190600101906143ae565b506143e092915061441e565b5090565b5080546143f090614bcd565b6000825580601f10614400575050565b601f0160209004906000526020600020908101906109d1919061443b565b808211156143e057600061443282826143e4565b5060010161441e565b5b808211156143e0576000815560010161443c565b6001600160e01b0319811681146109d157600080fd5b60006020828403121561447857600080fd5b81356131a981614450565b60005b8381101561449e578181015183820152602001614486565b50506000910152565b600081518084526144bf816020860160208601614483565b601f01601f19169290920160200192915050565b6020815260006131a960208301846144a7565b6000602082840312156144f857600080fd5b5035919050565b80356001600160a01b038116811461451657600080fd5b919050565b6000806040838503121561452e57600080fd5b614537836144ff565b946020939093013593505050565b60008060006060848603121561455a57600080fd5b614563846144ff565b9250614571602085016144ff565b9150604084013590509250925092565b634e487b7160e01b600052604160045260246000fd5b600067ffffffffffffffff808411156145b2576145b2614581565b604051601f8501601f19908116603f011681019082821181831017156145da576145da614581565b816040528093508581528686860111156145f357600080fd5b858560208301376000602087830101525050509392505050565b600082601f83011261461e57600080fd5b6131a983833560208501614597565b60006020828403121561463f57600080fd5b813567ffffffffffffffff81111561465657600080fd5b612d188482850161460d565b60006020828403121561467457600080fd5b6131a9826144ff565b6000806000806000806000806000806101408b8d03121561469d57600080fd5b6146a68b6144ff565b995060208b013567ffffffffffffffff808211156146c357600080fd5b6146cf8e838f0161460d565b9a5060408d01359150808211156146e557600080fd5b6146f18e838f0161460d565b995060608d013591508082111561470757600080fd5b6147138e838f0161460d565b985060808d013591508082111561472957600080fd5b6147358e838f0161460d565b975060a08d013591508082111561474b57600080fd5b6147578e838f0161460d565b965060c08d013591508082111561476d57600080fd5b6147798e838f0161460d565b955060e08d013591508082111561478f57600080fd5b61479b8e838f0161460d565b94506101008d01359150808211156147b257600080fd5b6147be8e838f0161460d565b93506101208d01359150808211156147d557600080fd5b506147e28d828e0161460d565b9150509295989b9194979a5092959850565b80151581146109d157600080fd5b6000806040838503121561481557600080fd5b61481e836144ff565b9150602083013561482e816147f4565b809150509250929050565b600081518084526020808501808196508360051b8101915082860160005b8581101561488157828403895261486f8483516144a7565b98850198935090840190600101614857565b5091979650505050505050565b600061018082518185526148a4828601826144a7565b915050602083015184820360208601526148be82826144a7565b915050604083015184820360408601526148d882826144a7565b915050606083015184820360608601526148f282826144a7565b9150506080830151848203608086015261490c82826144a7565b91505060a083015184820360a086015261492682826144a7565b91505060c083015184820360c086015261494082826144a7565b91505060e083015160e085015261010080840151858303828701526149658382614839565b9250505061012080840151858303828701526149818382614839565b92505050610140808401518583038287015261499d83826144a7565b92505050610160808401516149b58287018215159052565b5090949350505050565b8381526060602082015260006149d8606083018561488e565b828103604084015261326781856144a7565b600080604083850312156149fd57600080fd5b82359150602083013567ffffffffffffffff811115614a1b57600080fd5b614a278582860161460d565b9150509250929050565b60008060008060808587031215614a4757600080fd5b614a50856144ff565b9350614a5e602086016144ff565b925060408501359150606085013567ffffffffffffffff811115614a8157600080fd5b8501601f81018713614a9257600080fd5b614aa187823560208401614597565b91505092959194509250565b60008060008060008060c08789031215614ac657600080fd5b863567ffffffffffffffff80821115614ade57600080fd5b614aea8a838b0161460d565b9750602089013596506040890135915080821115614b0757600080fd5b614b138a838b0161460d565b95506060890135915080821115614b2957600080fd5b614b358a838b0161460d565b94506080890135915080821115614b4b57600080fd5b614b578a838b0161460d565b935060a0890135915080821115614b6d57600080fd5b50614b7a89828a0161460d565b9150509295509295509295565b6020815260006131a9602083018461488e565b60008060408385031215614bad57600080fd5b614bb6836144ff565b9150614bc4602084016144ff565b90509250929050565b600181811c90821680614be157607f821691505b60208210810361437157634e487b7160e01b600052602260045260246000fd5b6000614c0d8254614bcd565b82601f821115614c235783600052602060002090505b54915060208110156143715760001960209190910360031b1b16919050565b601f8211156106a357600081815260208120601f850160051c81016020861015614c695750805b601f850160051c820191505b81811015614c8857828155600101614c75565b505050505050565b815167ffffffffffffffff811115614caa57614caa614581565b614cbe81614cb88454614bcd565b84614c42565b602080601f831160018114614cf35760008415614cdb5750858301515b600019600386901b1c1916600185901b178555614c88565b600085815260208120601f198616915b82811015614d2257888601518255948401946001909101908401614d03565b5085821015614d405787850151600019600388901b60f8161c191681555b5050505050600190811b01905550565b7f68747470733a2f2f66696e65732d6170692e6f6e72656e6465722e636f6d2f6381527f6172732f66696e65732f00000000000000000000000000000000000000000000602082015260008251614dae81602a850160208701614483565b91909101602a0192915050565b600060208284031215614dcd57600080fd5b5051919050565b600060208284031215614de657600080fd5b81516131a9816147f4565b634e487b7160e01b600052602160045260246000fd5b600060208284031215614e1957600080fd5b8151600481106131a957600080fd5b60008251614e3a818460208701614483565b9190910192915050565b634e487b7160e01b600052601160045260246000fd5b8082018082111561049557610495614e44565b60008154614e7a81614bcd565b60018281168015614e925760018114614ea757614ed6565b60ff1984168752821515830287019450614ed6565b8560005260208060002060005b85811015614ecd5781548a820152908401908201614eb4565b50505082870194505b5050505092915050565b60006131a98284614e6d565b808202811582820484141761049557610495614e44565b634e487b7160e01b600052603260045260246000fd5b600081614f2857614f28614e44565b506000190190565b60006101006001600160a01b03808c1684528a60208501528960408501528089166060850152506001600160e01b0319871660808401528560a08401528460c08401528060e0840152614f85818401856144a7565b9b9a5050505050505050505050565b60008351614fa6818460208801614483565b835190830190614fba818360208801614483565b01949350505050565b6001600160a01b0384168152826020820152606060408201526000612fa160608301846144a7565b60006001600160a01b0380871683528086166020840152508360408301526080606083015261326760808301846144a7565b60006020828403121561502f57600080fd5b81516131a981614450565b60008261505757634e487b7160e01b600052601260045260246000fd5b500690565b8181038181111561049557610495614e44565b600181815b808511156150aa57816000190482111561509057615090614e44565b8085161561509d57918102915b93841c9390800290615074565b509250929050565b6000826150c157506001610495565b816150ce57506000610495565b81600181146150e457600281146150ee5761510a565b6001915050610495565b60ff8411156150ff576150ff614e44565b50506001821b610495565b5060208310610133831016604e8410600b841016171561512d575081810a610495565b615137838361506f565b806000190482111561514b5761514b614e44565b029392505050565b60006131a983836150b256fea2646970667358221220cc0ff7829af9d5f25bb2446faeb2fda20aef7c5c8a5fa9428ac6168d0ef73e9e64736f6c63430008110033",
  "linkReferences": {},
  "deployedLinkReferences": {}
}